:020000040000fa
:080000000002040000000000f2
:020000040000fa
:10000800d2020000d2020000d2020000d202000098
:10001800d2020000d2020000d2020000d202000088
:10002800d2020000d2020000d2020000d202000078
:10003800d2020000d2020000d2020000d202000068
:020000040000fa
:100400000f0021000eff2d000e01880000000000eb
:10041000000020000000e000020032000001200087
:10042000200288000c000700803b20000100200013
:100430000f000700000020000000e0000200320072
:100440000000020000000000d602020000000000d0
:100450000040da000000fe00200020000000e00064
:100460000200320010002000900188000000060009
:10047000a1028800800078000000eb001a0037001d
:10048000e280400054a0b4009101ba00e280400034
:1004900054a0b4009102ba00e280400054a0b4001d
:1004a0000002eb00472bde00f507b200a601880032
:1004b000602ce10008003a000049eb000201e8006e
:1004c000020039003420ec0002f0a0008301e900b2
:1004d000f9ff3e00040037006128e100010032000e
:1004e0000082eb00040007001101ba000200e000e6
:1004f000e3ff3a000000060004d0a300e20f490029
:100500001c003900810278003549ba000201e80078
:10051000020039003420ec0002f0a0008301e90061
:100520000f0032002549ba000201e800020039003c
:100530003420ec0002f0a0008301e9000800320042
:100540000400e0000600320015c9ba000201e8000c
:10055000020039003420ec0002f0a0008301e90021
:100560008180e80054a0b4000300e000e2ff3a00fc
:10057000000006009102ba00055978008301e900e5
:10058000f7ff3200c82ade00055978008301e90030
:10059000f3ff32000400e000f1ff320011d9ba008d
:0c05a000eeff37000040da000000fe0013
:020000040000fa
:1005ac000000fa0040a7a9000002eb00847288004a
:1005bc0064022000343a8800243a80000460a100d0
:1005cc000470a100243a8800253a800004fe2f0014
:1005dc0004826200243a8800360020008407200040
:1005ec00a509200037742000844b7800854b7800d7
:1005fc00864b7800143a8000040378000600a000b3
:10060c00640420007505200027742000844b7800ba
:10061c00854b7800864b780000000000143a80006f
:10062c0061026200e00f5200fcff3a000000000083
:10063c00153a800004002700848262000400230025
:10064c00848f5200faff3a0000000000153a800037
:10065c000402200004826200e00f5200fbff320013
:10066c0031e2a90031a2a9003182a9003162a800af
:10067c00841180000480a1000490a10084118800e2
:10068c0030e2a90030c2a90030a2a9003062a90052
:10069c00841180000410a1000420a10084118800a2
:1006ac003002a90034102000c411880033e2a900e4
:1006bc0033c2a90033a2a9003362a9003342a900b6
:1006cc003322a9003302a900941180000460a10018
:1006dc000470a1009411880032a2a9003222a90052
:1006ec0095348000f40f2c008482620004302000ca
:1006fc00050272009434880031e2a8003342a8004d
:10070c00e4042000a4118800526ea8000096210079
:10071c005118200005000700526ea9000096210018
:0c072c005118200001000700f5ff370005
:020000040000fa
:10073800f03fb1000180b10006003500ee0309006a
:1007480000000000403fb1000180b100fbff3d0008
:100758001000b000203fb000020035000080090002
:08076800000000000000060083
:020000040000fa
:040770000000000085
:020000040000fa
:0200000401f009
:04000800cfffff0027
:020000040000fa
:0200000401f009
:04000c00fbffff00f7
:020000040000fa
:0200000401f009
:040010005effff0090
:020000040000fa
:0200000401f009
:040014005fffff008b
:020000040000fa
:0200000401f009
:04001800f7ffff00ef
:020000040000fa
:0200000401f009
:04001c00ddffff0005
:020000040000fa
:0200000401f009
:04002000cfffff000f
:00000001FF
