:020000040000fa
:080000000002040000000000f2
:020000040000fa
:10000800d2020000d2020000d2020000d202000098
:10001800d2020000d2020000d2020000d202000088
:10002800d2020000d2020000d2020000d202000078
:10003800d2020000d2020000d2020000d202000068
:100048003a3e0000d2020000d2020000d2020000b4
:10005800d2020000d2020000d2020000d202000048
:10006800d2020000d2020000d2020000d202000038
:10007800d2020000d2020000d2020000d202000028
:10008800d2020000d2020000d2020000d202000018
:10009800d2020000d2020000d20200006c5600001a
:1000a800d2020000d2020000d2020000d2020000f8
:1000b800d2020000d2020000d2020000d2020000e8
:1000c800d2020000d2020000d2020000d2020000d8
:1000d800d2020000d2020000d2020000d2020000c8
:1000e800d2020000d2020000d2020000d2020000b8
:1000f800d2020000d2020000d2020000d2020000a8
:10010800d2020000d2020000d2020000d202000097
:10011800d2020000d2020000d2020000d202000087
:10012800d2020000d2020000d2020000d202000077
:10013800d2020000d2020000d2020000d202000067
:10014800d2020000d2020000d2020000d202000057
:10015800d2020000d2020000d2020000d202000047
:10016800d2020000d2020000d2020000d202000037
:10017800d2020000d2020000d2020000d202000027
:10018800d2020000d2020000d2020000d202000017
:10019800d2020000d2020000d2020000d202000007
:1001a800d2020000d2020000d2020000d2020000f7
:1001b800d2020000d2020000d2020000d2020000e7
:1001c800d2020000d2020000d2020000d2020000d7
:1001d800d2020000d2020000d2020000d2020000c7
:1001e800d2020000d2020000d2020000d2020000b7
:1001f800d2020000d2020000d2020000d2020000a7
:10020800d2020000d2020000d2020000d202000096
:10021800d2020000d2020000d2020000d202000086
:10022800d2020000d2020000d2020000d202000076
:10023800d2020000d2020000d2020000d202000066
:10024800d2020000d2020000d2020000d202000056
:10025800d2020000d2020000d2020000d202000046
:020000040000fa
:10040000cf5421000eff27000e01880000000000dd
:10041000000020000000e000020032000001200087
:10042000200288000c000700a0a824000100200082
:100430000f000700000020000000e0000200320072
:100440000000020000000000ac56020000000000a6
:100450000040da000000fe00202920000000e0003b
:1004600002003200002020009001880000000600f9
:10047000a1028800800078000000eb001a0037001d
:10048000e280400054a0b4009101ba00e280400034
:1004900054a0b4009102ba00e280400054a0b4001d
:1004a0000002eb00472bde00f507b200a601880032
:1004b000602ce10008003a000049eb000201e8006e
:1004c000020039003420ec0002f0a0008301e900b2
:1004d000f9ff3e00040037006128e100010032000e
:1004e0000082eb00040007001101ba000200e000e6
:1004f000e3ff3a000000060004d0a300e20f490029
:100500001c003900810278003549ba000201e80078
:10051000020039003420ec0002f0a0008301e90061
:100520000f0032002549ba000201e800020039003c
:100530003420ec0002f0a0008301e9000800320042
:100540000400e0000600320015c9ba000201e8000c
:10055000020039003420ec0002f0a0008301e90021
:100560008180e80054a0b4000300e000e2ff3a00fc
:10057000000006009102ba00055978008301e900e5
:10058000f7ff3200c82ade00055978008301e90030
:10059000f3ff32000400e000f1ff320011d9ba008d
:1005a000eeff37000040da000000fe000a00fa000b
:1005b000e20f500022003e0054aa8000e10f5200da
:1005c0000600320087232000462320002423200039
:1005d00005232000e08f530004003a00872220000a
:1005e00046222000242220000522200000002800ae
:1005f0001500600003003a00800b78000700280017
:10060000958a7300054020009482620001003a0040
:1006100014a0a0008202780006003700940378003e
:100620000710b200fdff3200b103fb00070b78009a
:100630008502e900e08f5200f8ff3a000800370019
:10064000340020001007980032079800040f78004b
:10065000210798000e007800091207003e01900063
:10066000020078000080fa000000060003f0a200fb
:10067000889fbe008a9fbe008c1f78006201070021
:10068000690133006450e1004f0032006420e10052
:100690005200320003826c0007003b000905d000c5
:1006a0000306d000820f54000c065d0002003900e2
:1006b0000200320089017800030678008582550027
:1006c00004003d000003fd008103fd008502ea00f7
:1006d0008b854200840f720002003b006000100016
:1006e000e08018006011b8000005eb007a28e100f6
:1006f0000a00390006007800c75ddd00f707b20088
:10070000878075002d003700828171000a01780012
:10071000610560008180d1000080d3008502e9007e
:10072000f9ff3b00060440008784480002003b00bc
:1007300060041400e0841c000988a3000700320054
:100740008a81710082817100610164008904d10095
:100750000884d3008b05e800170037000978a30050
:1007600013003a000b00e000130034008b05e90091
:100770000804440089844c000a4474000978a300ea
:100780000d003a000b00e000070034008b05e90083
:100790000804440089844c0001003a000b0020004a
:1007a0000978a300f7ff32000001eb0002003700d8
:1007b000828171000a017800d80007000cf0a700c0
:1007c00001f0a000210137006420e10002003a009e
:1007d000838f6c00210133000801be000200be00bf
:1007e0001a0137000081eb0062013700889fbe00cc
:1007f0008a9fbe008c1f7800030107000a013300a6
:1008000003866c006450e1002e0032006420e10099
:10081000330032006150e1002f0032006120e1001e
:100820003100320085855500eb07b000090020003b
:1008300008042000050037000804440089844c00a7
:100840000a0031000603430087834b000001530078
:1008500081815b00f8ff33000203be000800a000a6
:100860000804440089844c00f6ff3900c639dd00d5
:100870008301730001003200130020008904d100bd
:100880000884d3000998a300050032000800a700df
:100890000300a0008904d1000884d3008b05e80080
:1008a0008904d1000884d3000001eb000281d2004a
:1008b0009a00070001f0a1000cf0a70001f0a000d1
:1008c000e20037006420e100e40032000801be00cd
:1008d0000200be00f7ff37006120e100df003200b8
:1008e0006000b800f3ff37000000200001f8270087
:1008f000f0ff3700839f68000100e00002003d0028
:1009000060001000e08018000300e00002003d00dd
:1009100060011100e0811900b60107004f00e000fe
:1009200002003b0060001000e0801800000006009c
:1009300014002000c2013700f4ff2f00c00137006f
:100940000001be009b0007000470a70003f0a10097
:100950006509b100160032000d0035006828e1007d
:1009600006003500f0ff2f00f1ff27000300e00034
:1009700013003b00010028000000050000004000bb
:10098000818048008502e900fcff3a00080037003a
:10099000f88f420002003c008000eb0000000500e0
:1009a0008100d1000080d3008502e800fcff3a00fe
:1009b0000300e00002003b0060001000e08018002f
:1009c000000006004f89de0082017800b701370081
:1009d0000400200000003700889fbe008a9fbe00f0
:1009e0008c1f78004f26dd00870007008e00330043
:1009f0006120e100430032006250e10041003e000e
:100a00003e0039006420e1003c00320005825500c0
:100a10000f003b000402e80038003a00800f53004a
:100a2000818f5b00350034000800be0003f0a10098
:100a300001f0a60003f0a0000cf0a7000cff0700d7
:100a4000820037000603430087834b000c464600b4
:100a50000005530081855b00020033000a03be00dd
:100a60000c00a0000402e900f6ff3b0085057800b9
:100a70000602430087824b0004003a006000b80081
:100a800009f0a70001f0a00070003700000252003a
:100a900081825a000704e00004003300060343008b
:100aa00087834b008b05e900faff370009057800c2
:100ab0000604be000203be006011b8001700070064
:100ac000e00f5200e08f5a000700350002003c00a2
:100ad0000c08a300040032000601be0003f0a000d1
:100ae0000cf0a700e2fe07000a85680001f0a100f3
:100af0000af0a70001f0a000540037000800be0073
:100b000052003700100220000cf0a600409188002f
:100b10005200370004002000490137008100200006
:100b2000618055000b003d000b00200061fe2f008e
:100b30000100e1001d003400828171006101640048
:100b40008904d1000884d3000000e800faff3a00cd
:100b5000710020006100640003007000020060006a
:100b60000900320061044400e0844c000988a500bb
:100b7000050032008b05e8006808e10002003a0039
:100b80008904d1000884d300f20f20000258e1004c
:100b900005003d00c75ddd00f907b20089807500e2
:100ba00008007800000006000bf827008b00780092
:100bb00000000500c70ade00f107b200f50fb20021
:100bc00008003200e1cf4200020032000170a000b4
:100bd00024000500810f70000100320004080500a8
:100be00044000500810f700002003a001400050067
:100bf0008502e9000000400081c04800fcff3b0086
:100c00000170a000240005000004be00e9ff0700f9
:100c10000003be000405be000200be00e5ff0700a1
:100c2000844f7500000006000200be006450e10021
:100c3000050036006420e100020036000968a300c8
:100c400001003a000800be000160a0004f067800d5
:100c50004f05be004f04be0000000600f0ff2f004d
:100c6000f1ff2700f9ff3700811f78000100e00045
:100c700002003d0060001000e08018000300e0006a
:100c800002003d0060011100e0811900e900070049
:100c90004f00e00002003b0060001000e080180000
:100ca00000000600889fbe008a9fbe008c1f78004f
:100cb000d5ff0700dcff330003866c006450e100c1
:100cc000240032006420e100270032006150e1007e
:100cd000220032006120e100210032008b854200b9
:100ce000eb07b1000134b800003ab8000804420034
:100cf00089844a00013ab8000030b800888040007a
:100d000009014a00040033000000400081804800cf
:100d1000020149008b05e900c909dd00830170006b
:100d20000100320013002000c814de004814dd006a
:100d30004709de001200b200c808de000884700017
:100d400076ff070001f0a1000cf0a70001f0a00061
:100d5000beff37006120e100c0ff32000801be0085
:100d60000200be00f7ff37006150e100fcff3a00cf
:100d7000baff3700889fbe008a9fbe008c9fbe00ce
:100d8000820578000004be008aff07000800be004c
:100d90006420e1000700390002003a00f1ff27005b
:100da000f0ff2f000160a000120220004291880095
:100db000550037006120e10003003a000b00a70056
:100dc00001f823005000370001f0a10002002100cb
:100dd00093642400d6fe07000800be00040035001e
:100de000b2fd2000930c2400f9fe07000004be00b1
:100df0000005eb000b00a6004f0dde0001f0a10086
:100e00000004be0032982f0023ea2300a5ff07004c
:100e10000001eb0003f023000b00a70003f8230000
:100e200013fe0700c6fe07000000a7000a00a2008c
:100e3000e4fe07000b00e000030032000200200087
:100e400003f0230009fe070001f0a2000006be0027
:100e5000020020009304240092ff07000801be0056
:100e600003fe0700809fbe000c00be0022a22a00e5
:100e7000d3a723008bff07004f01be00fcfd070036
:100e80000004be0001f0a10002002000039823002e
:100e9000a7fe07000800be00190035000001be00d3
:100ea00080ff07000006be00b2c52900e3622300f0
:100eb0007cff070022222b00f3942b00ecfd07009f
:100ec0000c01be0077ff0700e273280083c02300f7
:100ed000e7fd07000c01be0072ff070042aa2a00ce
:100ee000a3e22b00e2fd07000c01be006dff07002e
:100ef0000801be006bff07000801be00dcfd070013
:100f00000a00a70001f0a2004f06be004f05be0078
:100f10004f04be00000006000001eb0095ff370003
:100f2000889fbe008a9fbe008c1f78000004be0010
:100f300020ff07000478a30026003a006120e100aa
:100f40002500320009f8a30025003a006420e100e2
:100f500021003200f507b1000508a30002003200ad
:100f600000004000818048006044b8000310200069
:100f70000200200000004000818048000805440075
:100f800089854c000a0541008b8549000a055000ff
:100f90008b855800030033000a00be000204740071
:100fa000838474008301d1000281d300830f710018
:100fb000f0ff3a008904d1000884d30060014900a1
:100fc00082017800c1adde00fb07b000d3fe070050
:100fd0001eff37000960a0000800be001bff37009d
:100fe0001202200042918800f0ff2f00f1ff27003d
:100ff00016ff37006022b800060220000000d00073
:101000008180d2000482d2008582d2000000a0003c
:101010000202520083825a000300310002024200a1
:1010200083824a000000a1000603e900f3ff3a00b2
:1010300000000600efff07000400be0000000600ed
:10104000889fbe008a9fbe00841f7800eefe0700c6
:101050004f00780011003300f0ff2f00838f6c00e9
:1010600006003b00040565000a00a70008003700e1
:1010700009f0a6001000200008003700820f54007d
:10108000838f5c00030039001000200001003e0047
:101090000000200009f0a7000000ea004f05be0094
:1010a0004f04be000000e00000000600881f78002a
:1010b000030478000300e00007003d00600010001a
:1010c000e080180060011900e081190002003b0077
:1010d00001f02d00030037000400070008f0a7000e
:1010e00001f0a0004f04780000000600889fbe00b9
:1010f0008a9fbe00008270000402710004827100a9
:10110000260032000004be000200be006011b800dc
:101110006b092000950220000182cf000a003900ef
:101120000541b1000082cf00070039000541b10040
:101130000982cf00040039000541b1000882cf00c8
:10114000010039000541b100054252001200320091
:101150000a003b0082817100610164008100d100be
:101160000080d3008984d3000884d3008b05e80075
:101170000442e800f7ff3a00070037000804440083
:1011800089844c0000004800818048008b05e900fc
:101190000442e900f9ff3a0060fe07004f05be0077
:1011a0004f04be0000000600000278000c00fa00a8
:1011b000820278000000eb00e18f50000d00360045
:1011c0008100e9001007980051079800040f78008b
:1011d0002407980003017800240c20008500780083
:1011e000340798000e007800bc0007001e0278004b
:1011f000004aeb000080fa0000000600a052210027
:101200000000fa0068015700ceb89700550b0700a0
:101210000080fa0000000600d4c6b3000800fa00ff
:10122000889fbe000084fb008a9fbe00844f500050
:101230002c003600a92d21004b06200011000900ca
:101240000b84d800720040004300dd0000804400a1
:10125000810578006022b8000600200007fe230008
:10126000aa0020005001be004000be00f31007009d
:101270000002be000203be00110009008a85d800ea
:10128000049fbe000697be0080057800e9854500f2
:10129000c35ddd008b8544003e00be002e01be0014
:1012a0003b02be002b03be00e41007000002be009c
:1012b0000203be00110009000a84d800049fbe008a
:1012c0000697be00010478004344dd008884440092
:1012d0003e00be002e01be003902be002903be0042
:1012e0001d003700ea4f500013003600aa0020000e
:1012f000a92d2100110009000a84d80001057800f9
:10130000690440004355dd004344dd000884440087
:101310008a8444006022b8000600200007fe2300f3
:101320003800be002801be00c41007003902be000c
:101330002903be0008003700a42d21004344dd002e
:10134000080442006022b8000600200007fe2300c7
:101350003800be002801be00b81007004f05be00cf
:101360004f04be000080fa0000000600d4c6b3009f
:101370000800fa00889fbe008a9fbe00e04f500020
:1013800022003d000040ea000004fb00844f5000b2
:101390000a00340044062000a900200011000900c2
:1013a0000404d800aa2d2100110009008900d800ea
:1013b000e9004000c308dd0020003700ea4f50007c
:1013c0000f003400a4002000110009000404d8001c
:1013d000a42d2100690040004300dd000000420010
:1013e000430cdd00080242005001be004000be0078
:1013f0005403be004402be009010070033003700c3
:101400004344dd00a42d21002d0037000004fb0023
:10141000844f50001f00340044062000a900200023
:10142000110009000404d800aa22210011000900bb
:101430008900d800e9004000c308dd0081004500b4
:101440008b0920008a8545003102be002103be00c1
:101450003b00be002b01be00781007000002be005a
:101460000203be00110009000904d800049fbe0059
:101470000697be00010478004344dd0008054500de
:101480003e00be002e01be003a02be002a03be008e
:10149000d9ff3700ea4f500007003400a4002000b5
:1014a000110009000404d800a422210069004000b2
:1014b0004300dd00c9ff37004344dd00a4222100c2
:1014c000080442003800be002801be004f05be00df
:1014d0004f04be000080fa00000006006c00fa0015
:1014e000889fbe00011798008a9fbe00122f9800a7
:1014f0008c9fbe00000678006000b8006011b80044
:10150000501f9800611f9800721f980003279800d1
:101510008000eb0011379800410a37000e1190004f
:1015200054c2b3000201e80002179800844f500033
:1015300007003a00020278000003eb00d0c2b300bb
:1015400001c3b30002c2b30033c2b30010003700be
:101550003c0290000404b200040032001c02780037
:10156000004a7800040ee800050037000000fb0088
:101570008c007800350a0700e10f4000280a32008d
:101580009e3190008301e80013379800240a370049
:1015900084037800b8c2b300b442780088cf520008
:1015a0000f00320005003c0082cf52000a003200da
:1015b00083cf520010003a000b00370080cf52005a
:1015c0000300320081cf52000b003a0008003700c0
:1015d0000630a000eeff37000600a000ecff370049
:1015e0000610a000eaff370006b0a000e8ff3700b1
:1015f0000620a000e6ff370062026300010032000f
:101600000600a10068026300010032000620a1006c
:101610000502fb000403b100e90f52000e003e007a
:101620008004eb008702780009027800b503fb0014
:10163000ea22b9000703b1001500fb000482430051
:101640000003b10085037800e90f5000f7ff360072
:10165000242f98000a0037000005eb00a4c2b30055
:101660002a2f980084cf520005003a009e2d90004a
:101670008703e8004b0078001b2f9800202f98006c
:10168000e4c2b300974f12001d003a0006e0a0002c
:101690006442520006379800d74f1200040032000f
:1016a0008000eb0087027800010378000d0037000e
:1016b0001e2990008703e800c2017800122f9800cd
:1016c000332f98000700780076c6b30007c7b30031
:1016d000c1c6b3000e3290000e003700ea33b900e5
:1016e00006034200850378003502fb000403b100c5
:1016f000e90f5200f9ff3600362f9800f1ff37004e
:1017000006c0a0000002eb0006379800342f9800b6
:10171000ecff3700b04278000017980086cf5200e7
:101720003300320018003c000437980034c6b30080
:1017300084cf5200da0032000e003c007c4252009e
:1017400084cf52004500320006003c00e0cf52003a
:10175000b809320004c2e90084cf5200ef003a0019
:101760003600370084c5b30084cf5200eb003a0046
:101770004800370054c6b30084cf52001f00320027
:1017800029003c001f00370087cf52004000320084
:101790000a003c0081cf52001c0032000437980040
:1017a000f4c6b30084cf52003400320066425200c7
:1017b00084cf5200d9003a00120037000437980055
:1017c00054c7b30084cf5200d900320063424200b4
:1017d00084cf5200040032006542520084cf520090
:1017e000ce003a0033003700054f78002d00370057
:1017f00004379800064f78001c003700054f78002a
:1018000012003700054f7800cd00370070016200ec
:1018100005012000010032000500280084827200ca
:1018200005027800bbff37008e349000054f78002a
:1018300009a0a00009379800c10037000e359000bc
:10184000054f78000a50a0000a3798008e359000a6
:101850000b80a0000b379800b90037000e309000c5
:10186000054f78000050a000003798008e3090009f
:101870000190a00001379800b10037000e319000b0
:10188000054f78000260a00002379800ac003700d6
:10189000043798008e319000054f78000350a00067
:1018a000033798000e3290000470a00004379800af
:1018b000a3003700054f78009e2a9000450278006b
:1018c000152f9800442f9800e00f520002003a00b4
:1018d000c73a2100472f98004e2b90008002eb0062
:1018e000010037008502e800050243000044eb00d8
:1018f000944f1400fbff3a00552f9800be2c900027
:10190000e08f5400050032005e2d90008a8f540055
:1019100002003100890578005b2f98005e2a900054
:101920000004eb002e289000840f500001003600c8
:10193000040450008e3090006885600030003a004a
:1019400009c2b3009e3690000e0037003c029000a2
:101950000404b200040032001c027800094a780036
:10196000040ee800050037008c007800000220001b
:1019700036090700e10f4000010032008d06e80043
:101980000804e900e00f5400f0ff3a000084eb0087
:101990001d379800080278001b0037003c039000b8
:1019a0000604b20009003200080378001c00780029
:1019b000b64378000748780006047800000ee80077
:1019c000e0cf53000c003a00140037000803780001
:1019d0008c0078003600fb0044379800553798009b
:1019e00006047800190907004e329000de3290009c
:1019f000e10f4000090032008d06e80007003700c3
:101a00009e369000080278008a0278004e2c9000e2
:101a1000de2c90006e2d9000fe2d900009037800c2
:101a20008604e900e00f5300dcff3a00482f9800dd
:101a3000592f98006a2f98007b2f98001d37980027
:101a40000404780005057800e00f5500f408320022
:101a500009c2b3000d0578000e0037003c0290006b
:101a60000404b200040032001c027800094a780025
:101a7000040ee800050037008c007800000220000a
:101a8000f2080700e10f4000010032000a05e800fb
:101a90000804e900e00f5400f0ff3a00df083700c7
:101aa0009e2890000e3390004102780004047800d4
:101ab000cfc4de00090578008a057800112f980050
:101ac0000800be000a01be004800de00480add0032
:101ad0000000720070026300004f780009003200bd
:101ae000e04f500007003200e14f40000500320097
:101af000270020001047980028479800572f98008b
:101b0000030037001847980018002000582f98004d
:101b10008e04e800492f980078ff37001b00200052
:101b2000054f78004e2f98005b2f980073ff370009
:101b30000e309000054f7800000cb300003798007d
:101b4000057020008e30900085826000e305320031
:101b500004002100048260000200320062002000c4
:101b6000322f98008e3190007082610005003200a3
:101b70001e2a90004405be004404be00142f9800a5
:101b8000060037009e2a90004500be00152f9800e1
:101b9000ea0d07000004be000205be006022b80086
:101ba0006033b8000800be000a01be00350d070012
:101bb000e00f500004003d000e3390003600b300eb
:101bc000063798000bf0a2000002eb000800be00f0
:101bd000240798000a01be006022b8006033b800f4
:101be0008c0d0700e00f50002f0032006402470008
:101bf0000800be000a01be00730e07002e00900010
:101c0000a40020000000e900e300b9001100090071
:101c10000400d80020079800e00f500002003d00ab
:101c20000000e90020079800ae0690000d40ea0091
:101c3000cefd07000802be000a03be007f0e0700ab
:101c40000002be000203be00541f9800651f9800ea
:101c5000761f9800072798006022b8000600200031
:101c600007ff2300070d0700e00f500002003d00b2
:101c70000d02e9000b0037006022b80006002000ca
:101c8000470224005e189000ee1890007e19900024
:101c90008e219000000d0700e00f5000020035007b
:101ca0000d02e800240798000e329000ae06900066
:101cb0000410b20008003a000e3290000420b20076
:101cc00050033200e48f460003003500be2a900026
:101cd000858f5600d90235003e2b9000e00f53004f
:101ce000050032000e3290000420b20002003200e3
:101cf0000603e900362f9800be2b9000f28f5300a8
:101d00000300360024c1b300044f780002003700fe
:101d10006ed09000004f78006022b8006033b800a9
:101d20000800be000a01be003a0d0700e00f500097
:101d30005f0032009e40780001df980001c056002d
:101d40008afd07000002be000203be000800be00bc
:101d50000a01be00d50c07000205be000004be004b
:101d6000c60d0700160e07000002be000203be00eb
:101d70000800be000a01be00a50e07006022b800e0
:101d80000600200007fe2300c30c0700e00f5000f0
:101d9000080035000800be000a01be006022b8003d
:101da0000600200007fe2300390c07000004be00d7
:101db0000205be000a01be000800be00af0d07000c
:101dc0000002eb005017980061179800041f98005c
:101dd000463b21008eda90008502fb000502e800f8
:101de0004322dd00040043008001eb0055279800ea
:101df000731798003002be002003be005e109000f2
:101e0000ee1090007e1190008e1990000400e10009
:101e10000588e1000690e1000798e1000b00390019
:101e20000400200005002a009699290097fb230052
:101e30000800be000a01be00000e07000d02e80007
:101e40000004be000205be0018003700de2090002e
:101e5000423b2100430add00040241005e10900075
:101e6000ee1090007e1190008e1990005403be0079
:101e70004402be000400e1000588e1000690e10094
:101e80000798e1000a0031006022b8000600200037
:101e9000470224000800be000a01be00e70d07004b
:101ea0000d02e9000004be000205be0024079800f0
:101eb00004a020008e309000848260000420200066
:101ec000848f52004c003a003e299000f40f5100dc
:101ed0000200340043012000332f98000a01be00a5
:101ee0000800be00650d07000a01be00101798002b
:101ef000211798008002eb000800be0035179800fb
:101f00000003eb00be2e900046179800402f98006b
:101f1000512f9800622f9800732f98001e14900084
:101f2000ae1490003e159000ce15900009003700c9
:101f30000800be000a01be00a40020000500200029
:101f40006033b8008d06e900d80e07000205be0018
:101f50000004be00e00f5400e08f5c00e00f5d0065
:101f6000e08f5d000b003200a4002000050020007f
:101f70006033b8000800be000a01be00d40e07009e
:101f8000e00f5000e08f5800e00f5900e08f59003b
:101f9000e7ff320018179800291798003a179800a1
:101fa0004b1798001e4078003d2f98004e2c900053
:101fb000de2c90006e2d9000fe2d90000002fb00a4
:101fc000848f56000c003d00eed29000054050007a
:101fd000e6fc07000203be000002be000a01be00cc
:101fe0000800be00310c07006ed39000064f780049
:101ff0000004be000205be00ae2b90003e289000fb
:102000006582530000025200242f9800e00f500018
:1020100004003a00048020008e30900004826000aa
:10202000030032002e2990000201e900222f9800bf
:102030008e31900063826100030032002e2a9000ee
:102040000402e900242f98008e329000648262001e
:1020500050003200628362003c029000e182620024
:10206000e00f5300160032000404b20008003200f2
:102070001c037800b4c2b300e08f520001003200ac
:1020800004c2e800044b7800060ee80008003700a0
:10209000b0022000e08f5200010032000080e80012
:1020a0008c00780069070700e10f40002d00320026
:1020b0001e3390000603e800163798002900370009
:1020c000e08f5200270032000404b2000500320005
:1020d0009c02780004c2b300844a7800050ee80030
:1020e000050037008c007800000220005707070029
:1020f000e10f40001b0032009e3390008703e80090
:1021000017379800170037003c0090000004b20019
:10211000040032001c0078000d487800000ee80032
:102120000d0037004437980055379800263798003f
:10213000373798008c007800000320004307070021
:102140004e329000de3290002e339000be3390006d
:10215000e10f4000010032000a05e8008904e900af
:10216000050037000802be000a03be00ae2c900036
:102170001e3590000dc3b300e08f5400e2ff3c0019
:10218000292f98001a3798000404be000605be00e7
:10219000530037000e3090006802600023003a00c0
:1021a000170037003c0090000004b2000400320029
:1021b0001c0078000d487800000ee8000d00370084
:1021c00044379800553798002637980037379800dd
:1021d0008c007800000220001c0707004e3290009f
:1021e000de3290002e339000be339000e10f4000ad
:1021f000010032000a05e8008904e9000500370003
:102200000802be000a03be00ae2c90001e359000ee
:102210000dc2b300e08f5400e2ff3c00292f98006c
:102220001a3798000404be000605be008e309000e8
:102230003c02900062836000e1826000e00f530086
:10224000160032000404b200080032001c037800bb
:10225000b4c2b300e08f52000100320004c2e800b3
:10226000044b7800060ee80008003700b00220009a
:10227000e08f5200010032000080e8008c007800fe
:10228000f2060700e10f4000150032001e319000f9
:102290000201e8001237980011003700e08f520069
:1022a0000f0032000404b200050032009c027800e6
:1022b00004c2b300844a7800050ee8000500370028
:1022c0008c00780000022000e0060700e10f4000cb
:1022d000030032009e3190008301e800133798001c
:1022e0000800be000a01be00640c07008002eb007b
:1022f0000003eb00351f98003c029000101f98006f
:10230000211f9800461f98000404b2009e02fb00a3
:10231000860f520011003200432add00453b2100a8
:10232000848242001c0478001e189000ae189000b1
:102330003e199000ce1990005503be004502be0024
:10234000da0d07000043b000004c7800080ee800ea
:10235000e04f500012003a0014003700432add001d
:10236000453b2100848242001e189000ae18900068
:102370003e199000ce1990005503be004502be00e4
:10238000ca0d07008c007800040320000002420000
:1023900004007800ad060700e10f400003003200a2
:1023a0009e3390008703e800173798001e02fb0059
:1023b000c322dd00443b2100050242001e189000ac
:1023c000ae1890003e199000ce1990005403be0044
:1023d0004402be00be0d0700be2c9000402f9800a6
:1023e000512f9800622f9800732f9800e08f5400af
:1023f00004003a00048020000e35900004026500bd
:10240000760032003c0290000404b2000500320065
:102410009c027800e4c2b300844a7800050ee8000c
:10242000050037008c007800e002200087060700d6
:10243000e10f4000030032009e3590008b05e8005c
:102440001b3798008e3690001e4578000d20b20094
:10245000493b210044003700e08f56000c00320059
:102460004e289000de2890006e299000fe299000f2
:10247000e00f5000e08f5800e00f5900e08f590046
:1024800003003a00004feb000004eb004e00370061
:102490003c0290008502fb000404b20011003200ef
:1024a000c32add00858244001c0478005503be0069
:1024b0004502be004e289000de2890006e29900054
:1024c000fe299000790d070005c3b30005424000c6
:1024d000044c7800080ee800e04f520011003a006a
:1024e00013003700c32add00858244004e28900087
:1024f000de2890006e299000fe2990005503be0052
:102500004502be00690d07008c007800040320001e
:1025100000024200040078004c060700e10f400072
:10252000030032001e3390000603e80016379800bf
:102530001e02fb004322dd00048244004e2890006e
:10254000de2890006e299000fe2990005403be0002
:102550004402be005e0d0700402f9800512f9800e6
:10256000622f9800732f98001e4278008442e90081
:10257000054f7800e04f5200b7ff3a000a02fb0017
:10258000be2a9000048452000f0037003c029000e5
:102590000404b200040032001c027800094a7800ea
:1025a000040ee800050037008c00780000032000ce
:1025b00026060700e10f4000010032000a05e8008e
:1025c0000804e900020037001e35900009c3b3007b
:1025d000e00f5400edff3a001a3798008e32900059
:1025e0003c0290000502b200100032000404b20068
:1025f000050032009c02780054c4b300844a78007d
:10260000050ee800050037008c007800500420001b
:102610000e060700e10f4000130032001e33900049
:102620000603e800163798000f0037000404b200d4
:10263000050032009c02780054c6b300844a78003a
:10264000050ee800050037008c00780050062000d9
:10265000fe050700e10f4000030032009e339000aa
:102660008703e800173798002e029000bc02900004
:10267000e00f520013003d000402ea002407980016
:10268000050278000404b200050032009c027800c4
:10269000d4c2b300844a7800050ee8000500370074
:1026a0008c007800d0022000e8050700e10f400010
:1026b000140032001e3490000804e8001837980017
:1026c00010003700050278000404b2000500320053
:1026d0001c027800b9c2b300094a7800040ee80071
:1026e000050037008c007800b0022000d7050700f5
:1026f000e10f4000030032001e3590000a05e8009b
:102700001a3798003c0290002e0090000404b2009a
:102710000b0032009c027800a40020000bc3b30021
:10272000110009000400d8000b424000844a7800e0
:10273000050ee800e04f520009003a000b00370098
:10274000a4002000110009000400d8008c007800cb
:102750000003b000bd050700e10f40000300320098
:102760001e3090000000e800103798003c029000f6
:102770002e0090000404b2000b0032009c0278008e
:10278000a400200002c3b300110009000400d80017
:1027900002c24000844a7800050ee800e04f520073
:1027a0000a003a000c003700a400200011000900c4
:1027b0000400d80000032000010040008c007800d5
:1027c000a2050700e10f4000030032009e31900097
:1027d0008301e800133798008e329000688262000f
:1027e0008f0532002e2b9000e00f53008c05340033
:1027f0001e35900008c2b300860478003c029000a9
:102800000404b200040032001c027800084a780078
:10281000040ee800050037008c007800000220005c
:102820008a050700e10f4000010032000a05e800b8
:102830008904e900f1ff3a0078053700e08f56007f
:1028400004003d00be2b90000d82ea00848343000b
:10285000372f98000800be000a01be00d60a070004
:102860000802be00402f9800512f9800622f980058
:10287000732f98000a03be00413b21000040eb008b
:10288000542798006527980076279800072f98000e
:102890000c0037003102be003103be004e2c900008
:1028a000de2c90006e2d9000fe2d90000440e10083
:1028b00005c8e10006d0e10007d8e10003003900b7
:1028c0000040e800f44f5000f2ff3a000002fb0025
:1028d0005e249000ee2490007e2590008e2d9000c6
:1028e0003e28900004005000302f9800f80f500050
:1028f00009003c006ed0900047fa07000002be00bd
:102900000203be000800be000a01be006009070005
:102910000004be000205be006ed0900093fa0700ce
:102920000002be000203be004e289000de28900088
:102930006e299000fe299000542798006527980082
:1029400076279800072f9800f20a07000002be00c1
:102950000203be000800be000a01be00ac0b070067
:102960000002be000203be005e209000ee20900038
:102970007e2190008e299000300b07008e0a070000
:102980000802be000a03be00be2e9000442f98002d
:10299000552f9800662f9800772f98000205be00eb
:1029a0000004be00090037000800be000a01be0096
:1029b000a4002000050020006033b8008d06e90067
:1029c0003a0c07000205be000004be00e08f56006e
:1029d00019003200a4002000050020006033b80078
:1029e0000800be000a01be00390c0700e00f5000cd
:1029f000e08f5800e00f5900e08f5900eaff3200e5
:102a00000d003700be2a9000f88f52000f003c00e6
:102a10000540780000fa07000002be000203be0075
:102a20000800be000a01be00190907000004be002c
:102a30000205be00050037004e2c9000de2c9000f1
:102a40006e2d9000fe2d90003d2f9800ae06900058
:102a5000e98f560011003c006022b8006033b800d6
:102a60000800be000a01be00ea090700e00f50009e
:102a70002c0032000800be000a01be004e0a07000a
:102a8000e00f5000e08f5800e00f5900e08f590030
:102a900024003a00e18f5600220034000400200098
:102aa00005002e00b6e02200170124005e189000f9
:102ab000ee1890007e1990008e2190007109070099
:102ac000e00f500002003d00f38656000100370081
:102ad000f28656002d0798004e40900023fa07001a
:102ae0000002be000203be000800be00541f980092
:102af000651f9800761f9800072798000a01be00fe
:102b00006044b8006055b800680907002a0a070049
:102b1000402f9800512f9800622f9800732f980033
:102b2000110037000800be000a01be00220a07009b
:102b3000402f9800512f9800622f9800732f980013
:102b4000740a07000002be000203be000800be00b7
:102b50000a01be002e0b07000002eb0024079800bc
:102b60000004be000205be000802be000a03be004b
:102b7000c13b210010c0b3001427980025279800fe
:102b800036279800472798000c0037003104be0014
:102b90003105be004e2a9000de2a90006e2b900078
:102ba000fe2b90000820e10009a8e1000ab0e10036
:102bb0000bb8e100030039000040e800f44f50007a
:102bc000f2ff3a00ae2a90002e0290003e2b9000b9
:102bd000048252008e339000860252001e24900020
:102be000ae2490003e259000ce2590000002fb0010
:102bf000004f780004825200242f980004802000a7
:102c0000048263005427980002003a00e00f53004a
:102c1000030032002e2890000000e900202f9800c9
:102c20008e30900063826000030032002e299000f5
:102c30000201e900222f98008e3190006482610029
:102c40005100320062826100e1826100e00f5200b7
:102c5000170032003c0290000404b2000800320069
:102c60001c037800b4c2b300e08f520001003200b0
:102c700004c2e800044b7800060ee80008003700a4
:102c8000b0022000e08f5200010032000080e80016
:102c90008c0078006d040700e10f40002e00320028
:102ca0001e3290000402e800143798002a00370012
:102cb000e08f5200280032003c0290000404b20071
:102cc000050032009c02780004c2b300844a7800f8
:102cd000050ee800050037008c0078000002200097
:102ce0005a040700e10f40001b0032009e329000a2
:102cf0008502e80015379800170037003c00900067
:102d00000004b200040032001c0078000d48780076
:102d1000000ee8000d003700443798005537980042
:102d200026379800373798008c0078000003200081
:102d3000460407004e329000de3290002e339000a1
:102d4000be339000e10f4000010032000a05e800a8
:102d50008904e900050037000802be000a03be002e
:102d6000ae2c90001e3590000dc3b300e08f5400d0
:102d7000e2ff3c00292f98001a3798000404be0097
:102d80000605be00810037000e3390006802630024
:102d900023003a00170037003c0090000004b20006
:102da000040032001c0078000d487800000ee80096
:102db0000d003700443798005537980026379800a3
:102dc000373798008c007800000220001f040700ad
:102dd0004e329000de3290002e339000be339000d1
:102de000e10f4000010032000a05e8008904e90013
:102df000050037000802be000a03be00ae2c90009a
:102e00001e3590000dc2b300e08f5400e2ff3c007d
:102e1000292f98001a3798000404be000605be004a
:102e20008e33900062826300e1826300e00f520003
:102e3000170032003c0290000404b2000800320087
:102e40001c037800b4c2b300e08f520001003200ce
:102e500004c2e800044b7800060ee80008003700c2
:102e6000b0022000e08f5200010032000080e80034
:102e70008c007800f5030700e10f400043003200aa
:102e80001e3090000000e800103798003f00370027
:102e9000e08f52003d0032003c0290000404b2007a
:102ea000050032009c02780004c2b300844a780016
:102eb000050ee800050037008c00780000022000b5
:102ec000e2030700e10f4000300032009e30900026
:102ed0008100e800113798002c0037003c02900078
:102ee0008502fb000404b20011003200423b2100c5
:102ef000c32add00850241009c0678005503be0010
:102f00004502be000800be000a01be00e70a070035
:102f1000a4002000050020006033b800ec0a070080
:102f200004c3b300844e40000d0ee80013003700c8
:102f3000463b2100c32add00850243000800be0095
:102f40000a01be005503be004502be00d70a0700b5
:102f5000a4002000050020006033b800dc0a070050
:102f60008c00780004032000000242000400780076
:102f7000b6030700e10f40000e0032009e339000c0
:102f80008703e800173798000a0037000800be00e2
:102f90000a01be004e2c9000de2c90006e2d900099
:102fa000fe2d9000102798002127980032279800c6
:102fb000432798001e4278008442e900054f7800bc
:102fc000e04f5200c5ff3a00190037003c00900066
:102fd0000004b200040032001c0078000d487800a4
:102fe000000ee8000d003700443798005537980070
:102ff00026379800373798008c00780000032000af
:10300000920307004e329000de3290002e33900083
:10301000be339000e10f4000010032008904e80057
:103020002e0090000000e9002007980008003700fb
:103030001e249000ae2490003e259000ce259000e6
:103040000802be009e3490000dc3b3000a03be0008
:103050002e009000e00f5000dcff3c001937980074
:103060000605be000404be00be289000f28f50008a
:103070000300340024c1b300044f7800020037007d
:103080006ed19000024f78009e427800be299000d9
:103090000502fb0084865100e0cf520003003a0095
:1030a0005e229000e00f5200100032003c029000bf
:1030b0000404b200050032009c027800e4c2b300b0
:1030c000844a7800050ee800050037008c0078007f
:1030d000e00220005d030700e10f40000300320022
:1030e0009e3290008502e800153798001e40780057
:1030f0009ef807000002be000203be000800be00ea
:103100000a01be00493b21004c090700aa0807003c
:103110001e359000402f9800512f9800622f980084
:10312000732f980039003700bc0290000402fb00a6
:103130000504b200120032004322dd000482440084
:103140001c0478005403be004402be004e289000c8
:10315000de2890006e299000fe2990000bc3b3007a
:10316000520a0700a4002000050020006033b800c8
:10317000570a07000b4c4000080ee8001400370007
:103180004322dd00048244004e289000de28900097
:103190006e299000fe2990005403be004402be0038
:1031a000420a0700a4002000050020006033b80098
:1031b000470a07008c007800040320000002420048
:1031c0000400780021030700e10f400001003200f5
:1031d0000a05e8001e02fb004322dd0004824400d1
:1031e0004e289000de2890006e299000fe29900065
:1031f0005403be004402be00350a0700402f980069
:10320000512f9800622f9800732f98009e427800eb
:103210000542e900044f7800e0cf5200c2ff3a00b7
:103220000f0037003c0290000404b200040032009a
:103230001c027800084a7800040ee80005003700f8
:103240008c0078000003200000030700e10f40001d
:10325000010032008904e8008d06e9000300370010
:103260001a37980008c3b3008a047800e08f56002c
:10327000ecff3a008e3290001937980068826200a5
:10328000e70232002e2b9000e00f5300e4023400de
:103290001e35900008c2b300860478003c029000fe
:1032a0000404b200040032001c027800084a7800ce
:1032b000040ee800050037008c00780000022000b2
:1032c000e2020700e10f4000010032000a05e800b9
:1032d0008904e900f1ff3a00d00237000e32900075
:1032e000040cb2003f003a008e339000e08f530090
:1032f00005003d001e2890004005be004004be00b1
:10330000102f9800100037008e30900070826000ff
:10331000120032001e2a90004401be00020f9800e5
:10332000130f9800142f9800140290004fa2de0093
:10333000240f9800340f98000e0c90009e0c900003
:103340002e0d9000be0d9000482f9800592f980028
:103350006a2f98007b2f98000b0037009e2c90005e
:103360004902780004007800cf80de000101780077
:1033700082017800192f9800402f9800512f980053
:10338000622f9800732f98004e2a9000de2a90003a
:103390006e2b9000fe2b9000e00f5200e08f5a0041
:1033a000e00f5b00e08f5b0034003d008e32900048
:1033b0004e2c9000de2c90006e2d9000fe2d900083
:1033c0003500b300053798006022b8006033b800bc
:1033d0000804520089845a000a055b008b855b0053
:1033e000220037008e349000e08f540005003d002d
:1033f0001e2a90004401be004400be00142f980015
:103400000e0037000e33900070026300100032008f
:103410001e2d90004a04be006507980048079800da
:1034200059079800750798004e009000de00900044
:103430006e019000fe0190001a2f9800402f980016
:10344000512f9800622f9800732f98000b003700bf
:103450009e28900041027800112f98000404780003
:10346000090020000a0020000b002000482f9800cf
:10347000592f98006a2f98007b2f9800be2c90003f
:10348000e08f54000d003a001a0020004e289000f2
:10349000de2890006e299000fe2990003a2f9800b7
:1034a000e00f5000e08f5800e00f5900e08f590006
:1034b000020032008000eb00312f98000e319000a6
:1034c00004042000020cb20052279800840f51001f
:1034d0003400320003003c00e00f510008003200cd
:1034e0004800370004082000de219000848f51003e
:1034f00014003200040c2000848f510041003a0077
:10350000c13b210010c0b3003102be003103be0038
:103510004e2c9000de2c90006e2d9000fe2d900021
:103520000440e10005c8e10006d0e10007d8e10051
:10353000330039000040e800f44f5000f2ff3a0039
:103540002f00370010c0b300040120000500200048
:103550006033b8004e2c9000de2c90006e2d900051
:10356000fe2d90000440e10005c8e10006d0e10016
:1035700007d8e10022003900490020000402d000f1
:103580008582d2000683d2008783d2008904e900b5
:10359000faff3a000040e800f04f5000edff3a001b
:1035a0001700370010c0b300840020000500200081
:1035b0006033b8004e2c9000de2c90006e2d9000f1
:1035c000fe2d90000440e10005c8e10006d0e100b6
:1035d00007d8e1000a003900390020000402d000b9
:1035e0008582d2000683d2008783d2008904e90055
:1035f000faff3a000040e800f54f5000edff3a00b6
:10360000004f78001e02fb003e2d90008a0f5200f2
:1036100002003d000a4f780004003700be2d9000e4
:10362000848f550001003d00342f98002e28900013
:10363000e00f5000050032008e3090006382600081
:10364000020032000000e900202f9800040024004e
:103650000e3190000402610009003200ae29900092
:103660003e2a9000848f5100030034008481510071
:10367000232f9800020037008002eb00252f9800ce
:10368000448c20000e339000840263004408b10093
:10369000848f520006003a00ae2b9000e08f53005a
:1036a000110032008703e900272f98000e00370031
:1036b000048c20000e349000840264000404b100e5
:1036c000848f520008003a00ae2c9000e28f540024
:1036d000030034008984e900292f98000200370094
:1036e0000005eb002a2f98008005eb001e02fb006e
:1036f0001b2798002e289000840f500002003400f1
:1037000004025000142798008e30900064826000fc
:103710007400320062826000e1826000e00f5200bb
:10372000170032003c0290000404b200080032008e
:103730001c037800b4c2b300e08f520001003200d5
:1037400004c2e800044b7800060ee80008003700c9
:10375000b0022000e08f5200010032000080e8003b
:103760008c007800b9010700e10f400046003200ec
:103770001e3190000201e800123798004200370025
:10378000e08f5200110032003c0290000404b200ad
:10379000050032009c02780004c2b300844a78001d
:1037a000050ee800050037008c00780000022000bc
:1037b000a6010700e10f4000330032009e31900067
:1037c0008301e800133798002f003700048c200095
:1037d0000e339000840263000404b100848f520011
:1037e00029003a003c0290000404b20005003200b7
:1037f0009c02780004c3b300844a7800050ee800f8
:10380000050037008c007800000320008f010700be
:10381000e10f4000030032009e3390008703e80070
:10382000173798003c0290000e3390000404b20059
:103830000602b200e00f5200080032009c0278003d
:1038400084c7b300e00f53000100320084c5b30009
:10385000844a7800050ee800080037008007200041
:10386000e00f530001003200800520008c0078003a
:1038700076010700e10f4000030032001e34900083
:103880000804e800183798009e249000e08f540048
:103890009f0032001e35900008c3b3003c02900028
:1038a0000404b200040032001c027800084a7800c8
:1038b000040ee800050037008c00780000032000ab
:1038c00062010700e10f4000010032000a05e80034
:1038d0008904e900f1ff3a00192798001a37980087
:1038e0008b0037001e259000e00f550017003200b6
:1038f0008e3590006882650014003a008a047800d2
:103900001e35900008c2b3003c0290000404b200cf
:10391000040032001c027800084a7800040ee80017
:10392000050037008c0078000002200047010700e6
:10393000e10f4000010032000a05e8008904e900b7
:10394000f1ff3a00192798001a3798000e309000be
:1039500062026000e1026000e00f520017003200d6
:103960003c0290000404b200080032001c037800fe
:10397000b4c2b300e08f52000100320004c2e8007c
:10398000044b7800060ee80008003700b002200063
:10399000e08f5200010032000080e8008c007800c7
:1039a0002a010700e10f4000160032009e3090000f
:1039b0008100e8001137980012003700e08f5200b4
:1039c000100032003c0290000404b20005003200f6
:1039d0009c02780004c2b300844a7800050ee80017
:1039e000050037008c007800000220001701070056
:1039f000e10f4000030032001e3190000201e80098
:103a000012379800048c20008e319000848261006f
:103a10000408b100848f520011003a003c0290006b
:103a20000404b200050032009c02780004c3b30015
:103a3000844a7800050ee800050037008c00780005
:103a40000003200001010700e10f400030003200b8
:103a50001e3290000402e800143798002c00370052
:103a600004882000848f520029003a003c02900014
:103a70000404b200050032009c02780004c3b300c5
:103a8000844a7800050ee800050037008c007800b5
:103a900000032000ed000700e10f400003003200aa
:103aa0009e3290008502e800153798003c02900095
:103ab0000e3390000404b2000602b200e00f520080
:103ac000080032009c02780084c7b300e00f530066
:103ad0000100320084c5b300844a7800050ee80076
:103ae0000800370080072000e00f5300010032007b
:103af000800520008c007800d4000700e10f400012
:103b0000030032001e3390000603e80016379800c9
:103b1000be2b90000e3490000702e9007004640090
:103b2000c326dd008e349000443b21000902b20020
:103b300084864600282f9800390798009c0037009b
:103b40003e2d9000de2590000a05e90000042000cb
:103b50003a2f9800808f55007100320003003c001e
:103b6000e08f5500080032007e0037000408200076
:103b7000de209000848f500053003200040c20009f
:103b8000848f500077003a000e319000e00f510012
:103b90001e003d003d04be002d05be004e289000d5
:103ba000de2890006e299000fe2990000802be00d9
:103bb0000a03be00bd0707000802be000a03be00dc
:103bc000004f78000000fb00cf80de00010178008c
:103bd00082017800260807004e2a9000de2a900015
:103be0006e2b9000fe2b90000002520081825a0042
:103bf00002035b0083835b00442f9800552f9800dd
:103c0000662f9800772f98002c003700ae2a90007e
:103c1000e08f5200210032004e2a9000de2a9000f0
:103c20003d04be002d05be000400be000801be001c
:103c30004437980055379800eef407000801be009d
:103c4000004f78000004eb000000fb00cf80de0096
:103c5000f10607004e329000de329000780f980097
:103c60000003520081835a00460f9800570f9800b6
:103c70008003eb00670f98004e089000de0890006c
:103c80006e099000fe099000402f9800512f980077
:103c9000622f9800732f9800080037001d027800eb
:103ca0004e299000110009000481d800a4002000d2
:103cb000110009000480d800014f780003c3b3004d
:103cc0001ecf410027003700b4392100be0290000a
:103cd000e08f520001003200a43821003e2b9000fa
:103ce0004e289000de2890006e299000fe2990005a
:103cf000c232dd008502e900050033008301d100f6
:103d00000281d3008180d3000080d300f9ff370007
:103d10006f00600000004200104f78001100370073
:103d2000be2b90004e2c9000de2c90006e2d90004b
:103d3000fe2d9000e33ab90001c3b30004007800ff
:103d40000000e900050033008b05d1000a85d3008f
:103d50008984d3000884d300f9ff370067426400e8
:103d6000014f42003c0290000404b2000700320000
:103d70009c0278001e427800844a7800050ee80014
:103d8000e04f520006003a00080037001e00fb001a
:103d90008c0078002d000700e10f40000300320086
:103da0001e3190000201e80012379800e8865600a4
:103db000be299000e08f510061ff3a008e329000e2
:103dc00068826200160032001e239000e00f53004c
:103dd000130034001e35900008c2b300860478003a
:103de0003c0290000404b200040032001c0278007f
:103df000084a7800040ee800050037008c007800bf
:103e00000002200011000700e10f40000100320015
:103e10000a05e8008904e900f1ff3a001a37980022
:103e20008e13900017407800004f7800e04f50004c
:103e3000baf53a004f06be001e3090004f05be0096
:103e40004f04be000080fa00000006000000fa00e7
:103e5000889fbe00010478008084eb003802900047
:103e6000e20262003b0032000403780098029000f6
:103e70000620b20002003a00e08f520035003a00fe
:103e80000490a0008004780034049800f90fb20078
:103e9000e08f520002003a00a8029000050c780062
:103ea000ea8f540005003a000408b20003003a000b
:103eb00088007800d0002000e4ff0700180290007e
:103ec000d8029000850f52000b0032000402e80077
:103ed00015c0b3001404980018027800094a78004d
:103ee000040ce80044542100054a7800ea8f54008d
:103ef00018003a0005003700094078008800780073
:103f00009f030700800478001200370038029000f9
:103f10000410b2000f00320018019000a8009000b9
:103f200048009000a1f1070018029000840f500093
:103f300004003200380290000403b30034049800f7
:103f40008084eb000002eb0014049800280290002b
:103f5000040c7800090078004f04be000080fa00cd
:103f6000000006003a00fa00889fbe000117980082
:103f70008a9fbe00421798008c9fbe008006780082
:103f80000000eb0060179800720337008e1090005d
:103f900054c2b3008100e80001179800844f50001c
:103fa00006003a00010278000006eb0001c3b300ee
:103fb00000c2b300b7c2b300100037003d0290004a
:103fc0000404b200040032001d027800004a7800a8
:103fd000840ee800050037000000fb008d0078002b
:103fe0009aff0700e10f40005a0332006e11900063
:103ff0000201e80062179800560337008402780037
:10400000d3c2b30034437800834f53000900320019
:1040100005003c00804f530008003200874f5300da
:104020000c003a0007003700814f530009003a00a6
:10403000060037000c30a000f0ff37000c00a00095
:10404000eeff37000c10a000ecff37000c20a000a2
:10405000eaff370062026600010032000c00a10096
:1040600068026600010032000c20a1000602fb007d
:104070000403b100e90f52000c003e000503780074
:104080000002eb00b602fb00ea22b9000503b10012
:104090009603fb00048242000703b1008602780009
:1040a000e98f5300f7ff3600080037000002eb00ed
:1040b000a7c2b300874f530004003a004e1390008c
:1040c0008502e80046027800461798008003eb005e
:1040d000e6c2b30057179800954f13000c003a0042
:1040e0000ce0a00064435300d54f130003003200de
:1040f0000503780007007800090037004e1490008f
:104100008502e800c80478004817980059179800fd
:104110000503780009003700ea00b9000080430079
:1041200086027800b603fb000703b100e98f530055
:10413000f9ff360050179800f5ff3700b6427800b7
:10414000cbc6b300061798008bcf52002500320073
:104150000f003c0036c6b30086cf5200a3003200e9
:1041600004003c00e0cf5200ff0232006b435300da
:104170000f00370046c6b30086cf5200170032004a
:104180006543430086cf5200b6003a001300370063
:1041900036c7b30086cf52002000320007003c0033
:1041a0006443530086cf5200150032000643e800f6
:1041b00086cf5200ab003a001400370056c7b30058
:1041c00086cf5200ac0032006343430086cf5200da
:1041d000a4003a00054f78000e003700054f780024
:1041e000a7003700f003660005012000010032003f
:1041f000050028008c82720005067800cfff37008a
:10420000054f78000c60a0009d003700054f780036
:104210000c50a0000c70a000990037004e109000c8
:10422000054f7800c0027800401798007517980075
:10423000e08f520002003a00624721007217980096
:104240007e1390008002eb00010037008502e80039
:10425000850343008041eb0097cf1100fbff3a003c
:10426000051f9800de129000e08f5200050032001a
:104270000e1b9000868f52000200310085037800eb
:10428000071f98008e1a90000004eb00850f520063
:1042900001003600050452006806660009c2b3003a
:1042a000110032002d0037003d0290000404b200de
:1042b000040032001d027800094a7800840ee800ec
:1042c000050037008d00780000022000dffe0700a7
:1042d000e10f4000030032006e1590000a05e8006f
:1042e0006a1798000804e900e00f5400eeff3a0056
:1042f0000084eb0019003700bd0290000504b200f5
:1043000009003200880278009d0378003543780068
:10431000864b780005047800870ee800e04f5300d4
:104320000a003a0012003700880278008d007800f9
:104330003500fb00441f980005047800c3fe070009
:104340004e1a9000e10f4000090032006e109000fc
:104350000000e800601798000500370008027800a8
:104360007e1490008e1c90001e1d9000ae1d9000cb
:10437000890278008504e900e08f5200deff3a00f0
:1043800078179800091f98001a1f98002b1f980093
:1043900004047800e00f56006e02320009c2b30038
:1043a0006e1690000e0037003d0290000404b2002b
:1043b000040032001d027800094a7800840ee800eb
:1043c000050037008d007800000220009ffe0700e6
:1043d000e10f4000010032000c06e8000804e9008b
:1043e000e00f5400f0ff3a0059023700ce10900061
:1043f000700366004104780041179800cfc4de00c6
:10440000090578008a0578000800be000a01be0090
:104410004800de00c80add0000807200004f78000e
:10442000e00f530009003200e04f50000700320057
:10443000e14f4000050032002600200010479800a0
:1044400028479800061f9800030037001700200037
:10445000071f9800184798000e04e8007817980086
:1044600080ff37001a002000054f78007e17980063
:104470000a1f98007bff3700054f78000c0cb30033
:104480008c027800050cb2003b003a00e00f5600a9
:1044900005003d00ce1290004501be004500be0063
:1044a000451798000f003700f00266001200320036
:1044b0004e1490004803be00460798005707980026
:1044c0004817980098029000cfaade006507980070
:1044d000750798004e009000de0090006e0190007d
:1044e000fe01900070179800011f9800121f98009d
:1044f000231f98000b003700ce109000c1027800f7
:1045000005047800cfc4de00090578008a0578002c
:104510004117980078179800091f98001a1f9800f3
:104520002b1f98007e1090008e1890001e1990008e
:10453000ae199000e00f5000e08f5800e00f5900d6
:10454000e08f590032003d006000b8006011b800f3
:104550007e1490008e1c90001e1d9000ae1d9000d9
:104560003c00b30008045000898458000a05590033
:104570008b85590022003700e00f560005003d00f2
:10458000ce1290004501be004500be0045179800c0
:104590000f003700f0026600120032004e14900047
:1045a0008004eb004803be000005eb00460f9800b6
:1045b000570f9800690f98007a0f98004e089000e6
:1045c000de0890006e099000fe09900048179800e0
:1045d00070179800011f9800121f9800231f980061
:1045e0000b003700ce109000c102780041179800f0
:1045f00005047800090020000a0020000b002000bc
:1046000078179800091f98001a1f98002b1f980010
:10461000de149000e08f54000d003a001a002000d4
:104620007e1090008e1890001e199000ae19900018
:104630005a179800e00f5000e08f5800e00f590023
:10464000e08f5900020032008000eb005117980003
:104650000c01780005042000020cb200321798000b
:10466000850f51003400320003003c00e00f510080
:10467000080032004800370005082000be119000f5
:10468000858f510014003200050c2000858f5100e9
:1046900041003a006648210015c0b3003600be0054
:1046a0003601be007e1490008e1c90001e1d9000ee
:1046b000ae1d90000040e10001c8e10002d0e10021
:1046c00003d8e100330039008542e800f4cf5200fe
:1046d000f2ff3a002f00370015c0b30000012000a0
:1046e000010020006011b8007e1490008e1c900024
:1046f0001e1d9000ae1d90000040e10001c8e100c9
:1047000002d0e10003d8e100220039004900200076
:104710000000d0008180d2000281d2008381d200cb
:104720008904e900faff3a008542e800f0cf520020
:10473000edff3a001700370015c0b30080002000dd
:10474000010020006011b8007e1490008e1c9000c3
:104750001e1d9000ae1d90000040e10001c8e10068
:1047600002d0e10003d8e1000a003900390020003e
:104770000000d0008180d2000281d2008381d2006b
:104780008904e900faff3a008542e800f5cf5200bb
:10479000edff3a00054f78009e02fb005e15900089
:1047a0008a8f520002003d000a4f78000400370053
:1047b000de159000858f550001003d0055179800cb
:1047c000e00f520003003200e302660001003200f5
:1047d0000402e9000500240085026600060032009c
:1047e0005e109000800f5200020034000002520060
:1047f000010037000002eb008000eb009e02fb008e
:1048000021179800850f52000200340085025200e3
:10481000251798006402660045003200e202660037
:1048200061026600e08f520017003200bd02900066
:104830000504b200080032009d027800b6c2b30041
:10484000e00f52000100320006c3e800864a7800fb
:10485000850ee80008003700b0022000e00f52008b
:10486000010032000080e8008d00780077fd07002d
:10487000e10f4000160032006e1190000201e800c6
:104880006217980012003700e00f5200100032004b
:104890003d0290000404b200050032001d027800c1
:1048a00005c2b300054a7800840ee8000500370011
:1048b0008d0078000002200064fd0700e10f400039
:1048c00003003200ee1190008301e80063179800a6
:1048d0002e129000e00f52005b00320008c3b300bc
:1048e000840478003d0290000404b2000400320009
:1048f0001d027800084a7800840ee80005003700a1
:104900008d0078000003200050fd0700e10f4000fb
:1049100003003200ee1290008502e800651798004f
:104920008904e900efff3a00291798004600370094
:104930002e139000e00f530016003200680266004c
:1049400014003a0008c2b300860478003d029000cb
:104950000404b200040032001d027800084a780006
:10496000840ee800050037008d007800000220006a
:1049700036fd0700e10f400003003200ee13900007
:104980008703e800671798008904e900efff3a0001
:1049900029179800e202660061026600e08f52006b
:1049a00017003200bd0290000504b200080032007a
:1049b0009d027800b6c2b300e00f52000100320041
:1049c00006c3e800864a7800850ee8000800370034
:1049d000b0022000e00f5200010032000080e80029
:1049e0008d00780019fd0700e10f4000160032002d
:1049f0006e1490000804e800681798001200370051
:104a0000e00f5200100032003d0290000404b2009a
:104a1000050032001d02780005c2b300054a780087
:104a2000840ee800050037008d00780000022000a9
:104a300006fd0700e10f400003003200ee14900075
:104a40008904e800691798005e159000e44721008a
:104a50008a02e900f0056600c32add000c00780038
:104a6000048242000002b200141798003b0798002d
:104a7000200798009c003700de1090003e11900047
:104a80008100e9000304200051179800830f5100b2
:104a90006f00320003003c00e00f510008003200bc
:104aa0007c00370004082000be129000848f520062
:104ab00051003200040c2000848f520075003a002f
:104ac000e00f56001b003d001e1390007e1090006a
:104ad0008e1890001e199000ae1990003604be008a
:104ae0002605be000802be000a03be00ef03070051
:104af0000802be000a03be00004f78000000fb0061
:104b0000cf80de00010178008201780058040700a0
:104b10007e1490008e1c90001e1d9000ae1d900013
:104b20000004540081845c0002055d0083855d0003
:104b300020003700be049000e08f540022003200b5
:104b40001e1090007e1290008e1a90003004be005d
:104b50002005be00441f98000400be000801be00ee
:104b6000351f980023f107000801be00004f7800b0
:104b70000000fb00cf80de00270307004e1a9000e4
:104b8000be1a90000001520081815a000002eb0021
:104b9000020f9800130f9800340f98008001eb006b
:104ba000230f98000e0c90009e0c90002e0d90008c
:104bb000be0d900078179800091f98001a1f9800e2
:104bc0002b1f9800090037009e1490007e1590005e
:104bd00019027800110009000485d800a400200003
:104be000110009000480d800014f78000bc3b30006
:104bf0001ecf450027003700544621002e009000ac
:104c0000e00f50000100320044452100de1090000a
:104c1000c20add007e1090008e1890001e199000d0
:104c2000ae1990008502e900050033008301d10030
:104c30000281d3008180d3000080d300f9ff3700c8
:104c4000ef02600005024200144f780011003700a7
:104c50005e1190007e1490008e1c90001e1d90002e
:104c6000ae1d9000e312b90001c3b3000400780048
:104c70000000e900050033008b05d1000a85d30050
:104c80008984d3000884d300f9ff370067426400a9
:104c9000014f42003d0290000404b20007003200c0
:104ca0009d0278001e427800844a7800850ee80054
:104cb000e04f520006003a00080037001e00fb00db
:104cc0008d00780061fc0700e10f40000300320016
:104cd0006e1190000201e800621798009e1190008a
:104ce000e8815100131798005e129000e00f520007
:104cf00061ff3a006806660016003200ae129000ae
:104d0000e08f5200130034006e16900008c2b3000a
:104d1000850478003d0290000404b20004003200d3
:104d20001d027800084a7800840ee800050037006c
:104d30008d0078000002200044fc0700e10f4000d5
:104d4000010032000c06e8008904e900f1ff3a0096
:104d50006c1798000e13900016407800004f7800f2
:104d6000e04f500089fc3a004f06be006e109000e4
:104d70004f05be004f04be000080fa000000060090
:104d80000200fa00889fbe0001047800004f7800fe
:104d900038029000840278000504b200020032005c
:104da0000000fb0033003700e202620005003a0019
:104db0000403b30015049800340498000080eb004d
:104dc0002c003700d8049000e08f540006003a0011
:104dd000120020008e00780048009000f3ed0700dc
:104de0001904980022003700a8029000e08f5200ba
:104df00008003a00755421000430a00025049800f2
:104e0000050c780034049800250020005504980013
:104e10001504980018019000a80090004800900028
:104e2000e2ed0700280290008082eb001504980054
:104e30001e4a7800040ce800a4c0b3009e4f120084
:104e40000b003a00380290000410b2000800320053
:104e500018019000a800900048009000d3ed0700d2
:104e60000002eb001404980028029000040c780063
:104e70001e00fb004f04be000080fa000000060088
:104e80000000fa0000c0da000080fa00000006000e
:104e90002800fa00889fbe008a9fbe008c9fbe003b
:104ea00007067800878669000c003b000304780041
:104eb0008704780008f0a10009f0a100840f5000d9
:104ec000858f5800860f5900890f5c00030033005e
:104ed0000cf0a20001003a000cf0a100fe00070057
:104ee0006400e1005f003200780147006408e100df
:104ef000610032006c014700748557003200be002b
:104f00001201be003a04be001a05be001e03900046
:104f1000be0a90008503530006003d000004fd001a
:104f20008104fd000205fd008305fd008703ea0002
:104f3000050378000df8a30004003200600414009b
:104f4000e0841c0060051d00e0851d006022b800a3
:104f50007d0320000d38e1008006eb000b003900d6
:104f60004433dd00f300b2008301730039003700e1
:104f7000848272000d027800e10664008b85d10006
:104f80000a85d3008984d3000884d3008703e9000d
:104f9000f7ff3b0008004000898048000a014900f3
:104fa0008b81490004003b0060001000e080180085
:104fb00060011900e08119000358a30009003200c4
:104fc0008d82720084827200610260008301d100d0
:104fd0000281d3008180d3000080d3000603e80063
:104fe0001b0037000348a30017003a000600e0004a
:104ff000170034000603e9000d00a300000048007c
:105000008180480002014900838149000348a300d0
:105010000f003a000600e000090034000603e90032
:10502000000040008180480002014900838149005e
:1050300001003a000003eb000348a300f5ff320033
:105040006022b8000200370084827200618266002c
:105050007500070003f0a1000cf0a70003f0a0000a
:10506000b1003700640147006408e10002003a0023
:105070000df8a300a9003a003200be001201be00e4
:10508000a90037008f1fd100240307008f87e90094
:105090000000e00000000600809feb001f030700f7
:1050a0008f87e9000000e000000006002800fa00f9
:1050b000889fbe008a9fbe008c9fbe0003866b0047
:1050c000850007006400e100440032006408e1004c
:1050d0004a0032006100e100460032006108e10050
:1050e00049003200ec0647006000b8003d02be00f7
:1050f0003d03be00f48657006011b8003d04be00b9
:105100003d05be007d0320000b0037000000a0001d
:105110008d06e900130032000402420085824a0035
:1051200006034b0087834b0000004000818048004d
:1051300002014900838149000802520089825a0015
:105140000a035b008b835b00f0ff3b000802420018
:1051500089824a000a034b008b834b008d06e900cd
:10516000edff3a008482720086827200f707b20077
:105170008782720001003200150020001e0490009a
:105180003e0b900006035400e63fb0000368a30006
:10519000070032000000a7000500a0008301d10035
:1051a0000281d3008180d3000080d3000603e80091
:1051b0008301d1000281d3008180d3000080d3001d
:1051c0000002eb000482d2001700070003f0a100e8
:1051d0000cf0a70003f0a000530037006402470062
:1051e0006408e1004d0032003400be003401be000e
:1051f000f6ff37006108e100480032006011b80096
:105200006000b800f1ff370003ff27000200200014
:10521000fbff3700801feb00c00207008f87e9000b
:105220000000e000000006001800200057002000e9
:10523000080453000d003d000600200097fc2f00dd
:105240000740e1001e0034008482720061026000a9
:105250008301d1000281d3008180d3000080d3007c
:105260000804e800f8ff3a004700200061046000ed
:1052700005047400040464000d0032006100400065
:10528000e080480060014900e081490003b8a500c2
:10529000070032000603e8006538e10004003a0028
:1052a0008301d1000281d3008180d3000080d3002c
:1052b000f87f20000830e100030035000803780083
:1052c0006000b8006011b8004433dd00f300b200a4
:1052d0008301730000000600680447000294be00ca
:1052e0000094be00fc0447008694be008494be0077
:1052f00009007800d202070008007800d0020700f9
:1053000099007800814f70000b003b000800be0040
:10531000ab0207004f00b10003003700f3ff270086
:10532000f2ff2f006110b9004f06be004f05be000e
:105330004f04be000080fa000000060081037800e0
:105340001cee07000001be006000b8000478a30056
:1053500013003a006220e10015003e000d00390004
:105360008301d1000281d3008180d3008301d10069
:105370000281d3008180d3008301d1000281d30058
:105380008180d3000538b000c42add00f300b200ec
:105390008381720007f0a70003f0a0000000060060
:1053a000f3ff2700f2ff2f006110b900fbff370069
:1053b00003ff2700f7ff37001400fa00889fbe00a4
:1053c0008a9fbe008c9fbe000004be000205be0086
:1053d000680047000a90be000890be0098020700cf
:1053e0000070a7000bf0a1000bf8a30020003a000a
:1053f0009e0990000e099000fe0090006e00900043
:105400009e0290003443200084825200c6ff320086
:105410000a003c00b4fc2f000428e1001400340012
:105420008301d1000281d3008180d3000080d300aa
:105430008502e800faff3a00bbff3700b400200005
:105440000428e10007003c00000040008180480083
:1054500002014900838149008502e900faff3a0010
:10546000b1ff3700030028000200200001003700d0
:105470006011b8006000b800abff37001400fa00fc
:10548000889fbe008a9fbe008c9fbe000004be00a5
:105490000205be00680047000a90be000890be00ea
:1054a000670207000070a7000bf0a1000bf8a30033
:1054b00016003a009e029000304320008082520085
:1054c000b0fe2f000028e1000d003c00b0fc2f00d2
:1054d0000028e1000d0034001e0990008e089000a5
:1054e0007e0090000501b0000201d1008180d30050
:1054f0000080d3008502e800fbff3a008aff3700f6
:10550000010028000000200087ff37006000b8007d
:1055100085ff3700889fbe00008270000402710082
:10552000048271002400320036432000c5002000b0
:105530008383cf000a0039000541b1008283cf0088
:10554000070039000541b1008183cf000400390014
:105550000541b1008083cf00010039000541b10051
:1055600085c353006022b800120032000a003b00dd
:1055700084827200610260008301d1000281d30045
:105580008180d3000080d3000603e8008743e80051
:10559000f7ff3a0007003700000040008180480014
:1055a00002014900838149000603e9008743e900bd
:1055b000f9ff3a001cff07004f04be000000060080
:1055c0006011b800d3ff37001400fa00889fbe00b6
:1055d0008a9fbe008c9fbe00040678000004be00b7
:1055e0000205be00680047000a90be000890be0099
:1055f000130207006200e1000800be000a01be00bd
:10560000040020000b003a001e029000e43fb100ad
:105610006e009000fe0090000e0990009e09900020
:10562000f300b20005fe2300858171000bf0a70096
:1056300003f0a000040e78003bff37002800fa00ba
:10564000889fbe008a9fbe008c9fbe0003866b00b1
:1056500021ff07000028a30064003a000128a300ee
:1056600067003a000008a30062003a000108a300a6
:1056700065003a001e009000be08900081064000c0
:10568000ed3fb100f4805700ee019000111ab80010
:105690008e099000311bb8009e099000311cb800a3
:1056a000511db800f485570046000700fe01900028
:1056b0003a0007008b85e8003e0007008e09900045
:1056c00040000700ee019000340007008b85e800e1
:1056d000380007008e099000400007009e099000e6
:1056e0001b18b800890440000a854800fe0190009c
:1056f000340007008b85e80038000700ee019000b9
:10570000300007008e0990001b18b8008904400083
:105710000a8548000a98a30008003a0004024200e3
:1057200085824a0006034b0087834b0008044c0027
:1057300089844c000a054d008d06e90084827200c0
:10574000850273004c3add008502720001003200d0
:1057500015002000443ade001400b2004538de0097
:10576000cb45dd000b007000c540de00cb4ddd00f9
:105770008b8070004549de00cb55dd000b017100c8
:10578000c551de000d037800a7fe070003f0a1005d
:105790000cf0a70003f0a000e3fe37001b18b800d0
:1057a0008502400006834800e0834b0060044c0003
:1057b000070037001b18b800060340008783480025
:1057c000faff37001b18b800870340000884480020
:1057d000e0844c0060054d00000006001b18b80076
:1057e0000804400089844800faff37000108a3003c
:1057f000cafe3a005800be005801be00e3ff370061
:105800000008a300c5fe3a0009047800f9ff37003c
:1058100007f0a2009efd3700020ab900001bb90084
:105820000200b80081004200810043000000060031
:105830000000fa00889fbe008a9fbe003004be00b0
:105840002005be000404440085844c0006054d007c
:1058500087854d000898be000a90be000440e10014
:1058600005c8e10006d0e10007d8e10002003100e0
:10587000680040001008e8004f05be004f04be005d
:105880000080fa00000006001000fa00889fbe00a9
:105890008a9fbe000605be000404be003002be00a2
:1058a0002003be00049fbe000697be00110020002a
:1058b0000802520089825a000a035b008b835b0056
:1058c00044079800550798006607980077079800e6
:1058d0000498be000698be003e02be002e03be0025
:1058e0000820e10009a8e1000ab0e1000bb8e100de
:1058f000010039008000eb004f05be001088100049
:105900004f04be000080fa00000006001400fa00f8
:10591000889fbe005b0007008a9fbe008c9fbe0070
:105920000006eb004c0798003c0798002c079800f5
:105930001c0798000c0f78000605be000404be008a
:105940000d0420004e039000be0290008603430029
:105950002e029000e00f530003003d002a000700d4
:10596000b3ff07000200370027000700c6ff07004b
:10597000ce029000150f9800e08f5200090035000c
:105980004500070014002000050020006033b80027
:105990000000720081807200020173008381730035
:1059a000380007000c06e8008d0f5600e5ff3a00ae
:1059b0001e0a9000e00f520004003d000802be00e5
:1059c0000a03be000e00780099ff07004eba970048
:1059d000e00f520006003a003e04be002e05be0055
:1059e00058079800690798007a0798000b0f9800ed
:1059f0004f06be00280007004f05be004f04be0042
:105a00000080fa00000006004f2bde002200070095
:105a100086837300858242004f23de00470798008b
:105a20008682720004024200350798009e029000b0
:105a30004f2bde0085824200060272002407980088
:105a40001e0278004f23de000402420086827200ac
:105a5000150798004f18de00000f72000e000700b7
:105a60000802be000a03be0000004000818048001a
:105a70000201490083814900020007000e007800fe
:105a80000000060050079800610798007207980010
:105a9000030f9800000006005e009000ee009000ea
:105aa0007e0190008e099000000006000000fa00c0
:105ab000881f780018002000881f780093ff0700d7
:105ac0008f87e9004f0478000080fa00000006008c
:105ad0000000fa00801feb008cff07008f87e900b1
:105ae0000080fa00000006000000fa00889fbe0057
:105af0008a9fbe00e00f5000e08f5800e00f590071
:105b0000e08f59000c003d006044b8006055b800bb
:105b10000000540081805c0002015d0083815d0013
:105b2000180020001600070008003d0019000700bb
:105b30000004eb00050037000004eb001000070034
:105b400002003d001300070018002000d7ff0700e7
:105b5000e00f5400060032006022b8006033b80045
:105b60000000520081805a0002015b0083815b00cb
:105b70004f05be004f04be000080fa000000060082
:105b8000e00f5200e08f5a00e00f5b00e08f5b00f7
:105b9000000006006044b8006055b80004025400dc
:105ba00085825c0006035d0087835d0000000600bf
:105bb0000000fa00889fbe008a9fbe008c1f7800fc
:105bc000e00f5000e08f5800e00f5900e08f5900bf
:105bd0000d003d006044b8006055b8001c00200076
:105be0000000540081805c0002015d0083815d0043
:105bf0000820e10009a8e1000ab0e1000bb8e100cb
:105c00000d003d00080037000006eb00e00f5200d9
:105c1000e08f5a00e00f5b00e08f5b0006003d0064
:105c20006044b8006055b8000402540085825c00ee
:105c300006035d0087835d00a5ff0700e00f5600a7
:105c4000060032006022b8006033b8000000520045
:105c500081805a0002015b0083815b004f0678005f
