:020000040000fa
:080000000002040000000000f2
:020000040000fa
:10000800d2020000d2020000d2020000d202000098
:10001800d2020000d2020000d2020000d202000088
:10002800d2020000d2020000d2020000d202000078
:10003800d2020000d2020000d2020000d202000068
:10004800d2020000d2020000d2020000d202000058
:10005800d2020000d2020000d2020000d202000048
:10006800d2020000d2020000d2020000d202000038
:10007800d2020000d2020000d2020000d202000028
:10008800d2020000d2020000d2020000d202000018
:10009800d2020000d2020000d2020000e40b0000ed
:1000a800d2020000d2020000d2020000d2020000f8
:1000b800d2020000d2020000d2020000d2020000e8
:1000c800d2020000d2020000d2020000d2020000d8
:1000d800d2020000d2020000d2020000d2020000c8
:1000e800d2020000d2020000d2020000d2020000b8
:1000f800d2020000d2020000d2020000d2020000a8
:10010800d2020000d2020000d2020000d202000097
:10011800d2020000d2020000d2020000d202000087
:10012800d2020000d2020000d2020000d202000077
:10013800d2020000d2020000d2020000d202000067
:10014800d2020000d2020000d2020000d202000057
:10015800d2020000d2020000d2020000d202000047
:10016800d2020000d2020000d2020000d202000037
:10017800d2020000d2020000d2020000d202000027
:10018800d2020000d2020000d2020000d202000017
:10019800d2020000d2020000d2020000d202000007
:1001a800d2020000d2020000d2020000d2020000f7
:1001b800d2020000d2020000d2020000d2020000e7
:1001c800d2020000d2020000d2020000d2020000d7
:1001d800d2020000d2020000d2020000d2020000c7
:1001e800d2020000d2020000d2020000d2020000b7
:1001f800d2020000d2020000d2020000d2020000a7
:10020800d2020000d2020000d2020000d202000096
:10021800d2020000d2020000d2020000d202000086
:10022800d2020000d2020000d2020000d202000076
:10023800d2020000d2020000d2020000d202000066
:10024800d2020000d2020000d2020000d202000056
:10025800d2020000d2020000d2020000d202000046
:020000040000fa
:100400008f0321000eff27000e018800000000006e
:10041000000020000000e000020032000001200087
:10042000200288000c00070000d5200001002000f9
:100430000f000700000020000000e0000200320072
:100440000000020000000000f40c020000000000a8
:100450000040da000000fe00c00b20000000e000b9
:1004600002003200002020009001880000000600f9
:10047000a1028800800078000000eb001a0037001d
:10048000e280400054a0b4009101ba00e280400034
:1004900054a0b4009102ba00e280400054a0b4001d
:1004a0000002eb00472bde00f507b200a601880032
:1004b000602ce10008003a000049eb000201e8006e
:1004c000020039003420ec0002f0a0008301e900b2
:1004d000f9ff3e00040037006128e100010032000e
:1004e0000082eb00040007001101ba000200e000e6
:1004f000e3ff3a000000060004d0a300e20f490029
:100500001c003900810278003549ba000201e80078
:10051000020039003420ec0002f0a0008301e90061
:100520000f0032002549ba000201e800020039003c
:100530003420ec0002f0a0008301e9000800320042
:100540000400e0000600320015c9ba000201e8000c
:10055000020039003420ec0002f0a0008301e90021
:100560008180e80054a0b4000300e000e2ff3a00fc
:10057000000006009102ba00055978008301e900e5
:10058000f7ff3200c82ade00055978008301e90030
:10059000f3ff32000400e000f1ff320011d9ba008d
:1005a000eeff37000040da000000fe0003f0a2007a
:1005b000889fbe008a9fbe008c1f7800cc00070079
:1005c000d30033006450e1004f0032006420e100aa
:1005d0005200320003826c0007003b000905d00086
:1005e0000306d000820f54000c065d0002003900a3
:1005f00002003200890178000306780085825500e8
:1006000004003d000003fd008103fd008502ea00b7
:100610008b854200840f720002003b0060001000d6
:10062000e08018006011b8000005eb007a28e100b6
:100630000a00390006007800c75ddd00f707b20048
:10064000878075002d003700828171000a017800d3
:10065000610560008180d1000080d3008502e9003f
:10066000f9ff3b00060440008784480002003b007d
:1006700060041400e0841c000988a3000700320015
:100680008a81710082817100610164008904d10056
:100690000884d3008b05e800170037000978a30011
:1006a00013003a000b00e000130034008b05e90052
:1006b0000804440089844c000a4474000978a300ab
:1006c0000d003a000b00e000070034008b05e90044
:1006d0000804440089844c0001003a000b0020000b
:1006e0000978a300f7ff32000001eb000200370099
:1006f000828171000a017800420007000cf0a70017
:1007000001f0a0008b0037006420e10002003a00f5
:10071000838f6c008b0033000801be000200be0016
:1007200084003700839f68000100e00002003d0064
:1007300060001000e08018000300e00002003d00af
:1007400060011100e0811900c40007004f00e000c3
:1007500002003b0060001000e0801800000006006e
:1007600014002000d0003700f4ff2f00ce00370027
:100770000001be00490007000470a70003f0a100bb
:100780006509b100160032000d0035006828e1004f
:1007900006003500f0ff2f00f1ff27000300e00006
:1007a00013003b000100280000000500000040008d
:1007b000818048008502e900fcff3a00080037000c
:1007c000f88f420002003c008000eb0000000500b2
:1007d0008100d1000080d3008502e800fcff3a00d0
:1007e0000300e00002003b0060001000e080180001
:1007f000000006006011b800c600370004002000a9
:10080000a900370081002000618055000b003d00e9
:100810000b00200061fe2f000100e1001d003400ec
:1008200082817100610164008904d1000884d300d1
:100830000000e800faff3a00710020006100640047
:1008400003007000020060000900320061044400ef
:10085000e0844c000988a500050032008b05e80003
:100860006808e10002003a008904d1000884d3003e
:10087000f20f20000258e10005003d00c75ddd00d9
:10088000f907b200898075000800780000000600b2
:100890000bf827008b00780000000500c70ade0077
:1008a000f107b200f50fb20008003200e1cf4200bc
:1008b000020032000170a00024000500810f7000ca
:1008c000010032000408050044000500810f70009b
:1008d00002003a00140005008502e9000000400013
:1008e00081c04800fcff3b000170a000240005000f
:1008f0000004be00e9ff07000003be000405be00bf
:100900000200be00e5ff0700844f750000000600ee
:100910000200be006450e100050036006420e100e2
:10092000020036000968a30001003a000800be007a
:100930000160a0004f0678004f05be004f04be00c6
:1009400000000600f0ff2f00f1ff2700f9ff37003d
:10095000811f78000100e00002003d0060001000ef
:10096000e08018000300e00002003d00600111007b
:10097000e0811900490007004f00e00002003b0041
:1009800060001000e080180000000600889fbe0094
:100990008a9fbe008c1f7800d5ff0700dcff330064
:1009a00003866c006450e100240032006420e10002
:1009b000270032006150e100220032006120e10096
:1009c000210032008b854200eb07b1000134b800f2
:1009d000003ab8000804420089844a00013ab8008d
:1009e0000030b8008880400009014a00040033004c
:1009f0000000400081804800020149008b05e900a9
:100a0000c909dd00830170000100320013002000dd
:100a1000c814de004814dd004709de001200b200f1
:100a2000c808de000884700076ff070001f0a1000e
:100a30000cf0a70001f0a000beff37006120e1002c
:100a4000c0ff32000801be000200be00f7ff370001
:100a50006150e100fcff3a00baff37006022b800a5
:100a6000060220000000d0008180d2000482d20063
:100a70008582d2000000a0000202520083825a0048
:100a8000030031000202420083824a000000a100fc
:100a90000603e900f3ff3a0000000600efff07003d
:100aa0000400be0000000600889fbe008a9fbe00b2
:100ab000841f78008eff07004f007800110033007c
:100ac000f0ff2f00838f6c0006003b0004056500db
:100ad0000a00a7000800370009f0a6001000200057
:100ae00008003700820f5400838f5c000300390038
:100af0001000200001003e000000200009f0a700c7
:100b00000000ea004f05be004f04be000000e000f8
:100b100000000600889fbe008a9fbe000082700011
:100b20000402710004827100260032000004be003d
:100b30000200be006011b8006b0920009502200081
:100b40000182cf000a0039000541b1000082cf00c8
:100b5000070039000541b1000982cf0004003900c7
:100b60000541b1000882cf00010039000541b10004
:100b700005425200120032000a003b0082817100df
:100b8000610164008100d1000080d3008984d3001a
:100b90000884d3008b05e8000442e800f7ff3a0020
:100ba000070037000804440089844c000000480016
:100bb000818048008b05e9000442e900f9ff3a0012
:100bc00010ff07004f05be004f04be0000000600e6
:020000040000fa
:100bd000466900006e20000064650000206c000083
:100be000276900006e69000074690000616c0000f4
:100bf0006973000061740000696f00006e200000de
:100c0000646500002055000041520000542e000091
:100c10000a000000466900006e20000064650000c4
:100c2000206c0000276900006e69000074690000f4
:100c3000616c00006973000061740000696f00005e
:100c40006e20000064750000206d00006f740000cd
:100c500065750000722e00000a0000004f6e000053
:100c6000206500006e7600006f69000020750000ae
:100c70006e650000206300006f6e00007369000065
:100c8000676e00006520000061750000206d0000a7
:100c90006f74000065750000722000003a200000ab
:100ca000302e0000312000006c6f00006e670000e5
:100cb000756500007572000020650000742000005a
:100cc000343000002e300000206100006e6700000c
:100cd0006c6500002e0a000000440000656c0000f6
:100ce00061790000206400006520000035300000bc
:100cf000302000006d7300000a000000466900000b
:100d00006e20000064650000206c0000612000007f
:100d1000636f00006e730000696700006e6500007d
:100d20002e0a00000000000000000000000000008b
:100d300000000000000000000000000000000000b3
:080d40000000000000000000ab
:020000040000fa
:100d48000000fa0032c0b30041e22000c0002100d8
:100d5800b802070062c0b30041e42000800021000f
:100d6800b402070022c0b30041e220004001210084
:100d7800b002070052c0b30041e420000001210086
:100d8800ac02070064cc2000d480880064c820002e
:100d9800c480880032c0b30001e22000c0012100f5
:100da800a402070062c0b30001e420000002210091
:100db800a002070022c0b30001e220004002210087
:100dc8009c02070052c0b30001e420008002210009
:100dd8009802070042c0b30001e22000c0022100cf
:100de8009402070072c0b30001e420000003210050
:100df800900207000041eb00008180001181800013
:100e0800980207000041eb00e0808000f18080003c
:100e1800940207000041eb0040818000518180006e
:100e2800900207000041eb002081800031818000a2
:100e38008c0207000041eb008081800091818000d6
:100e4800880207000041eb0060818000718180000a
:100e580084020700280107000002eb0004608800f4
:100e6800a481800024608800c18ca900c16ca900fd
:100e7800c14ca900c12ca900c10ca90004668000be
:100e88000460a1000470a00004668800c06ca9007a
:100e9800c02ca900c00ca900800ca800c3eca800b5
:100ea800c3cca900c3aca9001466800004a0a000ac
:100eb80004b0a00014668800c30ca900c22ca900c5
:100ec800c20ca80083eca80083cca90083aca900bd
:100ed8001464800004a0a00004b0a000146488007a
:100ee800830ca900822ca900820ca800d480800061
:100ef8008002eb00050a7800c48080008002eb00c5
:100f0800050a78000041eb00608080007180800055
:100f1800540207000041eb004080800051808000af
:100f28005002070001eca80004c82000a481880032
:100f380084bb200004808800a40f2000148088004f
:100f4800a499290095e92300248088003580880029
:100f58000080fa00000006000000fa00e600070022
:100f6800d48080008002eb00050a7800c4808000ed
:100f78008002eb00050a78000080fa0000000600f5
:100f88001600fa00889fbe008a1f78007007980034
:100f9800010f9800120f9800230f980024808000fa
:100fa800358080000401be000000200001f8230005
:100fb8007cfd07000002be007e0190008e099000b3
:100fc8000400be006ffe07000002be000404be005d
:100fd80024808000358080001e099000ae099000b2
:100fe8000400be0067fe07000002be000401be0048
:100ff8000800be006bfd07000002be002407980031
:101008003507980024808000358080000401be00e8
:101018000000200001f8230062fd07000002be0066
:101028007e0190008e0990000400be0055fe070066
:101038000002be000404be002480800035808000c9
:101048001e099000ae0990000400be004dfe070086
:101058000002be000401be000800be0052fd0700e9
:101068000002be0044079800550798006011b800b8
:101078002e009000be009000defd07000002780000
:10108800e00f52002b0032000580800014808000a1
:1010980004825200050020000400be00d3fd0700b2
:1010a8000004be001ac0b3006011b8002e00900002
:1010b800be009000a8fd070000027800e00f520073
:1010c800010035000045eb00e04f550004003200f8
:1010d8002e029000be02900005f0a2000200370028
:1010e8002e029000be0290000401be000800be005f
:1010f80024fe07000002be000404be001480800025
:10110800050020000400be00b8fd07000002be0074
:101118000401be000800be0023fd07000002be0057
:101128000400be0090fd07000002be00040f780016
:10113800020037000002eb00040f78006011b800cd
:101148004e009000de009000aafd07000002780023
:10115800e00f52002b0032000580800014808000d0
:1011680004825200050020000400be009ffd070015
:101178000004be001ac0b3006011b8004e00900011
:10118800de00900074fd070000027800e00f5200b6
:10119800010035000045eb00e04f55000400320027
:1011a8004e029000de02900005f0a2000200370017
:1011b8004e029000de0290000401be000800be004e
:1011c800f0fd07000002be000404be001480800089
:1011d800050020000400be0084fd07000002be00d8
:1011e8000401be000800be00effc07000002be00bc
:1011f8000400be005cfd07000002be001407980052
:10120800020037000002eb001407980018c0b30072
:101218006011b8002e009000be00900050fd07003d
:1012280000027800e00f520001003c000044eb008f
:10123800084278000404a2000482fb00444f98008e
:1012480018c0b3006011b8004e009000de00900096
:1012580041fd070000027800e00f52000100350050
:101268000044eb00084278000404a2000482fb005a
:10127800544f98004e499000608080007180800033
:10128800780107005e49900040808000518080000e
:1012980074010700d48080009e02780005f0a70042
:1012a8008502ea00050a7800c48080009e0290004a
:1012b80005f0a7008502ea00050a78004f057800c6
:1012c8004f04be000080fa00000006000000fa008b
:1012d80012c0b300a0808000b180800061010700c7
:1012e80012c0b30080808000918080005d010700fb
:1012f8000080fa00000006000000fa000041eb0040
:10130800a0808000b1808000560107000041eb00fa
:101318008080800091808000520107000080fa00e0
:10132800000006000000fa000080fa000000060035
:101338000400fa00100798000042eb00044f780000
:10134800080037009e4278000582fb009e0290004c
:101358000482420014427800044078000201070029
:101368001e4fe8009e4278000582fb009e02900016
:101378000482420014427800e04f5200f1ff3a0024
:101388000080fa00000006002400fa000017980008
:10139800111798000002eb00040f78004469280038
:1013a800944278004547980054692800144378000f
:1013b800564798006602470005000900001aeb002e
:1013c800005aeb000e1290009e129000e00f52009f
:1013d800e08f5a000f003d001e037800e40243002e
:1013e800d4c2b30004f77a001e0fe8001e0278008a
:1013f800e40242000042eb0004f77a000e1290006b
:101408009e12900060021200e0821a0004179800f1
:10141800151798000e1290009e129000e00f5200cf
:10142800e08f5a000a003a001e037800e4024300e5
:1014380004c3b30004f77a001e0fe8001e02780008
:10144800e40242000042eb0004f77a00340037005f
:101458007302470014079800170037000e12900017
:101468009e129000a2002000030020000400be008d
:1014780035fd07000002be00044278000443b000b6
:101488009e029000844a78000e1290009e129000ee
:10149800a2002000030020000400be009ffc0700fb
:1014a8000002be0004179800151798001e0290004d
:1014b8000402e800140798000e1290009e12900093
:1014c800e00f5200e08f5a00e4ff3c001e0290003b
:1014d8000402e90014079800090037001e02900072
:1014e800144278001e037800e402430004f77a00ef
:1014f8001e0fe8001e0290000402e900140798007d
:10150800730247009e029000848f5200f3ff31005f
:101518001e027800e40242000042eb0004f77a0061
:10152800640247000400780081ff07000080fa0089
:10153800000006002400fa00001798001117980010
:101548000002eb00040f78004469280094427800f8
:101558004547980054692800144378005647980076
:101568006602470005000900001aeb00005aeb006c
:101578000e1290009e129000e00f5200e08f5a0069
:101588000a003a001e037800e402430004c3b300d3
:1015980004f77a001e0fe8001e027800e4024200f9
:1015a8000042eb0004f77a0034003700730247006a
:1015b80014079800170037000e1290009e12900032
:1015c800a2002000030020000400be00defc07008b
:1015d8000002be00044278000443b0009e0290005e
:1015e800844a78000e1290009e129000a2002000fb
:1015f800030020000400be0048fc07000002be00f3
:1016080004179800151798001e0290000402e800bd
:10161800140798000e1290009e129000e00f5200de
:10162800e08f5a00e4ff3c001e0290000402e9002b
:1016380014079800090037001e0290001442780031
:101648001e037800e402430004f77a001e0fe80046
:101658001e0290000402e900140798007302470074
:101668009e029000848f5200f3ff31001e02780022
:10167800e40242000042eb0004f77a0064024700eb
:10168800040078002aff07000080fa000000060026
:101698000000fa0031e2a90031a2a9003182a900b4
:1016a8003162a800841180000480a1000490a10088
:1016b8008411880030e2a90030c2a90030a2a90034
:1016c8003062a900841180000410a1000420a10048
:1016d800841188003002a90034102000c411880049
:1016e80033e2a90033c2a90033a2a9003362a900da
:1016f8003342a9003322a9003302a90094118000c3
:101708000460a1000470a1009411880032a2a9000d
:101718003222a900f5348000f40f2c008482620084
:101728000430200005027200f434880031e2a80079
:101738003342a8000080fa00000006000000fa000a
:10174800000000009411800061026200e00f520066
:10175800fcff3200b4118000044278000440780095
:101768000080fa00000006000200fa00004f78002e
:10177800000000009511800004202000048262000f
:10178800e00f5200fbff3a009e4278000582fb0002
:10179800a41188000080fa00000006000000fa008a
:1017a80000000000951180000410200004826200ef
:1017b800e00f5200fbff32000080fa000000060034
:1017c8003600f800809fbe00829fbe00849fbe0046
:1017d800869fbe003200f80000202000900188009b
:1017e800000000000200fa0094118000620262000a
:1017f800e00f5200010032003222a900cfff07009b
:1018080000427800044f78001e40780036f0b70098
:1018180003e8a9000080fa003200f9004f03be0077
:101828004f02be004f01be004f00be003600f90057
:10183800004006000600fa00000f78001107980023
:10184800424798001e0278009e029000050a780020
:101858001e027800ce429000254298000080fa00cf
:10186800000006000600fa00008fbe0042479800fc
:101878004e429000e04f52000a0032009e0278006b
:101888001e027800140378002e4290000482fb00a8
:1018980017002000043add0006027200840a78006e
:1018a8000a0037009e0278001e02780014037800b0
:1018b8002e4290000482fb0017002000043add004d
:1018c8000482ea0004026300840a78000080fa00b7
:1018d800000006000400fa00008fbe001e02780017
:1018e800940278002e4290000482fb00160020002b
:1018f8000432dd000482620004f0a7000402ea005a
:101908000402ea004f22de00044278000440780016
:101918000080fa00000006000000fa0040a7a900b5
:101928000002eb008472880064022000343a8800c8
:10193800243a80000460a1000470a100243a8800c1
:10194800253a800004fe2f0004826200243a8800b1
:101958003600200084072000a509200037742000e5
:10196800844b7800854b7800864b7800143a8000c9
:10197800040378000600a000640420007505200018
:1019880027742000844b7800854b7800864b7800bc
:1019980000000000143a800061026200e00f52006b
:1019a800fcff3a0000000000153a80000400270000
:1019b8008482620004002300848f5200faff3a00f8
:1019c80000000000153a8000040220000482620032
:1019d800e00f5200fbff32000080fa000000060012
:1019e8000200fa00ccff070029ff07000002eb0005
:1019f800040f7800805e28004dfe0700d0fc070029
:101a0800a06028004afe0700e062280048fe0700a0
:101a18000002eb00040f780006003700d2cc2c003f
:101a2800c3dc23000000200001f8230054fd070058
:101a38001e0fe800f47c20009e027800848f52007c
:101a4800f6ff34000002eb00040f780006003700b0
:101a5800a299290093e923000000200001f823003f
:101a680047fd07001e0fe800743e20009e02780024
:101a7800848f5200f6ff3400d06628002cfe070041
:101a8800e06728002afe07006011b8006000b8006f
:081a98003bfd0700ffff3700d2
:020000040000fa
:101aa000361000000200000080000000001000005e
:0c1ab00036000000800000000000000074
:020000040000fa
:0200000401f009
:04000800cfffff0027
:020000040000fa
:0200000401f009
:04000c00fbffff00f7
:020000040000fa
:0200000401f009
:040010005effff0090
:020000040000fa
:0200000401f009
:040014005fffff008b
:020000040000fa
:0200000401f009
:04001800f7ffff00ef
:020000040000fa
:0200000401f009
:04001c00ddffff0005
:020000040000fa
:0200000401f009
:04002000cfffff000f
:00000001FF
