:020000040000fa
:080000000002040000000000f2
:020000040000fa
:10000800d2020000d2020000d2020000d202000098
:10001800d2020000d2020000d2020000d202000088
:10002800d2020000d2020000d2020000d202000078
:10003800d2020000d2020000d2020000d202000068
:10004800d2020000d2020000d2020000d202000058
:10005800d2020000d2020000d2020000d202000048
:10006800d2020000d2020000d2020000d202000038
:10007800d2020000d2020000d2020000d202000028
:10008800d2020000d2020000d2020000d202000018
:10009800d2020000d2020000d2020000d202000008
:1000a800d2020000d2020000d2020000d2020000f8
:1000b800d2020000d2020000d2020000d2020000e8
:1000c800d2020000d2020000d2020000d2020000d8
:1000d800d2020000d2020000d2020000d2020000c8
:1000e800d2020000d2020000d2020000d2020000b8
:1000f800d2020000d2020000d2020000d2020000a8
:10010800d2020000d2020000d2020000d202000097
:10011800d2020000d2020000d2020000d202000087
:10012800d2020000d2020000d2020000d202000077
:10013800d2020000d2020000d2020000d202000067
:10014800d2020000d2020000d2020000d202000057
:10015800d2020000d2020000d2020000d202000047
:10016800d2020000d2020000d20200008205000084
:10017800d2020000d2020000d2020000d202000027
:10018800d2020000d2020000d2020000d202000017
:10019800d2020000d2020000d2020000d202000007
:1001a800d2020000d2020000d2020000d2020000f7
:1001b800d2020000d2020000d2020000d2020000e7
:1001c800d2020000d2020000d2020000d2020000d7
:1001d800d2020000d2020000d2020000d2020000c7
:1001e800d2020000d2020000d2020000d2020000b7
:1001f800d2020000d2020000d2020000d2020000a7
:10020800d2020000d2020000d2020000d202000096
:10021800d2020000d2020000d2020000d202000086
:10022800d2020000d2020000d2020000d202000076
:10023800d2020000d2020000d2020000d202000066
:10024800d2020000d2020000d2020000d202000056
:10025800d2020000d2020000d2020000d202000046
:020000040000fa
:100400002f0021000eff27000e01880000000000d1
:10041000000020000000e000020032000001200087
:10042000200288000c00070040602000010020002e
:100430000f000700000020000000e0000200320072
:100440000000020000000000fa05020000000000a9
:100450000040da000000fe00000120000000e00083
:1004600002003200002020009001880000000600f9
:10047000a1028800800078000000eb001a0037001d
:10048000e280400054a0b4009101ba00e280400034
:1004900054a0b4009102ba00e280400054a0b4001d
:1004a0000002eb00472bde00f507b200a601880032
:1004b000602ce10008003a000049eb000201e8006e
:1004c000020039003420ec0002f0a0008301e900b2
:1004d000f9ff3e00040037006128e100010032000e
:1004e0000082eb00040007001101ba000200e000e6
:1004f000e3ff3a000000060004d0a300e20f490029
:100500001c003900810278003549ba000201e80078
:10051000020039003420ec0002f0a0008301e90061
:100520000f0032002549ba000201e800020039003c
:100530003420ec0002f0a0008301e9000800320042
:100540000400e0000600320015c9ba000201e8000c
:10055000020039003420ec0002f0a0008301e90021
:100560008180e80054a0b4000300e000e2ff3a00fc
:10057000000006009102ba00055978008301e900e5
:10058000f7ff3200c82ade00055978008301e90030
:10059000f3ff32000400e000f1ff320011d9ba008d
:1005a000eeff37000040da000000fe00839f680085
:1005b0000100e00002003d0060001000e080180033
:1005c0000300e00002003d0060011100e08119001d
:1005d000140007004f00e00002003b006000100024
:1005e000e080180000000600811f78000100e00094
:1005f00002003d0060001000e08018000300e000f1
:1006000002003d0060011100e081190015000700a3
:100610004f00e00002003b0060001000e080180086
:10062000000006006022b800060220000000d00092
:100630008180d2000482d2008582d2000000a00016
:100640000202520083825a0003003100020242007b
:1006500083824a000000a1000603e900f3ff3a008c
:1006600000000600efff07000400be0000000600c7
:020000040000fa
:10067000000000000000000000000000000000007a
:10068000000000000000000000000000000000006a
:020000040000fa
:100690000000fa000080fa00000006000400fa00e2
:1006a000100798000042eb00044f78000800370064
:1006b0009e4278000582fb009e0290000482420068
:1006c0001442780004407800f80007001e4fe8004c
:1006d0009e4278000582fb009e0290000482420048
:1006e00014427800e04f5200f1ff3a000080fa0017
:1006f000000006002400fa00001798001117980067
:100700000002eb00040f7800843328009442780044
:1007100045479800943328001443780056479800c2
:100720006602470005000900001aeb00005aeb00c2
:100730000e1290009e129000e00f5200e08f5a00bf
:100740000f003d001e037800e4024300d4c2b30052
:1007500004f77a001e0fe8001e027800e40242004f
:100760000042eb0004f77a000e1290009e129000f7
:1007700060021200e0821a00041798001517980012
:100780000e1290009e129000e00f5200e08f5a006f
:100790000a003a001e037800e402430004c3b300d9
:1007a00004f77a001e0fe8001e027800e4024200ff
:1007b0000042eb0004f77a00340037007302470070
:1007c00014079800170037000e1290009e12900038
:1007d000a2002000030020000400be0082ff0700ea
:1007e0000002be00044278000443b0009e02900064
:1007f000844a78000e1290009e129000a200200001
:10080000030020000400be0068ff07000002be00d5
:1008100004179800151798001e0290000402e800c3
:10082000140798000e1290009e129000e00f5200e4
:10083000e08f5a00e4ff3c001e0290000402e90031
:1008400014079800090037001e0290001442780037
:100850001e037800e402430004f77a001e0fe8004c
:100860001e0290000402e90014079800730247007a
:100870009e029000848f5200f3ff31001e02780028
:10088000e40242000042eb0004f77a0064024700f1
:100890000400780081ff07000080fa0000000600d5
:1008a0002400fa0000179800111798000002eb00ce
:1008b000040f78008433280094427800454798005c
:1008c0009433280014437800564798006602470086
:1008d00005000900001aeb00005aeb000e12900010
:1008e0009e129000e00f5200e08f5a000a003a007a
:1008f0001e037800e402430004c3b30004f77a0047
:100900001e0fe8001e027800e40242000042eb00e5
:1009100004f77a0034003700730247001407980088
:10092000170037000e1290009e129000a2002000c7
:10093000030020000400be004aff07000002be00c2
:10094000044278000443b0009e029000844a78007c
:100950000e1290009e129000a200200003002000c2
:100960000400be002fff07000002be00041798001d
:10097000151798001e0290000402e8001407980062
:100980000e1290009e129000e00f5200e08f5a006d
:10099000e4ff3a001e0290000402e90014079800e8
:1009a000090037001e029000144278001e037800f0
:1009b000e402430004f77a001e0fe8001e029000d4
:1009c0000402e90014079800730247009e02900099
:1009d000848f5200f3ff31001e027800e4024200cf
:1009e0000042eb0004f77a0064024700040078003c
:1009f0002aff07000080fa00000006000000fa004d
:100a0000b536800004f82f0084826200e4032000e1
:100a100005027200b436880051e2a90050a2a90074
:100a2000841280000410a1000420a1008412880018
:100a30005002a9005062a80034102000c41288009f
:100a4000941280000460a1000470a1009412880038
:100a50000a48a9002a48a800444380000480a10055
:100a60000490a00004a0a000444388002a68a900c4
:100a700051e2a8005342a8000080fa0000000600de
:100a80000000fa0000000000941280006102620081
:100a9000e00f5200fcff3200b412800004427800e4
:100aa000044078000080fa00000006000200fa000e
:100ab000004f780000000000951280000420200004
:100ac00004826200e00f5200fbff3a009e42780071
:100ad0000582fb00a41288000080fa0000000600d6
:100ae0000000fa00000000009512800004102000b1
:100af00004826200e00f5200fbff32000080fa0027
:100b0000000006003600f800809fbe00829fbe00f5
:100b1000849fbe00869fbe003200f80000202000a7
:100b200090018800000000000200fa00941280008a
:100b300062026200e00f5200010032005222a9005e
:100b4000cfff070000427800044f78001e40780075
:100b500000f0b7000a68a9000080fa003200f9002e
:100b60004f03be004f02be004f01be004f00be004b
:100b70003600f900004006000000fa000002eb0019
:100b8000747088000002eb00f47088000002eb0033
:100b9000747188000002eb00f47188000002eb0021
:100ba000747288000002eb00747388000080fa0001
:100bb000000006000000fa0064022000343a8800b9
:100bc000243a80000460a1000470a100243a880047
:100bd000253a800004fe2f0004826200243a880037
:100be0000002eb00443a880040a7a9000080fa0008
:100bf000000006000000fa00eeff0700deff07001d
:080c00007eff0700ffff370033
:020000040000fa
:100c0800001000000200000080000000000000004a
:00000001FF
