:020000040000fa
:080000000002040000000000f2
:020000040000fa
:100400000fea24000eff2d000e01880000000000fe
:100410000c000700405f2000010020001d000700c5
:10042000000020000000e000020032000000020096
:10043000000000002a650200000000000040da0011
:100440000000fe00600120000000e0000200320019
:10045000002020009001880000000600f03fb1005d
:100460000180b10006003500ee0309000000000025
:10047000403fb1000180b100fbff3d001000b00023
:10048000203fb0000200350000800900000000009d
:1004900000000600a1028800800078000000eb0048
:1004a0001a003700e280400054a0b4009101ba0065
:1004b000e280400054a0b4009102ba00e280400003
:1004c00054a0b4000002eb00472bde00f507b20099
:1004d000a6018800602ce10008003a000049eb000a
:1004e0000201e800020039003420ec0002f0a00014
:1004f0008301e900f9ff3e00040037006128e100b4
:10050000010032000082eb00040007001101ba0074
:100510000200e000e3ff3a000000060004d0a30060
:10052000e20f49001c003900810278003549ba0009
:100530000201e800020039003420ec0002f0a000c3
:100540008301e9000f0032002549ba000201e800ea
:10055000020039003420ec0002f0a0008301e90021
:10056000080032000400e0000600320015c9ba009d
:100570000201e800020039003420ec0002f0a00083
:100580008301e9008180e80054a0b4000300e0008a
:10059000e2ff3a00000006009102ba000559780017
:1005a0008301e900f7ff3200c82ade000559780010
:1005b0008301e900f3ff32000400e000f1ff3200a4
:1005c00011d9ba00eeff37000040da000000fe004b
:1005d000811f78000100e00002003d006000100073
:1005e000e08018000300e00002003d0060011100ff
:1005f000e0811900d60007004f00e00002003b0038
:1006000060001000e080180000000600839f680072
:100610000100e00002003d0060001000e0801800d2
:100620000300e00002003d0060011100e0811900bc
:10063000ca0007004f00e00002003b00600010000d
:10064000e080180000000600889fbe008a9fbe0060
:10065000010578000100e0000400350008003c00be
:100660000000e000200032000500370060001000ac
:10067000e080180002003b0001f02c001a00370057
:100680000004be006011b8006b0920000982cf0091
:10069000020039000882cf000441b00069425200d4
:1006a0000e00320008003b0082817100610164008d
:1006b0008904d1000884d3008b05e8000442e800d7
:1006c000f9ff3a00050037000804440089844c0013
:1006d0008b05e9000442e900fbff3a00e400070053
:1006e0000af0a70001f0a0004f05be004f04be00b5
:1006f00000000600889fbe008a9fbe008c1f780005
:10070000010107000801330003866c006450e1001a
:10071000240032006420e100270032006150e10033
:10072000220032006120e100210032008b8542006e
:10073000eb07b1000134b800003ab80008044200e9
:1007400089844a00013ab8000030b800888040002f
:1007500009014a0004003300000040008180480085
:10076000020149008b05e900c909dd008301700021
:100770000100320013002000c814de004814dd0020
:100780004709de001200b200c808de0008847000cd
:10079000b700070001f0a1000cf0a70001f0a000d5
:1007a000ea0037006120e100ec0032000801be00e1
:1007b0000200be00f7ff37006150e100fcff3a0085
:1007c000e6003700889fbe008a9fbe008c1f78001d
:1007d000cd000700d400330003866c006450e100b4
:1007e0002e0032006420e100330032006150e1004d
:1007f0002f0032006120e100310032008585550074
:10080000eb07b000090020000804200005003700b5
:100810000804440089844c000a00310006034300a8
:1008200087834b000001530081815b00f8ff330098
:100830000203be000800a0000804440089844c00a4
:10084000f6ff3900c639dd00830173000100320074
:10085000130020008904d1000884d3000998a30064
:10086000050032000800a7000300a0008904d100a1
:100870000884d3008b05e8008904d1000884d300e4
:100880000001eb000281d2007900070001f0a10015
:100890000cf0a70001f0a000ac0037006420e100dc
:1008a000ae0032000801be000200be00f7ff3700b4
:1008b0006120e100a90032006000b800f3ff3700ba
:1008c0000000200001f82700f0ff37000001be0003
:1008d000a50007000470a70003f0a1006509b1009e
:1008e000160032000d0035006828e10006003500d2
:1008f000f0ff2f00f1ff27000300e00013003b0092
:100900000100280000000500000040008180480030
:100910008502e900fcff3a0008003700f88f42002a
:1009200002003c008000eb00000005008100d100c7
:100930000080d3008502e800fcff3a000300e000dd
:1009400002003b0060001000e0801800000006007c
:10095000020007000400be00000006006022b8008c
:10096000060220000000d0008180d2000482d20064
:100970008582d2000000a0000202520083825a0049
:10098000030031000202420083824a000000a100fd
:100990000603e900f3ff3a0000000600889fbe004e
:1009a0008a9fbe008c1f78000004be006e00070006
:1009b0000478a30026003a006120e10025003200ff
:1009c00009f8a30025003a006420e100210032006c
:1009d000f507b1000508a300020032000000400046
:1009e000818048006044b80003102000020020000d
:1009f00000004000818048000805440089854c00c3
:100a00000a0541008b8549000a0550008b85580076
:100a1000030033000a00be000204740083847400e3
:100a20008301d1000281d300830f7100f0ff3a00ef
:100a30008904d1000884d300600149008201780054
:100a4000c1adde00fb07b000090007003f00370022
:100a50000960a0000800be003c0037001202200020
:100a600002808800f0ff2f00f1ff270037003700d9
:100a700081002000618055000b003d000b0020002c
:100a800061fe2f000100e1001d0034008281710031
:100a9000610164008904d1000884d3000000e800eb
:100aa000faff3a007100200061006400030070004a
:100ab000020060000900320061044400e0844c0040
:100ac0000988a500050032008b05e8006808e100f0
:100ad00002003a008904d1000884d300f20f2000fc
:100ae0000258e10005003d00c75ddd00f907b200d6
:100af0008980750008007800000006000bf82700c8
:100b00008b007800000005000004be0016000700fe
:100b10000003be000405be000200be001200070074
:100b2000844f7500000006000200be006450e10022
:100b3000050036006420e100020036000968a300c9
:100b400001003a000800be000160a0004f067800d6
:100b50004f05be004f04be0000000600f0ff2f004e
:100b6000f1ff2700f9ff3700c70ade00f107b200e6
:100b7000f50fb20008003200e1cf4200020032005f
:100b80000170a00024000500810f700001003200f8
:100b90000408050044000500810f700002003a00bf
:100ba000140005008502e9000000400081c04800f3
:0c0bb000fcff3b000170a00024000500c9
:020000040000fa
:0200000401f009
:04000c00fbff0000f6
:020000040000fa
:0200000401f009
:04001000bdff000030
:020000040000fa
:0200000401f009
:040014007fff00006a
:020000040000fa
:0200000401f009
:04001800ffff0000e6
:020000040000fa
:10000800e4020000e4020000e4020000e402000050
:10001800e4020000e4020000e4020000e402000040
:10002800e4020000e4020000e4020000e402000030
:10003800e4020000e4020000e4020000fe650000a3
:10004800905c0000e4020000e4020000086f000079
:10005800e4020000e4020000e4020000e402000000
:10006800e4020000e4020000e4020000e4020000f0
:100078006a650000e4020000e4020000e4020000f7
:10008800e4020000e4020000e4020000e4020000d0
:10009800e4020000c0650000e4020000e402000081
:1000a800e4020000e4020000e4020000e4020000b0
:1000b800e4020000e4020000e4020000e4020000a0
:1000c800e4020000e4020000e4020000e402000090
:1000d800e4020000e4020000e4020000e402000080
:1000e80026670000e4020000e4020000e4020000c9
:1000f800e4020000e4020000e4020000e402000060
:10010800e4020000e4020000e4020000e40200004f
:10011800e4020000e4020000e4020000e40200003f
:10012800e4020000e4020000e4020000e40200002f
:10013800e4020000e4020000e4020000e40200001f
:10014800e4020000e4020000e4020000e40200000f
:10015800e4020000e4020000e4020000e4020000ff
:10016800e4020000e4020000e4020000e4020000ef
:10017800e4020000e4020000e4020000e4020000df
:10018800e4020000e4020000e4020000e4020000cf
:10019800e4020000e4020000e4020000e4020000bf
:1001a800e4020000e4020000e4020000e4020000af
:1001b800e4020000e4020000e4020000e40200009f
:1001c800e4020000e4020000e4020000e40200008f
:1001d800e4020000e4020000e4020000e40200007f
:1001e800e4020000e4020000e4020000e40200006f
:1001f800e4020000e4020000e4020000e40200005f
:10020800e4020000e4020000e4020000e40200004e
:10021800e4020000e4020000e4020000e40200003e
:10022800e4020000e4020000e4020000e40200002e
:10023800e4020000e4020000e4020000e40200001e
:10024800e4020000e4020000e4020000e40200000e
:10025800e4020000e4020000e4020000e4020000fe
:020000040000fa
:100bbc000000000000000000000000000000000029
:100bcc000000000000000000000000000000000019
:0c0bdc000000000000000000000000000d
:020000040000fa
:100be800924e000006000000800000009a4b0000b2
:100bf8002c01000080000000724e00000800000078
:100c0800820000000000000000000000000000005a
:100c18001e4900007c02000080000000c64c000055
:100c2800d800000080000000984e00000600000078
:100c3800800000004e4e00001200000082000000fc
:100c4800000001000100000000000a000000000090
:100c58000000000000000000604e000012000000cc
:100c680080000000e83e0000360a00008000000016
:100c78009e4e00000200000080000000364e00007a
:100c880018000000800000007a4e000008000000f4
:100c980082000000000000000000000000000000ca
:100ca80002100000e62e0000820000000cfe1a0070
:100cb800fe20fe0025fe2800fe2cfe002ffe32003e
:100cc800fe34fe0037fe3900fe3bfe003dfe3f00cd
:100cd800fe41fe0043fe4500fe47fe0048fe4a0076
:100ce800fe4cfe004dfe4f00fe50fe0052fe53002b
:100cf800fe55fe0056fe5800fe59fe005afe5b00e7
:100d0800fe5dfe005efe5f00fe60fe0062fe6300a8
:100d1800fe64fe0065fe6600fe67fe0069fe6a006e
:100d2800fe6bfe006cfe6d00fe6efe006ffe700036
:100d3800fe71fe0072fe7300fe74fe0075fe760002
:100d4800fe77fe0078fe7900fe7afe007bfe7c00ce
:100d5800fe7dfe007efe7e00fe7ffe0080fe81009e
:100d6800fe82fe0083fe8400fe85fe0086fe86006d
:100d7800fe87fe0088fe8900fe8afe008bfe8b003f
:100d8800fe8cfe008dfe8e00fe8ffe008ffe900012
:100d9800fe91fe0092fe9300fe93fe0094fe9500e5
:100da800fe96fe0096fe9700fe98fe0099fe9900ba
:100db800fe9afe009bfe9c00fe9cfe009dfe9e008f
:100dc800fe9efe009ffea000fea1fe00a1fea20066
:100dd800fea3fe00a3fea400fea5fe00a5fea6003d
:100de800fea7fe00a8fea800fea9fe00aafeaa0013
:100df800feabfe00acfeac00feadfe00aefeae00eb
:100e0800feaffe00affeb000feb1fe00b1feb200c4
:100e1800feb3fe00b3feb400feb5fe00b5feb6009c
:100e2800feb6fe00b7feb800feb8fe00b9feba0076
:100e3800febafe00bbfebb00febcfe00bdfebd0050
:100e4800febefe00befebf00fec0fe00c0fec1002a
:100e5800fec1fe00c2fec300fec3fe00c4fec40005
:100e6800fec5fe00c5fec600fec7fe00c7fec800e0
:100e7800fec8fe00c9fec900fecafe00cbfecb00bc
:100e8800feccfe00ccfecd00fecdfe00cefecf0097
:100e9800fecffe00d0fed000fed1fe00d1fed20073
:100ea800fed2fe00d3fed300fed4fe00d5fed50050
:100eb800fed6fe00d6fed700fed7fe00d8fed8002c
:100ec800fed9fe00d9feda00fedafe00dbfedb000a
:100ed800fedcfe00ddfedd00fedefe00defedf00e5
:100ee800fedffe00e0fee000fee1fe00e1fee200c3
:100ef800fee2fe00e3fee300fee4fe00e4fee500a1
:100f0800fee5fe00e6fee600fee7fe00e7fee8007e
:100f1800fee8fe00e9fee900feeafe00eafeeb005c
:100f2800feebfe00ecfeec00feedfe00edfeee003a
:100f3800feeefe00effeef00fef0fe00f0fef10018
:100f4800fef1fe00f2fef200fef3fe00f3fef300f7
:100f5800fef4fe00f4fef500fef5fe00f6fef600d7
:100f6800fef7fe00f7fef800fef8fe00f9fef900b5
:100f7800fefafe00fafefb00fefbfe00fcfefc0093
:100f8800fefcfe00fdfefd00fefefe00fefeff0074
:100f9800fefffe0000ff0000ff01ff0001ff02004e
:100fa800ff02ff0002ff0300ff03ff0004ff04002d
:100fb800ff05ff0005ff0600ff06ff0006ff07000c
:100fc800ff07ff0008ff0800ff09ff0009ff0a00ec
:100fd800ff0aff000bff0b00ff0bff000cff0c00cc
:100fe800ff0dff000dff0e00ff0eff000eff0f00ac
:100ff800ff0fff0010ff1000ff11ff0011ff12008c
:10100800ff12ff0012ff1300ff13ff0014ff14006c
:10101800ff15ff0015ff1500ff16ff0016ff17004c
:10102800ff17ff0018ff1800ff18ff0019ff19002d
:10103800ff1aff001aff1b00ff1bff001bff1c000d
:10104800ff1cff001dff1d00ff1eff001eff1e00ee
:10105800ff1fff001fff2000ff20ff0020ff2100cf
:10106800ff21ff0022ff2200ff23ff0023ff2300b0
:10107800ff24ff0024ff2500ff25ff0025ff260091
:10108800ff26ff0027ff2700ff27ff0028ff280073
:10109800ff29ff0029ff2a00ff2aff002aff2b0053
:1010a800ff2bff002cff2c00ff2cff002dff2d0035
:1010b800ff2eff002eff2e00ff2fff002fff300016
:1010c800ff30ff0030ff3100ff31ff0032ff3200f8
:1010d800ff32ff0033ff3300ff34ff0034ff3400da
:1010e800ff35ff0035ff3600ff36ff0036ff3700bb
:1010f800ff37ff0038ff3800ff38ff0039ff39009d
:10110800ff39ff003aff3a00ff3bff003bff3b007f
:10111800ff3cff003cff3d00ff3dff003dff3e0060
:10112800ff3eff003fff3f00ff3fff0040ff400042
:10113800ff40ff0041ff4100ff42ff0042ff420025
:10114800ff43ff0043ff4400ff44ff0044ff450006
:10115800ff45ff0045ff4600ff46ff0047ff4700e9
:10116800ff47ff0048ff4800ff49ff0049ff4900cb
:10117800ff4aff004aff4a00ff4bff004bff4c00ad
:10118800ff4cff004cff4d00ff4dff004dff4e0090
:10119800ff4eff004fff4f00ff4fff0050ff500072
:1011a800ff50ff0051ff5100ff52ff0052ff520055
:1011b800ff53ff0053ff5300ff54ff0054ff550037
:1011c800ff55ff0055ff5600ff56ff0056ff57001a
:1011d800ff57ff0057ff5800ff58ff0059ff5900fd
:1011e800ff59ff005aff5a00ff5aff005bff5b00e0
:1011f800ff5cff005cff5c00ff5dff005dff5d00c2
:10120800ff5eff005eff5e00ff5fff005fff6000a4
:10121800ff60ff0060ff6100ff61ff0061ff620087
:10122800ff62ff0062ff6300ff63ff0064ff64006a
:10123800ff64ff0065ff6500ff65ff0066ff66004d
:10124800ff66ff0067ff6700ff67ff0068ff680031
:10125800ff69ff0069ff6900ff6aff006aff6a0013
:10126800ff6bff006bff6b00ff6cff006cff6c00f7
:10127800ff6dff006dff6e00ff6eff006eff6f00d9
:10128800ff6fff006fff7000ff70ff0070ff7100bd
:10129800ff71ff0071ff7200ff72ff0073ff7300a0
:1012a800ff73ff0074ff7400ff74ff0075ff750083
:1012b800ff75ff0076ff7600ff76ff0077ff770067
:1012c800ff77ff0078ff7800ff78ff0079ff79004b
:1012d800ff7aff007aff7a00ff7bff007bff7b002d
:1012e800ff7cff007cff7c00ff7dff007dff7d0011
:1012f800ff7eff007eff7e00ff7fff007fff7f00f5
:10130800ff80ff0080ff8000ff81ff0081ff8200d7
:10131800ff82ff0082ff8300ff83ff0083ff8400ba
:10132800ff84ff0084ff8500ff85ff0085ff86009e
:10133800ff86ff0086ff8700ff87ff0087ff880082
:10134800ff88ff0088ff8900ff89ff0089ff8a0066
:10135800ff8aff008aff8b00ff8bff008bff8c004a
:10136800ff8cff008cff8d00ff8dff008eff8e002d
:10137800ff8eff008fff8f00ff8fff0090ff900010
:10138800ff90ff0091ff9100ff91ff0092ff9200f4
:10139800ff92ff0093ff9300ff93ff0094ff9400d8
:1013a800ff94ff0095ff9500ff95ff0096ff9600bc
:1013b800ff96ff0097ff9700ff97ff0098ff9800a0
:1013c800ff98ff0099ff9900ff99ff009aff9a0084
:1013d800ff9aff009bff9b00ff9bff009cff9c0068
:1013e800ff9cff009dff9d00ff9dff009eff9e004c
:1013f800ff9eff009fff9f00ff9fff00a0ffa00030
:10140800ffa0ff00a1ffa100ffa1ff00a2ffa20013
:10141800ffa2ff00a3ffa300ffa3ff00a4ffa400f7
:10142800ffa4ff00a5ffa500ffa5ff00a6ffa600db
:10143800ffa6ff00a7ffa700ffa7ff00a8ffa800bf
:10144800ffa8ff00a9ffa900ffa9ff00aaffaa00a3
:10145800ffaaff00abffab00ffabff00acffac0087
:10146800ffacff00adffad00ffadff00aeffae006b
:10147800ffaeff00afffaf00ffafff00b0ffb0004f
:10148800ffb0ff00b1ffb100ffb1ff00b2ffb20033
:10149800ffb2ff00b3ffb300ffb3ff00b4ffb40017
:1014a800ffb4ff00b4ffb500ffb5ff00b5ffb600fd
:1014b800ffb6ff00b6ffb700ffb7ff00b7ffb800e1
:1014c800ffb8ff00b8ffb900ffb9ff00b9ffba00c5
:1014d800ffbaff00baffbb00ffbbff00bbffbc00a9
:1014e800ffbcff00bcffbd00ffbdff00bdffbe008d
:1014f800ffbeff00beffbf00ffbfff00bfffc00071
:10150800ffc0ff00c0ffc100ffc1ff00c1ffc20054
:10151800ffc2ff00c2ffc300ffc3ff00c3ffc30039
:10152800ffc4ff00c4ffc400ffc5ff00c5ffc5001e
:10153800ffc6ff00c6ffc600ffc7ff00c7ffc70002
:10154800ffc8ff00c8ffc800ffc9ff00c9ffc900e6
:10155800ffcaff00caffca00ffcbff00cbffcb00ca
:10156800ffccff00ccffcc00ffcdff00cdffcd00ae
:10157800ffcdff00ceffce00ffceff00cfffcf0094
:10158800ffcfff00d0ffd000ffd0ff00d1ffd10078
:10159800ffd1ff00d2ffd200ffd2ff00d3ffd3005c
:1015a800ffd3ff00d4ffd400ffd4ff00d5ffd50040
:1015b800ffd5ff00d6ffd600ffd6ff00d7ffd70024
:1015c800ffd7ff00d7ffd800ffd8ff00d8ffd9000a
:1015d800ffd9ff00d9ffda00ffdaff00daffdb00ee
:1015e800ffdbff00dbffdc00ffdcff00dcffdd00d2
:1015f800ffddff00ddffde00ffdeff00deffdf00b6
:10160800ffdfff00dfffdf00ffe0ff00e0ffe0009b
:10161800ffe1ff00e1ffe100ffe2ff00e2ffe2007f
:10162800ffe3ff00e3ffe300ffe4ff00e4ffe40063
:10163800ffe5ff00e5ffe500ffe6ff00e6ffe60047
:10164800ffe7ff00e7ffe700ffe7ff00e8ffe8002c
:10165800ffe8ff00e9ffe900ffe9ff00eaffea0011
:10166800ffeaff00ebffeb00ffebff00ecffec00f5
:10167800ffecff00edffed00ffedff00eeffee00d9
:10168800ffeeff00eeffef00ffefff00effff000bf
:10169800fff0ff00f0fff100fff1ff00f1fff200a3
:1016a800fff2ff00f2fff300fff3ff00f3fff40087
:1016b800fff4ff00f4fff500fff5ff00f5fff5006c
:1016c800fff6ff00f6fff600fff7ff00f7fff70051
:1016d800fff8ff00f8fff800fff9ff00f9fff90035
:1016e800fffaff00fafffa00fffbff00fbfffb0019
:1016f800fffcff00fcfffc00fffcff00fdfffd00fe
:10170800fffdff00fefffe00fffeff00ffffff00e2
:10171800ffffff00000000000000000001000100c2
:1017280000010000020002000002000003000300a4
:101738000003000004000400000400000400050089
:10174800000500000500060000060000060007006e
:101758000007000007000800000800000800090052
:101768000009000009000a00000a00000a000b0036
:10177800000b00000b000b00000c00000c000c001c
:10178800000d00000d000d00000e00000e000e0000
:10179800000f00000f000f000010000010001000e4
:1017a80000110000110011000012000012001200c8
:1017b80000120000130013000013000014001400ae
:1017c8000014000015001500001500001600160092
:1017d8000016000017001700001700001800180076
:1017e80000180000190019000019000019001a005b
:1017f800001a00001a001b00001b00001b001c0040
:10180800001c00001c001d00001d00001d001e0023
:10181800001e00001e001f00001f00001f00200007
:1018280000200000200021000021000021002100ec
:1018380000220000220022000023000023002300d1
:1018480000240000240024000025000025002500b5
:101858000026000026002600002700002700270099
:10186800002800002800280000290000290029007d
:10187800002900002a002a00002a00002b002b0063
:10188800002b00002c002c00002c00002d002d0047
:10189800002d00002e002e00002e00002f002f002b
:1018a800002f00003000300000300000310031000f
:1018b80000310000320032000032000033003300f3
:1018c80000330000330034000034000034003500d9
:1018d80000350000350036000036000036003700bd
:1018e80000370000370038000038000038003900a1
:1018f8000039000039003a00003a00003a003b0085
:10190800003b00003b003c00003c00003c003d0068
:10191800003d00003d003d00003e00003e003e004e
:10192800003f00003f003f00004000004000400032
:101938000041000041004100004200004200420016
:1019480000430000430043000044000044004400fa
:1019580000450000450045000046000046004600de
:1019680000470000470047000048000048004800c2
:101978000049000049004900004a00004a004a00a6
:10198800004b00004b004b00004c00004c004c008a
:10199800004c00004d004d00004d00004e004e0070
:1019a800004e00004f004f00004f00005000500054
:1019b8000050000051005100005100005200520038
:1019c800005200005300530000530000540054001c
:1019d8000054000055005500005500005600560000
:1019e80000560000570057000057000058005800e4
:1019f8000058000059005900005900005a005a00c8
:101a0800005a00005b005b00005b00005c005c00ab
:101a1800005c00005d005d00005d00005e005e008f
:101a2800005e00005f005f00005f00006000600073
:101a38000060000061006100006100006200620057
:101a4800006200006300630000630000640064003b
:101a5800006400006500650000650000660066001f
:101a68000066000067006700006700006800680003
:101a78000068000069006900006900006a006a00e7
:101a8800006a00006b006b00006b00006c006c00cb
:101a9800006c00006d006d00006d00006e006e00af
:101aa800006e00006f006f00006f00007000700093
:101ab8000070000071007100007100007200720077
:101ac800007200007300730000740000740074005a
:101ad800007500007500750000760000760076003d
:101ae8000077000077007700007800007800780021
:101af8000079000079007900007a00007a007a0005
:101b0800007b00007b007b00007c00007c007c00e8
:101b1800007d00007d007d00007e00007e007e00cc
:101b2800007f00007f0080000080000080008100ae
:101b38000081000081008200008200008200830092
:101b48000083000083008400008400008400850076
:101b5800008500008500860000860000860087005a
:101b6800008700008800880000880000890089003c
:101b7800008900008a008a00008a00008b008b0020
:101b8800008b00008c008c00008c00008d008d0004
:101b9800008d00008e008e00008f00008f008f00e7
:101ba80000900000900090000091000091009100ca
:101bb80000920000920092000093000093009400ad
:101bc8000094000094009500009500009500960090
:101bd8000096000096009700009700009700980074
:101be8000098000099009900009900009a009a0056
:101bf800009a00009b009b00009b00009c009c003a
:101c0800009c00009d009d00009e00009e009e001c
:101c1800009f00009f009f0000a00000a000a000ff
:101c280000a10000a100a20000a20000a200a300e1
:101c380000a30000a300a40000a40000a400a500c5
:101c480000a50000a600a60000a60000a700a700a7
:101c580000a70000a800a80000a90000a900a9008a
:101c680000aa0000aa00aa0000ab0000ab00ab006d
:101c780000ac0000ac00ad0000ad0000ad00ae004f
:101c880000ae0000ae00af0000af0000b000b00032
:101c980000b00000b100b10000b10000b200b20015
:101ca80000b30000b300b30000b40000b400b400f7
:101cb80000b50000b500b60000b60000b600b700d9
:101cc80000b70000b700b80000b80000b900b900bc
:101cd80000b90000ba00ba0000bb0000bb00bb009e
:101ce80000bc0000bc00bc0000bd0000bd00be0080
:101cf80000be0000be00bf0000bf0000c000c00062
:101d080000c00000c100c10000c10000c200c20044
:101d180000c30000c300c30000c40000c400c50025
:101d280000c50000c500c60000c60000c700c70007
:101d380000c70000c800c80000c80000c900c900ea
:101d480000ca0000ca00ca0000cb0000cb00cc00cb
:101d580000cc0000cc00cd0000cd0000ce00ce00ad
:101d680000ce0000cf00cf0000d00000d000d0008f
:101d780000d10000d100d20000d20000d200d30070
:101d880000d30000d400d40000d40000d500d50052
:101d980000d60000d600d60000d70000d700d80033
:101da80000d80000d900d90000d90000da00da0014
:101db80000db0000db00db0000dc0000dc00dd00f5
:101dc80000dd0000dd00de0000de0000df00df00d7
:101dd80000e00000e000e00000e10000e100e200b7
:101de80000e20000e200e30000e30000e400e40099
:101df80000e50000e500e50000e60000e600e70079
:101e080000e70000e800e80000e80000e900e90059
:101e180000ea0000ea00eb0000eb0000eb00ec0039
:101e280000ec0000ed00ed0000ee0000ee00ee001a
:101e380000ef0000ef00f00000f00000f100f100fa
:101e480000f20000f200f20000f30000f300f400da
:101e580000f40000f500f50000f50000f600f600bb
:101e680000f70000f700f80000f80000f900f9009a
:101e780000fa0000fa00fa0000fb0000fb00fc007a
:101e880000fc0000fd00fd0000fe0000fe00fe005a
:101e980000ff0000ff000000010001000101010037
:101ea8000102010002010300010301000401040012
:101eb80001040100050105000106010006010700f3
:101ec80001070100080108000109010009010a00d1
:101ed800010a01000b010b00010c01000c010d00af
:101ee800010d01000d010e00010e01000f010f0090
:101ef800011001001001110001110100120112006e
:101f0800011301001301140001140100150115004b
:101f18000116010016011700011701001801180029
:101f28000119010019011a00011a01001b011b0007
:101f3800011c01001c011d00011d01001e011e00e5
:101f4800011f01001f0120000120010021012100c3
:101f580001220100220123000123010024012500a0
:101f6800012501002601260001270100270128007c
:101f78000128010029012900012a01002a012b005a
:101f8800012b01002c012d00012d01002e012e0036
:101f9800012f01002f013000013001003101310013
:101fa80001320100330133000134010034013500ee
:101fb80001350100360137000137010038013800ca
:101fc8000139010039013a00013b01003b013c00a5
:101fd800013c01003d013d00013e01003f013f0081
:101fe800014001004001410001420100420143005b
:101ff8000143010044014500014501004601460036
:102008000147010048014800014901004a014a000e
:10201800014b01004b014c00014d01004d014e00e8
:10202800014f01004f0150000151010051015200c0
:10203800015201005301540001540100550156009a
:1020480001560100570158000158010059015a0072
:10205800015b01005b015c00015d01005d015e0048
:10206800015f01005f01600001610100620162001f
:1020780001630100640164000165010066016700f5
:102088000167010068016900016a01006a016b00cb
:10209800016c01006d016d00016e01006f0170009f
:1020a8000171010071017200017301007401750072
:1020b80001750100760177000178010079017a0045
:1020c800017a01007b017c00017d01007e017f0017
:1020d80001800100810182000182010083018400e6
:1020e80001850100860187000188010089018a00b5
:1020f800018b01008c018d00018e01008f01900081
:10210800019101009201930001940100950196004c
:102118000197010099019a00019b01009c019d0013
:10212800019e0100a001a10001a20100a301a500d8
:1021380001a60100a701a80001aa0100ab01ad009a
:1021480001ae0100b001b10001b30100b401b60055
:1021580001b80100b901bb0001bd0100bf01c10008
:1021680001c30100c501c70001c90100cc01ce00af
:1021780001d10100d401d80001db0100e001e60033
:1021880001f401000000fd00fffaff00f7fff40072
:10219800fff1ff00eeffeb00ffe7ff00e4ffe100c7
:1021a800ffdeff00dbffd800ffd5ff00d1ffce0028
:1021b800ffcbff00c8ffc500ffc2ff00bfffbb0089
:1021c800ffb8ff00b5ffb200ffafff00acffa900ea
:1021d800ffa6ff00a2ff9f00ff9cff0099ff96004b
:1021e800ff93ff0090ff8d00ff89ff0086ff8300ab
:1021f800ff80ff007dff7a00ff77ff0074ff70000b
:10220800ff6dff006aff6700ff64ff0061ff5e006b
:10221800ff5bff0058ff5500ff51ff004eff4b00ca
:10222800ff48ff0045ff4200ff3fff003cff390029
:10223800ff36ff0033ff3000ff2cff0029ff260088
:10224800ff23ff0020ff1d00ff1aff0017ff1400e7
:10225800ff11ff000eff0b00ff08ff0005ff020043
:10226800fffffe00fcfef900fef6fe00f3fef000a4
:10227800feedfe00eafee600fee3fe00e0fedd0005
:10228800fedafe00d7fed400fed1fe00cefecb0063
:10229800fec8fe00c6fec300fec0fe00bdfeba00ba
:1022a800feb7fe00b4feb100feaefe00abfea80015
:1022b800fea5fe00a2fe9f00fe9cfe0099fe960071
:1022c800fe93fe0090fe8d00fe8bfe0088fe8500ca
:1022d800fe82fe007ffe7c00fe79fe0076fe730023
:1022e800fe70fe006efe6b00fe68fe0065fe62007a
:1022f800fe5ffe005cfe5a00fe57fe0054fe5100d1
:10230800fe4efe004bfe4900fe46fe0043fe400026
:10231800fe3dfe003bfe3800fe35fe0032fe2f007b
:10232800fe2dfe002afe2700fe24fe0022fe1f00ce
:10233800fe1cfe0019fe1700fe14fe0011fe0e0022
:10234800fe0cfe0009fe0600fe03fe0001fefe0074
:10235800fdfbfd00f9fdf600fdf3fd00f1fdee00cb
:10236800fdebfd00e9fde600fde3fd00e1fdde001b
:10237800fddbfd00d9fdd600fdd4fd00d1fdce006a
:10238800fdccfd00c9fdc700fdc4fd00c1fdbf00b7
:10239800fdbcfd00bafdb700fdb5fd00b2fdb00003
:1023a800fdadfd00abfda800fda6fd00a3fda1004d
:1023b800fd9efd009cfd9900fd97fd0094fd920097
:1023c800fd8ffd008dfd8a00fd88fd0085fd8300e1
:1023d800fd81fd007efd7c00fd79fd0077fd750027
:1023e800fd72fd0070fd6e00fd6bfd0069fd66006d
:1023f800fd64fd0062fd5f00fd5dfd005bfd5900b1
:10240800fd56fd0054fd5200fd4ffd004dfd4b00f3
:10241800fd49fd0046fd4400fd42fd0040fd3d0034
:10242800fd3bfd0039fd3700fd35fd0032fd300074
:10243800fd2efd002cfd2a00fd28fd0025fd2300b2
:10244800fd21fd001ffd1d00fd1bfd0019fd1700ee
:10245800fd14fd0012fd1000fd0efd000cfd0a002c
:10246800fd08fd0006fd0400fd02fd0000fdfe0064
:10247800fcfcfc00fafcf800fcf6fc00f4fcf200a2
:10248800fcf0fc00eefcec00fceafc00e8fce700d9
:10249800fce5fc00e3fce100fcdffc00ddfcdb000c
:1024a800fcd9fc00d7fcd600fcd4fc00d2fcd00040
:1024b800fccefc00cdfccb00fcc9fc00c7fcc50071
:1024c800fcc4fc00c2fcc000fcbefc00bdfcbb00a0
:1024d800fcb9fc00b8fcb600fcb4fc00b2fcb100ce
:1024e800fcaffc00aefcac00fcaafc00a9fca700f9
:1024f800fca5fc00a4fca200fca1fc009ffc9d0024
:10250800fc9cfc009afc9900fc97fc0096fc94004b
:10251800fc93fc0091fc9000fc8efc008dfc8b0071
:10252800fc8afc0088fc8700fc85fc0084fc830096
:10253800fc81fc0080fc7e00fc7dfc007cfc7a00b9
:10254800fc79fc0078fc7600fc75fc0074fc7200d9
:10255800fc71fc0070fc6f00fc6dfc006cfc6b00f7
:10256800fc6afc0068fc6700fc66fc0065fc630014
:10257800fc62fc0061fc6000fc5ffc005efc5c002f
:10258800fc5bfc005afc5900fc58fc0057fc560048
:10259800fc55fc0054fc5300fc52fc0050fc4f005e
:1025a800fc4efc004dfc4c00fc4bfc004afc490076
:1025b800fc48fc0048fc4700fc46fc0045fc440085
:1025c800fc43fc0042fc4100fc40fc003ffc3e0098
:1025d800fc3efc003dfc3c00fc3bfc003afc3900a6
:1025e800fc39fc0038fc3700fc36fc0036fc3500b2
:1025f800fc34fc0033fc3300fc32fc0031fc3100bd
:10260800fc30fc002ffc2f00fc2efc002dfc2d00c4
:10261800fc2cfc002bfc2b00fc2afc002afc2900cb
:10262800fc28fc0028fc2700fc27fc0026fc2600d0
:10263800fc25fc0025fc2400fc24fc0023fc2300d2
:10264800fc22fc0022fc2200fc21fc0021fc2000d2
:10265800fc20fc0020fc1f00fc1ffc001ffc1e00cf
:10266800fc1efc001efc1d00fc1dfc001dfc1c00cb
:10267800fc1cfc001cfc1c00fc1bfc001bfc1b00c5
:10268800fc1bfc001afc1a00fc1afc001afc1a00bd
:10269800fc1afc0019fc1900fc19fc0019fc1900b3
:1026a800fc19fc0019fc1900fc19fc0019fc1900a4
:1026b800fc19fc0019fc1900fc18fc0019fc190095
:1026c800fc19fc0019fc1900fc19fc0019fc190084
:1026d800fc19fc0019fc1900fc19fc0019fc190074
:1026e800fc1afc001afc1a00fc1afc001afc1a005e
:1026f800fc1bfc001bfc1b00fc1bfc001cfc1c0046
:10270800fc1cfc001cfc1d00fc1dfc001dfc1e002c
:10271800fc1efc001efc1f00fc1ffc001ffc200010
:10272800fc20fc0020fc2100fc21fc0022fc2200f3
:10273800fc22fc0023fc2300fc24fc0024fc2500d4
:10274800fc25fc0026fc2600fc27fc0027fc2800b2
:10275800fc28fc0029fc2a00fc2afc002bfc2b008e
:10276800fc2cfc002dfc2d00fc2efc002ffc2f0067
:10277800fc30fc0031fc3100fc32fc0033fc33003f
:10278800fc34fc0035fc3600fc36fc0037fc380015
:10279800fc39fc0039fc3a00fc3bfc003cfc3d00e9
:1027a800fc3efc003efc3f00fc40fc0041fc4200bb
:1027b800fc43fc0044fc4500fc46fc0047fc480088
:1027c800fc48fc0049fc4a00fc4bfc004cfc4d005a
:1027d800fc4efc004ffc5000fc52fc0053fc540023
:1027e800fc55fc0056fc5700fc58fc0059fc5a00ec
:1027f800fc5bfc005cfc5e00fc5ffc0060fc6100b4
:10280800fc62fc0063fc6500fc66fc0067fc680079
:10281800fc6afc006bfc6c00fc6dfc006ffc70003b
:10282800fc71fc0072fc7400fc75fc0076fc7800fe
:10283800fc79fc007afc7c00fc7dfc007efc8000be
:10284800fc81fc0083fc8400fc85fc0087fc88007c
:10285800fc8afc008bfc8d00fc8efc0090fc910037
:10286800fc93fc0094fc9600fc97fc0099fc9a00f1
:10287800fc9cfc009dfc9f00fca1fc00a2fca400a9
:10288800fca5fc00a7fca900fcaafc00acfcae005f
:10289800fcaffc00b1fcb200fcb4fc00b6fcb80014
:1028a800fcb9fc00bbfcbd00fcbefc00c0fcc200c7
:1028b800fcc4fc00c5fcc700fcc9fc00cbfccd0077
:1028c800fccefc00d0fcd200fcd4fc00d6fcd70027
:1028d800fcd9fc00dbfcdd00fcdffc00e1fce300d4
:1028e800fce5fc00e7fce800fceafc00ecfcee0080
:1028f800fcf0fc00f2fcf400fcf6fc00f8fcfa002a
:10290800fcfcfc00fefc0000fd02fd0004fd0600ce
:10291800fd08fd000afd0c00fd0efd0010fd120073
:10292800fd14fd0017fd1900fd1bfd001dfd1f0016
:10293800fd21fd0023fd2500fd28fd002afd2c00ba
:10294800fd2efd0030fd3200fd35fd0037fd39005c
:10295800fd3bfd003dfd4000fd42fd0044fd4600fd
:10296800fd49fd004bfd4d00fd4ffd0052fd54009b
:10297800fd56fd0059fd5b00fd5dfd005ffd620039
:10298800fd64fd0066fd6900fd6bfd006efd7000d5
:10299800fd72fd0075fd7700fd79fd007cfd7e0070
:1029a800fd81fd0083fd8500fd88fd008afd8d0009
:1029b800fd8ffd0092fd9400fd97fd0099fd9c00a0
:1029c800fd9efd00a1fda300fda6fd00a8fdab0036
:1029d800fdadfd00b0fdb200fdb5fd00b7fdba00cc
:1029e800fdbcfd00bffdc100fdc4fd00c7fdc90061
:1029f800fdccfd00cefdd100fdd4fd00d6fdd900f3
:102a0800fddbfd00defde100fde3fd00e6fde90084
:102a1800fdebfd00eefdf100fdf3fd00f6fdf90014
:102a2800fdfbfd00fefd0100fe03fe0006fe0900a1
:102a3800fe0cfe000efe1100fe14fe0017fe19002b
:102a4800fe1cfe001ffe2200fe24fe0027fe2a00b8
:102a5800fe2dfe002ffe3200fe35fe0038fe3b0044
:102a6800fe3dfe0040fe4300fe46fe0049fe4b00d0
:102a7800fe4efe0051fe5400fe57fe005afe5c005a
:102a8800fe5ffe0062fe6500fe68fe006bfe6e00e3
:102a9800fe70fe0073fe7600fe79fe007cfe7f006d
:102aa800fe82fe0085fe8800fe8bfe008dfe9000f3
:102ab800fe93fe0096fe9900fe9cfe009ffea2007b
:102ac800fea5fe00a8feab00feaefe00b1feb400ff
:102ad800feb7fe00bafebd00fec0fe00c3fec60083
:102ae800fec8fe00cbfece00fed1fe00d4fed7000d
:102af800fedafe00ddfee000fee3fe00e6feea0090
:102b0800feedfe00f0fef300fef6fe00f9fefc000e
:102b1800fefffe0002ff0500ff08ff000bff0e008e
:102b2800ff11ff0014ff1700ff1aff001dff200010
:102b3800ff23ff0026ff2900ff2cff0030ff330092
:102b4800ff36ff0039ff3c00ff3fff0042ff450012
:102b5800ff48ff004bff4e00ff51ff0055ff580094
:102b6800ff5bff005eff6100ff64ff0067ff6a0014
:102b7800ff6dff0070ff7400ff77ff007aff7d0094
:102b8800ff80ff0083ff8600ff89ff008dff900014
:102b9800ff93ff0096ff9900ff9cff009fffa20094
:102ba800ffa6ff00a9ffac00ffafff00b2ffb50012
:102bb800ffb8ff00bbffbf00ffc2ff00c5ffc80092
:102bc800ffcbff00ceffd100ffd5ff00d8ffdb0011
:102bd800ffdeff00e1ffe400ffe7ff00ebffee0090
:102be800fff1ff00f4fff700fffaff00fdff000010
:102bf8000003000006000900000c00000f0012008e
:102c08000015000019001c00001f0000220025000c
:102c1800002800002b002f0000320000350038008b
:102c2800003b00003e0041000045000048004b000a
:102c3800004e000051005400005700005a005e008a
:102c48000061000064006700006a00006d00700009
:102c58000073000077007a00007d00008000830088
:102c68000086000089008c00009000009300960008
:102c7800009900009c009f0000a20000a500a80089
:102c880000ab0000af00b20000b50000b800bb0008
:102c980000be0000c100c40000c70000ca00cd008b
:102ca80000d00000d400d70000da0000dd00e0000a
:102cb80000e30000e600e90000ec0000ef00f2008d
:102cc80000f50000f800fb0000fe00000101040010
:102cd800010701000a010d0001100100130116008f
:102ce800011a01001d01200001230100260129000d
:102cf800012c01002f0132000135010038013a0092
:102d0800013d0100400143000146010049014c001a
:102d1800014f010052015500015801005b015e009e
:102d28000161010064016700016a01006d01700022
:102d38000173010075017800017b01007e018100ab
:102d48000184010087018a00018d01009001920031
:102d58000195010098019b00019e0100a101a400ba
:102d680001a60100a901ac0001af0100b201b50044
:102d780001b70100ba01bd0001c00100c301c500cf
:102d880001c80100cb01ce0001d10100d301d6005a
:102d980001d90100dc01de0001e10100e401e700e6
:102da80001e90100ec01ef0001f20100f401f70074
:102db80001fa0100fd01ff000102020005020700ff
:102dc800020a02000d020f0002120200150217008b
:102dd800021a02001d021f0002220200250227001b
:102de800022a02002c022f000232020034023700ad
:102df800023902003c023f00024102004402460040
:102e0800024902004b024e000250020053025500d4
:102e1800025802005a025d00025f0200620264006a
:102e28000267020069026c00026e02007102730000
:102e38000276020078027b00027d02007f02820097
:102e48000284020087028900028b02008e02900031
:102e58000292020095029700029a02009c029e00cc
:102e680002a10200a302a50002a70200aa02ac0068
:102e780002ae0200b102b30002b50200b702ba0006
:102e880002bc0200be02c00002c30200c502c700a5
:102e980002c90200cb02ce0002d00200d202d40046
:102ea80002d60200d802db0002dd0200df02e100e8
:102eb80002e30200e502e70002e90200ec02ee008c
:102ec80002f00200f202f40002f60200f802fa0030
:102ed80002fc0200fe0200000302030004030600d5
:102ee800030803000a030c00030e0300100312007a
:102ef8000314030016031800031903001b031d0025
:102f0800031f0300210323000325030027032900cf
:102f1800032a03002c032e0003300300320333007e
:102f28000335030037033900033b03003c033e002d
:102f380003400300420343000345030047034800de
:102f4800034a03004c034e00034f03005103520091
:102f58000354030056035700035903005b035c0046
:102f6800035e03005f0361000363030064036600fc
:102f78000367030069036a00036c03006d036f00b5
:102f8800037003007203730003750300760378006f
:102f9800037903007b037c00037d03007f0380002b
:102fa80003820300830384000386030087038800e9
:102fb800038a03008b038c00038e03008f039000a9
:102fc800039103009303940003950300960398006c
:102fd800039903009a039b00039d03009e039f002f
:102fe80003a00300a103a20003a40300a503a600f5
:102ff80003a70300a803a90003aa0300ab03ac00be
:1030080003ad0300ae03b00003b10300b203b30085
:1030180003b40300b503b60003b70300b803b80050
:1030280003b90300ba03bb0003bc0300bd03be0021
:1030380003bf0300c003c10003c20300c203c300ef
:1030480003c40300c503c60003c70300c703c800c1
:1030580003c90300ca03ca0003cb0300cc03cd0095
:1030680003cd0300ce03cf0003cf0300d003d1006c
:1030780003d10300d203d30003d30300d403d50044
:1030880003d50300d603d60003d70300d803d8001e
:1030980003d90300d903da0003da0300db03db00fa
:1030a80003dc0300dc03dd0003dd0300de03de00d8
:1030b80003de0300df03df0003e00300e003e000ba
:1030c80003e10300e103e10003e20300e203e2009d
:1030d80003e30300e303e30003e40300e403e40081
:1030e80003e40300e503e50003e50300e503e60068
:1030f80003e60300e603e60003e60300e603e70051
:1031080003e70300e703e70003e70300e703e7003b
:1031180003e70300e703e70003e70300e703e7002b
:1031280003e70300e803e70003e70300e703e7001a
:1031380003e70300e703e70003e70300e703e7000b
:1031480003e70300e703e70003e70300e603e600fd
:1031580003e60300e603e60003e60300e503e500f3
:1031680003e50300e503e40003e40300e403e400eb
:1031780003e30300e303e30003e20300e203e200e6
:1031880003e10300e103e10003e00300e003e000e2
:1031980003df0300df03de0003de0300de03dd00e0
:1031a80003dd0300dc03dc0003db0300db03da00e0
:1031b80003da0300d903d90003d80300d803d700e2
:1031c80003d60300d603d50003d50300d403d300e8
:1031d80003d30300d203d10003d10300d003cf00ef
:1031e80003cf0300ce03cd0003cd0300cc03cb00f7
:1031f80003ca0300ca03c90003c80300c703c70002
:1032080003c60300c503c40003c30300c203c2000e
:1032180003c10300c003bf0003be0300bd03bc001d
:1032280003bb0300ba03b90003b80300b803b7002f
:1032380003b60300b503b40003b30300b203b1003f
:1032480003b00300ae03ad0003ac0300ab03aa0058
:1032580003a90300a803a70003a60300a503a4006d
:1032680003a20300a103a000039f03009e039d0087
:10327800039b03009a0399000398030096039500a3
:103288000394030093039100039003008f038e00bf
:10329800038c03008b038a000388030087038600de
:1032a8000384030083038200038003007f037d00ff
:1032b800037c03007b037900037803007603750021
:1032c8000373030072037000036f03006d036c0047
:1032d800036a03006903670003660300640363006d
:1032e800036103005f035e00035c03005b03590096
:1032f80003570300560354000352030051034f00c1
:10330800034e03004c034a000348030047034500eb
:103318000343030042034000033e03003c033b0019
:103328000339030037033500033303003203300049
:10333800032e03002c032a0003290300270325007a
:103348000323030021031f00031d03001b031900af
:1033580003180300160314000312030010030e00e1
:10336800030c03000a030800030603000403020019
:1033780003000300fe02fc0002fa0200f802f60055
:1033880002f40200f202f00002ee0200ec02e90090
:1033980002e70200e502e30002e10200df02dd00cd
:1033a80002db0200d802d60002d40200d202d0000a
:1033b80002ce0200cb02c90002c70200c502c30048
:1033c80002c00200be02bc0002ba0200b702b50089
:1033d80002b30200b102ae0002ac0200aa02a700ca
:1033e80002a50200a302a100029e02009c029a000c
:1033f8000297020095029200029002008e028b0052
:103408000289020087028400028202007f027d0096
:10341800027b0200780276000273020071026e00dd
:10342800026c0200690267000264020062025f0027
:10343800025d02005a025800025502005302500071
:10344800024e02004b0249000246020044024100bb
:10345800023f02003c023900023702003402320007
:10346800022f02002c022a00022702002502220055
:10347800021f02001d021a000217020015021200a4
:10348800020f02000d020a000207020005020200f4
:1034980002ff0100fd01fa0001f70100f401f2004a
:1034a80001ef0100ec01e90001e70100e401e1009e
:1034b80001de0100dc01d90001d60100d301d100f1
:1034c80001ce0100cb01c80001c50100c301c00045
:1034d80001bd0100ba01b70001b50100b201af009a
:1034e80001ac0100a901a60001a40100a1019e00f0
:1034f800019b0100980195000192010090018d0047
:10350800018a010087018400018101007e017b009e
:103518000178010075017300017001006d016a00f6
:103528000167010064016100015e01005b01580050
:103538000155010052014f00014c010049014600ac
:103548000143010040013d00013a01003801350006
:10355800013201002f012c0001290100260123005e
:10356800012001001d011a000116010013011000bd
:10357800010d01000a010700010401000101fe001c
:1035880000fb0000f800f50000f20000ef00ec007e
:1035980000e90000e600e30000e00000dd00da00da
:1035a80000d70000d400d00000cd0000ca00c7003a
:1035b80000c40000c100be0000bb0000b800b50098
:1035c80000b20000af00ab0000a80000a500a200f8
:1035d800009f00009c009900009600009300900056
:1035e800008c0000890086000083000080007d00b8
:1035f800007a000077007300007000006d006a0018
:103608000067000064006100005e00005a00570077
:103618000054000051004e00004b000048004500d7
:10362800004100003e003b00003800003500320039
:10363800002f00002b0028000025000022001f009a
:10364800001c000019001500001200000f000c00fb
:1036580000090000060003000000000018fc190023
:10366800fc19fc0019fc1900fc19fc0019fc1900d4
:10367800fc19fc0019fc1900fc19fc0019fc1900c4
:10368800fc19fc001afc1a00fc1afc001afc1a00af
:10369800fc1afc001bfc1b00fc1bfc001bfc1c0098
:1036a800fc1cfc001cfc1c00fc1dfc001dfc1d007f
:1036b800fc1efc001efc1e00fc1ffc001ffc1f0063
:1036c800fc20fc0020fc2000fc21fc0021fc220046
:1036d800fc22fc0022fc2300fc23fc0024fc240028
:1036e800fc25fc0025fc2600fc26fc0027fc270006
:1036f800fc28fc0028fc2900fc2afc002afc2b00e2
:10370800fc2bfc002cfc2d00fc2dfc002efc2f00bb
:10371800fc2ffc0030fc3100fc31fc0032fc330093
:10372800fc33fc0034fc3500fc36fc0036fc37006a
:10373800fc38fc0039fc3900fc3afc003bfc3c003e
:10374800fc3dfc003efc3e00fc3ffc0040fc410010
:10375800fc42fc0043fc4400fc45fc0046fc4700de
:10376800fc48fc0048fc4900fc4afc004bfc4c00af
:10377800fc4dfc004efc4f00fc50fc0052fc53007a
:10378800fc54fc0055fc5600fc57fc0058fc590042
:10379800fc5afc005bfc5c00fc5efc005ffc60000b
:1037a800fc61fc0062fc6300fc65fc0066fc6700d1
:1037b800fc68fc006afc6b00fc6cfc006dfc6f0094
:1037c800fc70fc0071fc7200fc74fc0075fc760057
:1037d800fc78fc0079fc7a00fc7cfc007dfc7e0017
:1037e800fc80fc0081fc8300fc84fc0085fc8700d5
:1037f800fc88fc008afc8b00fc8dfc008efc900091
:10380800fc91fc0093fc9400fc96fc0097fc99004a
:10381800fc9afc009cfc9d00fc9ffc00a1fca20003
:10382800fca4fc00a5fca700fca9fc00aafcac00b9
:10383800fcaefc00affcb100fcb2fc00b4fcb6006e
:10384800fcb8fc00b9fcbb00fcbdfc00befcc00021
:10385800fcc2fc00c4fcc500fcc7fc00c9fccb00d2
:10386800fccdfc00cefcd000fcd2fc00d4fcd60081
:10387800fcd7fc00d9fcdb00fcddfc00dffce10030
:10388800fce3fc00e5fce700fce8fc00eafcec00db
:10389800fceefc00f0fcf200fcf4fc00f6fcf80086
:1038a800fcfafc00fcfcfe00fc00fd0002fd04002c
:1038b800fd06fd0008fd0a00fd0cfd000efd1000d0
:1038c800fd12fd0014fd1700fd19fd001bfd1d0074
:1038d800fd1ffd0021fd2300fd25fd0028fd2a0018
:1038e800fd2cfd002efd3000fd32fd0035fd3700ba
:1038f800fd39fd003bfd3d00fd40fd0042fd44005b
:10390800fd46fd0049fd4b00fd4dfd004ffd5200f9
:10391800fd54fd0056fd5900fd5bfd005dfd5f0097
:10392800fd62fd0064fd6600fd69fd006bfd6e0033
:10393800fd70fd0072fd7500fd77fd0079fd7c00ce
:10394800fd7efd0081fd8300fd85fd0088fd8a0068
:10395800fd8dfd008ffd9200fd94fd0097fd9900ff
:10396800fd9cfd009efda100fda3fd00a6fda80095
:10397800fdabfd00adfdb000fdb2fd00b5fdb7002b
:10398800fdbafd00bcfdbf00fdc1fd00c4fdc700c0
:10399800fdc9fd00ccfdce00fdd1fd00d4fdd60053
:1039a800fdd9fd00dbfdde00fde1fd00e3fde600e5
:1039b800fde9fd00ebfdee00fdf1fd00f3fdf60075
:1039c800fdf9fd00fbfdfe00fd01fe0003fe060003
:1039d800fe09fe000cfe0e00fe11fe0014fe17008c
:1039e800fe19fe001cfe1f00fe22fe0024fe27001a
:1039f800fe2afe002dfe2f00fe32fe0035fe3800a6
:103a0800fe3bfe003dfe4000fe43fe0046fe490030
:103a1800fe4bfe004efe5100fe54fe0057fe5a00bb
:103a2800fe5cfe005ffe6200fe65fe0068fe6b0045
:103a3800fe6efe0070fe7300fe76fe0079fe7c00ce
:103a4800fe7ffe0082fe8500fe88fe008bfe8d0054
:103a5800fe90fe0093fe9600fe99fe009cfe9f00dd
:103a6800fea2fe00a5fea800feabfe00aefeb10061
:103a7800feb4fe00b7feba00febdfe00c0fec300e5
:103a8800fec6fe00c8fecb00fecefe00d1fed4006e
:103a9800fed7fe00dafedd00fee0fe00e3fee600f3
:103aa800feeafe00edfef000fef3fe00f6fef90071
:103ab800fefcfe00fffe0200ff05ff0008ff0b00f2
:103ac800ff0eff0011ff1400ff17ff001aff1d0073
:103ad800ff20ff0023ff2600ff29ff002cff3000f6
:103ae800ff33ff0036ff3900ff3cff003fff420075
:103af800ff45ff0048ff4b00ff4eff0051ff5500f8
:103b0800ff58ff005bff5e00ff61ff0064ff670076
:103b1800ff6aff006dff7000ff74ff0077ff7a00f7
:103b2800ff7dff0080ff8300ff86ff0089ff8d0077
:103b3800ff90ff0093ff9600ff99ff009cff9f00f6
:103b4800ffa2ff00a6ffa900ffacff00afffb20075
:103b5800ffb5ff00b8ffbb00ffbfff00c2ffc500f5
:103b6800ffc8ff00cbffce00ffd1ff00d5ffd80074
:103b7800ffdbff00deffe100ffe4ff00e7ffeb00f3
:103b8800ffeeff00f1fff400fff7ff00fafffd0072
:103b9800ff00000003000600000900000c000f00f1
:103ba8000012000015001900001c00001f00220070
:103bb8000025000028002b00002f000032003500ef
:103bc800003800003b003e0000410000450048006e
:103bd800004b00004e0051000054000057005a00ee
:103be800005e000061006400006700006a006d006c
:103bf8000070000073007700007a00007d008000ec
:103c08000083000086008900008c0000900093006b
:103c18000096000099009c00009f0000a200a500eb
:103c280000a80000ab00af0000b20000b500b8006b
:103c380000bb0000be00c10000c40000c700ca00ed
:103c480000cd0000d000d40000d70000da00dd006d
:103c580000e00000e300e60000e90000ec00ef00ef
:103c680000f20000f500f80000fb0000fe00010073
:103c78000104010007010a00010d010010011300f1
:103c8800011601001a011d00012001002301260070
:103c9800012901002c012f000132010035013800f3
:103ca800013a01003d01400001430100460149007d
:103cb800014c01004f0152000155010058015b0001
:103cc800015e010061016400016701006a016d0085
:103cd8000170010073017500017801007b017e000d
:103ce8000181010084018700018a01008d01900093
:103cf8000192010095019800019b01009e01a1001d
:103d080001a40100a601a90001ac0100af01b200a5
:103d180001b50100b701ba0001bd0100c001c3002f
:103d280001c50100c801cb0001ce0100d101d300bb
:103d380001d60100d901dc0001de0100e101e40047
:103d480001e70100e901ec0001ef0100f201f400d4
:103d580001f70100fa01fd0001ff01000202050060
:103d6800020702000a020d00020f020012021500eb
:103d7800021702001a021d00021f0200220225007b
:103d8800022702002a022c00022f0200320234000d
:103d98000237020039023c00023f0200410244009f
:103da8000246020049024b00024e02005002530034
:103db8000255020058025a00025d02005f026200ca
:103dc8000264020067026900026c02006e02710060
:103dd8000273020076027800027b02007d027f00f7
:103de8000282020084028700028902008b028e0090
:103df8000290020092029500029702009a029c002b
:103e0800029e0200a102a30002a50200a702aa00c6
:103e180002ac0200ae02b10002b30200b502b70064
:103e280002ba0200bc02be0002c00200c302c50002
:103e380002c70200c902cb0002ce0200d002d200a3
:103e480002d40200d602d80002db0200dd02df0045
:103e580002e10200e302e50002e70200e902ec00e9
:103e680002ee0200f002f20002f40200f602f8008c
:103e780002fa0200fc02fe00020003000203040032
:103e88000306030008030a00030c03000e031000d6
:103e980003120300140316000318030019031b0080
:103ea800031d03001f03210003230300250327002c
:103eb800032903002a032c00032e030030033200d9
:103ec8000333030035033700033903003b033c0089
:103ed800033e030040034200034303004503470039
:103ee800034803004a034c00034e03004f035100ec
:103ef80003520300540356000357030059035b00a1
:103f0800035c03005e035f00036103006303640056
:103f18000366030067036900036a03006c036d000e
:103f2800036f0300700372000373030075037600c8
:103f38000378030079037b00037c03007d037f0083
:103f48000380030082038300038403008603870041
:103f5800038803008a038b00038c03008e038f0001
:103f680003900300910393000394030095039600c4
:103f78000398030099039a00039b03009d039e0086
:103f8800039f0300a003a10003a20300a403a5004c
:103f980003a60300a703a80003a90300aa03ab0014
:103fa80003ac0300ad03ae0003b00300b103b200dd
:103fb80003b30300b403b50003b60300b703b800a6
:103fc80003b80300b903ba0003bb0300bc03bd0078
:103fd80003be0300bf03c00003c10300c203c20045
:103fe80003c30300c403c50003c60300c703c70017
:103ff80003c80300c903ca0003ca0300cb03cc00eb
:1040080003cd0300cd03ce0003cf0300cf03d000c0
:1040180003d10300d103d20003d30300d303d40098
:1040280003d50300d503d60003d60300d703d80071
:1040380003d80300d903d90003da0300da03db004d
:1040480003db0300dc03dc0003dd0300dd03de002b
:1040580003de0300de03df0003df0300e003e0000c
:1040680003e00300e103e10003e10300e203e200ef
:1040780003e20300e303e30003e30300e403e400d3
:1040880003e40300e403e50003e50300e503e500ba
:1040980003e60300e603e60003e60300e603e600a2
:1040a80003e70300e703e70003e70300e703e7008c
:1040b80003e70300e703e70003e70300e703e7007c
:1040c80003e70300e703e80003e70300e703e7006b
:1040d80003e70300e703e70003e70300e703e7005c
:1040e80003e70300e703e70003e70300e703e6004d
:1040f80003e60300e603e60003e60300e603e50043
:1041080003e50300e503e50003e40300e403e4003a
:1041180003e40300e303e30003e30300e203e20034
:1041280003e20300e103e10003e10300e003e00030
:1041380003e00300df03df0003de0300de03de002d
:1041480003dd0300dd03dc0003dc0300db03db002d
:1041580003da0300da03d90003d90300d803d8002f
:1041680003d70300d603d60003d50300d503d40034
:1041780003d30300d303d20003d10300d103d0003b
:1041880003cf0300cf03ce0003cd0300cd03cc0043
:1041980003cb0300ca03ca0003c90300c803c7004e
:1041a80003c70300c603c50003c40300c303c2005a
:1041b80003c20300c103c00003bf0300be03bd0068
:1041c80003bc0300bb03ba0003b90300b803b8007b
:1041d80003b70300b603b50003b40300b303b2008a
:1041e80003b10300b003ae0003ad0300ac03ab00a2
:1041f80003aa0300a903a80003a70300a603a500b8
:1042080003a40300a203a10003a003009f039e00d0
:10421800039d03009b039a000399030098039600eb
:1042280003950300940393000391030090038f0008
:10423800038e03008c038b00038a03008803870026
:1042480003860300840383000382030080037f0046
:10425800037d03007c037b00037903007803760069
:104268000375030073037200037003006f036d008e
:10427800036c03006a0369000367030066036400b4
:104288000363030061035f00035e03005c035b00dc
:104298000359030057035600035403005203510007
:1042a800034f03004e034c00034a03004803470032
:1042b8000345030043034200034003003e033c0060
:1042c800033b03003903370003350300330332008f
:1042d800033003002e032c00032a030029032700c0
:1042e8000325030023032100031f03001d031b00f4
:1042f8000319030018031600031403001203100027
:10430800030e03000c030a0003080300060304005d
:10431800030203000003fe0002fc0200fa02f80098
:1043280002f60200f402f20002f00200ee02ec00d3
:1043380002e90200e702e50002e30200e102df0011
:1043480002dd0200db02d80002d60200d402d2004d
:1043580002d00200ce02cb0002c90200c702c5008b
:1043680002c30200c002be0002bc0200ba02b700cb
:1043780002b50200b302b10002ae0200ac02aa000c
:1043880002a70200a502a30002a102009e029c004f
:10439800029a0200970295000292020090028e0093
:1043a800028b0200890287000284020082027f00d9
:1043b800027d02007b02780002760200730271001f
:1043c800026e02006c026900026702006402620069
:1043d800025f02005d025a000258020055025300b3
:1043e800025002004e024b000249020046024400fd
:1043f800024102003f023c00023902003702340049
:10440800023202002f022c00022a02002702250095
:10441800022202001f021d00021a020017021500e4
:10442800021202000f020d00020a02000702050034
:1044380002020200ff01fd0001fa0100f701f40089
:1044480001f20100ef01ec0001e90100e701e400dd
:1044580001e10100de01dc0001d90100d601d30031
:1044680001d10100ce01cb0001c80100c501c30084
:1044780001c00100bd01ba0001b70100b501b200d9
:1044880001af0100ac01a90001a60100a401a1002f
:10449800019e01009b019800019501009201900086
:1044a800018d01008a0187000184010081017e00dd
:1044b800017b0100780175000173010070016d0036
:1044c800016a010067016400016101005e015b008f
:1044d8000158010055015200014f01004c014900eb
:1044e8000146010043014000013d01003a01380046
:1044f8000135010032012f00012c0100290126009d
:104508000123010020011d00011a010016011300fa
:10451800011001000d010a0001070100040101005a
:1045280001fe0000fb00f80000f50000f200ef00bb
:1045380000ec0000e900e60000e30000e000dd0018
:1045480000da0000d700d40000d00000cd00ca0077
:1045580000c70000c400c10000be0000bb00b800d6
:1045680000b50000b200af0000ab0000a800a50035
:1045780000a200009f009c00009900009600930094
:10458800009000008c0089000086000083008000f5
:10459800007d00007a0077000073000070006d0055
:1045a800006a000067006400006100005e005a00b5
:1045b8000057000054005100004e00004b00480016
:1045c8000045000041003e00003b00003800350077
:1045d800003200002f002b000028000025002200d8
:1045e800001f00001c0019000015000012000f0039
:1045f800000c000009000600000300000000fd0098
:10460800fffaff00f7fff400fff1ff00eeffeb00f9
:10461800ffe7ff00e4ffe100ffdeff00dbffd8005b
:10462800ffd5ff00d1ffce00ffcbff00c8ffc500bc
:10463800ffc2ff00bfffbb00ffb8ff00b5ffb2001d
:10464800ffafff00acffa900ffa6ff00a2ff9f007d
:10465800ff9cff0099ff9600ff93ff0090ff8d00dd
:10466800ff89ff0086ff8300ff80ff007dff7a003f
:10467800ff77ff0074ff7000ff6dff006aff67009f
:10468800ff64ff0061ff5e00ff5bff0058ff5500fd
:10469800ff51ff004eff4b00ff48ff0045ff42005f
:1046a800ff3fff003cff3900ff36ff0033ff3000bb
:1046b800ff2cff0029ff2600ff23ff0020ff1d001d
:1046c800ff1aff0017ff1400ff11ff000eff0b0079
:1046d800ff08ff0005ff0200fffffe00fcfef900d7
:1046e800fef6fe00f3fef000feedfe00eafee60038
:1046f800fee3fe00e0fedd00fedafe00d7fed40099
:10470800fed1fe00cefecb00fec8fe00c6fec300f2
:10471800fec0fe00bdfeba00feb7fe00b4feb1004a
:10472800feaefe00abfea800fea5fe00a2fe9f00a6
:10473800fe9cfe0099fe9600fe93fe0090fe8d0002
:10474800fe8bfe0088fe8500fe82fe007ffe7c0058
:10475800fe79fe0076fe7300fe70fe006efe6b00b2
:10476800fe68fe0065fe6200fe5ffe005cfe5a0009
:10477800fe57fe0054fe5100fe4efe004bfe49005f
:10478800fe46fe0043fe4000fe3dfe003bfe3800b4
:10479800fe35fe0032fe2f00fe2dfe002afe270009
:1047a800fe24fe0022fe1f00fe1cfe0019fe17005c
:1047b800fe14fe0011fe0e00fe0cfe0009fe0600af
:1047c800fe03fe0001fefe00fdfbfd00f9fdf60004
:1047d800fdf3fd00f1fdee00fdebfd00e9fde60057
:1047e800fde3fd00e1fdde00fddbfd00d9fdd600a7
:1047f800fdd4fd00d1fdce00fdccfd00c9fdc700f4
:10480800fdc4fd00c1fdbf00fdbcfd00bafdb70041
:10481800fdb5fd00b2fdb000fdadfd00abfda8008b
:10482800fda6fd00a3fda100fd9efd009cfd9900d5
:10483800fd97fd0094fd9200fd8ffd008dfd8a001f
:10484800fd88fd0085fd8300fd81fd007efd7c0067
:10485800fd79fd0077fd7500fd72fd0070fd6e00ad
:10486800fd6bfd0069fd6600fd64fd0062fd5f00f3
:10487800fd5dfd005bfd5900fd56fd0054fd520035
:10488800fd4ffd004dfd4b00fd49fd0046fd440078
:10489800fd42fd0040fd3d00fd3bfd0039fd3700b8
:1048a800fd35fd0032fd3000fd2efd002cfd2a00f7
:1048b800fd28fd0025fd2300fd21fd001ffd1d0035
:1048c800fd1bfd0019fd1700fd14fd0012fd100071
:1048d800fd0efd000cfd0a00fd08fd0006fd0400ac
:1048e800fd02fd0000fdfe00fcfcfc00fafcf800e7
:1048f800fcf6fc00f4fcf200fcf0fc00eefcec0022
:10490800fceafc00e8fce700fce5fc00e3fce10055
:10491800fcdffc00ddfcdb00fcd9fc00d7fcd6008a
:10492800fcd4fc00d2fcd000fccefc00cdfccb00bb
:10493800fcc9fc00c7fcc500fcc4fc00c2fcc000ec
:10494800fcbefc00bdfcbb00fcb9fc00b8fcb6001a
:10495800fcb4fc00b2fcb100fcaffc00aefcac0047
:10496800fcaafc00a9fca700fca5fc00a4fca20072
:10497800fca1fc009ffc9d00fc9cfc009afc99009b
:10498800fc97fc0096fc9400fc93fc0091fc9000c2
:10499800fc8efc008dfc8b00fc8afc0088fc8700e8
:1049a800fc85fc0084fc8300fc81fc0080fc7e000c
:1049b800fc7dfc007cfc7a00fc79fc0078fc76002d
:1049c800fc75fc0074fc7200fc71fc0070fc6f004c
:1049d800fc6dfc006cfc6b00fc6afc0068fc67006a
:1049e800fc66fc0065fc6300fc62fc0061fc600086
:1049f800fc5ffc005efc5c00fc5bfc005afc5900a0
:104a0800fc58fc0057fc5600fc55fc0054fc5300b5
:104a1800fc52fc0050fc4f00fc4efc004dfc4c00ce
:104a2800fc4bfc004afc4900fc48fc0048fc4700e1
:104a3800fc46fc0045fc4400fc43fc0042fc4100f1
:104a4800fc40fc003ffc3e00fc3efc003dfc3c0002
:104a5800fc3bfc003afc3900fc39fc0038fc370010
:104a6800fc36fc0036fc3500fc34fc0033fc33001b
:104a7800fc32fc0031fc3100fc30fc002ffc2f0024
:104a8800fc2efc002dfc2d00fc2cfc002bfc2b002c
:104a9800fc2afc002afc2900fc28fc0028fc270032
:104aa800fc27fc0026fc2600fc25fc0025fc240035
:104ab800fc24fc0023fc2300fc22fc0022fc220036
:104ac800fc21fc0021fc2000fc20fc0020fc1f0035
:104ad800fc1ffc001ffc1e00fc1efc001efc1d0031
:104ae800fc1dfc001dfc1c00fc1cfc001cfc1c002c
:104af800fc1bfc001bfc1b00fc1bfc001afc1a0026
:104b0800fc1afc001afc1a00fc1afc0019fc19001b
:104b1800fc19fc0019fc1900fc19fc0019fc19000f
:104b2800fc19fc0019fc1900fc19fc0019fc1900ff
:104b3800fc18fc009e4d0000600000008200000090
:104b4800000000000000000000000000000000005d
:104b5800000000000000000000000000000000004d
:104b6800000000000000000000000000000000003d
:104b7800000000000000000000000000000000002d
:104b8800000000000000000000000000000000001d
:104b9800000000000000000000000000000000000d
:104ba80000000000000000000000000000000000fd
:104bb80000000000000000000000000000000000ed
:104bc800fe4d00001e00000080000000824e000024
:104bd80008000000800000001c4e00001a000000c1
:104be800800000008a4e00000800000080000000dd
:104bf800001000000200000080000000000000001b
:020000040000fa
:104c08000000fa004f0ea900410ea800206a2000fb
:104c18009040780000c8b30000c0600081c5b300b0
:104c280001407000216a20008048780023a8a9006c
:104c380003a8a900c248a900e08420009040780099
:104c4800f0c8b30000c0600001c6b30001407000a6
:104c5800e18420008048780023a8a80030e42000e0
:104c680010407800614060000004e000fbff3a005b
:104c78000080fa00000006000200fa00000f780029
:104c88003a0007000f2407005c00070073220700a2
:104c980083200700980007000c0f0700f416070090
:104ca800e424070075240700c51907001e007800d2
:104cb800020007000080fa00000006000200fa0067
:104cc800000f78004f2ea900412ea80030e42000e4
:104cd80010407800624060000004e00004003a00e0
:104ce800e191240010c0b300804878000300370029
:104cf800e191240000c0eb008048780081e62400a0
:104d08000040eb0080487800e0738200f173820075
:104d180050738a0061738a0001e724000040eb00a9
:104d280080487800f1e624000040eb0080487800d5
:104d3800e091240010407800e14f400004003a0060
:104d4800e1e6240010c0b300804878000300370073
:104d5800e1e624000040eb00804878001e0078005f
:104d68009e1307000080fa00000006000000fa0009
:104d7800e1012000607420000108780040742000e0
:104d880010407800f2c3b3008240600040742000f5
:104d980001487800407420009040780000ceb300ad
:104da80080c0600040742000014878004567a90071
:104db80042e7a9004227a9003074200090407800fb
:104dc80080cfb30000c060003040b30031742000d1
:104dd800804878004207a80030742000104078000e
:104de80002c7b3008240600000c3b30080cf500008
:104df800f9ff3a000080fa00000006000000fa00ff
:104e080011e1a9000011200090407800f0ccb30017
:104e180000c060000044a000011120008048780014
:104e28001061a9001021a90010c1a9008000eb00a1
:104e3800601020000108780001fa2000c01020004e
:104e4800010878003084200090407800f0c8b30052
:104e580000c0600001c5b30001407000318420002b
:104e68008048780000e8a90020e8a8002de1a90002
:104e78002fe1a900c01220009040780000c3b300c1
:104e880080c07000c0122000014878002c61a80082
:104e98002c21a9002cc1a9008000eb0020122000c1
:104ea8000108780001952a00801220000108780086
:104eb8002e21a9002ec1a9008000eb00601220005d
:104ec80001087800b10a2000a0122000010878002b
:104ed8008085200010407800804078007140b30041
:104ee80080852000014878000608a9002608a80047
:104ef8000080fa00000006000000fa00106a200096
:104f08009040780000c8b30000c0600081c6b300bc
:104f180001407000116a2000804878002288a900aa
:104f28000288a900c228a800a08420009040780028
:104f380080cfb30000c060006040b300a1842000af
:104f4800804878002288a8000080fa000000060047
:104f58000200fa0000942400104078000004e000e9
:104f6800910132009f0e07000004e0008e0132001c
:104f780080e624008040eb000148780040f781007b
:104f88000000e0004c003a0010112000904078002a
:104f980000c8b30000c060000004e00016003a003a
:104fa800c2e52f00f3ff2f0020002000550e070058
:104fb800b2362000030020000000eb00510e07006d
:104fc800e0912400104078008000fb00401f200082
:104fd8008008b8006101b90010002000490e0700e0
:104fe800c2e52f00f3ff2f0030002000450e070018
:104ff80011e1a8006c0137004006200001002000e4
:1050080000498a0011498a00104020000100200050
:1050180020498a0031498a006000b80040498a0066
:1050280051498a0020e52400104078000004e0007f
:10503800030032001000200040f78900020037000a
:105048008000200040f78900fb12070070f78100fc
:1050580081f78100fa00b800f600400080ee2300d6
:10506800008040001002be0070f7810081f78100c7
:10507800fa00b800f200400080ee230000804000f3
:105088001001be0070f7810081f78100fa00b800b6
:10509800ee00400080ee2300008040001000be00bb
:1050a800430107006011b8006000b800b81d070090
:1050b80011e1a9003c013700c0ee23001040780040
:1050c8000004e0001a00320070f7810081f78100c7
:1050d800fa00b800f600400080ee2300008040008f
:1050e8001002be0070f7810081f78100fa00b80055
:1050f800f200400080ee2300008040001001be0056
:1051080070f7810081f78100fa00b800ee004000d6
:1051180080ee2300008040001000be00240107003c
:10512800c1ee23000040eb00804878001e013700e4
:1051380040f78100000f78001e007800e20f500051
:10514800070032001e007800e30f50000e00320006
:105158001e007800e10f50000600320019003700e9
:1051680061e924000040eb0080487800aa070700a6
:105178001500370061e9240010c0b30080487800aa
:10518800dc0507001000370070f7810081f7810007
:10519800fa00b800fc00400080ee230000804000c8
:1051a800104090000004e000040032006011b800d4
:1051b8006000b800761d070050230700bb120700e7
:1051c80001003700b91207004e1307000004e00081
:1051d8004100320040f781000000e80040f78900f4
:1051e80040f78100e30f500037003a006265820003
:1051f800736582004000200001002000800f5100ec
:10520800818f590030003200d2658200e365820048
:105218004000200001002000800f5100818f5900bc
:10522800290032006011b8006000b800581d07005e
:105238008041eb0082c0b30070082000010020000c
:105248005a2107008041eb00a2c0b300c021200012
:10525800010020005521070000402200410f2000d6
:105268007cec070013c0b300b2c0b300f03f2000cd
:10527800010020004d21070013c0b30092c0b30005
:105288006000b8004921070000402200410f2000bb
:1052980070ec070013c0b30062c0b300400b2000dd
:1052a800010020004121070013c0b30072c0b30001
:1052b800e01f2000010020003c2107005e120700cb
:1052c800344ea8000400370040f78100e30f500077
:1052d80001003200581207000a1307000004e0001a
:1052e800ab003a0000e72400104078000004e0001a
:1052f800a7003a0070f7810081f78100fa00b80032
:10530800ee00400080ee2300008040001001be0047
:1053180080c12f00f1ff2f00800f5100818f5900ad
:1053280019003a00e0912400104078008000fb004a
:10533800e0e32f008008b8006101b90030002000c8
:10534800700d0700e0912400104078008000fb00f9
:10535800400620008008b8006101b9000000eb0099
:10536800680d0700e0912400104078008000fb00e1
:10537800401f20008008b8006101b900100020001b
:10538800600d07008800370030e5240010407800e1
:105398000004e0002200320010002000010020007c
:1053a800b0728a00c1728a006209200003002000de
:1053b8000000eb00530d070070f7810081f78100b2
:1053c800fa00b800ee00400080ee230000804000a4
:1053d8001001be00007d200001002000800f510058
:1053e800818f590005003c00a20f20000300200017
:1053f80010002000430d070004003700e22e2000b3
:1054080003002000100020003e0d0700c2122000fb
:10541800030020000000eb003a0d0700620037008f
:1054280040f78100e20f500015003a0070f7810044
:1054380081f78100fa00b800ee00400080ee2300fa
:10544800008040001001be0000832f00f1ff2f00f4
:10545800800f5100818f590009003a00823e2000d8
:105468000300200010002000260d0700e2e32f00b3
:10547800f3ff2f0030002000220d07004a003700fc
:1054880070f7810081f78100fa00b800fc00400045
:1054980080ee230000804000104090000004e000ef
:1054a80017003a0070f7810081f78100fa00b80010
:1054b800f600400080ee2300008040001002be008d
:1054c80070f7810081f78100fa00b800f20040000f
:1054d80080ee2300008040001001be0070f78100bc
:1054e80081f78100fa00b800ee00400080ee23004a
:1054f800008040001000be002d0007002a00370081
:105508006011b8006000b800a11c07006322070002
:10551800e0912400104078008000fb00c0e02f00dc
:105528008008b8006101b90010002000f50c0700e0
:10553800e0912400104078008000fb00e0e32f0099
:105548008008b8006101b90030002000ed0c0700a8
:10555800420620000300200040002000e90c07005c
:105568006011b80040002000e60c0700e09124001c
:10557800104078008000fb00c0e02f008008b800d1
:105588006101b90010002000de0c0700060037009a
:105598005c1207000004e00003003200a1ee2300c3
:1055a8000040eb00804878000080fa000000060008
:1055b8002800fa00881f7800400f9800510f9800c3
:1055c800620f9800730f9800041798001517980039
:1055d800380f070020498200314982006e09900087
:1055e800fe0990000200500083805800e00f500030
:1055f800e08f580009003d002249820033498200ab
:105608006e089000fe089000020050008380580049
:1056180020179800311798000800370022498200a7
:10562800334982006e089000fe0890000001510086
:105638008181590022179800331798002e10900086
:10564800be109000200f9800310f98000249820088
:10565800134982004e089000de08900000025100b5
:105668008182590002498200134982004e08900045
:10567800de08900000015100818159008400780003
:1056880002007800000bb8008324b80007007800f7
:10569800080040008511b80002004000800378002f
:1056a800ae0890002e089000000ab800ae089000de
:1056b8003e0890008009b80005007800020040000c
:1056c8002e099000be0890008111b8000200400029
:1056d800800278000600420087804a00d8eb070065
:1056e800acec070077ec0700000f9800110f98004a
:1056f80022498200334982006e089000fe0890001b
:10570800020150008381580082007800803e20000a
:10571800000ab800e013b800050078000600400051
:10572800813e20008119b800020040008002780004
:105738000e0990009e0990000400be00b1eb07001e
:10574800803eb0000180b0006007980071079800a3
:105758006e009000fe0090008000400020002100b4
:105768000080400010007800cf80de0040079800dd
:105778005107980042498200534982004e00900028
:10578800de00900002005000838058002007980037
:105798003107980002498200134982004e089000a0
:1057a800de089000800f5100818f590008003400f6
:1057b800803e2000010020002e019000be019000d4
:1057c8000200500083805800200798003107980095
:1057d8002e019000be01900000832f00f1ff2f00e2
:1057e800800f5100818f590008003c002e00900066
:1057f800be009000027d20000300200072eb07002d
:1058080020079800310798000e0037002e019000fd
:10581800be019000007d200001002000800f510093
:10582800818f5900070034002e009000be009000c0
:10583800027d20000300200063eb0700200798008a
:10584800310798002e019000be01900080c12f0002
:10585800f1ff2f00800f5100818f590009003c0093
:105868002e009000be009000027d20000300200062
:105878000000410081804900200798003107980006
:105888000f0037002e019000be019000803e2000de
:1058980001002000800f5100818f5900080034005a
:1058a8002e009000be00900002832f00f3ff2f000f
:1058b80000004100818049002007980031079800c6
:1058c8002e019000be019000301f20000100200032
:1058d800800f5100818f59000f0034002e01900075
:1058e800be01900080c12f00f1ff2f000200400090
:1058f8008380480020079800310798000e08900020
:105908009e08900060001000e0801800000f9800ca
:10591800110f9800130037002e019000be0190006f
:10592800c0e02f00f1ff2f00800f5100818f590038
:105938000c003c002e009000be009000803eb0009d
:105948000180b00020079800310798000e089000e9
:105958009e08900060001000e0801800000f98007a
:10596800110f980042498200534982002e0090008e
:10597800be00900002004000838048004007980065
:10598800510798004e019000de01900080c12f0061
:10599800f1ff2f00800f5100818f59000d003c004e
:1059a8004e009000de009000027d200003002000e1
:1059b80005eb07000001be00007d2000010020006b
:1059c8000200400083804800400798005107980073
:1059d800130037004e019000de019000803e200049
:1059e80001002000800f5100818f59000c00340005
:1059f8004e009000de009000027d20000300200091
:105a0800f1ea07000001be0000832f00f1ff2f001c
:105a18000200400083804800400798005107980022
:105a28000e1090009e1090004e019000de01900034
:105a3800021f50000397580000832f00f1ff2f002a
:105a4800be0f1000ae8f180006003c001e00be00fe
:105a5800027d200003002000dbea0700008fbe0063
:105a68000a003700007d200001002000be0f100052
:105a7800ae8f1800050034001e00be00027d200015
:105a880003002000d0ea0700008fbe0080c12f006d
:105a9800f1ff2f00be0f1000ae8f180005003c006c
:105aa800007d2000010020001e0f40005e97480086
:105ab80009003700803e200001002000be0f1000c2
:105ac800ae8f18000400340000832f00f1ff2f0070
:105ad8001e0f40005e974800e091240010407800b7
:105ae8000002fb00cfa2de00840078002e009000a8
:105af8000009b8003e0090008023b8000300780039
:105b080006004000ae009000850ab800040040007e
:105b180080017800100020007a0b07000e09900021
:105b28009e0990000000eb00760b0700e09124002e
:105b3800104078000002fb00cfa2de00840078004d
:105b48001e0078000009b8001e0090008023b800ed
:105b580003007800060040009e007800850ab8001f
:105b6800040040008001780010002000650b070049
:105b78004f0478000080fa00000006000000fa00d8
:105b8800e0e02400104078000004e000300032001b
:105b9800e2738200f3738200807082009170820049
:105ba800000151008181590080bb200001002000c4
:105bb800800f5100818f59002500360040f7810081
:105bc800e80f50002200320070f7810081f7810051
:105bd800fa00b800fc00400080ee2300008040007e
:105be800104090000004e00019003a00e0e52400ad
:105bf800104078000004e00015003a0070f78100ba
