:020000040000fa
:080000000002040000000000f2
:020000040000fa
:100400008fd021000eff2d000e018800000000009b
:100410000c00070020932200010020001d000700af
:10042000000020000000e000020032000000020096
:10043000000000007a280200000000000040da00fe
:100440000000fe00c00420000000e00002003200b6
:10045000002020009001880000000600f03fb1005d
:100460000180b10006003500ee0309000000000025
:10047000403fb1000180b100fbff3d001000b00023
:10048000203fb0000200350000800900000000009d
:1004900000000600a1028800800078000000eb0048
:1004a0001a003700e280400054a0b4009101ba0065
:1004b000e280400054a0b4009102ba00e280400003
:1004c00054a0b4000002eb00472bde00f507b20099
:1004d000a6018800602ce10008003a000049eb000a
:1004e0000201e800020039003420ec0002f0a00014
:1004f0008301e900f9ff3e00040037006128e100b4
:10050000010032000082eb00040007001101ba0074
:100510000200e000e3ff3a000000060004d0a30060
:10052000e20f49001c003900810278003549ba0009
:100530000201e800020039003420ec0002f0a000c3
:100540008301e9000f0032002549ba000201e800ea
:10055000020039003420ec0002f0a0008301e90021
:10056000080032000400e0000600320015c9ba009d
:100570000201e800020039003420ec0002f0a00083
:100580008301e9008180e80054a0b4000300e0008a
:10059000e2ff3a00000006009102ba000559780017
:1005a0008301e900f7ff3200c82ade000559780010
:1005b0008301e900f3ff32000400e000f1ff3200a4
:1005c00011d9ba00eeff37000040da000000fe004b
:1005d000839f68000100e00002003d006000100001
:1005e000e08018000300e00002003d0060011100ff
:1005f000e0811900170007004f00e00002003b00f7
:1006000060001000e080180000000600811f7800e4
:100610000100e00002003d0060001000e0801800d2
:100620000300e00002003d0060011100e0811900bc
:10063000050007004f00e00002003b0060001000d2
:10064000e080180000000600020007000400be0061
:10065000000006006022b800060220000000d00062
:100660008180d2000482d2008582d2000000a000e6
:100670000202520083825a0003003100020242004b
:1006800083824a000000a1000603e900f3ff3a005c
:1006900000000600889fbe008a9fbe00010578000a
:1006a0000100e0000400350008003c000000e0000c
:1006b000200032000500370060001000e0801800c4
:1006c00002003b0001f02c001a0037000004be00bd
:1006d0006011b8006b0920000982cf0002003900c8
:1006e0000882cf000441b000694252000e0032007f
:1006f00008003b0082817100610164008904d1001f
:100700000884d3008b05e8000442e800f9ff3a00b2
:10071000050037000804440089844c008b05e9007b
:100720000442e900fbff3a00f70007000af0a700c7
:1007300001f0a0004f05be004f04be0000000600ff
:10074000889fbe008a9fbe008c1f78000004be00f8
:10075000130107000478a30026003a006120e1009d
:100760002500320009f8a30025003a006420e100ca
:1007700021003200f507b1000508a3000200320095
:1007800000004000818048006044b8000310200051
:10079000020020000000400081804800080544005d
:1007a00089854c000a0541008b8549000a055000e7
:1007b0008b855800030033000a00be000204740059
:1007c000838474008301d1000281d300830f710000
:1007d000f0ff3a008904d1000884d3006001490089
:1007e00082017800c1adde00fb07b000c600070043
:1007f000090137000960a0000800be0006013700ab
:100800001202200032e88800f0ff2f00f1ff2700dd
:10081000010137000001be00e10007000470a700dd
:1008200003f0a1006509b100160032000d0035008b
:100830006828e10006003500f0ff2f00f1ff2700d7
:100840000300e00013003b00010028000000050049
:1008500000004000818048008502e900fcff3a006a
:1008600008003700f88f420002003c008000eb00d7
:10087000000005008100d1000080d3008502e8005f
:10088000fcff3a000300e00002003b0060001000a3
:10089000e0801800000006000001eb00e5003700d2
:1008a000889fbe008a9fbe008c1f78004801070009
:1008b000d000330003866c006450e1002400320055
:1008c0006420e100270032006150e1002200320084
:1008d0006120e100210032008b854200eb07b1006e
:1008e0000134b800003ab8000804420089844a0084
:1008f000013ab8000030b8008880400009014a0081
:1009000004003300000040008180480002014900db
:100910008b05e900c909dd00830170000100320088
:1009200013002000c814de004814dd004709de0073
:100930001200b200c808de000884700072000700d0
:1009400001f0a1000cf0a70001f0a000b2003700f8
:100950006120e100b40032000801be000200be00c8
:10096000f7ff37006150e100fcff3a00ae003700ae
:1009700003f0a200889fbe008a9fbe008c1f7800f3
:10098000130107009b0033006450e1004f00320068
:100990006420e1005200320003826c0007003b003b
:1009a0000905d0000306d000820f54000c065d003c
:1009b0000200390002003200890178000306780045
:1009c0008582550004003d000003fd008103fd0009
:1009d0008502ea008b854200840f720002003b0012
:1009e00060001000e08018006011b8000005eb0006
:1009f0007a28e1000a00390006007800c75ddd00b2
:100a0000f707b200878075002d00370082817100e2
:100a10000a017800610560008180d1000080d30068
:100a20008502e900f9ff3b00060440008784480086
:100a300002003b0060041400e0841c000988a3004d
:100a4000070032008a8171008281710061016400b7
:100a50008904d1000884d3008b05e8001700370013
:100a60000978a30013003a000b00e00013003400e3
:100a70008b05e9000804440089844c000a44740092
:100a80000978a3000d003a000b00e00007003400d5
:100a90008b05e9000804440089844c0001003a00f9
:100aa0000b0020000978a300f7ff32000001eb00e3
:100ab00002003700828171000a01780012000700ed
:100ac0000cf0a70001f0a000530037006420e10003
:100ad00002003a00838f6c00530033000801be000f
:100ae0000200be004c003700f4ff2f00c0003700aa
:100af00014002000be0037000081eb00d700370053
:100b00000001eb00d5003700810020006180550016
:100b10000b003d000b00200061fe2f000100e100f2
:100b20001d00340082817100610164008904d100dc
:100b30000884d3000000e800faff3a0071002000aa
:100b400061006400030070000200600009003200d0
:100b500061044400e0844c000988a50005003200cf
:100b60008b05e8006808e10002003a008904d10022
:100b70000884d300f20f20000258e10005003d0078
:100b8000c75ddd00f907b2008980750008007800b4
:100b9000000006000bf827008b007800000005001d
:100ba000c70ade00f107b200f50fb20008003200fc
:100bb000e1cf4200020032000170a00024000500d5
:100bc000810f700001003200040805004400050098
:100bd000810f700002003a00140005008502e90050
:100be0000000400081c04800fcff3b000170a000f5
:100bf000240005000200be006450e100050036003c
:100c00006420e100020036000968a30001003a00f8
:100c10000800be000160a0004f0678004f05be002e
:100c20004f04be0000000600f0ff2f00f1ff270078
:100c3000f9ff3700889fbe008a9fbe008c9fbe00d0
:100c40000206780001f0a7000cf0a0000004be002e
:100c5000d3ff07000800be006420e1000700390050
:100c600002003a00f1ff2700f0ff2f000160a00012
:100c70001202200032e888005100370009f0a1007c
:100c80000800be000200200003f8230096ff0700c2
:100c9000f4ff3c000800be0002002000039823007f
:100ca00093ff07000800be0030003500020020005e
:100cb00003f023008cff070005003c000800be0085
:100cc0000801be00f6fe07000005be000e0037005a
:100cd0000c10a2000000200001f823000801be0053
:100ce00023ff07000200200003f02300ecfe0700b2
:100cf0000005be0092fe07000200200003002c0049
:100d0000e7fe07000004be000a00be00b2d02800c3
:100d1000130b2c0017ff07000a01be00e0fe0700be
:100d2000020f2500330b240012ff0700809fbe0036
:100d30000a00be005206220013f02b00d8fe070066
:100d4000b2662100f3f623000aff07000a01be0085
:100d5000d3fe07004f01be00a90007000801be0036
:100d6000cffe07000801be0002ff07000c00a7002d
:100d700007003700b2fd200093fc23000c10a700f1
:100d8000fcfe07000cf0a70001f0a2000c003700e9
:100d90000cf0a7000200370001f0a20004003700a9
:100da000b2fd2000930424000c10a60003003700bd
:100db000b2fd200093fc23000c10a700edfe0700fd
:100dc0004f06be004f05be004f04be0000000600e7
:100dd0000004be0072ff07000003be000405be0051
:100de0000200be006eff0700844f75000000060081
:100df000889fbe008a9fbe00841f7800f4ff070012
:100e00004f00780011003300f0ff2f00838f6c003b
:100e100006003b00040565000a00a7000800370033
:100e200009f0a6001000200008003700820f5400cf
:100e3000838f5c00030039001000200001003e0099
:100e40000000200009f0a7000000ea004f05be00e6
:100e50004f04be000000e00000000600889fbe00b6
:100e60008a9fbe008c9fbe00820578000004be00f1
:100e70004bff07000800be006420e10007003900b6
:100e800002003a00f1ff2700f0ff2f000160a000f0
:100e90001202200032e88800550037006120e1008e
:100ea00003003a000b00a70001f8230050003700b0
:100eb00001f0a10002002100936424000cff070050
:100ec0000800be0004003500b2fd2000930c240091
:100ed0008d0007000004be000005eb000b00a6001b
:100ee0004f0dde0001f0a1000004be0032982f007b
:100ef00023ea23006afe07000001eb0003f0230051
:100f00000b00a70003f823009afe070041fe07002c
:100f10000000a7000a00a200defd07000b00e000b1
:100f2000030032000200200003f0230090fe0700bf
:100f300001f0a2000006be0002002000930424007d
:100f400057fe07000801be008afe0700809fbe0012
:100f50000c00be0022a22a00d3a7230050fe0700e7
:100f60004f01be0083fe07000004be0001f0a10097
:100f70000200200003982300ddfe07000800be00e9
:100f8000190035000001be0045fe07000006be0046
:100f9000b2c52900e362230041fe070022222b0094
:100fa000f3942b0073fe07000c01be003cfe07000b
:100fb000e273280083c023006efe07000c01be0010
:100fc00037fe070042aa2a00a3e22b0069fe0700b1
:100fd0000c01be0032fe07000801be0030fe070013
:100fe0000801be0063fe07000a00a70001f0a2008e
:100ff0004f06be004f05be004f04be0000000600b5
:10100000889fbe008a9fbe008c1f780070ff07007b
:10101000f8fe330003866c006450e1002e003200bd
:101020006420e100330032006150e1002f00320003
:101030006120e1003100320085855500eb07b000ea
:1010400009002000080420000500370008044400bf
:1010500089844c000a0031000603430087834b005b
:101060000001530081815b00f8ff33000203be00e2
:101070000800a0000804440089844c00f6ff3900f1
:10108000c639dd0083017300010032001300200027
:101090008904d1000884d3000998a3000500320018
:1010a0000800a7000300a0008904d1000884d30031
:1010b0008b05e8008904d1000884d3000001eb000f
:1010c0000281d20090fe070001f0a1000cf0a70001
:1010d00001f0a000d0fe37006420e100d2fe320013
:1010e0000801be000200be00f7ff37006120e100ea
:1010f000cdfe32006000b800f3ff37000000200092
:1011000001f82700f0ff370004002000000037003e
:10111000889fbe008a9fbe008c1f78004f26dd008e
:101120002bff0700b3fe33006120e10043003200d3
:101130006250e10041003e003e0039006420e100c1
:101140003c003200058255000f003b000402e8001d
:1011500038003a00800f5300818f5b003500340067
:101160000800be0003f0a10001f0a60003f0a000fb
:101170000cf0a700fffd0700a7fe370006034300a1
:1011800087834b000c4646000005530081855b00b9
:10119000020033000a03be000c00a0000402e900b4
:1011a000f6ff3b00850578000602430087824b006e
:1011b00004003a006000b80009f0a70001f0a000a8
:1011c00095fe37000002520081825a000704e000b9
:1011d000040033000603430087834b008b05e900be
:1011e000faff3700090578000604be000203be00be
:1011f0006011b80044fe0700e00f5200e08f5a0073
:101200000700350002003c000c08a3000400320077
:101210000601be0003f0a0000cf0a700d5fd0700fa
:101220000a85680001f0a1000af0a70001f0a00003
:1012300079fe37000800be0077fe3700100220005c
:0c1240000cf0a60030e8880077fe3700b4
:020000040000fa
:0200000401f009
:04000c00fbff0000f6
:020000040000fa
:0200000401f009
:04001000bdff000030
:020000040000fa
:0200000401f009
:040014007fff00006a
:020000040000fa
:0200000401f009
:04001800ffff0000e6
:020000040000fa
:10000800e4020000e4020000e4020000e402000050
:10001800e4020000e4020000e4020000e402000040
:10002800e4020000e4020000e4020000e402000030
:10003800e4020000e4020000e4020000b02800002e
:10004800e4020000e4020000e4020000402800008e
:10005800e4020000e4020000e4020000e402000000
:10006800e4020000e4020000e4020000e4020000f0
:10007800e4020000e4020000e4020000e4020000e0
:10008800e4020000e4020000e4020000e4020000d0
:10009800e4020000e4020000e4020000e4020000c0
:1000a800e4020000e4020000e4020000e4020000b0
:1000b800e4020000e4020000e4020000e4020000a0
:1000c800e4020000e4020000e4020000e402000090
:1000d800e4020000e4020000e4020000e402000080
:1000e80004290000e4020000e4020000e402000029
:1000f800e4020000e4020000e4020000e402000060
:10010800e4020000e4020000e4020000e40200004f
:10011800e4020000e4020000e4020000e40200003f
:10012800e4020000e4020000e4020000e40200002f
:10013800e4020000e4020000e4020000e40200001f
:10014800e4020000e4020000e4020000e40200000f
:10015800e4020000e4020000e4020000e4020000ff
:10016800e4020000e4020000e4020000e4020000ef
:10017800e4020000e4020000e4020000e4020000df
:10018800e4020000e4020000e4020000e4020000cf
:10019800e4020000e4020000e4020000e4020000bf
:1001a800e4020000e4020000e4020000e4020000af
:1001b800e4020000e4020000e4020000e40200009f
:1001c800e4020000e4020000e4020000e40200008f
:1001d800e4020000e4020000e4020000e40200007f
:1001e800e4020000e4020000e4020000e40200006f
:1001f800e4020000e4020000e4020000e40200005f
:10020800e4020000e4020000e4020000e40200004e
:10021800e4020000e4020000e4020000e40200003e
:10022800e4020000e4020000e4020000e40200002e
:10023800e4020000e4020000e4020000e40200001e
:10024800e4020000e4020000e4020000e40200000e
:10025800e4020000e4020000e4020000e4020000fe
:020000040000fa
:10124c000000000000000000000000000000000092
:10125c00000000000000000000000000000a000078
:10126c000d4100006e6700006c6500003a20000024
:10127c00502000003d200000002000007c200000d9
:10128c00442000003d200000002000007c200000d5
:10129c004f72000064720000652000003d200000c9
:1012ac00000a00000d440000697300007461000026
:1012bc006e630000653a000020500000203d0000e5
:1012cc0020000000204f00007264000072650000d6
:0812dc00203d0000200000008d
:020000040000fa
:1012e4000200fa00000f78006000b8004080880017
:1012f40051808800408080005180800020808800d8
:10130400318088001e0078000080880010c0b3007f
:1013140002f0b700020007000080fa000000060097
:101324000200fa0000808000000f78001e007800a0
:10133400e10f50000c0032001e007800e10f500055
:10134400070039001e007800e20f50000900320047
:101354001e007800e30f500005003200050037003e
:101364006e00070003003700030107000100370087
:10137400a80207000080fa00000006000e00fa0030
:10138400008fbe0022079800330798004407980096
:1013940055079800464f9800574f980040808000aa
:1013a40051808000f800b800ec00400000002100eb
:1013b400008040001e01be000288be004080800004
:1013c40051808000f800b800f000400000002100c7
:1013d400008040002e019000be0190000288be00f3
:1013e4004080800051808000f800b800f400400084
:1013f40000002100008040004e019000de019000ba
:101404000288be004080800051808000f800b8004f
:10141400f80040000000210000804000ce49900008
:10142400034878004080800051808000f800b800b4
:10143400f80040000000210000804000de489000d9
:10144400114098004080800051808000f800b8006e
:10145400fa00400000002100008040000ef99700cf
:10146400024878004080800051808000f800b80075
:10147400fc00400000002100008040002eb99700cd
:10148400beb997000288be00408080005180800071
:10149400f800b80001022000808040000000210014
:1014a400008040000eb997009eb997000288be00e4
:1014b400408080005180800061004000e08048004e
:1014c40042062000030020004ffc070040808800f3
:1014d400518088000080fa00000006000200fa0033
:1014e4004280800053808000208080003180800012
:1014f400800f5100818f590003003a001000200032
:10150400000f7800020037000000eb00000f7800a5
:101514001e0078000080fa00000006000000fa00b7
:101524001000200001002000809fbe0070002000f9
:1015340001002000809fbe008f87e8000040eb0080
:10154400e0ff9f008043eb000043eb006022b80003
:10155400a241200003002000803e20000100200062
:1015640086ff0700ea8757001000200001002000d2
:10157400809fbe005000200001002000809fbe001c
:101584008f87e8000040eb00e0ff9f008043eb0002
:101594000043eb006022b800a241200003002000b9
:1015a400006420000100200074ff0700ea87570050
:1015b4001000200001002000809fbe0030002000a9
:1015c40001002000809fbe008f87e8000040eb00f0
:1015d400e0ff9f008043eb000043eb006022b80073
:1015e400a241200003002000c0762000010020005a
:1015f40062ff0700ea875700100020000100200066
:10160400809fbe001000200001002000809fbe00cb
:101614008f87e8000040eb00e0ff9f008043eb0071
:101624000043eb006022b800a24120000300200028
:10163400408320000100200050ff0700ea87570084
:101644001000200001002000809fbe004000200008
:1016540001002000809fbe008f87e8000040eb005f
:10166400e0ff9f008043eb000043eb0054c42000e4
:1016740005002000023220000300200060862000c4
:10168400010020003dff0700ea87570010002000fa
:1016940001002000809fbe003000200001002000d7
:1016a400809fbe008f87e8000040eb00e0ff9f00b2
:1016b4008043eb000043eb0054c4200005002000ed
:1016c4000232200003002000a0732000010020004b
:1016d4002aff0700ea8757001000200001002000bd
:1016e400809fbe002000200001002000809fbe00db
:1016f4008f87e8000040eb00e0ff9f008043eb0091
:101704000043eb0054c420000500200002322000f6
:1017140003002000a05a20000100200017ff07004a
:10172400ea8757001000200001002000809fbe00bf
:101734001000200001002000809fbe008f87e80079
:101744000040eb00e0ff9f008043eb000043eb0010
:1017540054c42000050020000232200003002000b1
:10176400e04720000100200004ff0700ea8757003b
:101774000080fa00000006000000fa0010002000bb
:1017840001002000809fbe006000200001002000b6
:10179400809fbe008f87e8000040eb00e0ff9f00c1
:1017a4008043eb000043eb0054c4200005002000fc
:1017b4008225200003002000802520000100200055
:1017c400eefe0700ea875700100020000100200009
:1017d400809fbe004000200001002000809fbe00ca
:1017e4008f87e8000040eb00e0ff9f008043eb00a0
:1017f4000043eb0024622000050020008225200025
:1018040003002000800c200001002000dbfe070004
:10181400ea8757001000200001002000809fbe00ce
:101824001000200001002000809fbe008f87e80088
:101834000040eb00e0ff9f0017c0b30016c0b300e8
:101844002462200005002000a20f200003002000d5
:10185400800c200001002000c8fe0700ea87570022
:101864001000200001002000809fbe002001200005
:1018740001002000809fbe008f87e8000040eb003d
:10188400e0ff9f0017c0b30016c0b300246220001d
:10189400050020008257200003002000800c200057
:1018a40001002000b5fe0700ea8757001001200060
:1018b40001002000809fbe001001200001002000d4
:1018c400809fbe008f87e8000040eb00e0ff9f0090
:1018d40017c0b30016c0b300246220000500200026
:1018e400626d200003002000800c20000100200015
:1018f400a2fe0700ea875700200020000100200014
:10190400809fbe000001200001002000809fbe00d7
:101914008f87e8000040eb00e0ff9f008043eb006e
:101924000043eb0054c4200005002000823e200048
:101934000300200080252000010020008ffe070006
:10194400ea8757001000200001002000809fbe009d
:101954006000200001002000809fbe008f87e80007
:101964000040eb00e0ff9f008043eb000043eb00ee
:1019740054c4200005002000823e20000300200003
:1019840080252000010020007cfe0700ea87570024
:101994001000200001002000809fbe0040002000b5
:1019a40001002000809fbe008f87e8000040eb000c
:1019b400e0ff9f008043eb000043eb002462200023
:1019c40005002000823e200003002000800c20003f
:1019d4000100200069fe0700ea875700100020007c
:1019e40001002000809fbe001000200001002000a4
:1019f400809fbe008f87e8000040eb00e0ff9f005f
:101a040017c0b30016c0b3002462200005002000f4
:101a1400a20f200003002000800c20000100200001
:101a240056fe0700ea87570010002000010020003e
:101a3400809fbe00c000200001002000809fbe00e7
:101a44008f87e8000040eb00e0ff9f0017c0b30061
:101a540016c0b30024622000050020008257200035
:101a640003002000800c20000100200043fe07003a
:101a7400ea875700b000200001002000809fbe00cc
:101a8400b000200001002000809fbe008f87e80086
:101a940010c0b300e0ff9f0017c0b30016c0b3002e
:101aa4006022b800626d200003002000800c20003a
:101ab4000100200031fe0700ea87570020002000c3
:101ac40001002000809fbe00a00020000100200033
:101ad400809fbe008f87e8000040eb00e0ff9f007e
:101ae4008043eb000043eb0054c4200005002000b9
:101af40082572000030020008025200001002000e0
:101b04001efe0700ea875700100020000100200095
:101b1400809fbe005000200001002000809fbe0076
:101b24008f87e8000040eb00e0ff9f008043eb005c
:101b34000043eb0054c4200005002000825720001d
:101b44000300200080252000010020000bfe070078
:101b5400ea8757001000200001002000809fbe008b
:101b64003000200001002000809fbe008f87e80025
:101b74000040eb00e0ff9f0017c0b30016c0b300a5
:101b8400246220000500200082572000030020006a
:101b9400800c200001002000f8fd0700ea875700b0
:101ba4001000200001002000809fbe0010002000d3
:101bb40001002000809fbe008f87e8000040eb00fa
:101bc400e0ff9f0017c0b30016c0b30024622000da
:101bd40005002000a20f200003002000800c20003c
:101be40001002000e5fd0700ea875700600020009f
:101bf40001002000809fbe00600020000100200042
:101c0400809fbe008f87e8000040eb00e0ff9f004c
:101c140017c0b30016c0b3002462200005002000e2
:101c2400626d200003002000800c200001002000d1
:101c3400d2fd0700ea8757002000200001002000a1
:101c4400809fbe005000200001002000809fbe0045
:101c54008f87e8000040eb00e0ff9f008043eb002b
:101c64000043eb002462200005002000626d200088
:101c7400030020008025200001002000bffd070094
:101c8400ea8757002000200001002000809fbe004a
:101c94004000200001002000809fbe008f87e800e4
:101ca4000040eb00e0ff9f008043eb000043eb00ab
:101cb4002462200005002000626d20000300200043
:101cc4008025200001002000acfd0700ea875700b2
:101cd4001000200001002000809fbe003000200082
:101ce40001002000809fbe008f87e8000040eb00c9
:101cf400e0ff9f0017c0b30016c0b30024622000a9
:101d040005002000626d200003002000800c2000ec
:101d14000100200099fd0700ea8757001000200009
:101d240001002000809fbe00200020000100200050
:101d3400809fbe008f87e8000040eb00e0ff9f001b
:101d440017c0b30016c0b3002462200005002000b1
:101d54008257200003002000800c20000100200096
:101d640086fd0700ea8757001000200001002000cc
:101d7400809fbe001000200001002000809fbe0054
:101d84008f87e8000040eb00e0ff9f0017c0b3001e
:101d940016c0b3002462200005002000a20f20001a
:101da40003002000800c20000100200073fd0700c8
:101db400ea8757000080fa00000006000000fa00dd
:101dc4001000200001002000809fbe0020002000a1
:101dd40001002000809fbe008f87e8000040eb00d8
:101de400e0ff9f008043eb000043eb00e49d2f00e5
:101df400f5ff2f008270200003002000a041200086
:101e0400010020005dfd0700ea8757000080fa000a
:101e1400000006000000fa0010002000010020006d
:101e2400809fbe003000200001002000809fbe0083
:101e34008f87e8000040eb00e0ff9f008043eb0049
:101e44000043eb006022b800a20f20000300200032
:101e5400009620000100200048fd0700ea87570093
:101e64001000200001002000809fbe001000200010
:101e740001002000809fbe008f87e8000040eb0037
:101e8400e0ff9f008043eb0016c0b3006022b8005f
:101e9400a20f20000300200000af2000010020005a
:101ea40036fd0700ea8757001000200001002000db
:101eb400809fbe001000200001002000809fbe0013
:101ec4008f87e8000040eb00e0ff9f008043eb00b9
:101ed4000043eb006022b800a20f200003002000a2
:101ee400009620000100200024fd0700ea87570027
:101ef4001000200001002000809fbe003000200060
:101f040001002000809fbe008f87e8000040eb00a6
:101f1400e0ff9f008043eb000043eb006022b80029
:101f240082252000030020000096200001002000ec
:101f340012fd0700ea87570010002000010020006e
:101f4400809fbe001000200001002000809fbe0082
:101f54008f87e8000040eb00e0ff9f008043eb0028
:101f640016c0b3006022b8008225200003002000c0
:101f740000af20000100200000fd0700ea875700a1
:101f84001000200001002000809fbe0010002000ef
:101f940001002000809fbe008f87e8000040eb0016
:101fa400e0ff9f008043eb000043eb006022b80099
:101fb400822520000300200000962000010020005c
:101fc400eefc0700ea875700100020000100200003
:101fd400809fbe003000200001002000809fbe00d2
:101fe4008f87e8000040eb00e0ff9f008043eb0098
:101ff4000043eb006022b800823e20000300200072
:102004000096200001002000dcfc0700ea8757004e
:102014001000200001002000809fbe00100020005e
:1020240001002000809fbe008f87e8000040eb0085
:10203400e0ff9f008043eb0016c0b3006022b800ad
:10204400823e20000300200000af20000100200099
:10205400cafc0700ea875700100020000100200096
:10206400809fbe001000200001002000809fbe0061
:102074008f87e8000040eb00e0ff9f008043eb0007
:102084000043eb006022b800823e200003002000e1
:102094000096200001002000b8fc0700ea875700e2
:1020a4001000200001002000809fbe0030002000ae
:1020b40001002000809fbe008f87e8000040eb00f5
:1020c400e0ff9f008043eb000043eb006022b80078
:1020d4008257200003002000009620000100200009
:1020e400a6fc0700ea87570010002000010020002a
:1020f400809fbe001000200001002000809fbe00d1
:102104008f87e8000040eb00e0ff9f008043eb0076
:1021140016c0b3006022b8008257200003002000dc
:1021240000af20000100200094fc0700ea8757005c
:102134001000200001002000809fbe00100020003d
:1021440001002000809fbe008f87e8000040eb0064
:10215400e0ff9f008043eb000043eb006022b800e7
:102164008257200003002000009620000100200078
:1021740082fc0700ea8757001000200001002000bd
:10218400809fbe003000200001002000809fbe0020
:102194008f87e8000040eb00e0ff9f008043eb00e6
:1021a4000043eb006022b800626d200003002000b1
:1021b400009620000100200070fc0700ea87570009
:1021c4001000200001002000809fbe0010002000ad
:1021d40001002000809fbe008f87e8000040eb00d4
:1021e400e0ff9f008043eb0016c0b3006022b800fc
:1021f400626d20000300200000af200001002000d9
:102204005efc0700ea875700100020000100200050
:10221400809fbe001000200001002000809fbe00af
:102224008f87e8000040eb00e0ff9f008043eb0055
:102234000043eb006022b800626d20000300200020
:1022440000962000010020004cfc0700ea8757009c
:102254000080fa00000006000000fa0030eea90039
:1022640030cea90030aea9006000b800d0e78800e5
:10227400e1e788000080fa00000006000400fa008c
:10228400100798000040eb00004f7800070037006b
:102294001e80fb00800078001e009000008040003b
:1022a40010407800610b07001e4fe8001e80fb0001
:1022b400800078001e0090000080400010407800ec
:1022c4000004e000f2ff3a000080fa00000006007b
:1022d4002400fa0000179800111798000000eb0082
:1022e40010079800e40047006092280090487800a6
:1022f4007092280010417800924098000180e80014
:10230400000178006000b8000089be00640141004b
:102314006000b8000089be00640141006000b8009c
:102324000089be00640141000040eb0000497800d0
:102334000e1090009e109000e00f5000e08f5800a7
:1023440013003d009e009000640047008080400020
:10235400d0c2b300804878001e0090000000e8005e
:10236400100798009e0090006400470080804000a1
:102374000040eb00804878000e1090009e10900002
:1023840060001000e08018000017980011179800f2
:102394000e1090009e109000e00f5000e08f580047
:1023a4000e003a009e0090006400470080804000c8
:1023b40000c3b300804878001e0090000000e800cd
:1023c400100798009e009000640047008080400041
:1023d4000040eb00804878002c003700730f470062
:1023e400110037000e1090009e109000a2002000f3
:1023f4000300200084f8070002c3b30082404000b9
:102404001e007800014878000e1090009e10900085
:10241400a2002000030020006cf8070000179800b9
:10242400111798001e0fe8000e1090009e109000e7
:10243400e00f5000e08f5800eaff3c001e0fe90057
:102444000a0037001e0190001e00780090407800ba
:102454006400470000004100014878001e0090001d
:102464000000e800100798001e0fe9007300470001
:102474009e0f5000f3ff36009e009000640047005a
:10248400808040000040eb008048780064004700f2
:102494007aff07000080fa00000006002400fa001a
:1024a40000179800111798000000eb00100798001f
:1024b400e400470060922800904878007092280059
:1024c40010417800924098000180e80000017800f3
:1024d4006000b8000089be00640141006000b800db
:1024e4000089be00640141006000b8000089be009c
:1024f400640141000040eb00004978000e10900098
:102504009e109000e00f5000e08f58000e003a003b
:102514009e009000640047008080400000c3b30028
:10252400804878001e0090000000e8001007980022
:102534009e00900064004700808040000040eb0053
:10254400804878002c003700730f470011003700d3
:102554000e1090009e109000a200200003002000a6
:1025640038f807000043b000804078001e0078006f
:10257400014878000e1090009e109000a2002000e8
:102584000300200032f80700001798001117980084
:102594001e0fe8000e1090009e109000e00f5000f7
:1025a400e08f5800eaff3a001e0fe9000a003700e6
:1025b4001e0190001e0078009040780064004700df
:1025c40000004100014878001e0090000000e8006f
:1025d400100798001e0fe900730047009e0f50007b
:1025e400f3ff36009e0090006400470080804000a6
:1025f4000040eb0080487800640047001fff07009c
:102604000080fa00000006000600fa00d2e780000d
:10261400e3e78000a000200001002000800f5100ab
:10262400818f5900cc01340002ddbf000000fb00a3
:102634006101b90000fe2f00f1ff2f0002014000ec
:10264400838148001207980023079800a005200002
:10265400010020001e019000ae019000800f510087
:10266400818f590094013e001e009000ae0090003e
:10267400000601007a0137008f0137008e01370010
:102684008d0137008c0137008b0137008a01370038
:102694008901370088013700870137008601370038
:1026a4008501370084013700830137008201370038
:1026b40081013700800137007f0137007e01370038
:1026c4007d0137007c0137007b0137007a01370038
:1026d4007901370078013700770137007601370038
:1026e4007501370074013700730137007201370038
:1026f40071013700700137006f0137006e01370038
:102704006d0137006c0137006b0137006a01370037
:102714006901370068013700670137006601370037
:102724006501370064013700630137006201370037
:1027340061013700600137005f0137005e01370037
:102744005d0137005c0137005b0137005a01370037
:102754005901370058013700570137005601370037
:102764005501370054013700530137005201370037
:102774005101370050013700190037004e0137006e
:102784004d0137006b003700590037008f003700c8
:102794004901370048013700c3003700b100370052
:1027a400d2003700f3003700180137004201370028
:1027b400df003700040137001a00370072003700c9
:1027c4003a0037003c013700950037003a013700e2
:1027d400390137003801370037013700220037004c
:1027e400fedcbf000004e0000700320080e480004b
:1027f40091e4800061004000e080480080e48800ab
:1028040091e488002c013700b0e58000c1e5800028
:1028140061004000e0804800b0e58800c1e5880020
:1028240025013700fedcbf000004e0000700320091
:1028340080e4800091e4800061005000e080580052
:1028440080e4880091e488001b013700b0e5800033
:10285400c1e5800061005000e0805800b0e58800c8
:10286400c1e5880014013700fedcbf000004e0006d
:102874000700320080e4800091e480006a00400098
:10288400e080480080e4880091e488000a01370071
:10289400b0e58000c1e580006a004000e0804800a7
:1028a400b0e58800c1e5880003013700fedcbf0005
:1028b4000004e0000700320080e4800091e480001e
:1028c4006a005000e080580080e4880091e48800a9
:1028d400f9003700b0e58000c1e580006a005000cf
:1028e400e0805800b0e58800c1e58800f2003700b8
:1028f400fedcbf000004e0000700320080e480003a
:1029040091e480004006b0000180b00080e48800bb
:1029140091e48800e8003700b0e58000c1e580005c
:102924004006b0000180b000b0e58800c1e5880031
:10293400e1003700fedcbf000004e00009003200c3
:1029440080e4800091e48000c2f92f00f3ff2f009f
:10295400000041008180490080e4880091e48800ff
:10296400d5003700b0e58000c1e58000c2f92f0032
:10297400f3ff2f000000410081804900b0e588008a
:10298400c1e58800cc003700fedcbf000004e00095
:102994000700320080e4800091e48000803eb000b3
:1029a4000180b00080e4880091e48800c200370010
:1029b400b0e58000c1e58000803eb0000180b00039
:1029c400b0e58800c1e58800bb003700fedcbf002d
:1029d4000004e0000900320080e4800091e48000fb
:1029e40082c12f00f3ff2f000000410081804900c5
:1029f40080e4880091e48800af003700b0e58000ef
:102a0400c1e5800082c12f00f3ff2f0000004100c8
:102a140081804900b0e58800c1e58800a600370040
:102a2400fedcbf000004e0000700320040e4800048
:102a340051e4800061004000e080480040e48800e8
:102a440051e488009c00370070e5800081e5800037
:102a540061004000e080480070e5880081e588005e
:102a640095003700fedcbf000004e00007003200e0
:102a740040e4800051e4800061005000e080580090
:102a840040e4880051e488008b00370070e5800042
:102a940081e5800061005000e080580070e5880006
:102aa40081e5880084003700fedcbf000004e000fc
:102ab4000700320040e4800051e480006a004000d6
:102ac400e080480040e4880051e488007a00370040
:102ad40070e5800081e580006a004000e0804800e5
:102ae40070e5880081e5880073003700fedcbf00d4
:102af4000004e0000700320040e4800051e480005c
:102b04006a005000e080580040e4880051e48800e6
:102b14006900370070e5800081e580006a0050009c
:102b2400e080580070e5880081e588006200370085
:102b3400fedcbf000004e0000700320040e4800037
:102b440051e480004006b0000180b00040e48800f9
:102b540051e488005800370070e5800081e580006a
:102b64004006b0000180b00070e5880081e588006f
:102b740051003700fedcbf000004e0000900320011
:102b840040e4800051e48000c2f92f00f3ff2f00dd
:102b9400000041008180490040e4880051e488003d
:102ba4004500370070e5800081e58000c2f92f0000
:102bb400f3ff2f00000041008180490070e5880088
:102bc40081e588003c003700fedcbf000004e00023
:102bd4000700320040e4800051e48000803eb000f1
:102be4000180b00040e4880051e4880032003700de
:102bf40070e5800081e58000803eb0000180b00077
:102c040070e5880081e588002b003700fedcbf00fa
:102c14000004e0000900320040e4800051e4800038
:102c240082c12f00f3ff2f00000041008180490082
:102c340040e4880051e488001f00370070e58000fc
:102c440081e5800082c12f00f3ff2f0000004100c6
:102c54008180490070e5880081e58800160037000e
:102c6400fedcbf008040eb00014f78000004e00070
:102c740002003a0012c0b300024f78001e407800f0
:102c8400fefcb700d2070700fedcbf000004e00032
:102c94000500320010c0b300a0fcb7000040eb00f8
:102ca400c6fcb7000400370010c0b300c6fcb70070
:102cb4000040eb00a0fcb700fedcbf000004e00015
:102cc40010003200509328006cfd070080e480005f
:102cd40091e480007efd07003094280067fd070022
:102ce40040e4800051e4800079fd0700b09428009e
:102cf40062fd070000e4800011e4800074fd070019
:102d04000f003700709528005cfd0700b0e58000d7
:102d1400c1e580006efd07003094280057fd0700d0
:102d240070e5800081e5800069fd0700b09428000b
:102d340052fd070030e5800041e5800064fd070096
:102d44006000b800d0e78800e1e7880080c7b300de
:102d540002fdb70006003700d0e78000e1e78000fd
:102d640061004000e0804800d0e78800e1e7880087
:102d74000080fa00000006000200fa00000f78004c
:102d84000d0007006c08070033fd07002e00070044
:102d94008f070700a0050700740907006d090700e5
:102da400550907006e0907001e0078004cf907005a
:102db4000080fa00000006000000fa00e101200093
:102dc40060742000010878004074200010407800ee
:102dd400f2c3b300824060004074200001487800d0
:102de400407420009040780000ceb30080c06000a2
:102df40040742000014878004567a90042e7a90013
:102e04004227a900307420009040780080cfb3009e
:102e140000c060003040b300317420008048780066
:102e24004207a800307420001040780002c7b300a5
:102e34008240600000c3b30080cf5000f9ff3a0025
:102e44000080fa00000006000000fa0011e1a90069
:102e54000011200090407800f0ccb30000c0600066
:102e64000044a00001112000804878001061a900ee
:102e74001021a90010c1a9008000eb0060102000ff
:102e84000108780001fa2000c01020000108780031
:102e94003084200090407800f0c8b30000c0600087
:102ea40001c5b300014070003184200080487800df
:102eb40000e8a90020e8a80011e1a8002de1a9007c
:102ec4002fe1a900c01220009040780000c3b30095
:102ed40080c07000c0122000014878002c61a80056
:102ee4002c21a9002cc1a9008000eb002012200095
:102ef4000108780001952a0080122000010878005a
:102f04002e21a9002ec1a9008000eb006012200030
:102f140001087800b10a2000a012200001087800fe
:102f24008085200010407800804078007140b30014
:102f340080852000014878000608a9002608a8001a
:102f44000080fa00000006000000fa006307070092
:102f54000004e0005a003200008080000000e0001d
:102f640003003200008080000000e00054003200c2
:102f740002d0bf000004e000220032002280800062
:102f8400338080002080800031808000f800b80009
:102f940001022000808040000000210000804000e9
:102fa4001000be000200400083804800420620005a
:102fb4000300200094f507002080880031808800f9
:102fc4002080800031808000f800b800f8004000c4
:102fd400000021000080400010409000edfcb7008c
:102fe4002080800031808000f800b800f8004000a4
:102ff40000002100008040001040780004fdb7006c
:1030040012003700228080003380800020808000fe
:1030140031808000f800b800fc004000000021006e
:10302400008040001000be00020040008380480081
:10303400420620000300200073f50700208088006a
:103044003180880010c0b30002f0b70023f90700f4
:103054000004e00017003a002080800031808000e6
:10306400f800b800f4004000000021000080400097
:103074001002be002080800031808000f800b8007b
:10308400f000400000002100008040001001be005c
:103094002080800031808000f800b800ec004000ff
:1030a40000002100008040001000be000600070060
:1030b40003003700008080000000e80000808800e2
:1030c4000080fa00000006002600fa00889fbe0077
:1030d400300f9800410f9800520f9800630f98002a
:1030e400740f9800051798000040eb0040579800b3
:1030f40092e78000a3e780005e089000ee0890004d
:103104000000510081805900e00f5000e08f58000a
:1031140009003d0092e78000a3e780005e0890006c
:10312400ee089000020050008380580010179800a9
:10313400211798000800370092e78000a3e7800079
:103144005e089000ee089000000151008181590052
:1031540012179800231798001e109000ae109000cc
:10316400000f9800110f980072e7800083e7800039
:103174003e089000ce089000000251008182590060
:1031840072e7800083e780003e089000ce0890003c
:103194000001510081815900840078000200780008
:1031a400000bb8008324b800070078000800400032
:1031b4008511b80002004000800378008e0890005a
:1031c4000e089000000ab8008e0890001e089000b7
:1031d4008009b80005007800020040000e09900044
:1031e4009e0890008111b80002004000800278001f
:1031f4000600420087804a0025f507004ff50700c6
:1032040083f5070060079800710798006e0190002d
:10321400fe0190000e0890009e089000ebf4070059
:103224001bf507009bf5070002002000a3472400bc
:103234009af507000004be00b0e78000c1e78000f3
:1032440013f507000001be000800be00c7f5070023
:103254006ff5070040079800510798004e01900051
:10326400de01900022079800330798002e0090009a
:10327400be00900006f50700c297250043542400c1
:1032840018f607000000e00001003c000a003700c7
:103294002e009000be009000fdf40700c2972500a8
:1032a400435c2400b1f5070059f507002007980096
:1032b40031079800120037002e009000be009000e5
:1032c400f3f40700c297250043542c0007f60700c7
:1032d4000000e00001003500090037002e009000d6
:1032e400be009000eaf40700c2972500435c240066
:1032f4009ff5070046f5070020079800310798005e
:103304002e009000be009000e1f40700c297250053
:10331400434c2400f3f507000000e00001003c00ea
:103324000c0037002e009000be009000d8f4070077
:10333400c2972500435424008cf5070034f5070098
:10334400200798003107980010c0b3004057980038
:10335400140037002e009000be009000ccf407004b
:10336400c2972500434c2c00e0f507000000e00064
:10337400010035000b0037002e009000be009000c5
:10338400c3f40700c29725004354240078f50700ce
:103394001ff50700200798003107980010c0b300fc
:1033a400405798007e0890008e1090006001100035
:1033b400e08118004e009000de009000001f5100d4
:1033c400019759004e5090000004e00008003200bc
:1033d4001e00be00aef407000001be00c097250029
:1033e4004154240061f5070009f50700008fbe0071
:1033f4001e00be00a6f40700c29725004354240013
:10340400b8f507000000e00001003c0008003700a8
:103414001e00be009ef40700c2972500435c2400f2
:1034240052f50700faf40700008fbe000f003700c2
:103434001e00be0096f40700c297250043542c00da
:10344400aaf507000000e00001003500070037007e
:103454001e00be008ef40700c2972500435c2400c2
:1034640043f50700eaf40700008fbe0080cb80001c
:1034740091cb8000e600b800ea004000c09621002d
:10348400008040002e019000be0190000288be0022
:1034940080cb800091cb8000e600b800e8004000bb
:1034a400c096210080804000100020008008780031
:1034b40080cb800091cb800061004000e080480018
:1034c40042062000030020004ff4070080cb880050
:1034d40091cb880080cb800091cb8000e600b800bf
:1034e400ea004000c0962100008040006e01900078
:1034f400fe0190000288be0080cb800091cb80004a
:10350400e600b800e8004000c0962100808040003a
:103514000000eb008008780080cb800091cb800015
:1035240061004000e08048004206200003002000c3
:1035340035f4070080cb880091cb880080cb8000d5
:1035440091cb8000e600b800ea004000c09621005c
:10355400008040001e01be000288be0080cb8000b7
:1035640091cb8000e600b800e8004000c09621003e
:1035740080804000100020008008780080cb80000c
:1035840091cb800061004000e080480042062000aa
:10359400030020001cf4070080cb880091cb880036
:1035a4004f04be000080fa00000006000e00fa007e
:1035b400889fbe008a9fbe006000b8004007980044
:1035c400510798006000b800200798003107980060
:1035d40060cb800071cb8000e600b800e8004000ba
:1035e400c096210000804000100078006007980019
:1035f4006e0090000000e00004003200ee00900035
:10360400e18f50003e0032008700370012e5800051
:1036140023e5800082007800803e2000000ab80084
:10362400e013b8000500780006004000813e200049
:103634008119b8000200400080027800e2cb2a0021
:10364400130020000400be00e0f3070040079800c8
:103654005107980070e7800081e780000cf40700b0
:103664000005be004e009000de00900008f4070044
:103674000004be00b0e78000c1e7800004f4070046
:103684001cf507000001be000800be0083f407001b
:103694000001be000a00be00b5f407005cf4070098
:1036a40070e7880081e7880090e78000a1e7800048
:1036b400f7f307000005be004e009000de00900006
:1036c400f3f307000004be00b0e78000c1e7800008
:1036d400eff3070009f507000001be000800be0073
:1036e4006ef407000001be000a00be00a0f407004b
:1036f40047f4070090e78800a1e788004a003700f4
:10370400e2e38000f3e3800082007800803e200042
:10371400000ab800e013b800050078000600400075
:10372400813e20008119b800020040008002780028
:1037340002242300130020000400be00a3f30700aa
:103744002007980031079800b2e78000c3e78000a3
:103754002e009000be0090000000410081804900ce
:103764002007980031079800b0882100010020004c
:10377400008fbe002e009000be009000c4f307002e
:10378400c297250043542c00d8f407000000e00041
:10379400010035000c0037002e009000be009000a0
:1037a4001e01be0098f30700b9f30700c297250075
:1037b400435c24006ef4070015f40700200798000a
:1037c40031079800140037002e009000be009000ce
:1037d400aff30700c297250043542400c1f4070047
:1037e4000000e00001003c000b0037002e009000b8
:1037f400be0090001e01be0083f30700a4f307007f
:10380400c2972500435c240058f4070000f4070025
:1038140020079800310798002e009000be00900009
:10382400b0e78800c1e788004f05be004f04be0022
:103834000080fa00000006000000fa006000b800f2
:1038440040e4880051e488006000b80060e4880027
:1038540071e48800100420000100200080e4880046
:1038640091e488001004200001002000a0e48800f6
:10387400b1e488006000b80000e4880011e4880026
:10388400100020000100200020e4880031e48800ba
:103894006000b800e0e38800f1e3880010c0b300e2
:1038a400a0fcb7006000b80070e5880081e58800de
:1038b4006000b80090e58800a1e58800401f200062
:1038c40001002000b0e58800c1e58800401f200009
:1038d40001002000d0e58800e1e588006000b80020
:1038e40030e5880041e588006000b80050e58800b4
:1038f40061e588006000b80010e5880021e58800d3
:103904000040eb00c6fcb700c012200001002000fc
:10391400f0e5880001e68800400620000100200050
:1039240010e6880021e68800c01220000100200073
:10393400c0e48800d1e48800c00820000100200011
:10394400e0e48800f1e48800400107000080fa0008
:10395400000006000600fa00881f78008a9fbe0057
:10396400000f78001e007800b00090002000900046
:1039740010079800210798001e009000ae009000e8
:10398400e00f5000e08f580006003d001e0190003b
:10399400ae01900060011100e08119001207980047
:1039a400230798001e007800d0009000400090008b
:1039b4001e019000ae019000800f5100818f5900cc
:1039c40005003d001e0178006000b8002001980049
:1039d40031019800330037001e0078002003900066
:1039e400b00390001e00780020099000b0099000f8
:1039f4008600780002007800000ab8008334b8001a
:103a040005007800080040008711b800020040005b
:103a14008002780002712200030020000400be002e
:103a2400eaf207000005be001e0078006003900063
:103a3400f00390001e0078001001be00860078009c
:103a440002007800000ab8008334b800050078004a
:103a5400080040008711b80002004000800278008e
:103a6400823e2000030020000400be00d7f20700bd
:103a74000a0040008b8048001e0178002001980055
:103a84003101980080962800fcf907001e00780098
:103a9400b0009000200090000dfa07001e0078008e
:103aa4005a0007004f05be004f0478000080fa005a
:103ab400000006000000fa0062e6800073e6800061
:103ac40040e6800051e680000000510081805900ea
:103ad40080e6880091e68800c2e68000d3e6800094
:103ae400a0e68000b1e6800000005100818059000a
:103af400e0e68800f1e68800e2e68000f3e6800074
:103b040080e6800091e68000020140008381480045
:103b14006118b9004f08de000100200000004100d8
:103b2400818049008180d1000080d30010e58800a5
:103b340021e58800e2e68000f3e6800080e680006c
:103b440091e680000000510081805900e0e3880084
:103b5400f1e3880060e6800071e6800040e68800ba
:103b640051e68800c0e68000d1e68000a0e6880027
:103b7400b1e6880032e5800043e5800010e580006e
:103b840021e58000000051008180590030e5880063
:103b940041e5880002e4800013e48000e0e3800053
:103ba400f1e38000000051008180590000e48800a6
:103bb40011e488000080fa00000006000000fa000a
:103bc4008f010700bbff0700a0dcbf000004e0007a
:103bd40002003200c0c721005eff0700c6dcbf0040
:103be4000004e0000200320020ca210059ff07004f
:103bf40002e4800013e4800030e5800041e58000a9
:103c0400a80107000080fa00000006002200fa0064
:103c1400000f78001e007800b00090002000900093
:103c2400e00f5000e08f5800860032001e0078003c
:103c3400b000900020009000e00f5000e08f58008a
:103c440005003d000080eb008080eb00700f9800c1
:103c54000117980004003700120020000300200020
:103c6400720f9800031798001e007800001190004e
:103c740090119000520f9800630f98001e00780076
:103c8400b000900020009000300f9800410f980081
:103c94003e089000ce089000e00f5000e08f5800de
:103ca40006003d003e099000ce099000600111001d
:103cb400e0811900320f9800430f98005e089000cd
:103cc400ee089000100f9800210f98001e09900034
:103cd400ae0990003e089000ce089000800f51007d
:103ce400818f590004003d003e099000ce099000e8
:103cf400120f9800230f9800fe0890001e089000f1
:103d04000009b800fe0a90002e089000802ab8002e
:103d140003007800040040009e0890008e1290007a
:103d2400850ab80004004000800178001e00780075
:103d340022009800330098001e007800b000900024
:103d440020009000e00f5000e08f580005003d0077
:103d54000080eb008080eb0070079800010f980052
:103d640004003700120020000300200072079800ae
:103d7400030f98001e00780060099000f00990007d
:103d840052079800630798001e007800b000900066
:103d94002000900030079800410798003e009000f2
:103da400ce009000e00f5000e08f580006003d0068
:103db4003e019000ce01900060011100e0811900e5
:103dc40032079800430798005e009000ee009000d0
:103dd40010079800210798001e019000ae01900082
:103de4003e009000ce009000800f5100818f59005a
:103df400040034003e019000ce01900012079800a8
:103e040023079800fe0090001e0090000009b800ef
:103e1400fe0290002e009000802ab8000300780073
:103e2400040040009e0090008e0a9000850ab800ad
:103e340004004000800178001e00780022009800f1
:103e4400330098000080fa00000006000000fa0029
:103e5400204ea900208ea900202ea90040cea90042
:103e6400206ea90040eea900242ea90044cea9008a
:103e74008000eb0000c020000108780001c8200089
:103e840040c0200001087800a18ca900a16ca90001
:103e9400a14ca900a12ca900a10ca90000ca2000d2
:103ea40010407800f043b20001c8b3000140700034
:103eb40001ca200080487800a06ca900a02ca900a9
:103ec400a00ca900c00ca800a3eca800a3cca900d6
:103ed400a3aca90030ca20001040780080407800cc
:103ee400c140b30030ca200001487800a30ca900e7
:103ef400a22ca900a20ca800c3eca800c3cca90062
:103f0400c3aca90030cc2000104078008040780079
:103f1400c140b30030cc200001487800c30ca90094
:103f2400c22ca900c20ca8008000eb0060cc2000c9
:103f34000108780060cc20009000780060ca20005e
:103f44000108780044eea90040e420001040780005
:103f54000080fb004700de00614060004301dd009b
:103f640040e220009040780070cfb30000c06000b1
:103f74000240700041e220008048780001eca80073
:103f84000a000700f0ff2f00f1ff2700a0e68800d9
:103f9400b1e68800f0ff2f00f1ff270040e688001b
:103fa40051e688000080fa00000006000000fa00d4
:103fb400c06b20009040780000c8b30000c06000cf
:103fc40051c6b30001407000c16b200080487800e6
:103fd400d06b20009040780000c8b30000c060009f
:103fe40041c6b30001407000d16b200080487800c6
:103ff400006c20009040780000c8b30000c060004e
:10400400f1c4b30001407000016c200080487800c6
:10401400106c20009040780000c8b30000c060001d
:10402400e1c4b30001407000116c200080487800a6
:10403400c1e1a800c1a1a900101c20009040780093
:1040440030ceb30080c06000101c2000014878000e
:10405400101c200090407800c0cfb30080c06000e6
:10406400101c200001487800001c200090407800bb
:10407400f0c8b30080c06000001c20000148780034
:10408400c061a900c041a900001c20009040780034
:10409400c0cfb30080c06000001c2000014878003d
:1040a400c3e1a900c3c1a900301c200090407800de
:1040b40070ccb30080c06000301c20000148780040
:1040c400301c20009040780090cfb30080c0600086
:1040d400301c200001487800c301a900c2e1a900f6
:1040e400c2c1a900c2a1a900c281a900c581a900b9
:1040f400c541a900c501a900c4c1a900c1e5a80022
:10410400c1a5a900105c20009040780030ceb30017
:1041140080c06000105c200001487800105c200022
:1041240090407800c0cfb30080c06000105c2000d5
:1041340001487800005c200090407800f0c8b3008b
:1041440080c06000005c200001487800c065a800c1
:10415400c045a900005c200090407800c0cfb300a7
:1041640080c06000005c200001487800c3e5a9001d
:10417400c3c5a900305c20009040780070ccb30027
:1041840080c06000305c200001487800305c200072
:104194009040780090cfb30080c06000305c200075
:1041a40001487800c305a900c2e5a900c2c5a90059
:1041b400c2a5a900c285a900c585a900c545a90055
:1041c400c505a900c4c5a9008080eb00601c2000bf
:1041d40001087800f1ff2700801c20000108780006
:1041e4008080eb00605c200001087800f1ff27006c
:1041f400805c2000010878000080fa0000000600be
:104204001000fa00601c200010007800010020005b
:104214006007980071079800a01c20001000780027
:104224000100200040079800510798004e009000bc
:10423400de009000c001dd00020020006e0090004e
:10424400fe0090000000710081807100c0e68800cb
:10425400d1e68800605c2000100078000100200096
:104264002007980031079800a05c20001000780017
:1042740001002000008fbe001e00be00c001dd0052
:10428400020020002e009000be009000000071008b
:104294008180710060e6880071e688000080fa0081
:1042a400000006001a00fa00400798005107980021
:1042b40062079800730798004e019000de01900099
:1042c4006e009000fe0090000000510081805900b3
:1042d40020079800310798004e019000de019000fd
:1042e4006e009000fe009000001f410001974900fd
:1042f400242ea90044cea9000040eb00105f9800d2
:104304002e009000be009000e00f5000e08f580097
:104314000200350011c0b300115f98009e58900050
:1043240061c060004301dd0040e22000904078005d
:1043340070cfb30000c060000240700041e2200072
:10434400804878000040eb00005f98001e00be002b
:10435400e00f5000e08f58000200350011c0b30098
:10436400015f98000e589000c700dd0040e4200073
:10437400104078000074a1000140700041e4200066
:10438400804878002e009000be009000200f980016
:10439400310f98002e089000be089000e00f5000e6
:1043a400e08f580006003d002e089000be089000e3
:1043b40060001000e0801800200f9800310f980072
:1043c400ae08900060ca2000010878001e00be00fc
:1043d400000f9800110f98000e0890009e0890009e
:1043e400e00f5000e08f580006003d000e089000da
:1043f4009e08900060001000e0801800000f9800f4
:10440400110f98008e08900060cc200001087800fd
:104414000080fa00000006000200fa000040eb00f1
:10442400004f78000040eb00004f78000e0037008a
:104434001e00fb00e600b8008080e80000ce2100ea
:10444400008140006000b8000089be001e00fb002f
:10445400e601b80000ce21008000410010c0b30086
:10446400804878001e4fe80010c0b3009e4f100033
:10447400efff34000040eb00ecfcb7000040eb0021
:10448400edfcb700de0007000080fa000000060023
:104494000400fa00004f78001e00fb00e601b8009b
:1044a40000ce210000004100104078000004e0002c
:1044b40077003a001e01fb009e00fb0080052000ef
:1044c4008008b800e4004000c0bc21000080400027
:1044d4001000be00f611b800000041004200dd00eb
:1044e400e8004000c0bc21000080400010007800bb
:1044f400100798001e009000e20f500022003200c6
:104504001e009000e20f500007003e001e009000c5
:104514000000e0000e0032001e009000e10f500089
:1045240012003200b40037001e009000e40f500067
:10453400300032001e009000e40f500019003900d2
:104544001e009000e50f500048003200aa0037001a
:104554001e00fb00e601b80000ce210080004100ef
:1045640010c0b30080487800a30037001e00fb0091
:10457400e601b80000ce21008000410010c0b30065
:10458400804878009c0037001e00fb00e601b8005c
:1045940000ce21008000410010c0b30080487800a4
:1045a400950037001e02fb00e620b8008080e8007a
:1045b40000ce2100008040001000be0061014000d8
:1045c400e0814800e620b8008080e80000ce2100a9
:1045d400008040000288be001e00fb00e601b80017
:1045e40000ce21008000410010c0b3008048780054
:1045f400810037001e00fb00e601b80000ce210058
:104604008000410010c0b300804878001e00fb0009
:10461400e600b8008080e80000ce21000081400060
:104624006000b8000089be0010c0b300ecfcb70005
:104634001e00fb000000e800220020001100090019
:104644000200d8008000fd00e601b80000ce210081
:1046540000004100104078000004e00066003200d1
:104664000040eb00edfcb700630037001e00fb00c8
:10467400e601b80000ce21008000410010c0b30064
:10468400804878000040eb00ecfcb7005a0037008b
:104694001e01fb009e00fb00800520008008b8007e
:1046a400e4004000c0bc2100008040001000be00b7
:1046b400f611b800000041004200dd00ea004000ad
:1046c400c0bc210000804000104078000004e000dd
:1046d40009003a001e407800250107001e00fb0077
:1046e400e601b80000ce2100800041000040eb004c
:1046f4008048780040003700eddcbf000004e00093
:1047040031003200ecdcbf000004e00023003a007a
:104714001e00fb00e600b8008080e80000ce210007
:10472400008040001001be00400020000100200075
:10473400800f5100818f590009003a009e00fb0050
:10474400800520008009b800c0bc210000014100a0
:10475400e0002000010020000089be0008003700ae
:104764009e00fb00800520008009b800c0bc210029
:1047740000014100d0002000010020000089be009b
:104784001e00fb00e601b80000ce210080004100bd
:104794000040eb0080487800170037001e40780086
:1047a400f30007001e00fb00e601b80000ce210064
:1047b400800041000040eb00804878000040eb009e
:1047c400edfcb7000c0037001e407800ce00070057
:1047d4000004e00008003a001e407800e4000700ee
:1047e4001e00fb00e601b80000ce2100800041005d
:1047f4000040eb00804878000080fa0000000600ca
:104804000200fa006000b80080de880091de8800b3
:1048140080de800091de800060de880071de88002a
:104824006000b80040e1880051e1880040e1800068
:1048340051e1800020e1880031e188000040eb0074
:10484400004f78000040eb00004f78000300370071
:104854001e407800060007001e4fe80010c0b30099
:104864009e4f1000faff34000080fa00000006009a
:104874000400fa00204798002e4190008040eb008d
:10488400300020003b0007002e41900011c0b3000f
:104894000000eb00370007000040eb00004f7800f9
:1048a4000040eb00004f7800110037002e419000cb
:1048b4008040eb00200020002e0007002e419000d5
:1048c4008040eb00100020002a0007002e419000d9
:1048d4008040eb0030002000260007002e419000ad
:1048e40011c0b3000000eb00220007001e4fe800d7
:1048f40010c0b3009e4f1000ecff34002e41900016
:104904008040eb00200020001a0007002e41900098
:104914008040eb0010002000160007002e4190009c
:1049240011c0b30030002000120007002e41900097
:104934008040eb00100020000e0007002e41900084
:104944008040eb00200020000a0007002e41900068
:1049540011c0b30040002000060007002e41900063
:1049640011c0b30050002000020007000080fa00cc
:10497400000006000400fa00881f7800000f780089
:1049840021479800324798003e4090003e000700bf
:104994000004e00039003a003e4090000001fb00b2
:1049a4003e4090008000fb00800520008008b80095
:1049b400e4004000c0bc2100008040001000be00a4
:1049c400f611b800000041004200dd00e80040009c
:1049d400c0bc2100008040001e0878003e409000ca
:1049e4000001fb003e4090008000fb008005200099
:1049f4008008b800e4004000c0bc210000804000f2
:104a04001000be00f611b800000041004200dd00b5
:104a1400ea004000c0bc210000804000ae4090008d
:104a2400014878003e4090000004fb003e409000a6
:104a34008000fb00800520008008b800e4004000ee
:104a4400c0bc2100008040001000be006100400096
:104a5400e08048004201200003002000eaee070045
:104a64000001be00800520008040b800e400400042
:104a7400c0bc2100008040000288be004f047800c2
:104a84000080fa00000006000400fa00004f7800dd
:104a94009e00fb00800520008008b800e400400070
:104aa400c0bc2100008040001000be006100400036
:104ab400e08048004201200003002000d2ee0700fd
:104ac4000002be009e00fb00800520008009b800a3
:104ad400c0bc2100000041001000be00800f520045
:104ae400818f5a0003003a0010002000100798003c
:104af400020037000000eb00100798001e00900031
:104b04000080fa00000006000400fa00004f78005c
:104b14009e00fb00800520008008b800e4004000ef
:104b2400c0bc2100008040001002be009e00fb00bb
:104b3400800520008009b800c0bc210000004100ad
:104b44001000be00800f5200818f5a0003003a000b
:104b54001000200010079800020037000000eb004e
:104b6400100798001e0090000080fa000000060064
:104b74000200fa00881f7800004f78001e04fb0032
:104b84009e00fb00800520008009b800c0bc210005
:104b9400000041001000be0061004000e0804800b9
:104ba400420120000300200097ee07000002be002f
:104bb400800520008041b800c0bc210000004100f5
:104bc4000488be004f0478000080fa00000006004c
:104bd4000000fa006000b80080cb880091cb880008
:104be40080cb800091cb800060cb880071cb8800a3
:104bf40011fb07000080fa00000006000600fa001e
:104c0400000f780012079800230798001d00070082
:104c14000004e00019003a0080cb800091cb8000b2
:104c2400e600b800e8004000c09621000080400083
:104c34001e08780080cb800091cb8000e600b8008d
:104c4400ea004000c0962100008040001e01900050
:104c5400ae0190000288be0080cb800091cb800022
:104c640061004000e080480042062000030020006c
:104c740065ee070080cb880091cb88000080fa00a5
:104c8400000006000200fa0080cb800091cb800077
:104c940061004000e080480042062000030020003c
:104ca40059ee07000001be0060cb800071cb80008c
:104cb400800f5100818f590003003a00100020003a
:104cc400000f7800020037000000eb00000f7800ae
:104cd4001e0078000080fa00000006000200fa00be
:104ce40082cb800093cb800060cb800071cb8000ae
:104cf400800f5100818f590003003a0010002000fa
:104d0400000f7800020037000000eb00000f78006d
:104d14001e0078000080fa00000006000200fa007d
:104d240060cb800071cb800061004000e0804800cf
:104d3400420620000300200033ee070060cb880009
:104d440071cb8800e5ff07000004e00039003a0059
:104d540060cb800071cb8000e600b800e800400022
:104d6400c09621000080400010007800000f7800f9
:104d74001e0078000000e000040032001e007800ed
:104d8400e10f5000190032002a0037000040eb0008
:104d9400a0fcb70010c0b300c6fcb70060cb800015
:104da40071cb8000e600b800ea004000c096210004
:104db400008040001002be0084007800904420006f
:104dc4000008b800e023b8000101780006014100a2
:104dd40093442000832ab800040141008200780033
:104de40030e5880041e588001200370010c0b300a8
:104df400a0fcb7000040eb00c6fcb70060cb80000d
:104e040071cb8000e600b800ea004000c0962100a3
:104e1400008040001000be001dee0700d26f2f007e
:104e2400236424009dee070079ee070000e4880067
:104e340011e488000080fa00000006000200fa0075
:104e440060cb800071cb8000e600b800e800400031
:104e5400c09621000080400010007800000f780008
:104e64001e0078000000e000040032009e0078007c
:104e7400e18f5000180032002d00370030e580002b
:104e840041e58000e00f5000e08f580028003a0010
:104e94006f02b000a0fd2f000080470021ca21004e
:104ea40012000900311878006002b1006f02b000ee
:104eb400a0fd2f0000804700c1c721001200090097
:104ec400311878006002b10094ff070040fb2f0006
:104ed400808747001600370000e4800011e480005a
:104ee400e00f5000e08f580011003a006f02b0004c
:104ef400a0fd2f000080470021ca210012000900f4
:104f0400311878006002b1006f02b000a0fd2f00dc
:104f140000804700c1c72100120009003118780041
:104f24006002b1007dff070040fb2f00808747002f
:104f34000080fa00000006000000fa00406c200027
:104f44009040780000c8b30000c06000c1c6b30040
:104f540001407000416c2000804878008069200086
:104f64009040780000ccb30000c060000004a000b2
:104f7400816920008048780021e2a90020a2a900cc
:104f8400002220009040780090cfb30080c06000e1
:104f940000222000014878002002a9002062a90014
:104fa400f10c20008022200001087800202220003b
:104fb40010407800f2c3b300824060002022200039
:104fc400014878000168a9002168a80050842000e5
:104fd40090407800f0c8b30000c0600001c6b30080
:104fe4000140700051842000804878002188a90085
:104ff40021e2a8002342a8000080fa000000060075
:105004000000fa0020222000104078006140600077
:105014000004e000fbff3200602220001000780052
:105024000080fb000080fa00000006000200fa0085
:10503400004f780030222000104078006240600069
:105044000004e000fbff3a009e80fb0040222000a9
:10505400010878000080fa00000006000000fa0051
:105064003022200010407800614060000004e0001d
:10507400fbff32000080fa00000006003600f80052
:10508400809fbe00829fbe00849fbe00869fbe009c
:105094003200f80000202000900188000000000089
:1050a4000200fa00202220001040780062406000d4
:1050b4000004e000010032002222a900d0ff070012
:1050c400004f78001e40780002fdb7000168a90077
:1050d4000080fa003200f9004f03be004f02be0008
:1050e4004f01be004f00be003600f900004006002c
:1050f4000000fa000000eb001ff707000040220048
:10510400410f2000d4ec070040e320001040780059
:105114000080fb004600de006140600000c0ea0041
:1051240061406000614060004601dd0040e3200012
:1051340090407800f0cbb30000c0600002407000e3
:1051440041e32000804878002ff5070000402d003f
:1051540001032000c0ec0700ebff37003600f80025
:10516400809fbe00829fbe00849fbe00869fbe00bb
:105174003200f800002020009001880000000000a8
:105184000200fa0000ddbf000000fb00000f780001
:105194001e007800e80f500009003e0010002000b7
:1051a4001e0178008200dd005015200000806000a0
:1051b4000000e00001003a00010037007ffa070018
:1051c40000ddbf000000fb000000e800a20020009a
:1051d400110009000200d8008000fd0000fdb700a6
:1051e40000e8a9000080fa003200f9004f03be0075
:1051f4004f02be004f01be004f00be003600f90052
:1052040000400600809fbe003200f800002020000d
:1052140090018800000000000000fa008000eb000c
:1052240060ca2000010878008000eb0060cc2000f8
:1052340001087800242ea80044cea80011e1a9009a
:105244008000eb0060102000010878000608a90027
:105254000080fa003200f9004f00be000040060052
:020000040000fa
:105264007c1c00004c00000080000000fa1c0000c0
:105274000600000080000000ee1c00000c0000008e
:1052840080000000001d00000200000082000000f9
:1052940000000000c81c000018000000800000008e
:1052a400021d000002000000800000006c190000d4
:1052b4006002000080000000e01c00000e000000fe
:1052c40080000000cc1b0000b00000008000000043
:1052d400041d000002000000800000000010000017
:1052e4006c09000080000000061d000002000000a0
:0852f400800000000000000032
:020000040000fa
:1052fc000000fa000040eb0004fdb70010c0b30042
:10530c0005fdb7000080fa00000006000000fa005e
:10531c0004ddbf000004e0000a00320005ddbf0020
:10532c000004e000030032000040eb0005fdb70074
:10533c00040037000040eb0004fdb70010c0b300c0
:10534c0005fdb7000080fa00000006000000fa001e
:10535c000080fa00000006000000fa000080fa004d
:10536c00000006000000fa000080fa0000000600b1
:00000001FF
