:020000040000fa
:080000000018040000000000dc
:020000040000fa
:10000800321900003a190000641900004219000072
:1000180058190000601900006819000060190000f4
:1000280060190000601900006019000060190000e4
:10003800601900006019000060190000928d00002e
:10004800e47b000060190000601900002c7c0000af
:1000580060190000601900006019000060190000b4
:1000680060190000601900006019000060190000a4
:100078006019000060190000601900006019000094
:100088006019000060190000601900006019000084
:1000980064920000b67b000060190000601900003f
:1000a8006019000060190000601900006019000064
:1000b8006019000060190000601900006019000054
:1000c8006019000060190000601900006019000044
:1000d8006019000060190000601900006019000034
:1000e800087c000060190000601900006019000019
:1000f8006019000060190000601900006019000014
:100108006019000060190000601900006019000003
:1001180060190000601900006019000060190000f3
:1001280060190000601900006019000060190000e3
:1001380060190000601900006019000060190000d3
:1001480060190000601900006019000060190000c3
:1001580060190000601900006019000060190000b3
:100168006019000060190000ec8e000060190000a2
:100178006019000060190000601900006019000093
:100188006019000060190000601900006019000083
:100198006019000060190000601900006019000073
:1001a8006019000060190000601900006019000063
:1001b8006019000060190000601900006019000053
:1001c8006019000060190000601900006019000043
:1001d8006019000060190000601900006019000033
:1001e8006019000060190000601900006019000023
:1001f8006019000060190000601900006019000013
:100208006019000060190000601900006019000002
:1002180060190000601900006019000060190000f2
:1002280060190000601900006019000060190000e2
:1002380060190000601900006019000060190000d2
:1002480060190000601900006019000060190000c2
:1002580060190000601900006019000060190000b2
:020000040000fa
:1004000050610000636b0000657400003a2000003a
:10041000257500002c200000257500002c20000010
:10042000257500002c200000257500000a00000042
:100430004149000020520000656700006973000018
:100440007465000072200000506f000073690000a6
:10045000746900006f6e0000004100004920000038
:10046000496e0000697400000053000074650000cc
:10047000702000003100000053740000657000001f
:10048000203200000053000074650000702000005e
:100490003300000053740000657000002034000039
:1004a0000041000049200000536500007175000004
:1004b000656e00006365000020530000696d000058
:1004c000706c0000652000005265000064000000b0
:1004d000467200006571000075650000004600006e
:1004e00072650000737100007565000020620000f5
:1004f000697300000041000049200000736500009e
:1005000071750000656e00006365000020660000e4
:10051000696e00006973000068650000642e0000c9
:100520000a000000414900002053000065710000ee
:10053000756500006e6300006520000053690000cf
:100540006d7000006c65000020590000656c0000b3
:100550006c6f00007700000041490000205300004c
:1005600065710000756500006e6300006520000085
:1005700054680000726f0000772000005965000089
:100580006c6c00006f77000000570000616900008c
:10059000746900006e670000206600006f72000042
:1005a000204a0000616300006b210000004700004a
:1005b0006f00000046720000657300007175000056
:1005c0006500000053700000656100007273000058
:1005d00000410000492000005365000071750000d3
:1005e000656e000063650000205400006872000022
:1005f0006f77000020520000656400000041000099
:10060000492000005374000061720000746900000a
:100610006e670000205000006c6100006365000000
:100620006d6500006e74000000430000616c000006
:10063000696200002059000000430000616c000066
:1006400069620000205800000041000049200000bd
:1006500052650000666900006c6c0000696e000065
:100660006720000073700000656100007273000075
:1006700020740000687200006f770000657200004f
:100680007300000052650000666900006c6c000099
:1006900020330000206c000065660000740000003c
:1006a00052650000666900006c6c00002033000099
:1006b00020720000696700006874000000520000aa
:1006c00065660000696c00006c20000031200000ad
:1006d000726900006768000074000000416c00004f
:1006e0006c200000686f00006c6400000041000096
:1006f00049200000506c0000616e000020250000c1
:1007000075200000736500006c65000063740000d4
:10071000656400000a000000446500006661000096
:10072000756c000074200000706c0000616e0000a9
:1007300020730000656c00006563000074650000b4
:10074000640a000000590000656c00006c6f000036
:100750007700000052650000640000002074000073
:10076000656100006d200000736500006c6500008d
:1007700063740000656400002e0a0000004600005b
:1007800061740000616c000020650000727200005e
:100790006f720000206900006e2000006169000097
:1007a000436100006c6c0000467500006e63000041
:1007b000746900006f6e00002021000000460000f8
:1007c00061740000616c000020650000727200001e
:1007d0006f720000206900006e2000006169000057
:1007e0005570000064610000746500003a2000004c
:1007f0006e6f0000206300007572000072650000db
:100800006e740000207300007461000074650000c5
:1008100020210000000a00000000000053740000c6
:1008200061720000746900006e6700002e2e0000e7
:100830002e0a00000054000065730000743a0000a6
:100840002025000075200000257500000a0000002a
:10085000436f00006e66000069670000757200005b
:1008600061740000696f00006e2000007361000079
:1008700076650000642100000a0000005368000053
:1008800075740000746900006e6700002044000069
:100890006f7700006e210000000a00002d2d00007f
:1008a0002d200000476100006c6900002056000008
:1008b00049490000202d00002d2d00000a420000b3
:1008c0006f6f0000746900006e6700002e2e00003c
:1008d0002e0a000000450000727200006f720000d6
:1008e000206900006e200000647900006e61000045
:1008f0006d690000786500006c200000696e0000e2
:1009000069740000696100006c6900007361000097
:10091000746900006f6e00000a000000496e00005c
:1009200069740000696100006c6900007361000077
:10093000746900006f6e0000206400006f6e00009c
:10094000652100000a000000536800006172000089
:10095000707300003a2000000020000025340000e1
:10096000750000000a00000041580000313200000c
:10097000204900004420000054650000737400000a
:100980000a0000004944000020250000643a0000ed
:1009900020250000640a0000005700006169000083
:1009a000746900006e670000206600006f7200002e
:1009b0002025000075200000757300002e2e000019
:1009c0002e200000004f00004b0a00000000000035
:1009d00045720000726f0000723a0000206900004a
:1009e0006e760000616c00006964000020730000f6
:1009f0007461000074650000206900006e20000032
:100a0000636f00006e740000726f00006c6c000079
:100a1000657200002e20000053770000697400000a
:100a200063680000696e000067200000746f0000ba
:100a3000205000006f73000069740000696f0000af
:100a40006e200000436f00006e740000726f0000a3
:100a50006c2100000a000000436f00006e7400006b
:100a6000726f00006c6c0000657200003a2000009c
:100a7000737400006174000065200000636800006a
:100a8000616e00006765000064200000746f000064
:100a900020000000506f00007369000074690000be
:100aa0006f6e0000204300006f6e00007472000043
:100ab0006f6c00000a0000005370000065650000c4
:100ac00064200000436f00006e740000726f00002d
:100ad0006c0a000000420000726100006b690000b7
:100ae0006e6700000a000000436100006c690000ae
:100af0006272000061740000696f00006e0a0000fd
:100b0000004900006e760000616c0000696400001e
:100b10002053000074610000746500000a000000aa
:100b2000506f0000732000003a28000025310000bb
:100b30002e33000066200000253100002e33000017
:100b400066200000253100002e33000066290000d9
:100b5000200000004f6200006a2000003a280000d8
:100b6000253100002e3300006620000025310000f2
:100b70002e33000066200000253100002e330000d7
:100b80006629000020000000202000002020000036
:100b90007374000061740000652d00003e6e00005b
:100ba00065780000745f00006f6e00005f730000e6
:100bb000756300006365000073730000203d000052
:100bc000206100006953000074610000746500003a
:100bd000476f0000746f0000282500006666000063
:100be0002c20000025660000662c00002025000057
:100bf00066660000293b00000a200000202000005b
:100c0000207300007461000074650000203d000046
:100c10002073000074610000746500002d3e000028
:100c20006e650000787400005f6f00006e5f00006a
:100c3000737500006363000065730000733b000080
:100c40000a0a0000000000004d6100006d6d000008
:100c50006f6f000074680000203100002047000022
:100c60006f7400006f0000004d6100006d6d0000aa
:100c70006f6f000074680000203200002047000001
:100c80006f7400006f0000004d6100006d6d00008a
:100c90006f6f00007468000073200000536500004f
:100ca00071750000656e000063650000206600003d
:100cb000696e00006973000068650000640a000046
:100cc000004d0000616d00006d6f00006f7400004a
:100cd000682000003120000054680000726f00009e
:100ce0007720000028310000737400002900000004
:100cf0004d6100006d6d00006f6f000074680000b2
:100d00002031000020540000687200006f7700005e
:100d100020280000326e000064290000004d000011
:100d2000616d00006d6f00006f74000068200000ae
:100d30003120000054680000726f0000770000004e
:100d40004d6100006d6d00006f6f00007468000061
:100d50002032000020540000687200006f7700000d
:100d6000000000004672000065730000636f000021
:100d70002053000065710000756500006e6300007f
:100d800065200000466900006e690000736800007d
:100d9000656400000a0000004672000065730000f0
:100da000636f0000204e000061760000706f00004d
:100db000696e000074200000476f0000746f00002f
:100dc0000046000072650000736300006f200000a1
:100dd0004d6f000076650000204200006163000056
:100de0006b77000061720000647300000000000077
:100df000426100006c6c0000732000005468000029
:100e0000726f0000776500007220000053740000cc
:100e100061740000650000004c6100007465000012
:100e2000726100006c200000486f00006f6b0000d2
:100e3000004d00006f760000696e00006720000022
:100e4000417200006d000000000000000000000082
:100e5000000000000000000000000000e21100009f
:100e60000937000028290000b03800000000000009
:100e70000000000000000000000000000000000072
:100e8000e21100000937000028290000b0380000f6
:100e9000456e0000636f0000646500007220000072
:100ea000723a000025640000206c00003a25000022
:080eb0006420000000000000b6
:020000040000fa
:100eb8001c6c00000cf70000476b0000cc0c000015
:100ec800dbaa0000aaea00000000000000400000c1
:100ed800000000000000000000000000e4d700004f
:100ee8006d7d0000fdff0000159c0000b17600003c
:100ef800feff00008c3e00005e520000ffff000075
:100f080051ed000087640000ffff00005ef1000063
:100f1800b1720000ffff00004a2f0000cc7d0000e6
:100f2800ffff00004b860000db46000000000000c9
:100f3800ad5d0000f04f00000000000054320000da
:100f4800da5400000000000054cc0000e55700000f
:100f5800000000008e210000f6590000000000008b
:100f6800ee150000735b000000000000aa7e000080
:100f7800925c00000000000051ed00008764000052
:100f88000000000069840000d1420000deff00007c
:100f980051ed000087640000010000006984000032
:100fa800d1420000dfff0000fcf10000654b0000ab
:100fb8000200000069a4000043660000e3ff00008f
:100fc80051ed000087640000020000006984000001
:100fd800d1420000e0ff0000a5e80000a97d000064
:100fe8000200000060790000e1540000e2ff000008
:100ff800fcf10000654b00000300000069a400003c
:1010080043660000e4ff000010100000111100000a
:10101800121200001313000013140000141500002e
:101028001515000016160000161700001717000007
:101038001818000018190000191900001a1a0000e1
:101048001a1b00001b1b00001b1c00001c1c0000be
:101058001d1d00001d1d00001e1e00001e1e00009c
:101068001f1f00001f1f0000690b00000000000088
:10107800ddbf0000fcff000085880000880000003c
:101088005555000055f50000000000000040000024
:101098006e66000000000000503f0000e9ff0000fd
:1010a8008aaa0000aa0200000100000000e0000077
:0810b8000000000000400000f0
:020000040000fa
:1010c0000800fa0020079800310798003e029000bf
:1010d0000402e800cfa2de000400be0016090700eb
:1010e0000002be000401be0000402200419f240017
:1010f0006c0e07000002be00048fbe001e01be0081
:101100002e009000fd40070000027800e00f520022
:1011100002003a000002eb00050037001400200036
:1011200004e288000002eb00c4cf88001400200015
:10113000040078000080fa00000006000000fa00b9
:101140003c4107000080fa00000006000400fa009d
:101150000042eb0014479800c4cf8000e10f52001a
:101160007f00320014002000c4cf88003591210098
:101170009542780084c9b30084cf52000500360040
:101180004400200004e288000002eb00c4cf880085
:10119000740037004491210014427800e14f52005e
:1011a0001e0032004491210014427800e24f5200a8
:1011b0001a0032004491210014427800e34f52009b
:1011c000160032004491210014427800e44f52008e
:1011d000120032004491210014427800e54f520081
:1011e0000e0032004491210014427800e64f520074
:1011f0000a003200459121009542780034c8b300be
:1012000084cf5200050032004400200004e2880030
:101210000002eb00c4cf88005200370000c2eb0090
:101220000002fd0010f9b7000002fd0000c2eb0053
:101230000002fd0011f9b7000002fd000042eb00c2
:10124000044f78000a0037009e4278000582fb00b8
:101250008482e80004912100048242001442780054
:101260009e42900004c24200144798001e4fe800be
:101270001e4278008482fb003491210014427800e1
:101280000482fb000402e800848f5200eeff350068
:1012900034912100144278000482fb006303420071
:1012a0001e42900004c2ea0005912100850243001d
:1012b000844a780004e28000e60f52000300320006
:1012c00004e28000e70f520001003a00dd40070011
:1012d000349121001442780064424200244798006f
:1012e0002e4290000482fb008400780000912100cf
:1012f000d74007000002780034479800ae429000c3
:101300003e42900084cf52000500320024002000ad
:1013100004e288000002eb00c4cf8800110037000f
:101320004491210014427800e24f520007003a0035
:1013300064912100144278000482fb00660242009e
:101340000400780007410700020037006000200019
:10135000044107000002eb0004e2880001003700ae
:10136000000000000080fa00000006000400fa00ff
:101370000042eb0024479800c4cf8000e00f5200e9
:10138000010132002491210014427800e24f420012
:1013900005003a001400200004e288000002eb007f
:1013a000c4cf8800f900370004e28000e00f52004b
:1013b00006003a000042eb0004007800f7f9b7009d
:1013c00064c0b30004007800f6f9b700649f210000
:1013d000144278008482fb00749f2100144278003c
:1013e0000482fb0084825200749f21001442780022
:1013f0000483fb00049b2100040243008500780065
:1014000004007800af4007000002780034479800dd
:10141000759f2100954278003e42900004c2420030
:101420000002fd00f7f9b7000002fd00759f2100e2
:1014300095427800649f21001442780084cf5200c6
:1014400010003100ce40070000027800e10f52008a
:101450000c003a00749f210014427800e04f5200c3
:1014600003003a006400200004e288000200370014
:101470007400200004e288000002eb00c4cf880062
:10148000c20037000042eb00044f78002100370013
:101490001e4278008482fb00049b210004824200eb
:1014a00014427800e14f420008003a009e42780062
:1014b0000582fb008402e800049b210004824200b4
:1014c00014427800e14f42001c0032009e43780035
:1014d0008782fb00749f2100144278000482fb0085
:1014e0000482e900848f520009003a00749f2100b1
:1014f000144278000482fb008402e900049b21006e
:101500000482420014427800e14f42000a00320097
:101510001e4fe8001e4278008482fb00749f210069
:10152000144278000482fb000402e900848f520018
:10153000d7ff350001003700000000001e42780090
:10154000e04f5200230032000042eb0014479800a5
:10155000100037001e4290000483fb001e429000e2
:101560008482fb009e4378000782fb008482420055
:10157000049b21000482420014427800059b210054
:1015800085024300844a78001e4290000442e8002d
:10159000144798001e4290008482fb00749f210033
:1015a000144278000483fb009e4378000782fb000e
:1015b00004025300848f5200e6ff3500749f21001f
:1015c000144278001e4252000002fd00f7f9b700f5
:1015d0000002fd00759f210095427800649f210064
:1015e0001442780084cf52000300310054002000e0
:1015f00004e28800650037002591210095427800bb
:10160000249b21001442780084cf52000500320050
:101610007400200004e288000002eb00c4cf8800c0
:101620005a003700349b2100144278006442420083
:101630000002fd00f6f9b7000002fd00759f2100d1
:1016400095427800649f21001442780084cf5200b4
:1016500021003100649f2100144278008482fb0045
:10166000749f2100144278000482fb00848252009f
:10167000749f2100144278000483fb00049b210026
:101680000402430085007800040078000d40070044
:101690000002780034479800759f21009542780039
:1016a0003e42900004c242000002fd00f7f9b7007c
:1016b0000002fd00759f210095427800649f210083
:1016c0001442780084cf52000300310054002000ff
:1016d00004e288002d0037000042eb00044f780040
:1016e0000a0037009e4278000582fb008482e800f1
:1016f000049b21000482420014427800ae42900014
:1017000004c24200244798001e4fe8009e43780020
:101710008782fb00349b2100144278000482fb0086
:101720000402e800848f5200eeff35002e42900044
:101730000482ea0024479800349b21001442780078
:101740000482fb00e3024200049b21000482420069
:10175000944278002e42900084cf5200050032005f
:101760007400200004e288000002eb00c4cf88006f
:10177000060037001400200004e288000002eb009d
:10178000c4cf880001003700000000000080fa008c
:10179000000006000000fa006cfe070004e2800072
:1017a000e00f520005003a00f0fe070004e280005e
:1017b000e50f5200fcff320001003700000000007e
:1017c0000080fa00000006000000fa0004e2800039
:1017d000040078000080fa00000006000200fa0011
:1017e000000f78001e0278000442780004007800a0
:1017f00012f9b7000080fa00000006000200fa00ab
:10180000000f78001e02780004427800040078007f
:1018100014f9b7000080fa00000006000400fa0086
:10182000000f7800110798001e027800650342003f
:101830001e029000044278000591210085024300b9
:10184000844a78000080fa00000006000200fa00d6
:10185000000f78001e02780004427800040078002f
:1018600013f9b7000080fa00000006000200fa0039
:10187000000f7800459b2100954278001e027800f9
:101880000442780004c26200e04f520002003200bd
:1018900014002000010037000002eb000400780073
:1018a0000080fa00000006000000fa00349b2100ce
:1018b000144278000482fb00040078000080fa00e3
:1018c000000006000200fa00000f78001e027800f7
:1018d000e5024200049b2100048242001442780089
:1018e0000482fb00040078000080fa00000006007b
:1018f0000600fa0010079800210798002e029000b9
:10190000040f78001e0278004822dd00040f7800e2
:101910001e0290001e0f42001e0278000400780094
:101920000080fa00000006000400fa00100798008a
:101930009e029000f40f2000048f62001e027800c7
:10194000040078000080fa00000006000400fa009d
:10195000100798009e02900004f02f00048f620090
:101960001e0278004822de00040f78001e02780074
:10197000040078000080fa00000006000200fa006f
:10198000000f780000000000c4cf8000e00f52007c
:10199000fdff3a001e027800044278000002fd00bc
:1019a00012f9b7000002fd0014c0b3000002fd00f0
:1019b00014f9b7000002fd0024c0b3000002fd00ce
:1019c00013f9b7000002fd0072ff07000080fa0063
:1019d000000006000400fa00000f780011079800cc
:1019e00000000000c4cf8000e00f5200fdff3a006d
:1019f0001e027800044278000002fd0012f9b700d0
:101a00000002fd0024c0b3000002fd0014f9b7007d
:101a10000002fd001e029000044278000002fd005a
:101a200015f9b7000002fd0014c0b3000002fd006c
:101a300016f9b7000002fd0044c0b3000002fd002b
:101a400013f9b7000002fd0052ff0700549b21006c
:101a5000144278000482fb00040078000080fa0041
:101a6000000006000600fa00000f78001107980039
:101a70002207980000000000c4cf8000e00f520051
:101a8000fdff3a001e027800044278000002fd00cb
:101a900012f9b7000002fd0034c0b3000002fd00df
:101aa00014f9b7000002fd001e0290000442780005
:101ab0000002fd0015f9b7000002fd002e029000a3
:101ac000044278000002fd0016f9b7000002fd0094
:101ad00044c0b3000002fd0013f9b7000002fd008e
:101ae0002cff07000080fa00000006000400fa0046
:101af000000f78001107980000000000c4cf80009c
:101b0000e00f5200fdff3a001e0278000442780008
:101b10000002fd0012f9b7000002fd0024c0b3006e
:101b20000002fd0014f9b7000002fd001e02900043
:101b3000044278000002fd0015f9b7000002fd0024
:101b400024c0b3000002fd0016f9b7000002fd003a
:101b500044c0b3000002fd0013f9b7000002fd000d
:101b60000cff0700649b2100144278008482fb0074
:101b7000549b2100144278000482fb008500780009
:101b8000040078005aff0700000278000400780083
:101b90000080fa00000006000600fa00000f78003e
:101ba000110798002207980000000000c4cf8000b1
:101bb000e00f5200fdff3a001e0278000442780058
:101bc0000400780012f9b70034c0b30004007800b4
:101bd00014f9b7001e029000044278000400780057
:101be00015f9b7002e0090004fff070000027800a3
:101bf000044278000400780016f9b7002e00900027
:101c000052ff070000027800044278000002fd0045
:101c100017f9b7000002fd0054c0b3000002fd0038
:101c200013f9b7000002fd00dafe07000080fa0099
:041c300000000600aa
:020000040000fa
:101c34000000fa00c1e1a800c1a1a900040e8000bf
:101c440004a0a10004b0a10004c0a100040e8800f7
:101c5400040e80000480a1000490a100040e8800fa
:101c6400040e80000440a1000450a1000460a100ff
:101c7400040e8800c061a800c041a900040e8000c1
:101c84000400a1000410a100040e8800c3e1a9000f
:101c9400c3c1a900140e800004b0a10004c0a100b7
:101ca40004d0a100140e8800140e80000490a1003a
:101cb40004a0a100140e8800c301a900c2e1a90078
:101cc400c2c1a900c2a1a900c281a900c581a900fd
:101cd400c541a900c501a900c4c1a900c1e5a80066
:101ce400c1a5a900042e800004a0a10004b0a10095
:101cf40004c0a100042e8800042e80000480a100ea
:101d04000490a100042e8800042e80000440a10049
:101d14000450a1000460a100042e8800c065a9003d
:101d2400c045a900042e80000400a1000410a100f5
:101d3400042e8800c3e5a900c3c5a900142e8000a1
:101d440004b0a10004c0a10004d0a100142e880096
:101d5400142e80000490a10004a0a100142e880079
:101d6400c305a900c2e5a900c2c5a900c2a5a9006e
:101d7400c285a900c585a900c545a900c505a90056
:101d8400c4c5a9000082eb00340e88000002eb00f9
:101d9400440e88000082eb00342e88000002eb0021
:101da400442e88000080fa00000006001000fa00ab
:101db400340e800005002000048fbe00540e800005
:101dc4000500200024079800350798002e02900093
:101dd400be029000c022dd00040020003e03720019
:101de400ae8372000602be0084de880095de8800a1
:101df40084de800095de80000403780064de8000c9
:101e040075de80000402780004025300a4de88001a
:101e140084de800095de800064de880075de880044
:101e2400342e8000050020004407980055079800d0
:101e3400542e800005002000640798007507980060
:101e44006e029000fe029000c023dd000600200018
:101e54004e029000de02900004027300858273003b
:101e640014df880025df880014df800025df800070
:101e740004037800f4de800005df800004027800ab
:101e84000402530034df880014df800025df800063
:101e9400f4de880005df88000080fa0000000600f8
:101ea4000000fa0035df8000a4de8000851f780082
:101eb400841f780084742800841f7800b73f0700cb
:101ec400e68757000080fa00000006000000fa00d0
:101ed400889fbe00a4de8000cfa2de000400be0006
:101ee400940507000003be00b4de8000c5de800058
:101ef4000401be000600be00ff0807000002be0089
:101f04000404be0034df8000cfa2de000400be0063
:101f1400880507000003be0044df800055df800011
:101f24000401be000600be00f30807000002be0064
:101f34000401be000800be000a0807000002be003b
:101f440002002000030024000400be00d40a07009d
:101f54000002be000400be004f04be000080fa0070
:101f6400000006000000fa00889fbe00a4de800086
:101f7400cfa2de000400be006e0507000003be0011
:101f8400d4de8000e5de80000401be000600be0051
:101f9400d90807000002be000404be0034df80003c
:101fa400cfa2de000400be00620507000003be00ed
:101fb40064df800075df80000401be000600be00ff
:101fc400cd0807000002be000401be000800be00e8
:101fd400db0707000002be0002002000030024000b
:101fe4000400be00ae0a07000002be000400be00ea
:0c1ff4004f04be000080fa000000060050
:020000040000fa
:1020000000000000000000000000000000000000d0
:1020100000000000000000000000000000000000c0
:1020200000000000000000000000000000000000b0
:1020300000000000000000000000000000000000a0
:020000040000fa
:020000040000fa
:103000000f5c24000eff27000e0188000000000066
:10301000000020000000e00002003200000120005b
:10302000200288000c00070000402800010020005a
:103030000f000700000020000000e0000200320046
:1030400000000200000000001c79020000000000e7
:103050000040da000000fe00c05520000000e00043
:1030600002003200002020009001880000000600cd
:10307000a1028800800078000000eb001a003700f1
:10308000e280400054a0b4009101ba00e280400008
:1030900054a0b4009102ba00e280400054a0b400f1
:1030a0000002eb00472bde00f507b200a601880006
:1030b000602ce10008003a000049eb000201e80042
:1030c000020039003420ec0002f0a0008301e90086
:1030d000f9ff3e00040037006128e10001003200e2
:1030e0000082eb00040007001101ba000200e000ba
:1030f000e3ff3a000000060004d0a300e20f4900fd
:103100001c003900810278003549ba000201e8004c
:10311000020039003420ec0002f0a0008301e90035
:103120000f0032002549ba000201e8000200390010
:103130003420ec0002f0a0008301e9000800320016
:103140000400e0000600320015c9ba000201e800e0
:10315000020039003420ec0002f0a0008301e900f5
:103160008180e80054a0b4000300e000e2ff3a00d0
:10317000000006009102ba00055978008301e900b9
:10318000f7ff3200c82ade00055978008301e90004
:10319000f3ff32000400e000f1ff320011d9ba0061
:1031a000eeff37005451040000000000905104006d
:1031b00000000000f851040000000000a6520400c6
:1031c000000000004a53040000000000cc5304003b
:1031d00000000000e2530400000000004854040016
:1031e000000000005e5404000000000006520400cd
:1031f00000000000505204000000000028520400ab
:10320000000000001c540400000000002e540400c4
:10321000000000006c51040000000000547c040019
:10322000000000007a7c0400000000001a7d040009
:1032300000000000c07d040000000000d27d0400fa
:1032400000000000187e0400000000002a7e040038
:1032500000000000947e040000000000a67e040030
:1032600000000000801f78000000fa00c028a900bc
:10327000ffff3700801f78000000fa00c068a90037
:10328000ffff37003600f800809fbe00829fbe001f
:10329000849fbe00869fbe000000fa00c048a900bf
:1032a00011c0b30070c0b30041340700ffff370006
:1032b000801f78000000fa00c088a900ffff3700d7
:1032c0000000fa00ffff37000000fa00ffff3700a0
:1032d0000000fa00ffff37000a00fa00e20f50007a
:1032e00022003e0064f58000e10f5200060032002b
:1032f00087232000462320002423200005232000cc
:10330000e08f530004003a0087222000462220006c
:103310002422200005222000000028001500600063
:1033200003003a00800b780007002800958a73009c
:10333000054020009482620001003a0014a0a00021
:103340008202780006003700940378000710b2006c
:10335000fdff3200b103fb00070b78008502e90096
:10336000e08f5200f8ff3a000800370034002000d8
:103370001007980032079800040f78002107980082
:103380000e007800351707003e019000020078001b
:103390000080fa00000006000000fa00889fbe00ce
:1033a0008004780070f58000e00f500004003a00bf
:1033b0000f0007000084eb00e00f5000080035000c
:1033c00078f58000e08f54000500320009004400c9
:1033d00007000700e00f500001003d000084eb00f3
:1033e000080078004f04be000080fa0000000600cc
:1033f0000000fa00e00f500004003a0004eb210046
:1034000074f5880000027800060037000082eb00a7
:10341000055c2400850f500002003e0070f5880016
:103420000002eb00040078000080fa0000000600b3
:10343000889fbe008a9fbe008c1f7800d1000700c5
:103440001002200002003b0020e28800d500370077
:103450008a0062006408e10002003a0020e288006d
:10346000dd0037006108e100fcff32000800be000b
:10347000030478008b05070001f0a1002504070074
:1034800008f0a600040037000001be0091042400eb
:10349000b0fd2000ab02070009f0a70001f0a20078
:1034a000c900370014002000cd083700f4ff2f00ba
:1034b000cb0837000001be009d0007000470a70084
:1034c00003f0a1006509b100160032000d003500bf
:1034d0006828e10006003500f0ff2f00f1ff27000b
:1034e0000300e00013003b0001002800000005007d
:1034f00000004000818048008502e900fcff3a009e
:1035000008003700f88f420002003c008000eb000a
:10351000000005008100d1000080d3008502e80092
:10352000fcff3a000300e00002003b0060001000d6
:10353000e0801800000006004f89de00820178005c
:10354000c20837006011b800d0083700040020001e
:1035500000003700889fbe008a9fbe008c1f780045
:103560004f26dd00870007008e0033006120e10058
:10357000430032006250e10041003e003e0039004d
:103580006420e1003c003200058255000f003b0042
:103590000402e80038003a00800f5300818f5b007e
:1035a000350034000800be0003f0a10001f0a600c1
:1035b00003f0a0000cf0a7006b02070082003700a8
:1035c0000603430087834b000c464600000553006a
:1035d00081855b00020033000a03be000c00a000de
:1035e0000402e900f6ff3b0085057800060243006f
:1035f00087824b0004003a006000b80009f0a70081
:1036000001f0a000700037000002520081825a00d1
:103610000704e000040033000603430087834b00e7
:103620008b05e900faff3700090578000604be00a3
:103630000203be006011b80017000700e00f52003f
:10364000e08f5a000700350002003c000c08a30080
:10365000040032000601be0003f0a0000cf0a70039
:10366000410207000a85680001f0a1000af0a700e6
:1036700001f0a000540037000800be0052003700df
:10368000100220000cf0a60020e288005200370053
:10369000040020005208370081002000618055009e
:1036a0000b003d000b00200061fe2f000100e10037
:1036b0001d00340082817100610164008904d10021
:1036c0000884d3000000e800faff3a0071002000ef
:1036d0006100640003007000020060000900320015
:1036e00061044400e0844c000988a5000500320014
:1036f0008b05e8006808e10002003a008904d10067
:103700000884d300f20f20000258e10005003d00bc
:10371000c75ddd00f907b2008980750008007800f8
:10372000000006000bf827008b0078000000050061
:10373000c70ade00f107b200f50fb2000800320040
:10374000e1cf4200020032000170a0002400050019
:10375000810f7000010032000408050044000500dc
:10376000810f700002003a00140005008502e90094
:103770000000400081c04800fcff3b000170a00039
:10378000240005000004be00e9ff07000003be009e
:103790000405be000200be00e5ff0700844f75006f
:1037a000000006000200be006450e1000500360083
:1037b0006420e100020036000968a30001003a001d
:1037c0000800be000160a0004f0678004f05be0053
:1037d0004f04be0000000600f0ff2f00f1ff27009d
:1037e000f9ff37000000fa00889fbe008a9fbe00e4
:1037f0003004be002005be000404440085844c0053
:1038000006054d0087854d000898be000a90be0051
:103810000440e10005c8e10006d0e10007d8e1005e
:1038200002003100680040001008e8004f05be00ab
:103830004f04be000080fa00000006001000fa00ed
:10384000889fbe008a9fbe000605be000404be001d
:103850003002be002003be00049fbe000697be00db
:10386000110020000802520089825a000a035b00fe
:103870008b835b0044079800550798006607980003
:10388000770798000498be000698be003e02be006e
:103890002e03be000820e10009a8e1000ab0e10003
:1038a0000bb8e100010039008000eb004f05be00bd
:1038b000108810004f04be000080fa0000000600cf
:1038c0001400fa00889fbe005b0007008a9fbe00bc
:1038d0008c9fbe000006eb004c0798003c07980048
:1038e0002c0798001c0798000c0f78000605be00f6
:1038f0000404be000d0420004e039000be029000a0
:10390000860343002e029000e00f530003003d00a9
:103910002a000700b3ff0700020037002700070056
:10392000c6ff0700ce029000150f9800e08f5200ee
:1039300009003500450007001400200005002000a4
:103940006033b800000072008180720002017300d1
:1039500083817300380007000c06e8008d0f5600c5
:10396000e5ff3a001e0a9000e00f520004003d00ff
:103970000802be000a03be000e00780099ff07008f
:103980004eba9700e00f520006003a003e04be0017
:103990002e05be0058079800690798007a0798001e
:1039a0000b0f98004f06be00280007004f05be0011
:1039b0004f04be000080fa00000006004f2bde001e
:1039c0002200070086837300858242004f23de00b9
:1039d000470798008682720004024200350798006b
:1039e0009e0290004f2bde0085824200060272008c
:1039f000240798001e0278004f23de0004024200d4
:103a000086827200150798004f18de00000f7200c2
:103a10000e0007000802be000a03be0000004000be
:103a200081804800020149008381490002000700ab
:103a30000e0078000000060050079800610798000b
:103a400072079800030f9800000006005e009000c7
:103a5000ee0090007e0190008e09900000000600ac
:103a60000000fa00881f780018002000881f7800e6
:103a700093ff07008f87e9004f0478000080fa0069
:103a8000000006000000fa00801feb008cff07001a
:103a90008f87e9000080fa00000006000000fa00ad
:103aa000889fbe008a9fbe00e00f5000e08f580044
:103ab000e00f5900e08f59000c003d006044b80051
:103ac0006055b8000000540081805c0002015d0078
:103ad00083815d00180020001600070008003d00eb
:103ae000190007000004eb00050037000004eb009c
:103af0001000070002003d0013000700180020001e
:103b0000d7ff0700e00f5400060032006022b80023
:103b10006033b8000000520081805a0002015b004f
:103b200083815b004f05be004f04be000080fa0099
:103b300000000600e00f5200e08f5a00e00f5b002b
:103b4000e08f5b00000006006044b8006055b800dc
:103b50000402540085825c0006035d0087835d00db
:103b6000000006000000fa00889fbe008a9fbe0089
:103b70008c1f7800e00f5000e08f5800e00f5900d4
:103b8000e08f59000d003d006044b8006055b8005a
:103b90001c0020000000540081805c0002015d00d8
:103ba00083815d000820e10009a8e1000ab0e1007e
:103bb0000bb8e1000d003d00080037000006eb00e7
:103bc000e00f5200e08f5a00e00f5b00e08f5b00d7
:103bd00006003d006044b8006055b800040254007f
:103be00085825c0006035d0087835d00a5ff0700fa
:103bf000e00f5600060032006022b8006033b800c3
:103c00000000520081805a0002015b0083815b004a
:103c10004f0678004f05be004f04be000080fa003a
:103c200000000600889fbe003200f800032020003c
:103c300093018800030028008384600001f0a10044
:103c4000b2fd200093f4230002015000838158004c
:103c50000c003100020020000398230002015000f4
:103c60008381580003003900df0407003900070092
:103c70008a050700898068003200f9004f04be0001
:103c8000000006008a9fbe008c9fbe00020020003c
:103c90000398240000015100818159001e00390061
:103ca000d1040700880607000005eb000100e000d2
:103cb00003003d0060001000e08018000a002800aa
:103cc000630362006333b8000606010021000700a9
:103cd00000000000080037006d0007000005eb0041
:103ce000050037001b0007000af0a20002003700a1
:103cf000670007000a00280068050700898068003f
:103d00008a8068004f06be004f05be003200f900f1
:103d10004f04be0000000600700007000778a300f3
:103d2000050032000160a0008980700012022000ae
:103d300022e28800f3ff37000768a3000300320087
:103d4000f0ff2f00f1ff2700f8ff37006000b800f8
:103d5000f6ff37000100e000120032006f0341005f
:103d600010003500809fbe00821f78000002be0058
:103d700082017800330407006403410003003d0022
:103d800043002000c48328000200370053002000b5
:103d90008483280006030700cf0178004f02be008d
:103da0002804070000000600889fbe003200f800cb
:103db0000320200093018800030028008384600012
:103dc00001f0a100b2fd200093f423000201500095
:103dd0008381580010003100020020000398230066
:103de0000201500083815800060039007e0407005c
:103df00027000700290507003200f9004f04be0024
:103e00000000060001f82300000020003200f90045
:103e10004f04be00000006008a9fbe008c9fbe00bb
:103e20000200200003982400000151008181590004
:103e3000b9ff39006c040700230607000005eb00fa
:103e40000100e00003003d0060001000e080180069
:103e50000a002800630362006333b8008004eb00ab
:103e6000060601000a0007000005eb00a2ff37006c
:103e7000b8ff07000af0a2009fff37000400070008
:103e80000a0028009cff3700b2ff07009aff3700a6
:103e90000100e0000e0032006f0341000c0035000d
:103ea0000002be0082017800e603070064034100bf
:103eb00003003d0043002000048528000200370075
:103ec00053002000c4842800b90207000000060047
:103ed000000020000100240002000500270020004f
:103ee00001f0a70017002000470bde00f60fb2001c
:103ef000040032000643e8000a0032004702b30023
:103f00000000060001037800f607b2000603700007
:103f100002003a000703b300000006008702b30066
:103f20000000060001037800f607b20006037000e7
:103f3000020032000770a000000006000760a00029
:103f40000000060007f82700078361000638e1003b
:103f500004003a00f707200087836100870371009f
:103f600001003a0003f0a200889fbe008a9fbe00b5
:103f70008c9fbe00470ade000480a100c71ade0045
:103f80000580a10007002800078560008785610083
:103f9000f70f20000720e1009e0032000728e10013
:103fa0009c003200010678000400e000b4003200fa
:103fb000f7072000878060000170a0000500e00086
:103fc000c0003200f7072000878161000370a00065
:103fd000050652000f003a000b50e1000b003200c2
:103fe0000308e10002003a000200e1007e00320016
:103ff0000204500083845800040031000001fd00d9
:104000008101fd008402fd008a05fd006044b800c6
:10401000210037000520e10005003d000001fd0002
:104020008101fd008402fd008a05fd0005065200a5
:104030007a60e100050035000170a1004722dd0033
:10404000848070008a807000630037006044b8008c
:10405000ef02660007ff2f00070666000500e0007c
:1040600006003400f08312008714dd000511de0025
:10407000071bdd00060171008519de007060e1009c
:1040800005003500090478008204780003017800f7
:104090008001eb00700656000b50e10003003a006f
:1040a00002004000838048000400370060041400d0
:1040b000e0841c0002005800838058000188a3009f
:1040c000060032008100d1000080d3008984d30033
:1040d0000884d3000402e800270037000178a30019
:1040e00025003a000100e000030032008186cf0085
:1040f000698656000a0037008c0020000000e000ae
:1041000004003a0009007800880478000004eb00fd
:10411000700252008086cf000d0646000c06e900b2
:104120007060e1000600350080007800090078002a
:10413000880478000004eb007006560070025200fc
:104140000c00e0000c0034008c08dd00f0031600c9
:104150000703de00868070000c00dd00074bde00e8
:10416000060070008c4cdd000743de00868474007e
:104170000c44dd000c0252006120e10020003500fb
:10418000610160000700280087816400f7ff2700b5
:1041900087836400070374000300e0000600320018
:1041a00082037300040032000000e800e080480051
:1041b0000188a3000e003a00f70f20000720e1005d
:1041c0004a003d000170a1004722dd00810072001d
:1041d0008a8070000000be004f06be004f05be0082
:1041e0004f04be00000006006000b800faff370070
:1041f0008100d1000080d3000402e800eeff370008
:104200000401780089017400aa0307008a80700005
:10421000f1ff370031ff0700070278000001fd00c1
:104220008101fd002dff07008702780085037200e1
:104230000778a300040032000001fd008101fd00a9
:10424000f7020700e4ff3700850362000768a30058
:10425000080032000b50e10003003200f0ff2f0095
:10426000f1ff2700dcff37000001fd008101fd00a8
:10427000d9ff37000468a300d7ff3200faff3700e8
:10428000f8ff2700888360000b003a000000e00080
:1042900009003a0083036400828373000200320045
:1042a0000200be00ccff37000b50e100ceff3a0009
:1042b0000200be00c8ff3700140020008100640027
:1042c0003eff3700f8ff27008883610004003a00b2
:1042d0000200e00002003a008c007800beff3700c8
:1042e000150020008301640039ff370001f8270022
:1042f0000000200081007500b7ff370003836800cd
:104300000700280007036300470ade000480a100bd
:10431000c71ade000580a100f70f20000720e1008a
:10432000420032000728e10040003200889fbe00b2
:104330008a9fbe008c1f7800f107b200f307b2001d
:104340000400e000640032000170a0000500e000fd
:10435000680032000370a00085054200eb07b10041
:104360000204b8000302b8008484440060854a0057
:10437000020ab800848444000a854a00030ab8008f
:1043800004054500040033000804d0008984d200ed
:104390000a85d2008b05e9006158e1003d00350037
:1043a00002102000090161000308200089816100da
:1043b000f70720008783640008867300c84cde007e
:1043c000c853dd00878474004855de000300e00018
:1043d0000600320082037600040032008904e800ff
:1043e00060054d000a88a3000c003a00f70f20007a
:1043f0000758e10044003d000a70a100c75ddd00e0
:104400000a8575008a007300090078004f0678005d
:104410004f05be004f04be00000006000a05d10093
:104420008984d3008b05e800f0ff3700881f7800ef
:1044300006047800a9fe0700070278000001fd00cd
:104440008101fd00a5fe0700870278008503720048
:104450000778a300050032000001fd008101fd0086
:104460006f0207004f047800000006008503720009
:104470000748a30003003200f0ff2f00f1ff2700e0
:10448000f8ff37000000200001f827008880700046
:10449000f4ff3700880178004848dd008081710012
:1044a0004848de00c850dd0001007000c850de0042
:1044b000060478000b017800fe0207008880700077
:1044c000d2ff37000500e000050032001700200091
:1044d000450107009dff370081037000f9ff3a0096
:1044e000860078004f0678004f05be004f04be00de
:1044f0000000050083037100f9ff3200270020004f
:104500003901070094ff370001f82700868070000a
:10451000f4ff3700889fbe008a9fbe008c9fbe00bc
:104520003200f800062020009601880006002800ce
:104530008686600001f0a1000600200007e023004d
:104540000603500087835800120031000600200047
:104550000798230006035000878358005c00390049
:10456000a10207000005be00820478000002be0020
:10457000820178003302070043002000c475280040
:10458000470507000a02be00890178002d020700d6
:104590004e003700060020000710240006035000dc
:1045a00087835800380031000600200007fd2300f3
:1045b00006035000878358000b0031008a02070071
:1045c0000005be0082047800620141000305070077
:1045d00000067800ef03070062015100809fbe00d3
:1045e000821f7800080037007f0207000005be0028
:1045f00082047800f904070065064000e50307001f
:10460000809fbe00821f78000a02be0089017800e8
:1046100007002400060020000800200051000700c9
:104620000005fd008105fd008204fd00cf0178003a
:104630004f02be00cc0207000a02be0089017800ca
:10464000e10107000104780008f8a300020032002d
:1046500060001000e08018002d00070008f8a3009b
:104660000200320060001000e0801800c6762800ca
:104670006665b800060345003602be009601780064
:10468000bb020700110037000600200007c8240005
:1046900006035000878358001300310052020700c0
:1046a0000002be008201780001002400000020000a
:1046b00002002000c401070015000700754826000d
:1046c00014d52e0003002000a4020700f302070007
:1046d0008d8070003200f9004f06be004f05be000d
:1046e0004f04be0000000600fcfd07000778a30091
:1046f00003003a00b0fd200091fc2300f4ff3700d6
:104700000160a0001602200026e28800f0ff3700ba
:104710000100e0000d003200ef0341000b00350006
:10472000809fbe00821f78000002be0082017800d8
:10473000c401070043002000c4752800d804070006
:10474000cf0178004f02be00be0107000000060046
:1047500060001000e08018000200370060031300c2
:10476000e0831b00889fbe008a9fbe008c9fbe0016
:10477000830441000405b800050eb8000501b80027
:104780008285450003064e00e0864e000409b8000d
:104790008285450003064e00e0864e000100e000e1
:1047a00002003d000406560085865e000500e0001c
:1047b00002003d000006560081865e000d00e0000c
:1047c000740032000700e000750032006022b8007b
:1047d0008783d1000683d3008582d300090054006b
:1047e0000000e9001b003c003b0035000804e80025
:1047f0000a0042008b804a000c014b008d814b0067
:1048000051050700040454000300e0000e003200cc
:10481000090028000918e100060032000200be006d
:10482000080178004f06be004f05be004f04be00d1
:10483000000006000200e000f8ff3a0003002c0030
:104840000804e800f5ff37006000b8000001eb0045
:10485000f4ff37000804e8007e00e10001003400a6
:10486000e0012000cfecde00ef0060000100e0007e
:104870000c003200f08110000155de000359dd000c
:1048800002057500815dde000361dd008285750033
:104890000166de000369dd000206760081eede00bf
:1048a000010050004400de006501b800020601006e
:1048b0000a0042008b804a000c014b008d814b00a6
:1048c000cfff37000b0042008c804a000d014b00e7
:1048d00089814b00caff3700628444000000ea006f
:1048e000030420000300e100010034000004200064
:1048f000cfbcde00ef0060000a003200f081100043
:10490000032add00812ade000331dd00828272008d
:104910000133de000339dd000203730081bbde00da
:10492000010050004400de006501b80002060100ed
:104930000a0042008b804a000c014b008d814b0025
:10494000afff37000a8042008b004b000c814b0008
:104950008d814c00aaff37000a0043008b804b007a
:104960000c814c008d814c00a5ff37000a8043006c
:104970008b804c000c814c008d814c00a0ff3700d7
:104980000a8044008b804c000c814c008d814c00cf
:104990009bff37000600be0008017800a1ff37002a
:1049a0000c01be000a00be006284440094ff370080
:1049b000e102410002003500bd04070000000600ce
:1049c000e2024100020035001c030700000006005f
:1049d000e302410002003500db030700000006008f
:1049e0002f04070000000600889fbe000004eb00b3
:1049f0006138e10016003a000100e00008003a00ca
:104a0000c800de004800dd00880020000100e00052
:104a100003003a00c800de004800dd0068044400de
:104a20008184cf00e9845400060034008908dd0049
:104a3000f08314008703de00878070000900dd002a
:104a400009044400610214004f04be000000060087
:104a50000300e00008003a00c811de004811dd0044
:104a6000880020000300e00003003a00c811de00c7
:104a70004811dd00680444008384cf00e9845400b9
:104a8000060034008919dd00f08314008713de006e
:104a9000878171000911dd0009044400e10214005e
:104aa000e9ff3700889fbe008a9fbe008c9fbe0032
:104ab0001b0020000202be000586680006002800d8
:104ac000060666004709de00f20fb20082003200df
:104ad0000243e80080003200c729de00f30fb20075
:104ae0007d0032000343e8007b003200f107b20092
:104af0000170a000f507b2000570a000c708dd0036
:104b00004903de00868070004700dd00c72add0013
:104b10004923de00868272004722dd000305510032
:104b2000040350008583580003003100000040005a
:104b3000818048000a05e9008c1f78008a9fbe002a
:104b400004005000858058000402420085824a001b
:104b500000004000818048000005eb000004be001a
:104b60006033b8000406be000d48e1005600310075
:104b7000110009004dccd8000c01b8000d02b8009e
:104b80008481410060824a008283530003045c00f8
:104b900084845c0060055d000a00e00025003a00a6
:104ba000800578000d40e100490031008800780060
:104bb00007007800110009004d88d8000c01b800ea
:104bc0000d02b8008481410060824a006003110038
:104bd00083835b0004045c00e0845c000900e00067
:104be00021003a004f01be000300e0002b0032001c
:104bf000e3016000070673008c8171000100320040
:104c0000640070004200de004e5edd000c007000ab
:104c1000c258de0001e0a000a0010700cf0178002b
:104c2000818071004f06be004f05be004f04be00dc
:104c3000000006008c8343000d044c00e0844c000f
:104c400060054d000000e9000a00e000d4ff3200da
:104c50008c8343000d044c00e0844c0060054d0043
:104c60000000e900ceff37000c0343008d834b00aa
:104c700060044c00e0844c000000e9000900e00002
:104c8000d8ff32000c0343008d834b0060044c00be
:104c9000e0844c000000e900d2ff37004200de0053
:104ca0004e5edd000c007000c258de0001e0a00086
:104cb000cf0178000300e000daff3200600010004e
:104cc000e0801800d7ff3700f0ff2f00aaff370061
:104cd000f0ff2f00b9ff37000404be007ffc07007f
:104ce000870678000004fd008104fd007bfc0700be
:104cf000078366000678a300030032000960a7005e
:104d00000800be002c0037000d78a300020032001e
:104d10000800be00280037000778a30026003a00ec
:104d200001f0a10009f0a1000668a3000300320011
:104d3000f1ff2700f0ff2f00baff37000d68a30036
:104d4000030032000800be008c807000b5ff370001
:104d50000768a30007003a000648a30003003200da
:104d6000f1ff2700f0ff2f00aeff37000d48a30032
:104d7000030032006000b8008c807000a9ff37008b
:104d80000748a3000400320001f8270000002000bb
:104d90008c807000a3ff3700930007000004fd0023
:104da0008104fd00020578008f0007000802be00a4
:104db0008a01780059ff37000160a000120220002c
:104dc00022e2880097ff37000100e0001200320065
:104dd0000500e00010003200889fbe008a9fbe00e0
:104de0008c9fbe000006eb0001f8a3000300320018
:104df00060001000e08018000cf0a00005f8a3008f
:104e00000300320060021200e0821a000cf0a200df
:104e10008005eb0041ff37006000b800020005008c
:104e20000478a300040032000578a30003003200d8
:104e30000168a30001003a000200be000160a0006a
:104e400000000600889fbe008a9fbe000004be00ce
:104e50000405be00030141000201e8008000eb00f0
:104e60000a42b8000b43b8008682420060804b00c3
:104e70000a4bb8008682420007004800e0804800e4
:104e80000b4bb8000600400087804800010370000b
:104e900002003a000001eb00120037000900e000b8
:104ea00002003d000a0050008b8058000b00e0001b
:104eb00002003d00080050008980580085824200b1
:104ec00000004800818048008101df000300e0000d
:104ed00004003200858242000000480081804800c2
:104ee0000201e9004f05be004f04be0000000600ad
:104ef00001f8a3001d003a004709de00f40f20006e
:104f00000410e100260032000200e0002c00320014
:104f1000f107b200c708dd004902de00848070009e
:104f20004700dd0001e0a000f207b1002e010700fc
:104f3000f207b00004042000840160004700de0096
:104f4000490add0004007000c708de000300e0002d
:104f50000200320061004000e0804800f107b2002a
:104f60004711dd008280700000000600f4ff27007a
:104f7000048260008002720001003a000000060016
:104f800006f827000620e1001200350081026300c8
:104f900006826a00040270000e003200060037002c
:104fa00004f827000482680003003a00040020008f
:104fb00000026a000b0032000160a0000000060041
:104fc0000082700001003a000000060006000700a1
:104fd000d6ff37001202200022e28800f0ff2f00e7
:104fe000f1ff2700000006004f0ade004709de003f
:104ff000f107b200f20fb2000b003200f207b1006d
:105000000170a000c708dd00c901de0083807000c8
:105010004700dd000400a60000000600600010004c
:10502000e080180000000600810f700001003a00c7
:10503000000006008182cf000500e00010003e0065
:105040008082cf00ee8242007028e1000400390027
:1050500007003e00800078000000eb000e003700e3
:10506000708312008600de000500dd000a003700b4
:10507000708352008600dd000000eb000600370060
:10508000e28252008508dd00708312000603de0014
:10509000868070000500dd007507b0000501ea009c
:1050a0000400a6000000060060001000e080180068
:1050b000000006000100e00026003200610111003e
:1050c0007810e10023003c006022b8007010e1007d
:1050d0000400350080027800010078008000eb00b9
:1050e000700151000200e00009003400700311005b
:1050f000062add00822ade008603dd008782720038
:105100000200de00860bdd00070070008208de0072
:1051100084817100f4ff27000482620084817100a1
:1051200004002800848262006102600005f0a6008d
:105130000000060004827100070032000000e80051
:10514000e0804800000006000002be006000b800d9
:10515000efff37006000b80000000600600010009c
:10516000e08018000200370060021200e0821a009e
:105170000100e0003f0032000500e000390032008d
:10518000889fbe008a9fbe0082037800830451007e
:1051900004003d000002fd008102fd008904ea00d8
:1051a0008303780001017800800078000000eb00a4
:1051b00005037800840278000002eb000605690010
:1051c000070035000281d1008180d3000080d30028
:1051d0000683d1008582d3000482d3008703e800d0
:1051e0007048e100060035007f48e10029003c00de
:1051f00005027800860278004fb3de00f084540088
:105200000900e000080032000922de007085140069
:105210008a2ddd000b027200892ade008a35dd004e
:105220008b82720009b3de000400400085804800d4
:10523000060149005d020700838353000200e0007d
:10524000090032000b0028000b10e1000c003200b6
:105250000100780082007800070178004f05be0049
:105260004f04be00000006006000b8000001eb0023
:10527000faff37000400be000301780000000600ba
:105280000100e000f2ff3a0002002c008703e80072
:10529000efff3700f9012000d5ff370081017000d2
:1052a000270032008002eb0001f8a3000300320067
:1052b00060001000e080180015002000f4072000b6
:1052c0000202420020003400f70320008703600040
:1052d00006042000000363000208200000016100b2
:1052e0004700de00c909dd0000807100c708de004c
:1052f0000600e0000800320087037100060032005b
:105300001000b0000180b0000188a300020032004c
:10531000c108de000402e800f107b200f30f20002c
:105320000320e10003003d004722dd008100720000
:105330002900370001f827000000eb0026003700a5
:105340006000b80000000600680212007f20e10043
:10535000020034006000b8001f0037006011b80080
:105360007020e10004003500800178000100780021
:105370008000eb00700252000400e00009003400dd
:10538000f00312000719dd008419de000703dd00b9
:10539000868171000400de00070bdd00060070004e
:1053a0008408de00f7ff2700838363008703710012
:1053b0000600280003036300070032000700e00036
:1053c00003003a00610160000281730002003200b4
:1053d0001000b0000180b0000500a600000006002b
:1053e00001f0a00000000600810370006800320098
:1053f000889fbe008a9fbe008c9fbe003200f800ce
:1054000008202000980188000208a3000300320051
:105410000000d0008180d2000201e9008101780003
:10542000800278000002eb00821f78004a1cde0038
:105430000801b1008980280069417c000281fb00dd
:105440000214b8004644dd000340e10001003600cc
:105450000201e9004111dd001200b3000214b8009e
:105460004444dd000340e100010036000201e90090
:105470004111dd001200b3000214b8004244dd0007
:105480000340e100010036000201e9004111dd00a6
:105490001200b3000214b8000340e100010036001e
:1054a0000201e9000214b800088651004763dd00dc
:1054b000492cde0008037300820478004834de00c3
:1054c0000940e1002e003100110009000983d800d5
:1054d0004811dd00000171000214b8000006eb0065
:1054e000840678000885520089855900040031003f
:1054f0000201e9000214b8000885520089855900ac
:10550000820478000b04d1008a83d3000d83d3007a
:105510000938e1001c0031001100090049bbd80026
:105520008002eb000003b8000204b8000804440045
:1055300089844c00e0824a008703440060824c006a
:10554000e0814a000603560087835e0004025d0086
:1055500083815d00010031000000e9008200d1007c
:105560000080d3004f0178004191de003200f90045
:105570004f06be004f05be004f04be0000000600ef
:10558000f00f2000d2ff3700f0ff2f00e4ff3700bc
:10559000020005000003eb008101df008301ea0047
:1055a0006f18e1000f0032000300e0000600320037
:1055b0008308dd00708211008402de0085807000a7
:1055c0000300dd00030343000100e000140032008b
:1055d000040028000408e100130032007e011300db
:1055e000000006008100d1008080d3004f00dd0064
:1055f000f60020008101df008301ea006f18e1005e
:10560000e9ff3a008100d1008080d3000000eb0068
:10561000e60120008101df008301ea00e2ff37009c
:105620006000b800020005000000e000ebff3a0057
:1056300001002c000603e900e8ff37006218e100d2
:105640001b003500889fbe008a9fbe008c9fbe0055
:105650008301e9000004be000205be0004067800d4
:105660003c00be000801be00740107003c00410080
:10567000bc8049008b05e900faff3c000103df0014
:105680008606ea00050034008d08dd0070821600f1
:105690008402de00858070000d00dd0006017800c8
:1056a0004f06be004f05be004f04be0000000600be
:1056b0000300e00002003a006000b80002000500ac
:1056c0003400be0002000500889fbe008a9fbe0015
:1056d0008c9fbe000006be0082057800741b2c0063
:1056e000c5172500f3ff2f00d6fd0700bb000700fc
:1056f000809fbe008101700036003200e70150003b
:10570000608258000d0031000000e900097c28008b
:105710006c00b800890440000c00be000b0178004a
:105720003902be00b90178008ffe07003902be00c1
:10573000b90178008cfe07002100370095ff0700b3
:1057400014d52e0075482600030020000c03be006f
:105750000b0478000006be0082057800fcfb070001
:10576000d3ff2f00838145000218e10014003400ac
:105770000003be00020478000c00be000b0178009c
:1057800094462800152d2400e3fd2f00f0fb0700b0
:10579000e3fd2f00838145000218e100080034007a
:1057a0000003be00020478000c00be000b0178006c
:1057b000b4282600654c2400f3fb2f00e4fb07000f
:1057c0004f02be004f06be004f05be004f04be0094
:1057d000000006000c00be000b017800f8ff370047
:1057e000889fbe008a9fbe00841f7800e5f70700ef
:1057f0004f00780011003300f0ff2f00838f6c0002
:1058000006003b00040565000a00a70008003700f9
:1058100009f0a6001000200008003700820f540095
:10582000838f5c00030039001000200001003e005f
:105830000000200009f0a7000000ea004f05be00ac
:105840004f04be000000e00000000600881f780042
:10585000030478000300e00007003d006000100032
:10586000e080180060011900e081190002003b008f
:1058700001f02d00030037000400070008f0a70026
:1058800001f0a0004f04780000000600889fbe00d1
:105890008a9fbe00008270000402710004827100c1
:1058a000260032000004be000200be006011b800f5
:1058b0006b092000950220000182cf000a00390008
:1058c0000541b1000082cf00070039000541b10059
:1058d0000982cf00040039000541b1000882cf00e1
:1058e000010039000541b1000542520012003200aa
:1058f0000a003b0082817100610164008100d100d7
:105900000080d3008984d3000884d3008b05e8008d
:105910000442e800f7ff3a0007003700080444009b
:1059200089844c0000004800818048008b05e90014
:105930000442e900f9ff3a0057f707004f05be009f
:105940004f04be00000006006218e1001d00350093
:10595000889fbe008a9fbe008c9fbe008301e90025
:105960000004be000205be00040678003c00be0034
:105970000801be00b10007008381d1000281d3007d
:105980003c004100bc8049008b05e900f8ff3c0069
:105990000103df008606ea00050034008d08dd0003
:1059a000708216008402de00858070000d00dd002c
:1059b000060178004f06be004f05be004f04be0032
:1059c000000006000300e00002003a006000b8009a
:1059d000020005003400be00020005000100e000e6
:1059e000210032008201e8002b0035007e02110008
:1059f0001e0034006011b8007020e1000400350082
:105a00008001780001007800cf88de00700252002b
:105a10000400e00007003200030178007003120068
:105a20008601dd000400de00860bdd00070070004b
:105a30008488de00e10260000600280003036300a2
:105a4000f7ff270083836300828373000600e00072
:105a500005003200078172000200e00002003200ff
:105a600061004000e0804800000006007e10e10078
:105a700001003a00000006000100e00003003500cc
:105a8000f1ff2700f0ff2f000000060001002800b2
:105a900000002000000006006000b80000000600c2
:105aa0006218e1003b003500889fbe008a9fbe005f
:105ab0008c9fbe008301e9000004be000205be0009
:105ac00004067800620545000a05ea003c00be00b5
:105ad0007050e100170035000d0032007f50e100ea
:105ae00001003400fa012000f00655000801be0054
:105af000520007000d99de00cf99de003c00410006
:105b0000bc8049008b05e900f8ff3c001400370019
:105b10000801be004900070003017800cf99de00ac
:105b20003c004100bc8049008b05e900f8ff3c00c7
:105b30000b003700f00615000801be003f0007000b
:105b40000a11de008d1add00050171008a99de0060
:105b50003c004100bc8049008b05e900f6ff3c0099
:105b60000103df000605ea00050034008a08dd00b5
:105b7000700215008402de00858070000a00dd00de
:105b8000060178004f06be004f05be004f04be0060
:105b9000000006000300e00002003a006000b800c8
:105ba000020005003400be00020005008001eb0089
:105bb0000202df000402ea006f20e10010003a0058
:105bc0000201d1000181d3008080d3004f00dd00ad
:105bd000f30020000202df000402ea006f20e1006f
:105be00007003a000201d1000181d3008080d30078
:105bf0000000eb00e30120000202df000402ea00e3
:105c00000400e00009003200f00212000411dd007f
:105c1000050bde00060171008408dd000503de00cf
:105c2000868070000400dd00848141000200e000f5
:105c3000010032000000060003000500889fbe003e
:105c40008a9fbe008c1f78000002be000203be00c7
:105c50000620b800062db8008a80400060814d0003
:105c60000724b800072db8008a84440060864d00e0
:105c70008100440002814c00e0014e000700e0007a
:105c8000080035000500e00002003d00060151005b
:105c9000878159004f0678004f05be004f04be00b3
:105ca000000006000401510085815900f5ff37000e
:105cb0006218e1001e003500889fbe008a9fbe006a
:105cc0008c9fbe008301e9000004be000205be00f7
:105cd000040678003c00be000801be00d7ff0700a4
:105ce0008100d0000281d2008381d2003c004100bb
:105cf000bc8049008b05e900f7ff3c000103df0091
:105d00008606ea00050034008d08dd00708216006a
:105d10008402de00858070000d00dd000601780041
:105d20004f06be004f05be004f04be000000060037
:105d30000300e00002003a006000b8000200050025
:105d40003400be00020005000002eb008302df0009
:105d50008502ea006f28e10023003a008301d100a8
:105d60008281d3000181d3008080d3004f00dd0009
:105d7000f40020008302df008502ea006f28e100c2
:105d800019003a008301d1008281d3000181d30040
:105d90008080d3000000eb00e40120008302df00dc
:105da0008502ea006f28e1000f003a008301d1006c
:105db0008281d3000181d3008000eb00d402200057
:105dc0008302df008502ea006f28e10006003a0046
:105dd0008301d1008281d3000001eb00c4032000c5
:105de0008302df008502ea000500e0000c003200bb
:105df000708312008519dd008613de008781710033
:105e00000511dd00860bde00070171008508dd004d
:105e10008603de00878070000500dd000502420079
:105e20000300e0000100320000000600040005004d
:105e300064e921000400fa00b5f48000889fbe00e8
:105e40008a9fbe008c9fbe00e08f52000b003a007c
:105e500024029800e4024200f4f48800b5f48800bb
:105e600005f58800a44290000504a0002542980092
:105e7000e44290000504a0006542980067044000d9
:105e800004eb2100250020004244de00095c2400d0
:105e90004244dd00848454003c5c2400110009006d
:105ea0008504d8000406560085024400f2f4800000
:105eb00085824200000f7800150798000003eb0070
:105ec000e4054400080646000200370016002000e2
:105ed0000d0178002242900061026200020032004f
:105ee0000a003700150978009202780025429000d8
:105ef00061026200fbff320008024100848f520001
:105f000002003900e00f54003e003d009206780088
:105f10000d00a100828f5600edff3e00e10f5300ff
:105f2000eaff3a001e027800840f54000200360097
:105f3000890f54000f003900614ab900b0ff2f00eb
:105f4000010020006143b80004025000858258001f
:105f5000840f5300858f5b00020035000b0578002d
:105f600005003700110009000986d8008985b900ad
:105f7000010037001e0590000a00780006f50700b2
:105f8000e10f400005003a000b0578000b00780097
:105f900001f50700e10f40002b00320004f58000fe
:105fa000000a780004f5800064034200a4429000d7
:105fb000860f5000020032000504a00001003700e7
:105fc0000504a100254298006405550064e92100fc
:105fd0000a0540000a0878000af58800040d7800d8
:105fe00005f580000003eb00254290000404a000aa
:105ff000a4429800204290000404a100244098008c
:10600000b3ff3700f4f48800848f52000700360095
:106010001403be008042eb0016f5880027f58800c7
:10602000120a7800f4f48000254298002242900081
:10603000f7f480000404a0000709780024419800c8
:1060400064004100010037000000eb004f06be0075
:106050004f05be004f04be000080fa00000006009d
:106060000000fa00e00f5000080032006400500009
:10607000f4f48000840f500001003100f0f4880037
:10608000204290000404a100244098000080fa00ff
:10609000000006000000fa00889fbe00000478009f
:1060a0008a9fbe0081047800e08f540005003a000a
:1060b000e00f54003200320008007800e8ff0700cb
:1060c00030003700e00f540004003a000900780067
:1060d00057ff0700800478002a003700640254004c
:1060e0009405780068fa97006102620002003200ad
:1060f00008007800daff0700090078004cff07006d
:1061000080047800e08f54001e003200888f540015
:106110001b00320069bd97008885550009055500b0
:10612000c2ddde0042d5de000a0178008b0f55008b
:10613000010036000b0178004211dd008800780074
:106140000900780014000700888f54000d0031000a
:106150004255dd000a854400880f550009003600cd
:106160000804550014f5800025f5800042c4de00c7
:106170004244dd0008844400048cbe000100370066
:10618000880478004f05be00090078004f04be0067
:106190000080fa00000006000000fa00000278000b
:1061a00002003700315a78000201e900e00f510087
:1061b000fcff3a000080fa000000060000027800b0
:1061c0000c00fa00820278000000eb00e18f500022
:1061d0000d0036008100e900100798005107980073
:1061e000040f78002407980003017800240c200095
:1061f00085007800340798000e007800b50007008d
:106200001e027800004aeb000080fa000000060041
:10621000d4c6b3000800fa00889fbe000084fb00cb
:106220008a9fbe00844f50002c00360069cf2100a9
:106230004b062000110009000b84d80072004000ba
:106240004300dd0000804400810578006022b80032
:106250000600200007fe2300aa0020005001be0017
:106260004000be00cc0d07000002be000203be00cd
:10627000110009008a85d800049fbe000697be0061
:1062800080057800e9854500c35ddd008b8544000d
:106290003e00be002e01be003b02be002b03be002e
:1062a000bd0d07000002be000203be001100090080
:1062b0000a84d800049fbe000697be00010478003f
:1062c0004344dd00888444003e00be002e01be0031
:1062d0003902be002903be001d003700ea4f5000fe
:1062e00013003600aa00200069cf21001100090028
:1062f0000a84d80001057800690440004355dd0098
:106300004344dd00088444008a8444006022b800cd
:106310000600200007fe23003800be002801be0052
:106320009d0d07003902be002903be00080037009a
:1063300064cf21004344dd00080442006022b8001d
:106340000600200007fe23003800be002801be0022
:10635000910d07004f05be004f04be000080fa00fb
:1063600000000600d4c6b3000800fa00889fbe00f3
:106370008a9fbe00e04f500022003d000040ea002e
:106380000004fb00844f50000a0034004406200043
:10639000a9002000110009000404d8006acf2100e0
:1063a000110009008900d800e9004000c308dd00a1
:1063b00020003700ea4f50000f003400a4002000f6
:1063c000110009000404d80064cf210069004000d6
:1063d0004300dd0000004200430cdd0008024200e3
:1063e0005001be004000be005403be004402be0087
:1063f000690d0700330037004344dd0064cf2100fe
:106400002d0037000004fb00844f50001f003400b3
:1064100044062000a9002000110009000404d8004f
:106420006ac42100110009008900d800e900400079
:10643000c308dd00810045008b0920008a854500e6
:106440003102be002103be003b00be002b01be0096
:10645000510d07000002be000203be00110009003a
:106460000904d800049fbe000697be00010478000e
:106470004344dd00080545003e00be002e01be007d
:106480003a02be002a03be00d9ff3700ea4f50008f
:1064900007003400a4002000110009000404d80003
:1064a00064c42100690040004300dd00c9ff3700db
:1064b0004344dd0064c42100080442003800be00eb
:1064c0002801be004f05be004f04be000080fa0048
:1064d000000006006c00fa00889fbe0001179800bb
:1064e0008a9fbe00122f98008c9fbe000006780085
:1064f0006000b8006011b800501f9800611f98003c
:10650000721f9800032798008000eb001137980055
:10651000410a37000e11900054c2b3000201e80096
:1065200002179800844f500007003a0002027800da
:106530000003eb00d0c2b30001c3b30002c2b3003a
:1065400033c2b300100037003c0290000404b200d4
:10655000040032001c027800004a7800040ee800b3
:10656000050037000000fb008c007800350a0700aa
:10657000e10f4000280a32009e3190008301e800bc
:1065800013379800240a370084037800b8c2b30098
:10659000b442780088cf52000f00320005003c0062
:1065a00082cf52000a00320083cf520010003a001e
:1065b0000b00370080cf52000300320081cf520021
:1065c0000b003a00080037000630a000eeff37004d
:1065d0000600a000ecff37000610a000eaff37001d
:1065e00006b0a000e8ff37000620a000e6ff370055
:1065f00062026300010032000600a100680263002d
:10660000010032000620a1000502fb000403b100d6
:10661000e90f52000e003e008004eb008702780074
:1066200009027800b503fb00ea22b9000703b100b4
:106630001500fb00048243000003b10085037800cd
:10664000e90f5000f7ff3600242f98000a003700aa
:106650000005eb00a4c2b3002a2f980084cf52009b
:1066600005003a009e2d90008703e8004b0078005b
:106670001b2f9800202f9800e4c2b300974f120000
:106680001d003a0006e0a000644252000637980060
:10669000d74f1200040032008000eb008702780020
:1066a000010378000d0037001e2990008703e800e1
:1066b000c2017800122f9800332f9800070078004d
:1066c00076c6b30007c7b300c1c6b3000e32900050
:1066d0000e003700ea33b900060342008503780054
:1066e0003502fb000403b100e90f5200f9ff360048
:1066f000362f9800f1ff370006c0a0000002eb0023
:1067000006379800342f9800ecff3700b04278002d
:106710000017980086cf52003300320018003c006a
:106720000437980034c6b30084cf5200da00320038
:106730000e003c007c42520084cf520045003200e3
:1067400006003c00e0cf5200b809320004c2e90064
:1067500084cf5200ef003a003600370084c5b30002
:1067600084cf5200eb003a004800370054c6b30013
:1067700084cf52001f00320029003c001f00370068
:1067800087cf5200400032000a003c0081cf520007
:106790001c00320004379800f4c6b30084cf5200c6
:1067a000340032006642520084cf5200d9003a00d1
:1067b000120037000437980054c7b30084cf52004a
:1067c000d90032006342420084cf520004003200fc
:1067d0006542520084cf5200ce003a0033003700a9
:1067e000054f78002d00370004379800064f7800d9
:1067f0001c003700054f780012003700054f780065
:10680000cd00370070016200050120000100320058
:10681000050028008482720005027800bbff370063
:106820008e349000054f780009a0a0000937980029
:10683000c10037000e359000054f78000a50a000c7
:106840000a3798008e3590000b80a0000b37980017
:10685000b90037000e309000054f78000050a000be
:10686000003798008e3090000190a000013798000a
:10687000b10037000e319000054f78000260a00093
:1068800002379800ac003700043798008e31900032
:10689000054f78000350a000033798000e32900097
:1068a0000470a00004379800a3003700054f78005b
:1068b0009e2a900045027800152f9800442f9800da
:1068c000e00f520002003a0087dc2100472f9800b9
:1068d0004e2b90008002eb00010037008502e8009b
:1068e000050243000044eb00944f1400fbff3a0004
:1068f000552f9800be2c9000e08f54000500320008
:106900005e2d90008a8f54000200310089057800c6
:106910005b2f98005e2a90000004eb002e28900068
:10692000840f500001003600040450008e309000a7
:106930006885600030003a0009c2b3009e369000be
:106940000e0037003c0290000404b2000400320044
:106950001c027800094a7800040ee80005003700a0
:106960008c0078000002200036090700e10f40008b
:10697000010032008d06e8000804e900e00f540031
:10698000f0ff3a000084eb001d3798000802780001
:106990001b0037003c0390000604b20009003200df
:1069a000080378001c007800b64378000748780098
:1069b00006047800000ee800e0cf53000c003a0017
:1069c00014003700080378008c0078003600fb00c4
:1069d00044379800553798000604780019090700d5
:1069e0004e329000de329000e10f4000090032008c
:1069f0008d06e800070037009e36900008027800f8
:106a00008a0278004e2c9000de2c90006e2d9000b3
:106a1000fe2d9000090378008604e900e00f530082
:106a2000dcff3a00482f9800592f98006a2f9800f1
:106a30007b2f98001d379800040478000505780026
:106a4000e00f5500f408320009c2b3000d057800cc
:106a50000e0037003c0290000404b2000400320033
:106a60001c027800094a7800040ee800050037008f
:106a70008c00780000022000f2080700e10f4000bf
:106a8000010032000a05e8000804e900e00f5400a4
:106a9000f0ff3a00df0837009e2890000e33900088
:106aa0004102780004047800cfc4de0009057800b4
:106ab0008a057800112f98000800be000a01be0068
:106ac0004800de00480add0000007200700263002a
:106ad000004f780009003200e04f500007003200fc
:106ae000e14f4000050032002700200010479800c9
:106af00028479800572f9800030037001847980040
:106b000018002000582f98008e04e800492f9800a4
:106b100078ff37001b002000054f78004e2f9800ab
:106b20005b2f980073ff37000e309000054f780000
:106b3000000cb30000379800057020008e309000e4
:106b400085826000e30532000400210004826000b9
:106b50000200320062002000322f98008e31900037
:106b600070826100050032001e2a90004405be00bc
:106b70004404be00142f9800060037009e2a90009f
:106b80004500be00152f9800470907000004be000d
:106b90000205be006022b8006033b8000800be00e5
:106ba0000a01be0031090700e00f500004003d005b
:106bb0000e3390003600b300063798000bf0a200a9
:106bc0000002eb000800be00240798000a01be0086
:106bd0006022b8006033b8002e090700e00f5000b3
:106be0002f003200640247000800be000a01be0008
:106bf000c02e07002e009000a40020000000e90035
