:020000040000fa
:080000000018040000000000dc
:020000040000fa
:10000800d2180000d2180000d2180000d218000040
:10001800d2180000d2180000d2180000d218000030
:10002800d2180000d2180000d2180000d218000020
:10003800d2180000d2180000d2180000565e000046
:10004800a44f0000d2180000d2180000ec4f0000a6
:10005800d2180000d2180000d2180000d2180000f0
:10006800d2180000d2180000d2180000d2180000e0
:10007800d2180000d2180000d2180000d2180000d0
:10008800d2180000d2180000d2180000d2180000c0
:10009800d20f0000764f0000d2180000d2180000de
:1000a800d2180000d2180000d2180000d2180000a0
:1000b800d2180000d2180000d2180000d218000090
:1000c800d2180000d2180000d2180000d218000080
:1000d800d2180000d2180000d2180000d218000070
:1000e800c84f0000d2180000d2180000d218000033
:1000f800d2180000d2180000d2180000d218000050
:10010800d2180000d2180000d2180000d21800003f
:10011800d2180000d2180000d2180000d21800002f
:10012800d2180000d2180000d2180000d21800001f
:10013800d2180000d2180000d2180000d21800000f
:10014800d2180000d2180000d2180000d2180000ff
:10015800d2180000d2180000d2180000d2180000ef
:10016800d2180000d2180000b05f0000d2180000ba
:10017800d2180000d2180000d2180000d2180000cf
:10018800d2180000d2180000d2180000d2180000bf
:10019800d2180000d2180000d2180000d2180000af
:1001a800d2180000d2180000d2180000d21800009f
:1001b800d2180000d2180000d2180000d21800008f
:1001c800d2180000d2180000d2180000d21800007f
:1001d800d2180000d2180000d2180000d21800006f
:1001e800d2180000d2180000d2180000d21800005f
:1001f800d2180000d2180000d2180000d21800004f
:10020800d2180000d2180000d2180000d21800003e
:10021800d2180000d2180000d2180000d21800002e
:10022800d2180000d2180000d2180000d21800001e
:10023800d2180000d2180000d2180000d21800000e
:10024800d2180000d2180000d2180000d2180000fe
:10025800d2180000d2180000d2180000d2180000ee
:020000040000fa
:100400005374000061720000746900006e670000a0
:100410002e2e00002e0a000000540000657300001c
:10042000743a0000202500007520000025750000aa
:100430000a000000436f00006e660000696700005c
:100440007572000061740000696f00006e2000008a
:100450007361000076650000642100000a0000005e
:100460005368000075740000746900006e67000036
:10047000204400006f7700006e210000000a000099
:100480002d2d00002d200000476100006c69000048
:100490002056000049490000202d00002d2d0000ad
:1004a0000a4200006f6f0000746900006e67000070
:1004b0002e2e00002e0a000000450000727200007f
:1004c0006f720000206900006e2000006479000057
:1004d0006e6100006d690000786500006c2000000e
:1004e000696e000069740000696100006c690000b9
:1004f00073610000746900006f6e00000a00000064
:10050000496e000069740000696100006c690000b8
:1005100073610000746900006f6e000020640000c9
:100520006f6e0000652100000a00000053680000a3
:1005300061720000707300003a200000002000008b
:1005400025340000750000000a000000415800003a
:1005500031320000204900004420000054650000b2
:10056000737400000a0000004944000020250000c8
:10057000643a000020250000640a000000570000d3
:1005800061690000746900006e6700002066000069
:100590006f720000202500007520000075730000b8
:1005a0002e2e00002e200000004f00004b0a0000fd
:1005b0000000000045720000726f0000723a0000f7
:1005c000206900006e760000616c00006964000024
:1005d0002073000074610000746500002069000051
:1005e0006e200000636f00006e740000726f0000e8
:1005f0006c6c0000657200002e2000005377000034
:100600006974000063680000696e000067200000e4
:10061000746f0000205000006f73000069740000c8
:10062000696f00006e200000436f00006e740000d0
:10063000726f00006c2100000a000000436f000090
:100640006e740000726f00006c6c00006572000038
:100650003a200000737400006174000065200000ff
:1006600063680000616e00006765000064200000a0
:10067000746f000020000000506f000073690000dc
:10068000746900006f6e0000204300006f6e000070
:10069000747200006f6c00000a00000053700000cc
:1006a0006565000064200000436f00006e74000068
:1006b000726f00006c0a00000042000072610000ce
:1006c0006b6900006e6700000a00000043610000d3
:1006d0006c6900006272000061740000696f0000c4
:1006e0006e0a0000004900006e760000616c000098
:1006f000696400002053000074610000746500000c
:100700000a000000506f0000732000003a2800002b
:10071000253100002e330000662000002531000046
:100720002e33000066200000253100002e3300002b
:1007300066290000200000004f6200006a200000cf
:100740003a280000253100002e330000662000000a
:10075000253100002e330000662000002531000006
:100760002e33000066290000200000002020000039
:10077000202000007374000061740000652d0000eb
:100780003e6e000065780000745f00006f6e000030
:100790005f73000075630000636500007373000001
:1007a000203d0000206100006953000074610000da
:1007b00074650000476f0000746f0000282500007a
:1007c000666600002c20000025660000662c0000f4
:1007d0002025000066660000293b00000a2000007a
:1007e0002020000020730000746100007465000088
:1007f000203d00002073000074610000746500005b
:100800002d3e00006e650000787400005f6f0000f0
:100810006e5f000073750000636300006573000085
:10082000733b00000a0a0000000000000000000006
:1008300000000000000000000000000000000000b8
:10084000e21100000937000028290000b03800003c
:100850000000000000000000000000000000000098
:1008600000000000e2110000093700002829000004
:10087000b0380000456e0000636f00006465000042
:1008800072200000723a000025640000206c000015
:0c0890003a250000642000000000000079
:020000040000fa
:10089c000c00fa00008fbe00220798003307980066
:1008ac0044079800550798001e02be00c4d8880063
:1008bc00d5d888002e029000be029000e4d88800a3
:1008cc00f5d888004e009000de009000ee02070084
:1008dc000002be0004d9880015d988000080fa00f7
:1008ec00000006000c00fa00008fbe0022079800e2
:1008fc003307980044079800550798001e02be0065
:10090c0064d8880075d888002e029000be02900032
:10091c0084d8880095d888004e009000de009000a6
:10092c00d90207000002be00a4d88800b5d8880000
:10093c000080fa00000006002200fa00889fbe002a
:10094c00aa290700f12907000002be0054079800ed
:10095c0065079800132a07000002be007407980070
:10096c00050f9800a4d88000b5d880007e019000b7
:10097c008e0990000400be003a0a07000002be0077
:10098c000400be00c00207000002be00a4d888000c
:10099c00b5d88800a4d88000b5d880000400be006b
:1009ac000f0b07000002be005e019000ee019000ec
:1009bc000400be001e0c07000002be000403be00b3
:1009cc0064d8800075d880000401be000600be000b
:1009dc00240a07000002be0064d8880075d888007d
:1009ec00a4d88000b5d880000400be00ad0c070070
:1009fc000002be005e019000ee0190000400be00fb
:100a0c000b0c07000002be000403be0084d880005b
:100a1c0095d880000401be000600be00110a070034
:100a2c000002be0084d8880095d88800c6d8800003
:100a3c00d7d8800064d8800075d880000401be002f
:100a4c000600be00060a07000002be00140f980044
:100a5c00250f9800e6d88000f7d8800084d8800055
:100a6c0095d880000401be000600be00fc090700fa
:100a7c000002be00340f9800450f980018c0b30058
:100a8c006011b8001e089000ae089000180b07000b
:100a9c0000027800e00f5200010035000044eb002a
:100aac00e04f54000d00320018c0b300d27b23007d
:100abc0063582b001e089000ae0890000e0b070028
:100acc0000027800e00f520001003c000044eb00f3
:100adc00e04f54000d003a003600370018c0b30048
:100aec00d27b2300635823001e089000ae089000b0
:100afc00ff0a070000027800e00f520001003500e9
:100b0c000044eb00e04f54002a00320018c0b30040
:100b1c006011b8003e089000ce089000f40a07005f
:100b2c0000027800e00f5200010035000044eb0099
:100b3c00e04f54000d00320018c0b300d27b2300ec
:100b4c0063582b003e089000ce089000ea0a07007c
:100b5c0000027800e00f520001003c000044eb0062
:100b6c00e04f54000d003a001200370018c0b300db
:100b7c00d27b2300635823003e089000ce089000df
:100b8c00db0a070000027800e00f5200010035007c
:100b9c000044eb00e04f5400060032006022b80025
:100bac00048fbe006022b800240798003507980017
:100bbc001d0037001e099000ae0990001e08900021
:100bcc00ae0890009a0b07000002be000404be00a1
:100bdc003e099000ce0990003e089000ce0890008f
:100bec00930b07000002be000401be000800be000b
:100bfc009c0907000002be000400be002b0c07007d
:100c0c000002be00048fbe001e099000ae099000c9
:100c1c003e089000ce089000ef0907000002be00cd
:100c2c0024079800350798000002eb004407980051
:100c3c00160037004e029000c222dd0044b22100a3
:100c4c00048342006022b800048bbe004e02900068
:100c5c00c222dd0044b32100048342006022b800ac
:100c6c00048bbe004e029000c222dd0044b4210071
:100c7c00048342000400200005e82300048bbe001e
:100c8c004e0290000402e800440798004e029000c7
:100c9c00e30f5200e7ff34003e099000ce099000ac
:100cac001e089000ae0890004201070006010700e4
:100cbc008e0107009001070018c0b3006011b80046
:100ccc001e00be008a0a070000027800e00f5200e6
:100cdc00010035000044eb00e04f54000a003200e4
:100cec0018c0b300a2702d0033ca2b001e00be002a
:100cfc007f0a070000027800e00f52000b0035005d
:100d0c000044eb000900370018c0b300a2702d009e
:100d1c0033ca23001e00be00770a070000027800c9
:100d2c00e00f520001003c000044eb00e04f540087
:100d3c00a7003200a4d88000b5d880000401be0002
:100d4c002e009000be009000450907000002be0076
:100d5c000400be00cc0107000002be0018c0b300a6
:100d6c006011b8000400be00610a070000027800a0
:100d7c00e00f5200010035000044eb00e04f54003e
:100d8c0016003200a4d88000b5d880000401be0043
:100d9c002e009000be009000310907000002be003a
:100dac000400be00b80107000002be0018c0b3006a
:100dbc00c2972d0003ea2b000400be004c0a07006a
:100dcc0000027800e00f5200010035000044eb00f7
:100ddc00e04f540016003a0068003700a4d8800099
:100dec00b5d880000401be002e009000be0090001b
:100dfc001b0907000002be000400be00a201070090
:100e0c000002be0018c0b300c2972d0003ea2300f5
:100e1c000400be00380a070000027800e00f520000
:100e2c0001003c000044eb00e04f54005300320042
:100e3c00a4d88000b5d880000401be002e0090001c
:100e4c00be009000060907000002be000400be00b0
:100e5c008d0107000002be0018c0b3006011b8007d
:100e6c000400be00220a070000027800e00f5200c6
:100e7c00010035000044eb00e04f54001600320036
:100e8c00a4d88000b5d880000401be002e009000cc
:100e9c00be009000f20807000002be000400be0075
:100eac00790107000002be0018c0b300b24a2f003f
:100ebc0043032c000400be000f0a07000002780058
:100ecc00e00f520001003c000044eb00e04f5400e6
:100edc0016003a0029003700a4d88000b5d880004d
:100eec000401be002e009000be009000dc0807003c
:100efc000002be000400be00630107000002be0039
:100f0c0018c0b300b24a2f00430324000400be00f3
:100f1c00f709070000027800e00f520001003500cd
:100f2c000044eb00e04f5400140032007e024700f6
:100f3c006122b800848fd2008582d2007a034700e8
:100f4c006133b800868fd2008783d2000601be00c1
:100f5c002e009000be0090006a0107007e0a9000ef
:100f6c008e1290000400be00470107000002be0074
:100f7c00740f980005179800290037007e0247006f
:100f8c006122b800848fd2008582d2000403be0097
:100f9c007a0247006122b800848fd2008582d20089
:100fac002e019000be0190001e00be00de01070065
:100fbc007e0a90008e1290000400be0032010700e1
:100fcc000002be00740f980005179800140037003b
:100fdc007e0247006122b800848fd2008582d20045
:100fec000403be007a0247006122b800848fd2004d
:100ffc008582d2002e019000be0190001e00be0022
:10100c00580207007e0a90008e1290000400be0069
:10101c001d0107000002be00740f98000517980010
:10102c007e0a90008e1290005e0b9000ee0b9000ea
:10103c000401be000600be00082107004f04be00dc
:10104c000080fa00000006000000fa00a0d8800022
:10105c00b1d8800086d8800097d8800064d88000f2
:10106c0075d88000809fbe00869fbe00849fbe0006
:10107c0024382800841f7800a82b0700ee8757001f
:10108c000080fa00000006000000fa0000d9800081
:10109c0011d98000e6d88000f7d88000c4d8800031
:1010ac00d5d88000809fbe00869fbe00849fbe0066
:1010bc00c4392800841f7800982b0700ee8757004e
:1010cc000080fa00000006000000fa00889fbe00b5
:1010dc008a9fbe0004d9800015d98000b2fd200083
:1010ec0093fc23000400be005d0807000002be0054
:1010fc0044d9880055d98800c6d88000d7d880003c
:10110c0064d8800075d880000401be000600be00c3
:10111c00530807000002be000404be0004d980007e
:10112c0015d980000400be00de0a07000002be00d4
:10113c000401be000800be003d0a07000002be000c
:10114c000404be00e6d88000f7d8800084d8800064
:10115c0095d880000401be000600be0040080700c0
:10116c000002be000405be0004d9800015d9800021
:10117c000400be001a0907000002be000401be00f4
:10118c000a00be002a0a07000002be000401be00cd
:10119c000800be00320807000002be00c4d9880057
:1011ac00d5d988004f05be004f04be000080fa0060
:1011bc00000006000800fa00889fbe00008fbe00e9
:1011cc00220798003307980018c0b300d27b230085
:1011dc00635823001e00be0045090700000278007a
:1011ec00e00f5200010035000044eb00e04f5400ca
:1011fc001400320018c0b300d27b230063582300c4
:10120c002e009000be009000390907000002780003
:10121c00e00f5200010035000044eb00e04f540099
:10122c00080032000400200005122400a4d9880014
:10123c00b5d988006022b80024d9880035d9880037
:10124c00270037001e01be000000200001f823001b
:10125c00e50807000002be000404be0004d98000ab
:10126c0015d980000400be008e0a07000002be00e3
:10127c000401be000800be00ed0907000002be001c
:10128c000404be0004d9800015d980000400be00ff
:10129c00d30807000002be002e019000be01900092
:1012ac000400be00e20907000002be000401be00fb
:1012bc000800be00ea0707000002be00a4d988009f
:1012cc00b5d988002e019000be0190001e00be0012
:1012dc00410807000002be0024d9880035d98800d7
:1012ec004f04be000080fa00000006000000fa0067
:1012fc000080fa00000006000000fa000080fa00ee
:10130c00000006000a00fa00889fbe006022b800a8
:10131c00048fbe006022b80024079800350798009f
:10132c000002eb00440798000002eb004407980011
:10133c00350037004e029000c222dd0044b421007b
:10134c00048242001403be004e029000c222dd0053
:10135c0044b32100048242001402be000401be000a
:10136c000600be00b20907000002be000403be0066
:10137c004e029000c222dd0044b2210004824200e1
:10138c001402be000401be000600be00a80907003e
:10139c000002be000401be001e00be00b107070023
:1013ac000002be00048fbe004e029000c222dd007f
:1013bc0044b42100048242001403be004e0290008b
:1013cc00c222dd0044b32100048242001402be009c
:1013dc000401be000600be00950907000002be0015
:1013ec000401be002e009000be0090009d07070077
:1013fc000002be0024079800350798004e029000aa
:10140c000402e800440798004e029000e30f5200db
:10141c00c8ff340018c0b300d27b230063582300ec
:10142c002e009000be009000b1080700000278006a
:10143c00e00f5200010035000044eb00e04f540077
:10144c00020032006022b8000b003700a8d88000e0
:10145c00b9d880002e019000be0190001e00be0085
:10146c00610807000002be000401be000800be00b7
:10147c007b0707000002be000400be004f04be0044
:10148c000080fa00000006000400fa00881f7800b3
:10149c00008fbe00b2fd2000930c24001e00be0085
:1014ac00bd0807000002be00048fbe0018c0b300c8
:1014bc00b2fd2000930424001e00be008e0807001d
:1014cc0000027800e00f520001003c000044eb00e9
:1014dc00e04f540006003200b2fd2000930c2400b3
:1014ec001e00be005e0707000002be00048fbe0097
:1014fc001e02be000400be004f0478000080fa00fb
:10150c00000006000c00fa00881f7800008fbe0057
:10151c002207980033079800440798005507980055
:10152c00a4d88000b5d880000401be001e00be0007
:10153c004b0707000002be000400be00d2ff0700ec
:10154c000002be0018c0b300b2fd200093fc2300c3
:10155c000400be006808070000027800e00f52008b
:10156c0001003c000044eb00e04f540014003a0032
:10157c00a4d88000b5d880000401be001e00be00b7
:10158c00370707000002be000400be00beff0700c4
:10159c000002be0018c0b300b2fd200093fc2b006b
:1015ac000400be005208070000027800e00f520051
:1015bc00010035000044eb00e04f54002f003200d6
:1015cc002e039000be0390006022b80006f0a60027
:1015dc008703e800a00180008700780006037800ec
:1015ec00a1018800040b78000683e8000200390092
:1015fc0006f0a0003420ec00050b7800a001880058
:10160c00b2fd2000930424001e00be001507070045
:10161c000002be000403be00a4d88000b5d8800030
:10162c000401be000600be000d0707000002be004c
:10163c000400be0094ff07000002be004e039000a1
:10164c00de03900006f0a6008703e800a0018000ee
:10165c008700780006037800a1018800040b78004d
:10166c000683e8000200390006f0a0003420ec00ec
:10167c00050b7800a0018800280037002e0390008d
:10168c00be0390006022b80006f0a6008703e800b5
:10169c00a00180008700780006037800a101880073
:1016ac00040b78000683e8000200390006f0a00065
:1016bc003420ec00050b7800a0018800a4d8800031
:1016cc00b5d880000401be001e00be00e406070071
:1016dc000002be000400be006bff07000002be004b
:1016ec004e039000de03900006f0a6008703e8008e
:1016fc00a00180008700780006037800a101880013
:10170c00040b78000683e8000200390006f0a00004
:10171c003420ec00050b7800a00188004f04780001
:10172c000080fa00000006001000fa00881f780004
:10173c00008fbe00220798003307980044079800da
:10174c00550798006607980077079800a4d8800082
:10175c00b5d880000401be002e009000be009000a1
:10176c00bf0607000002be000400be0046ff0700d3
:10177c000002be0018c0b300b2fd200093fc230091
:10178c000400be00dc07070000027800e00f5200e6
:10179c0001003c000044eb00e04f540015003a00ff
:1017ac00a4d88000b5d880000401be002e009000a3
:1017bc00be009000aa0607000002be000400be0096
:1017cc0031ff07000002be0018c0b300b2fd2000bc
:1017dc0093fc2b000400be00c50707000002780034
:1017ec00e00f5200010035000044eb00e04f5400c4
:1017fc00310032001e02be0005f0a2004e03900024
:10180c00de03900006f0a6008703e800a00180002c
:10181c008700780006037800a1018800040b78008b
:10182c000683e8000200390006f0a0003420ec002a
:10183c00050b7800a0018800b2fd20009304240061
:10184c002e009000be009000860607000002be002d
:10185c000403be00a4d88000b5d880000401be00eb
:10186c000600be007e0607000002be000400be009b
:10187c0005ff07000002be006e039000fe039000ff
:10188c0006f0a6008703e800a0018000870078001e
:10189c0006037800a1018800040b78000683e80099
:1018ac000200390006f0a0003420ec00050b780093
:1018bc00a0018800280037004e029000de02900044
:1018cc0004f0a6008502e800a601800085037800dc
:1018dc0004027800a70188003e0a78000482e80020
:1018ec000200390004f0a0003420ec002e0a78002d
:1018fc00a6018800a4d88000b5d880000401be00e1
:10190c002e009000be009000550607000002be009d
:10191c000400be00dcfe07000002be006e03900057
:10192c00fe03900006f0a6008703e800a0018000eb
:10193c008700780006037800a1018800040b78006a
:10194c000683e8000200390006f0a0003420ec0009
:10195c00050b7800a00188004f0478000080fa0085
:10196c00000006001000fa00881f7800008fbe00ef
:10197c0022079800330798004407980055079800f1
:10198c006607980077079800a4d88000b5d8800027
:10199c000401be002e009000be009000300607002f
:1019ac000002be000400be00b7fe07000002be002d
:1019bc0018c0b300b2fd200093fc23000400be004d
:1019cc004d07070000027800e00f520001003c00b8
:1019dc000044eb00e04f540015003a00a4d88000fe
:1019ec00b5d880000401be002e009000be0090000f
:1019fc001b0607000002be000400be00a2fe07008a
:101a0c000002be0018c0b300b2fd200093fc2b00f6
:101a1c000400be003607070000027800e00f5200f9
:101a2c00010035000044eb00e04f54002b00320065
:101a3c004e039000de0390006022b80006f0a60072
:101a4c008703e800a0018000870078000603780077
:101a5c00a1018800040b78000683e800020039001d
:101a6c0006f0a0003420ec00050b7800a0018800e3
:101a7c0006d9800017d98000a4d88000b5d8800082
:101a8c000401be000600be00f50507000002be0002
:101a9c000400be007cfe07000002be006e03900036
:101aac00fe03900006f0a6008703e800a00180006a
:101abc008700780006037800a1018800040b7800e9
:101acc000683e8000200390006f0a0003420ec0088
:101adc00050b7800a00188002a0037004e03900007
:101aec00de0390006022b80006f0a6008703e80031
:101afc00a00180008700780006037800a10188000f
:101b0c00040b78000683e8000200390006f0a00000
:101b1c003420ec00050b7800a001880006d9800069
:101b2c0017d98000a4d88000b5d880000401be006d
:101b3c000600be00ca0507000002be000400be007d
:101b4c0051fe07000002be006e039000fe039000e1
:101b5c0006f0a6008703e800a0018000870078004b
:101b6c0006037800a1018800040b78000683e800c6
:101b7c000200390006f0a0003420ec00050b7800c0
:101b8c00a00188004f0478000080fa0000000600d5
:101b9c000000fa00881f780066d8800077d8800093
:101bac00c4d88000d5d880000401be000600be0059
:101bbc00ab0507000002be0018c0b3006011b800ee
:101bcc000400be00ca06070000027800e00f5200b5
:101bdc00010035000044eb00e04f540012003200cd
:101bec0066d8800077d88000c4d88000d5d8800013
:101bfc000401be000600be00990507000002be00ed
:101c0c0018c0b300a2702d0033ca2b000400be0014
:101c1c00b906070000027800e00f520013003c00e8
:101c2c000044eb001100370066d8800077d88000a4
:101c3c00c4d88000d5d880000401be000600be00c8
:101c4c00870507000002be0018c0b300a2702d006b
:101c5c0033ca23000400be00a5060700000278006a
:101c6c00e00f5200010035000044eb00e04f54003f
:101c7c007900320066d8800077d88000c4d8800004
:101c8c00d5d880000401be000600be007405070014
:101c9c000002be0018c0b3006011b8000400be0002
:101cac009306070000027800e00f52000100350097
:101cbc000044eb00e04f54001200320066d8800064
:101ccc0077d88000c4d88000d5d880000401be002d
:101cdc000600be00620507000002be0018c0b3007b
:101cec00a2702d0033ca2b000400be008206070030
:101cfc0000027800e00f520013003c000044eb009f
:101d0c001100370066d8800077d88000c4d88000d6
:101d1c00d5d880000401be000600be0050050700a7
:101d2c000002be0018c0b300a2702d0033ca2300fd
:101d3c000400be006e06070000027800e00f52009f
:101d4c00010035000044eb00e04f5400420032002b
:101d5c00a6d88000b7d8800004d9800015d980009f
:101d6c000401be000600be003d0507000002be00d7
:101d7c000400be00c4fd07000002be0018c0b30082
:101d8c006011b8000400be0059060700000278007c
:101d9c00e00f5200010035000044eb00e04f54000e
:101dac0015003200a6d88000b7d8800004d9800076
:101dbc0015d980000401be000600be0028050700ee
:101dcc000002be000400be00affd07000002be0012
:101ddc0018c0b300b2fd200093e42b000400be0039
:101dec004506070000027800e00f520016003c0088
:101dfc000044eb0014003700a6d88000b7d8800050
:101e0c0004d9800015d980000401be000600be0074
:101e1c00130507000002be000400be009afd070077
:101e2c000002be0018c0b300b2fd200093e42300f2
:101e3c000400be002e06070000027800e00f5200de
:101e4c00010035000044eb00e04f5400020032006a
:101e5c0014c0b300010037000042eb0004407800ce
:101e6c004f0478000080fa00000006000000fa0021
:101e7c00a0d88000b1d8800086d8800097d8800088
:101e8c0064d8800075d88000809fbe00869fbe00fd
:101e9c00849fbe00643b2800841f78001f28070025
:0c1eac00ee8757000080fa0000000600de
:020000040000fa
:101eb8000000fa001fe1a90021e1a900f408800050
:101ec8000440a0000450a100f40888001e61a80086
:101ed8001e21a9001ec1a9000002eb00a408880069
:101ee8002021a90020c1a9000002eb00c408880035
:101ef800744280000400a0000410a1000420a00087
:101f0800744288000080fa00000006000400fa000d
:101f1800000f7800110798000042eb0004007800d9
:101f28003afcb7001fe1a9000002eb00a4088800f2
:101f38000002eb00c40888001e029000d408880044
:101f48001e027800e40888002388a8001fe1a80082
:101f58000388a9000080fa00000006000000fa00cb
:101f6800a4c3210014427800e04f52000700320059
:101f78000042eb000002fd003afcb7000002fd0041
:101f88001fe1a90014c0b300010037000042eb00b4
:101f9800044078000080fa0000000600801f7800e6
:101fa800841f78003200f80000202000900188008b
:101fb800000000000000fa000388a90014c0b30064
:101fc800040078003afcb7000080fa003200f900fb
:0c1fd8004f0278004f0078000040060027
:020000040000fa
:1020000000000000000000000000000000000000d0
:1020100000000000000000000000000000000000c0
:1020200000000000000000000000000000000000b0
:1020300000000000000000000000000000000000a0
:020000040000fa
:020000040000fa
:103000008f5a24000eff27000e01880000000000e8
:10301000000020000000e00002003200000120005b
:10302000200288000c0007008050250001002000cd
:103030000f000700000020000000e0000200320046
:103040000000020000000000e84c02000000000048
:103050000040da000000fe00e02420000000e00054
:1030600002003200002020009001880000000600cd
:10307000a1028800800078000000eb001a003700f1
:10308000e280400054a0b4009101ba00e280400008
:1030900054a0b4009102ba00e280400054a0b400f1
:1030a0000002eb00472bde00f507b200a601880006
:1030b000602ce10008003a000049eb000201e80042
:1030c000020039003420ec0002f0a0008301e90086
:1030d000f9ff3e00040037006128e10001003200e2
:1030e0000082eb00040007001101ba000200e000ba
:1030f000e3ff3a000000060004d0a300e20f4900fd
:103100001c003900810278003549ba000201e8004c
:10311000020039003420ec0002f0a0008301e90035
:103120000f0032002549ba000201e8000200390010
:103130003420ec0002f0a0008301e9000800320016
:103140000400e0000600320015c9ba000201e800e0
:10315000020039003420ec0002f0a0008301e900f5
:103160008180e80054a0b4000300e000e2ff3a00d0
:10317000000006009102ba00055978008301e900b9
:10318000f7ff3200c82ade00055978008301e90004
:10319000f3ff32000400e000f1ff320011d9ba0061
:1031a000eeff37000040da000000fe000a00fa00df
:1031b000e20f500022003e00b4f48000e10f520004
:1031c000060032008723200046232000242320000d
:1031d00005232000e08f530004003a0087222000de
:1031e0004622200024222000052220000000280082
:1031f0001500600003003a00800b780007002800eb
:10320000958a7300054020009482620001003a0014
:1032100014a0a00082027800060037009403780012
:103220000710b200fdff3200b103fb00070b78006e
:103230008502e900e08f5200f8ff3a0008003700ed
:10324000340020001007980032079800040f78001f
:10325000210798000e007800de0f07003e01900065
:10326000020078000080fa000000060003f0a200cf
:10327000889fbe008a9fbe008c1f7800d701070080
:10328000de0133006450e1004f0032006420e100b1
:103290005200320003826c0007003b000905d00099
:1032a0000306d000820f54000c065d0002003900b6
:1032b00002003200890178000306780085825500fb
:1032c00004003d000003fd008103fd008502ea00cb
:1032d0008b854200840f720002003b0060001000ea
:1032e000e08018006011b8000005eb007a28e100ca
:1032f0000a00390006007800c75ddd00f707b2005c
:10330000878075002d003700828171000a017800e6
:10331000610560008180d1000080d3008502e90052
:10332000f9ff3b00060440008784480002003b0090
:1033300060041400e0841c000988a3000700320028
:103340008a81710082817100610164008904d10069
:103350000884d3008b05e800170037000978a30024
:1033600013003a000b00e000130034008b05e90065
:103370000804440089844c000a4474000978a300be
:103380000d003a000b00e000070034008b05e90057
:103390000804440089844c0001003a000b0020001e
:1033a0000978a300f7ff32000001eb0002003700ac
:1033b000828171000a0178004d0107000cf0a7001e
:1033c00001f0a000960137006420e10002003a00fd
:1033d000838f6c00960133000801be000200be001e
:1033e0008f013700889fbe008a9fbe008c1f780027
:1033f0007a0107001002200002003b00f0e1880083
:103400007e0137008a0062006408e10002003a0091
:10341000f0e18800860137006108e100fcff32001e
:103420000800be00030478007200070001f0a1004c
:103430000900070008f0a600040037000001be00e4
:1034400091042400b0fd200088ff070009f0a700c8
:1034500001f0a20072013700889fbe008a9fbe0063
:103460008c9fbe000004be00470107000800be009c
:10347000890678006420e100080039000400320069
:103480000160a00012022000f2e188005300370022
:1034900091fc2300b0fd20004e0037000006eb0039
:1034a00009f0a10003f82300020020000800be007c
:1034b000920007000600340001f8230000002000fd
:1034c0000801be004b0007000004be002c002000d5
:1034d0000800be0093e82300320a2300870007009b
:1034e000120034000801be00d1fd2300703d2b0006
:1034f0005fff07000005be00b3f32300f27a260049
:103500000800be004d01070003f823000200200060
:1035100056ff07000801be0055ff07000a01be0064
:10352000340007000004be000c06e8000800be00de
:1035300001f0a10002002000039823006f000700a3
:103540000800be00160035000801be003b01070060
:103550000005be0032cd2c0043fb230044ff0700d2
:10356000809fbe001269280003d52b000a00be0010
:1035700032010700620f210013ef2b003cff070010
:103580000a01be002d0107004f01be00190007000f
:103590000801be00290107000801be0034ff070032
:1035a0000c00e0000b0032000c10a70001f0a2009c
:1035b000b2fd200093fc23006260e10004003200b1
:1035c00022a9200063f023000c10a70063f8230059
:1035d00027ff07000df0a70001f0a2004f06be0074
:1035e0004f05be004f04be00000006000081eb0046
:1035f00046013700889fbe008a9fbe008c1f78005e
:10360000f6000700fd00330003866c006450e10003
:103610002e0032006420e100330032006150e100ee
:103620002f0032006120e100310032008585550015
:10363000eb07b00009002000080420000500370057
:103640000804440089844c000a003100060343004a
:1036500087834b000001530081815b00f8ff33003a
:103660000203be000800a0000804440089844c0046
:10367000f6ff3900c639dd00830173000100320016
:10368000130020008904d1000884d3000998a30006
:10369000050032000800a7000300a0008904d10043
:1036a0000884d3008b05e8008904d1000884d30086
:1036b0000001eb000281d2008d00070001f0a100a3
:1036c0000cf0a70001f0a000d50037006420e10055
:1036d000d70032000801be000200be00f7ff37002d
:1036e0006120e100d20032006000b800f3ff370033
:1036f0000000200001f82700f0ff37001400200030
:10370000b2023700f4ff2f00b00237000001be0004
:103710009d0007000470a70003f0a1006509b10037
:10372000160032000d0035006828e1000600350063
:10373000f0ff2f00f1ff27000300e00013003b0023
:1037400001002800000005000000400081804800c2
:103750008502e900fcff3a0008003700f88f4200bc
:1037600002003c008000eb00000005008100d10059
:103770000080d3008502e800fcff3a000300e0006f
:1037800002003b0060001000e0801800000006000e
:103790004f89de0082017800a70237006011b8006f
:1037a000b50237000400200000003700889fbe00eb
:1037b0008a9fbe008c1f78004f26dd00870007001f
:1037c0008e0033006120e100430032006250e100ce
:1037d00041003e003e0039006420e1003c00320020
:1037e000058255000f003b000402e80038003a0053
:1037f000800f5300818f5b00350034000800be004d
:1038000003f0a10001f0a60003f0a0000cf0a70057
:1038100097fe0700820037000603430087834b00b2
:103820000c4646000005530081855b000200330012
:103830000a03be000c00a0000402e900f6ff3b00f2
:10384000850578000602430087824b0004003a0099
:103850006000b80009f0a70001f0a0007000370078
:103860000002520081825a000704e0000400330085
:103870000603430087834b008b05e900faff3700fe
:10388000090578000604be000203be006011b800fe
:1038900017000700e00f5200e08f5a0007003500c4
:1038a00002003c000c08a300040032000601be0028
:1038b00003f0a0000cf0a7006dfe07000a85680069
:1038c00001f0a1000af0a70001f0a00054003700a9
:1038d0000800be0052003700100220000cf0a600c5
:1038e000f0e1880052003700040020003702370062
:1038f00081002000618055000b003d000b0020007e
:1039000061fe2f000100e1001d0034008281710082
:10391000610164008904d1000884d3000000e8003c
:10392000faff3a007100200061006400030070009b
:10393000020060000900320061044400e0844c0091
:103940000988a500050032008b05e8006808e10041
:1039500002003a008904d1000884d300f20f20004d
:103960000258e10005003d00c75ddd00f907b20027
:103970008980750008007800000006000bf8270019
:103980008b00780000000500c70ade00f107b200d6
:10399000f50fb20008003200e1cf42000200320011
:1039a0000170a00024000500810f700001003200aa
:1039b0000408050044000500810f700002003a0071
:1039c000140005008502e9000000400081c04800a5
:1039d000fcff3b000170a000240005000004be00b5
:1039e000e9ff07000003be000405be000200be00a0
:1039f000e5ff0700844f7500000006000200be00ce
:103a00006450e100050036006420e1000200360049
:103a10000968a30001003a000800be000160a00090
:103a20004f0678004f05be004f04be0000000600a0
:103a3000f0ff2f00f1ff2700f9ff3700889fbe003d
:103a40008a9fbe008c1f7800e4ff0700ebff330065
:103a500003866c006450e100240032006420e10021
:103a6000270032006150e100220032006120e100b5
:103a7000210032008b854200eb07b1000134b80011
:103a8000003ab8000804420089844a00013ab800ac
:103a90000030b8008880400009014a00040033006b
:103aa0000000400081804800020149008b05e900c8
:103ab000c909dd00830170000100320013002000fd
:103ac000c814de004814dd004709de001200b20011
:103ad000c808de000884700085ff070001f0a1001f
:103ae0000cf0a70001f0a000cdff37006120e1003d
:103af000cfff32000801be000200be00f7ff370012
:103b00006150e100fcff3a00c9ff3700889fbe000a
:103b10008a9fbe008c9fbe00820578000004be0014
:103b200099ff07000800be006420e100070039008b
:103b300002003a00f1ff2700f0ff2f000160a00013
:103b400012022000f2e18800550037006120e100f8
:103b500003003a000b00a70001f8230050003700d3
:103b600001f0a1000200210093642400e3fe07009d
:103b70000800be0004003500b2fd2000930c2400b4
:103b800008ff07000004be000005eb000b00a600c4
:103b90004f0dde0001f0a1000004be0032982f009e
:103ba00023ea2300a5ff07000001eb0003f0230038
:103bb0000b00a70003f82300adfd0700d3fe0700ac
:103bc0000000a7000a00a200f1fe07000b00e000c1
:103bd000030032000200200003f02300a3fd0700d1
:103be00001f0a2000006be000200200093042400a1
:103bf00092ff07000801be009dfd0700809fbe00e8
:103c00000c00be0022a22a00d3a723008bff0700ce
:103c10004f01be0096fd07000004be0001f0a100a8
:103c20000200200003982300b4fe07000800be0035
:103c3000190035000001be0080ff07000006be002d
:103c4000b2c52900e36223007cff070022222b007b
:103c5000f3942b0086fd07000c01be0077ff0700e0
:103c6000e273280083c0230081fd07000c01be0021
:103c700072ff070042aa2a00a3e22b007cfd070086
:103c80000c01be006dff07000801be006bff0700be
:103c90000801be0076fd07000a00a70001f0a2009f
:103ca0004f06be004f05be004f04be0000000600d8
:103cb0000001eb0095ff3700889fbe008a9fbe0081
:103cc0008c1f78000004be002fff07000478a300bb
:103cd00026003a006120e1002500320009f8a30027
:103ce00025003a006420e10021003200f507b10010
:103cf0000508a30002003200000040008180480057
:103d00006044b800031020000200200000004000c2
:103d1000818048000805440089854c000a0541005f
:103d20008b8549000a0550008b855800030033003d
:103d30000a00be0002047400838474008301d10071
:103d40000281d300830f7100f0ff3a008904d10093
:103d50000884d3006001490082017800c1adde0013
:103d6000fb07b000e2fe07002dff37000960a0004e
:103d70000800be002aff370012022000f2e188008e
:103d8000f0ff2f00f1ff270025ff37000000fa00a9
:103d9000889fbe008a9fbe003004be002005be0082
:103da0000404440085844c0006054d0087854d00c1
:103db0000898be000a90be000440e10005c8e1007a
:103dc00006d0e10007d8e1000200310068004000a1
:103dd0001008e8004f05be004f04be000080fa0046
:103de000000006001000fa00889fbe008a9fbe00f7
:103df0000605be000404be003002be002003be0063
:103e0000049fbe000697be00110020000802520069
:103e100089825a000a035b008b835b004407980089
:103e20005507980066079800770798000498be0029
:103e30000698be003e02be002e03be000820e10030
:103e400009a8e1000ab0e1000bb8e1000100390067
:103e50008000eb004f05be00108810004f04be002c
:103e60000080fa00000006001400fa00889fbe00df
:103e70005b0007008a9fbe008c9fbe000006eb001f
:103e80004c0798003c0798002c0798001c079800e6
:103e90000c0f78000605be000404be000d042000cf
:103ea0004e039000be029000860343002e02900055
:103eb000e00f530003003d002a000700b3ff070096
:103ec0000200370027000700c6ff0700ce0290005f
:103ed000150f9800e08f52000900350045000700db
:103ee00014002000050020006033b80000007200bc
:103ef0008180720002017300838173003800070023
:103f00000c06e8008d0f5600e5ff3a001e0a9000ef
:103f1000e00f520004003d000802be000a03be008c
:103f20000e00780099ff07004eba9700e00f52008c
:103f300006003a003e04be002e05be005807980059
:103f4000690798007a0798000b0f98004f06be008b
:103f5000280007004f05be004f04be000080fa0095
:103f6000000006004f2bde0022000700868373004e
:103f7000858242004f23de00470798008682720048
:103f800004024200350798009e0290004f2bde008d
:103f90008582420006027200240798001e02780003
:103fa0004f23de000402420086827200150798004b
:103fb0004f18de00000f72000e0007000802be005e
:103fc0000a03be0000004000818048000201490051
:103fd00083814900020007000e00780000000600ff
:103fe000500798006107980072079800030f980027
:103ff000000006005e009000ee0090007e01900040
:104000008e099000000006000000fa00881f78006a
:1040100018002000881f780093ff07008f87e900b1
:104020004f0478000080fa00000006000000fa004b
:10403000801feb008cff07008f87e9000080fa00eb
:10404000000006000000fa00889fbe008a9fbe00a4
:10405000e00f5000e08f5800e00f5900e08f59004a
:104060000c003d006044b8006055b80000005400ea
:1040700081805c0002015d0083815d0018002000ea
:104080001600070008003d00190007000004eb00bf
:10409000050037000004eb001000070002003d009f
:1040a0001300070018002000d7ff0700e00f54009e
:1040b000060032006022b8006033b80000005200f1
:1040c00081805a0002015b0083815b004f05be00c6
:1040d0004f04be000080fa0000000600e00f52000e
:1040e000e08f5a00e00f5b00e08f5b0000000600ed
:1040f0006044b8006055b8000402540085825c003a
:1041000006035d0087835d00000006000000fa00e2
:10411000889fbe008a9fbe008c1f7800e00f500071
:10412000e08f5800e00f5900e08f59000d003d006e
:104130006044b8006055b8001c0020000000540026
:1041400081805c0002015d0083815d000820e10048
:1041500009a8e1000ab0e1000bb8e1000d003d0044
:10416000080037000006eb00e00f5200e08f5a0015
:10417000e00f5b00e08f5b0006003d006044b8008c
:104180006055b8000402540085825c0006035d009f
:1041900087835d00a5ff0700e00f56000600320090
:1041a0006022b8006033b8000000520081805a00dd
:1041b00002015b0083815b004f0678004f05be0063
:1041c0004f04be000080fa0000000600889fbe0079
:1041d0008a9fbe00841f780000fe07004f00780011
:1041e00011003300f0ff2f00838f6c0006003b00ae
:1041f000040565000a00a7000800370009f0a600c2
:104200001000200008003700820f5400838f5c00ec
:10421000030039001000200001003e0000002000d3
:1042200009f0a7000000ea004f05be004f04be00e1
:104230000000e00000000600881f780003047800fa
:104240000300e00007003d0060001000e08018005f
:1042500060011900e081190002003b0001f02d000f
:10426000030037000400070008f0a70001f0a000d9
:104270004f04780000000600889fbe008a9fbe00a1
:104280000082700004027100048271002600320076
:104290000004be000200be006011b8006b092000df
:1042a000950220000182cf000a0039000541b100cb
:1042b0000082cf00070039000541b1000982cf001c
:1042c000040039000541b1000882cf000100390027
:1042d0000541b10005425200120032000a003b00c5
:1042e00082817100610164008100d1000080d300ef
:1042f0008984d3000884d3008b05e8000442e800d9
:10430000f7ff3a00070037000804440089844c0096
:1043100000004800818048008b05e9000442e90064
:10432000f9ff3a0072fd07004f05be004f04be00c2
:1043300000000600000278000c00fa0082027800fb
:104340000000eb00e18f50000d0036008100e90015
:104350001007980051079800040f78002407980070
:1043600003017800240c20008500780034079800b1
:104370000e007800b50007001e027800004aeb002e
:104380000080fa0000000600d4c6b3000800fa005e
:10439000889fbe000084fb008a9fbe00844f5000af
:1043a0002c00360009cf21004b0620001100090027
:1043b0000b84d800720040004300dd000080440000
:1043c000810578006022b8000600200007fe230067
:1043d000aa0020005001be004000be006c0d070086
:1043e0000002be000203be00110009008a85d80049
:1043f000049fbe000697be0080057800e985450051
:10440000c35ddd008b8544003e00be002e01be0072
:104410003b02be002b03be005d0d07000002be0084
:104420000203be00110009000a84d800049fbe00e8
:104430000697be00010478004344dd0088844400f0
:104440003e00be002e01be003902be002903be00a0
:104450001d003700ea4f500013003600aa0020006c
:1044600009cf2100110009000a84d8000105780055
:10447000690440004355dd004344dd0008844400e6
:104480008a8444006022b8000600200007fe230052
:104490003800be002801be003d0d07003902be00f5
:1044a0002903be000800370004cf21004344dd008b
:1044b000080442006022b8000600200007fe230026
:1044c0003800be002801be00310d07004f05be00b8
:1044d0004f04be000080fa0000000600d4c6b300fe
:1044e0000800fa00889fbe008a9fbe00e04f50007f
:1044f00022003d000040ea000004fb00844f500011
:104500000a00340044062000a90020001100090020
:104510000404d8000acf2100110009008900d80046
:10452000e9004000c308dd0020003700ea4f5000da
:104530000f003400a4002000110009000404d8007a
:1045400004cf2100690040004300dd00000042006c
:10455000430cdd00080242005001be004000be00d6
:104560005403be004402be00090d070033003700ab
:104570004344dd0004cf21002d0037000004fb0080
:10458000844f50001f00340044062000a900200082
:10459000110009000404d8000ac421001100090018
:1045a0008900d800e9004000c308dd008100450013
:1045b0008b0920008a8545003102be002103be0020
:1045c0003b00be002b01be00f10c07000002be0044
:1045d0000203be00110009000904d800049fbe00b8
:1045e0000697be00010478004344dd00080545003d
:1045f0003e00be002e01be003a02be002a03be00ed
:10460000d9ff3700ea4f500007003400a400200013
:10461000110009000404d80004c42100690040000e
:104620004300dd00c9ff37004344dd0004c421001e
:10463000080442003800be002801be004f05be003d
:104640004f04be000080fa00000006006c00fa0073
:10465000889fbe00011798008a9fbe00122f980005
:104660008c9fbe00000678006000b8006011b800a2
:10467000501f9800611f9800721f98000327980030
:104680008000eb0011379800410a37000e119000ae
:1046900054c2b3000201e80002179800844f500092
:1046a00007003a00020278000003eb00d0c2b3001a
:1046b00001c3b30002c2b30033c2b300100037001d
:1046c0003c0290000404b200040032001c02780096
:1046d000004a7800040ee800050037000000fb00e7
:1046e0008c007800350a0700e10f4000280a3200ec
:1046f0009e3190008301e80013379800240a3700a8
:1047000084037800b8c2b300b442780088cf520066
:104710000f00320005003c0082cf52000a00320038
:1047200083cf520010003a000b00370080cf5200b8
:104730000300320081cf52000b003a00080037001e
:104740000630a000eeff37000600a000ecff3700a7
:104750000610a000eaff370006b0a000e8ff37000f
:104760000620a000e6ff370062026300010032006d
:104770000600a10068026300010032000620a100cb
:104780000502fb000403b100e90f52000e003e00d9
:104790008004eb008702780009027800b503fb0073
:1047a000ea22b9000703b1001500fb0004824300b0
:1047b0000003b10085037800e90f5000f7ff3600d1
:1047c000242f98000a0037000005eb00a4c2b300b4
:1047d0002a2f980084cf520005003a009e2d9000a9
:1047e0008703e8004b0078001b2f9800202f9800cb
:1047f000e4c2b300974f12001d003a0006e0a0008b
:104800006442520006379800d74f1200040032006d
:104810008000eb0087027800010378000d0037006c
:104820001e2990008703e800c2017800122f98002b
:10483000332f98000700780076c6b30007c7b3008f
:10484000c1c6b3000e3290000e003700ea33b90043
:1048500006034200850378003502fb000403b10023
:10486000e90f5200f9ff3600362f9800f1ff3700ac
:1048700006c0a0000002eb0006379800342f980015
:10488000ecff3700b04278000017980086cf520046
:104890003300320018003c000437980034c6b300df
:1048a00084cf5200da0032000e003c007c425200fd
:1048b00084cf52004500320006003c00e0cf520099
:1048c000b809320004c2e90084cf5200ef003a0078
:1048d0003600370084c5b30084cf5200eb003a00a5
:1048e0004800370054c6b30084cf52001f00320086
:1048f00029003c001f00370087cf520040003200e3
:104900000a003c0081cf52001c003200043798009e
:10491000f4c6b30084cf5200340032006642520025
:1049200084cf5200d9003a001200370004379800b3
:1049300054c7b30084cf5200d90032006342420012
:1049400084cf5200040032006542520084cf5200ee
:10495000ce003a0033003700054f78002d003700b5
:1049600004379800064f78001c003700054f780088
:1049700012003700054f7800cd003700700162004b
:104980000501200001003200050028008482720029
:1049900005027800bbff37008e349000054f780089
:1049a00009a0a00009379800c10037000e3590001b
:1049b000054f78000a50a0000a3798008e35900005
:1049c0000b80a0000b379800b90037000e30900024
:1049d000054f78000050a000003798008e309000fe
:1049e0000190a00001379800b10037000e3190000f
:1049f000054f78000260a00002379800ac00370035
:104a0000043798008e319000054f78000350a000c5
:104a1000033798000e3290000470a000043798000d
:104a2000a3003700054f78009e2a900045027800c9
:104a3000152f9800442f9800e00f520002003a0012
:104a400027dc2100472f98004e2b90008002eb00be
:104a5000010037008502e800050243000044eb0036
:104a6000944f1400fbff3a00552f9800be2c900085
:104a7000e08f5400050032005e2d90008a8f5400b4
:104a800002003100890578005b2f98005e2a9000b3
:104a90000004eb002e289000840f50000100360027
:104aa000040450008e3090006885600030003a00a9
:104ab00009c2b3009e3690000e0037003c02900001
:104ac0000404b200040032001c027800094a780095
:104ad000040ee800050037008c007800000220007a
:104ae00036090700e10f4000010032008d06e800a2
:104af0000804e900e00f5400f0ff3a000084eb00e6
:104b00001d379800080278001b0037003c03900016
:104b10000604b20009003200080378001c00780087
:104b2000b64378000748780006047800000ee800d5
:104b3000e0cf53000c003a0014003700080378005f
:104b40008c0078003600fb004437980055379800f9
:104b500006047800190907004e329000de329000fa
:104b6000e10f4000090032008d06e8000700370021
:104b70009e369000080278008a0278004e2c900041
:104b8000de2c90006e2d9000fe2d90000903780021
:104b90008604e900e00f5300dcff3a00482f98003c
:104ba000592f98006a2f98007b2f98001d37980086
:104bb0000404780005057800e00f5500f408320081
:104bc00009c2b3000d0578000e0037003c029000ca
:104bd0000404b200040032001c027800094a780084
:104be000040ee800050037008c0078000002200069
:104bf000f2080700e10f4000010032000a05e8005a
:104c00000804e900e00f5400f0ff3a00df08370025
:104c10009e2890000e339000410278000404780032
:104c2000cfc4de00090578008a057800112f9800ae
:104c30000800be000a01be004800de00480add0090
:104c40000000720070026300004f7800090032001b
:104c5000e04f500007003200e14f400005003200f5
:104c6000270020001047980028479800572f9800e9
:104c7000030037001847980018002000582f9800ac
:104c80008e04e800492f980078ff37001b002000b1
:104c9000054f78004e2f98005b2f980073ff370068
:104ca0000e309000054f7800000cb30000379800dc
:104cb000057020008e30900085826000e305320090
:104cc0000400210004826000020032006200200023
:104cd000322f98008e319000708261000500320002
:104ce0001e2a90004405be004404be00142f980004
:104cf000060037009e2a90004500be00152f980040
:104d0000630a07000004be000205be006022b8006e
:104d10006033b8000800be000a01be00ae090700fb
:104d2000e00f500004003d000e3390003600b30049
:104d3000063798000bf0a2000002eb000800be004e
:104d4000240798000a01be006022b8006033b80052
:104d5000050a0700e00f50002f00320064024700f0
:104d60000800be000a01be00ec0a07002e009000f9
:104d7000a40020000000e900e300b90011000900d0
:104d80000400d80020079800e00f500002003d000a
:104d90000000e90020079800ae0690000d40ea00f0
:104da000cefd07000802be000a03be00f80a070095
:104db0000002be000203be00541f9800651f980049
:104dc000761f9800072798006022b8000600200090
:104dd00007ff230080090700e00f500002003d009c
:104de0000d02e9000b0037006022b8000600200029
:104df000470224005e189000ee1890007e19900083
:104e00008e21900079090700e00f50000200350064
:104e10000d02e800240798000e329000ae069000c4
:104e20000410b20008003a000e3290000420b200d4
:104e300050033200e48f460003003500be2a900084
:104e4000858f5600d90235003e2b9000e00f5300ad
:104e5000050032000e3290000420b2000200320041
:104e60000603e900362f9800be2b9000f28f530006
:104e70000300360024c1b300044f7800020037005d
:104e80006ed09000004f78006022b8006033b80008
:104e90000800be000a01be00b3090700e00f500081
:104ea0005f0032009e40780001df980001c056008c
:104eb0008afd07000002be000203be000800be001b
:104ec0000a01be004e0907000205be000004be0034
:104ed0003f0a07008f0a07000002be000203be005f
:104ee0000800be000a01be001e0b07006022b800c9
:104ef0000600200007fe23003c090700e00f5000d9
:104f0000080035000800be000a01be006022b8009b
:104f10000600200007fe2300b20807000004be00c0
:104f20000205be000a01be000800be00280a0700f4
:104f30000002eb005017980061179800041f9800ba
:104f4000a6dc21008eda90008502fb000502e80055
:104f50004322dd00040043008001eb005527980048
:104f6000731798003002be002003be005e10900050
:104f7000ee1090007e1190008e1990000400e10068
:104f80000588e1000690e1000798e1000b00390078
:104f90000400200005002a009699290097fb2300b1
:104fa0000800be000a01be00790a07000d02e800f1
:104fb0000004be000205be0018003700de2090008d
:104fc000a2dc2100430add00040241005e109000d3
:104fd000ee1090007e1190008e1990005403be00d8
:104fe0004402be000400e1000588e1000690e100f3
:104ff0000798e1000a0031006022b8000600200096
:10500000470224000800be000a01be00600a070033
:105010000d02e9000004be000205be00240798004e
:1050200004a020008e3090008482600004202000c4
:10503000848f52004c003a003e299000f40f51003a
:105040000200340043012000332f98000a01be0003
:105050000800be00de0907000a01be001017980014
:10506000211798008002eb000800be003517980059
:105070000003eb00be2e900046179800402f9800ca
:10508000512f9800622f9800732f98001e149000e3
:10509000ae1490003e159000ce1590000900370028
:1050a0000800be000a01be00a40020000500200088
:1050b0006033b8008d06e900d3fb07000205be008f
:1050c0000004be00e00f5400e08f5c00e00f5d00c4
:1050d000e08f5d000b003200a400200005002000de
:1050e0006033b8000800be000a01be00cffb070015
:1050f000e00f5000e08f5800e00f5900e08f59009a
:10510000e7ff320018179800291798003a179800ff
:105110004b1798001e4078003d2f98004e2c9000b1
:10512000de2c90006e2d9000fe2d90000002fb0002
:10513000848f56000c003d00eed2900005405000d8
:10514000e6fc07000203be000002be000a01be002a
:105150000800be00aa0807006ed39000064f780032
:105160000004be000205be00ae2b90003e28900059
:105170006582530000025200242f9800e00f500077
:1051800004003a00048020008e3090000482600009
:10519000030032002e2990000201e900222f98001e
:1051a0008e31900063826100030032002e2a90004d
:1051b0000402e900242f98008e329000648262007d
:1051c00050003200628362003c029000e182620083
:1051d000e00f5300160032000404b2000800320051
:1051e0001c037800b4c2b300e08f5200010032000b
:1051f00004c2e800044b7800060ee80008003700ff
:10520000b0022000e08f5200010032000080e80070
:105210008c00780069070700e10f40002d00320084
:105220001e3390000603e800163798002900370067
:10523000e08f5200270032000404b2000500320063
:105240009c02780004c2b300844a7800050ee8008e
:10525000050037008c007800000220005707070087
:10526000e10f40001b0032009e3390008703e800ee
:1052700017379800170037003c0090000004b20078
:10528000040032001c0078000d487800000ee80091
:105290000d0037004437980055379800263798009e
:1052a000373798008c007800000320004307070080
:1052b0004e329000de3290002e339000be339000cc
:1052c000e10f4000010032000a05e8008904e9000e
:1052d000050037000802be000a03be00ae2c900095
:1052e0001e3590000dc3b300e08f5400e2ff3c0078
:1052f000292f98001a3798000404be000605be0046
:10530000530037000e3090006802600023003a001e
:10531000170037003c0090000004b2000400320087
:105320001c0078000d487800000ee8000d003700e2
:10533000443798005537980026379800373798003b
:105340008c007800000220001c0707004e329000fd
:10535000de3290002e339000be339000e10f40000b
:10536000010032000a05e8008904e9000500370061
:105370000802be000a03be00ae2c90001e3590004d
:105380000dc2b300e08f5400e2ff3c00292f9800cb
:105390001a3798000404be000605be008e30900047
:1053a0003c02900062836000e1826000e00f5300e5
:1053b000160032000404b200080032001c0378001a
:1053c000b4c2b300e08f52000100320004c2e80012
:1053d000044b7800060ee80008003700b0022000f9
:1053e000e08f5200010032000080e8008c0078005d
:1053f000f2060700e10f4000150032001e31900058
:105400000201e8001237980011003700e08f5200c7
:105410000f0032000404b200050032009c02780044
:1054200004c2b300844a7800050ee8000500370086
:105430008c00780000022000e0060700e10f400029
:10544000030032009e3190008301e800133798007a
:105450000800be000a01be00dd0807008002eb0064
:105460000003eb00351f98003c029000101f9800cd
:10547000211f9800461f98000404b2009e02fb0002
:10548000860f520011003200432add00a5dc210006
:10549000848242001c0478001e189000ae18900010
:1054a0003e199000ce1990005503be004502be0083
:1054b000d5fa07000043b000004c7800080ee80061
:1054c000e04f500012003a0014003700432add007c
:1054d000a5dc2100848242001e189000ae189000c6
:1054e0003e199000ce1990005503be004502be0043
:1054f000c5fa07008c007800040320000002420077
:1055000004007800ad060700e10f40000300320000
:105510009e3390008703e800173798001e02fb00b7
:10552000c322dd00a4dc2100050242001e18900009
:10553000ae1890003e199000ce1990005403be00a2
:105540004402be00b9fa0700be2c9000402f98001c
:10555000512f9800622f9800732f9800e08f54000d
:1055600004003a00048020000e359000040265001b
:10557000760032003c0290000404b20005003200c4
:105580009c027800e4c2b300844a7800050ee8006b
:10559000050037008c007800e00220008706070035
:1055a000e10f4000030032009e3590008b05e800bb
:1055b0001b3798008e3690001e4578000d20b200f3
:1055c000a9dc210044003700e08f56000c003200b7
:1055d0004e289000de2890006e299000fe29900051
:1055e000e00f5000e08f5800e00f5900e08f5900a5
:1055f00003003a00004feb000004eb004e003700c0
:105600003c0290008502fb000404b200110032004d
:10561000c32add00858244001c0478005503be00c7
:105620004502be004e289000de2890006e299000b2
:10563000fe29900074fa070005c3b300054240003c
:10564000044c7800080ee800e04f520011003a00c8
:1056500013003700c32add00858244004e289000e5
:10566000de2890006e299000fe2990005503be00b0
:105670004502be0064fa07008c0078000403200095
:1056800000024200040078004c060700e10f4000d1
:10569000030032001e3390000603e800163798001e
:1056a0001e02fb004322dd00048244004e289000cd
:1056b000de2890006e299000fe2990005403be0061
:1056c0004402be0059fa0700402f9800512f98005d
:1056d000622f9800732f98001e4278008442e900e0
:1056e000054f7800e04f5200b7ff3a000a02fb0076
:1056f000be2a9000048452000f0037003c02900044
:105700000404b200040032001c027800094a780048
:10571000040ee800050037008c007800000320002c
:1057200026060700e10f4000010032000a05e800ec
:105730000804e900020037001e35900009c3b300d9
:10574000e00f5400edff3a001a3798008e329000b7
:105750003c0290000502b200100032000404b200c6
:10576000050032009c02780054c4b300844a7800db
:10577000050ee800050037008c007800500420007a
:105780000e060700e10f4000130032001e339000a8
:105790000603e800163798000f0037000404b20033
:1057a000050032009c02780054c6b300844a780099
:1057b000050ee800050037008c0078005006200038
:1057c000fe050700e10f4000030032009e33900009
:1057d0008703e800173798002e029000bc02900063
:1057e000e00f520013003d000402ea002407980075
:1057f000050278000404b200050032009c02780023
:10580000d4c2b300844a7800050ee80005003700d2
:105810008c007800d0022000e8050700e10f40006e
:10582000140032001e3490000804e8001837980075
:1058300010003700050278000404b20005003200b1
:105840001c027800b9c2b300094a7800040ee800cf
:10585000050037008c007800b0022000d705070053
:10586000e10f4000030032001e3590000a05e800f9
:105870001a3798003c0290002e0090000404b200f9
:105880000b0032009c027800a40020000bc3b30080
:10589000110009000400d8000b424000844a78003f
:1058a000050ee800e04f520009003a000b003700f7
:1058b000a4002000110009000400d8008c0078002a
:1058c0000003b000bd050700e10f400003003200f7
:1058d0001e3090000000e800103798003c02900055
:1058e0002e0090000404b2000b0032009c027800ed
:1058f000a400200002c3b300110009000400d80076
:1059000002c24000844a7800050ee800e04f5200d1
:105910000a003a000c003700a40020001100090022
:105920000400d80000032000010040008c00780033
:10593000a2050700e10f4000030032009e319000f5
:105940008301e800133798008e329000688262006d
:105950008f0532002e2b9000e00f53008c05340091
:105960001e35900008c2b300860478003c02900007
:105970000404b200040032001c027800084a7800d7
:10598000040ee800050037008c00780000022000bb
:105990008a050700e10f4000010032000a05e80017
:1059a0008904e900f1ff3a0078053700e08f5600de
:1059b00004003d00be2b90000d82ea00848343006a
:1059c000372f98000800be000a01be004f070700ed
:1059d0000802be00402f9800512f9800622f9800b7
:1059e000732f98000a03be00a1dc21000040eb00e9
:1059f000542798006527980076279800072f98006d
:105a00000c0037003102be003103be004e2c900066
:105a1000de2c90006e2d9000fe2d90000440e100e1
:105a200005c8e10006d0e10007d8e1000300390015
:105a30000040e800f44f5000f2ff3a000002fb0083
:105a40005e249000ee2490007e2590008e2d900024
:105a50003e28900004005000302f9800f80f5000ae
:105a600009003c006ed0900047fa07000002be001b
:105a70000203be000800be000a01be00d9050700ef
:105a80000004be000205be006ed0900093fa07002d
:105a90000002be000203be004e289000de289000e7
:105aa0006e299000fe2990005427980065279800e1
:105ab00076279800072f98006b0707000002be00aa
:105ac0000203be000800be000a01be002508070050
:105ad0000002be000203be005e209000ee20900097
:105ae0007e2190008e299000a90707000707070074
:105af0000802be000a03be00be2e9000442f98008c
:105b0000552f9800662f9800772f98000205be0049
:105b10000004be00090037000800be000a01be00f4
:105b2000a4002000050020006033b8008d06e900c5
:105b300035f907000205be000004be00e08f5600e4
:105b400019003200a4002000050020006033b800d6
:105b50000800be000a01be0034f90700e00f500043
:105b6000e08f5800e00f5900e08f5900eaff320043
:105b70000d003700be2a9000f88f52000f003c0045
:105b80000540780000fa07000002be000203be00d4
:105b90000800be000a01be00920507000004be0016
:105ba0000205be00050037004e2c9000de2c900050
:105bb0006e2d9000fe2d90003d2f9800ae069000b7
:105bc000e98f560011003c006022b8006033b80035
:105bd0000800be000a01be0063060700e00f500087
:105be0002c0032000800be000a01be00c7060700f4
:105bf000e00f5000e08f5800e00f5900e08f59008f
:105c000024003a00e18f56002200340004002000f6
:105c100005002e00b6e02200170124005e18900057
:105c2000ee1890007e1990008e219000ea05070082
:105c3000e00f500002003d00f386560001003700df
:105c4000f28656002d0798004e40900023fa070078
:105c50000002be000203be000800be00541f9800f0
:105c6000651f9800761f9800072798000a01be005c
:105c70006044b8006055b800e1050700a3060700be
:105c8000402f9800512f9800622f9800732f980092
:105c9000110037000800be000a01be009b06070085
:105ca000402f9800512f9800622f9800732f980072
:105cb000ed0607000002be000203be000800be00a1
:105cc0000a01be00a70707000002eb0024079800a6
:105cd0000004be000205be000802be000a03be00aa
:105ce00021dd210010c0b30014279800252798005b
:105cf00036279800472798000c0037003104be0073
:105d00003105be004e2a9000de2a90006e2b9000d6
:105d1000fe2b90000820e10009a8e1000ab0e10094
:105d20000bb8e100030039000040e800f44f5000d8
:105d3000f2ff3a00ae2a90002e0290003e2b900017
:105d4000048252008e339000860252001e2490007e
:105d5000ae2490003e259000ce2590000002fb006e
:105d6000004f780004825200242f98000480200005
:105d7000048263005427980002003a00e00f5300a9
:105d8000030032002e2890000000e900202f980028
:105d90008e30900063826000030032002e29900054
:105da0000201e900222f98008e3190006482610088
:105db0005100320062826100e1826100e00f520016
:105dc000170032003c0290000404b20008003200c8
:105dd0001c037800b4c2b300e08f5200010032000f
:105de00004c2e800044b7800060ee8000800370003
:105df000b0022000e08f5200010032000080e80075
:105e00008c0078006d040700e10f40002e00320086
:105e10001e3290000402e800143798002a00370070
:105e2000e08f5200280032003c0290000404b200cf
:105e3000050032009c02780004c2b300844a780056
:105e4000050ee800050037008c00780000022000f5
:105e50005a040700e10f40001b0032009e32900000
:105e60008502e80015379800170037003c009000c5
:105e70000004b200040032001c0078000d487800d5
:105e8000000ee8000d0037004437980055379800a1
:105e900026379800373798008c00780000032000e0
:105ea000460407004e329000de3290002e33900000
:105eb000be339000e10f4000010032000a05e80007
:105ec0008904e900050037000802be000a03be008d
:105ed000ae2c90001e3590000dc3b300e08f54002f
:105ee000e2ff3c00292f98001a3798000404be00f6
:105ef0000605be00810037000e3390006802630083
:105f000023003a00170037003c0090000004b20064
:105f1000040032001c0078000d487800000ee800f4
:105f20000d00370044379800553798002637980001
:105f3000373798008c007800000220001f0407000b
:105f40004e329000de3290002e339000be3390002f
:105f5000e10f4000010032000a05e8008904e90071
:105f6000050037000802be000a03be00ae2c9000f8
:105f70001e3590000dc2b300e08f5400e2ff3c00dc
:105f8000292f98001a3798000404be000605be00a9
:105f90008e33900062826300e1826300e00f520062
:105fa000170032003c0290000404b20008003200e6
:105fb0001c037800b4c2b300e08f5200010032002d
:105fc00004c2e800044b7800060ee8000800370021
:105fd000b0022000e08f5200010032000080e80093
:105fe0008c007800f5030700e10f40004300320009
:105ff0001e3090000000e800103798003f00370086
:10600000e08f52003d0032003c0290000404b200d8
:10601000050032009c02780004c2b300844a780074
:10602000050ee800050037008c0078000002200013
:10603000e2030700e10f4000300032009e30900084
:106040008100e800113798002c0037003c029000d6
:106050008502fb000404b20011003200a2dc210022
:10606000c32add00850241009c0678005503be006e
:106070004502be000800be000a01be00e2f70700ac
:10608000a4002000050020006033b800e7f70700f7
:1060900004c3b300844e40000d0ee8001300370027
:1060a000a6dc2100c32add00850243000800be00f3
:1060b0000a01be005503be004502be00d2f707002c
:1060c000a4002000050020006033b800d7f70700c7
:1060d0008c007800040320000002420004007800d5
:1060e000b6030700e10f40000e0032009e3390001f
:1060f0008703e800173798000a0037000800be0041
:106100000a01be004e2c9000de2c90006e2d9000f7
:10611000fe2d900010279800212798003227980024
:10612000432798001e4278008442e900054f78001a
:10613000e04f5200c5ff3a00190037003c009000c4
:106140000004b200040032001c0078000d48780002
:10615000000ee8000d0037004437980055379800ce
:1061600026379800373798008c007800000320000d
:10617000920307004e329000de3290002e339000e2
:10618000be339000e10f4000010032008904e800b6
:106190002e0090000000e90020079800080037005a
:1061a0001e249000ae2490003e259000ce25900045
:1061b0000802be009e3490000dc3b3000a03be0067
:1061c0002e009000e00f5000dcff3c0019379800d3
:1061d0000605be000404be00be289000f28f5000e9
:1061e0000300340024c1b300044f780002003700dc
:1061f0006ed19000024f78009e427800be29900038
:106200000502fb0084865100e0cf520003003a00f3
:106210005e229000e00f5200100032003c0290001d
:106220000404b200050032009c027800e4c2b3000e
:10623000844a7800050ee800050037008c007800dd
:10624000e00220005d030700e10f40000300320080
:106250009e3290008502e800153798001e407800b5
:106260009ef807000002be000203be000800be0048
:106270000a01be00a9dc2100c505070023050700af
:106280001e359000402f9800512f9800622f9800e3
:10629000732f980039003700bc0290000402fb0005
:1062a0000504b200120032004322dd0004824400e3
:1062b0001c0478005403be004402be004e28900027
:1062c000de2890006e299000fe2990000bc3b300d9
:1062d0004df70700a4002000050020006033b8003f
:1062e00052f707000b4c4000080ee800140037007e
:1062f0004322dd00048244004e289000de289000f6
:106300006e299000fe2990005403be004402be0096
:106310003df70700a4002000050020006033b8000e
:1063200042f707008c0078000403200000024200be
:106330000400780021030700e10f40000100320053
:106340000a05e8001e02fb004322dd00048244002f
:106350004e289000de2890006e299000fe299000c3
:106360005403be004402be0030f70700402f9800df
:10637000512f9800622f9800732f98009e4278004a
:106380000542e900044f7800e0cf5200c2ff3a0016
:106390000f0037003c0290000404b20004003200f9
:1063a0001c027800084a7800040ee8000500370057
:1063b0008c0078000003200000030700e10f40007c
:1063c000010032008904e8008d06e900030037006f
:1063d0001a37980008c3b3008a047800e08f56008b
:1063e000ecff3a008e329000193798006882620004
:1063f000e70232002e2b9000e00f5300e40234003d
:106400001e35900008c2b300860478003c0290005c
:106410000404b200040032001c027800084a78002c
:10642000040ee800050037008c0078000002200010
:10643000e2020700e10f4000010032000a05e80017
:106440008904e900f1ff3a00d00237000e329000d3
:10645000040cb2003f003a008e339000e08f5300ee
:1064600005003d001e2890004005be004004be000f
:10647000102f9800100037008e309000708260005e
:10648000120032001e2a90004401be00020f980044
:10649000130f9800142f9800140290004fa2de00f2
:1064a000240f9800340f98000e0c90009e0c900062
:1064b0002e0d9000be0d9000482f9800592f980087
:1064c0006a2f98007b2f98000b0037009e2c9000bd
:1064d0004902780004007800cf80de0001017800d6
:1064e00082017800192f9800402f9800512f9800b2
:1064f000622f9800732f98004e2a9000de2a900099
:106500006e2b9000fe2b9000e00f5200e08f5a009f
:10651000e00f5b00e08f5b0034003d008e329000a6
:106520004e2c9000de2c90006e2d9000fe2d9000e1
:106530003500b300053798006022b8006033b8001a
:106540000804520089845a000a055b008b855b00b1
:10655000220037008e349000e08f540005003d008b
:106560001e2a90004401be004400be00142f980073
:106570000e0037000e3390007002630010003200ee
:106580001e2d90004a04be00650798004807980039
:1065900059079800750798004e009000de009000a3
:1065a0006e019000fe0190001a2f9800402f980075
:1065b000512f9800622f9800732f98000b0037001e
:1065c0009e28900041027800112f98000404780062
:1065d000090020000a0020000b002000482f98002e
:1065e000592f98006a2f98007b2f9800be2c90009e
:1065f000e08f54000d003a001a0020004e28900051
:10660000de2890006e299000fe2990003a2f980015
:10661000e00f5000e08f5800e00f5900e08f590064
:10662000020032008000eb00312f98000e31900004
:1066300004042000020cb20052279800840f51007d
:106640003400320003003c00e00f5100080032002b
:106650004800370004082000de219000848f51009c
:1066600014003200040c2000848f510041003a00d5
:1066700021dd210010c0b3003102be003103be0095
:106680004e2c9000de2c90006e2d9000fe2d900080
:106690000440e10005c8e10006d0e10007d8e100b0
:1066a000330039000040e800f44f5000f2ff3a0098
:1066b0002f00370010c0b3000401200005002000a7
:1066c0006033b8004e2c9000de2c90006e2d9000b0
:1066d000fe2d90000440e10005c8e10006d0e10075
:1066e00007d8e10022003900490020000402d00050
:1066f0008582d2000683d2008783d2008904e90014
:10670000faff3a000040e800f04f5000edff3a0079
:106710001700370010c0b3008400200005002000df
:106720006033b8004e2c9000de2c90006e2d90004f
:10673000fe2d90000440e10005c8e10006d0e10014
:1067400007d8e1000a003900390020000402d00017
:106750008582d2000683d2008783d2008904e900b3
:10676000faff3a000040e800f54f5000edff3a0014
:10677000004f78001e02fb003e2d90008a0f520051
:1067800002003d000a4f780004003700be2d900043
:10679000848f550001003d00342f98002e28900072
:1067a000e00f5000050032008e30900063826000e0
:1067b000020032000000e900202f980004002400ad
:1067c0000e3190000402610009003200ae299000f1
:1067d0003e2a9000848f51000300340084815100d0
:1067e000232f9800020037008002eb00252f98002d
:1067f000448c20000e339000840263004408b100f2
:10680000848f520006003a00ae2b9000e08f5300b8
:10681000110032008703e900272f98000e0037008f
:10682000048c20000e349000840264000404b10043
:10683000848f520008003a00ae2c9000e28f540082
:10684000030034008984e900292f980002003700f2
:106850000005eb002a2f98008005eb001e02fb00cc
:106860001b2798002e289000840f5000020034004f
:1068700004025000142798008e309000648260005b
:106880007400320062826000e1826000e00f52001a
:10689000170032003c0290000404b20008003200ed
:1068a0001c037800b4c2b300e08f52000100320034
:1068b00004c2e800044b7800060ee8000800370028
:1068c000b0022000e08f5200010032000080e8009a
:1068d0008c007800b9010700e10f4000460032004b
:1068e0001e3190000201e800123798004200370084
:1068f000e08f5200110032003c0290000404b2000c
:10690000050032009c02780004c2b300844a78007b
:10691000050ee800050037008c007800000220001a
:10692000a6010700e10f4000330032009e319000c5
:106930008301e800133798002f003700048c2000f3
:106940000e339000840263000404b100848f52006f
:1069500029003a003c0290000404b2000500320015
:106960009c02780004c3b300844a7800050ee80056
:10697000050037008c007800000320008f0107001d
:10698000e10f4000030032009e3390008703e800cf
:10699000173798003c0290000e3390000404b200b8
:1069a0000602b200e00f5200080032009c0278009c
:1069b00084c7b300e00f53000100320084c5b30068
:1069c000844a7800050ee8000800370080072000a0
:1069d000e00f530001003200800520008c00780099
:1069e00076010700e10f4000030032001e349000e2
:1069f0000804e800183798009e249000e08f5400a7
:106a00009f0032001e35900008c3b3003c02900086
:106a10000404b200040032001c027800084a780026
:106a2000040ee800050037008c0078000003200009
:106a300062010700e10f4000010032000a05e80092
:106a40008904e900f1ff3a00192798001a379800e5
:106a50008b0037001e259000e00f55001700320014
:106a60008e3590006882650014003a008a04780030
:106a70001e35900008c2b3003c0290000404b2002e
:106a8000040032001c027800084a7800040ee80076
:106a9000050037008c007800000220004701070045
:106aa000e10f4000010032000a05e8008904e90016
:106ab000f1ff3a00192798001a3798000e3090001d
:106ac00062026000e1026000e00f52001700320035
:106ad0003c0290000404b200080032001c0378005d
:106ae000b4c2b300e08f52000100320004c2e800db
:106af000044b7800060ee80008003700b0022000c2
:106b0000e08f5200010032000080e8008c00780025
:106b10002a010700e10f4000160032009e3090006d
:106b20008100e8001137980012003700e08f520012
:106b3000100032003c0290000404b2000500320054
:106b40009c02780004c2b300844a7800050ee80075
:106b5000050037008c0078000002200017010700b4
:106b6000e10f4000030032001e3190000201e800f6
:106b700012379800048c20008e31900084826100ce
:106b80000408b100848f520011003a003c029000ca
:106b90000404b200050032009c02780004c3b30074
:106ba000844a7800050ee800050037008c00780064
:106bb0000003200001010700e10f40003000320017
:106bc0001e3290000402e800143798002c003700b1
:106bd00004882000848f520029003a003c02900073
:106be0000404b200050032009c02780004c3b30024
:106bf000844a7800050ee800050037008c00780014
:106c000000032000ed000700e10f40000300320008
:106c10009e3290008502e800153798003c029000f3
